:100000000C9435000C945D000C945D000C945D0024
:100010000C945D000C94E60F0C945D000C945D0054
:100020000C945D000C945D000C945D000C945D00DC
:100030000C945D000C945D000C94F2110C945D0026
:100040000C945D000C945D000C94561E0C94821E62
:100050000C945D000C94D1010C945D000C945D0037
:100060000C945D000C945D000F1F11241FBECFEF98
:10007000D8E0DEBFCDBF12E0A0E0B1E0E2EBF4E4F7
:1000800002C005900D92A03AB107D9F725E0A0EA89
:10009000B2E001C01D92A433B207E1F710E0C5E35E
:1000A000D0E004C02197FE010E940C22C433D10786
:1000B000C9F70E94E3000C9457220C940000CF93E0
:1000C000DF93CDB7DEB72A970FB6F894DEBF0FBE29
:1000D000CDBF0E9422119A83898389819A810197D9
:1000E00021F089819A81039711F40E947813898104
:1000F0009A81019711F50E945F0E0E94CD1C0E940B
:10010000041DDC01CB018B839C83AD83BE830E94E5
:10011000151DDC01CB018F839887A987BA872F81B2
:10012000388549855A858B819C81AD81BE81BC0112
:10013000CD010E94E81A0E941C140E9449102A96C0
:100140000FB6F894DEBF0FBECDBFDF91CF910895FB
:10015000CF93DF9300D0CDB7DEB70E9480140E940A
:100160006B020E9422119A83898389819A81019767
:1001700021F089819A81039711F40E94DB020F908C
:100180000F90DF91CF910895CF93DF9300D0CDB73B
:10019000DEB70E9422119A83898389819A8101970F
:1001A00021F089819A81039711F40E942F010F9009
:1001B0000F90DF91CF910895CF93DF93CDB7DEB746
:1001C000DF91CF910895CF93DF93CDB7DEB70E9433
:1001D000F80F78949091CE0281E0992309F480E0A1
:1001E000882321F01092CE020E945F009091CF02EE
:1001F00081E0992309F480E0882321F01092CF0256
:100200000E94A8009091D00281E0992309F480E037
:10021000882321F01092D0020E94C4009091D10254
:1002200081E0992309F480E0882321F01092D10223
:100230000E94DC00CFCFCF93DF93CDB7DEB78CE742
:1002400090E020E4FC0120838AE790E02FE8FC01A5
:10025000208381E080930601DF91CF910895CF93B1
:10026000DF93CDB7DEB79091060181E0892788231F
:1002700009F01AC0109206011092A8028CE790E0D3
:100280002CE730E0F9012081322F307F20E02F7001
:10029000232BFC0120838AE790E02AE730E0F90174
:1002A00020812064FC012083DF91CF910895CF93BA
:1002B000DF93CDB7DEB780910601DF91CF9108952E
:1002C000CF93DF9300D01F92CDB7DEB79B838A8395
:1002D0008A819B81892BF1F0198219C08981882F2D
:1002E00090E0880F991F2A813B81820F931F2981FB
:1002F000222F30E0220F331F20563D4FF90120817D
:100300003181FC013183208389818F5F89838981D9
:10031000843020F30F900F900F90DF91CF910895CC
:10032000CF93DF93CDB7DEB78091A802882F90E0FE
:1003300028E730E0F90120813181880F991F80562C
:100340009D4FFC01318320838091A8028F5F8093B1
:10035000A8028091A8028430F0F48CE790E02CE7AA
:1003600030E0F9012081422F407F2091A802222F06
:1003700030E027533E4FF90120812F70242BFC01E0
:1003800020838AE790E02AE730E0F90120812064A9
:10039000FC01208303C081E080930601DF91CF91AF
:1003A00008951F920F9200905F000F9211242F93D7
:1003B0003F934F935F936F937F938F939F93AF93ED
:1003C000BF93EF93FF93CF93DF93CDB7DEB70E9438
:1003D0009001DF91CF91FF91EF91BF91AF919F91EC
:1003E0008F917F916F915F914F913F912F910F90DE
:1003F00000925F000F901F901895CF93DF931F928C
:10040000CDB7DEB789838981809307010F90DF9193
:10041000CF910895CF93DF93CDB7DEB780910701D9
:10042000DF91CF910895CF93DF931F92CDB7DEB7C1
:1004300089838981809308010F90DF91CF9108957E
:10044000CF93DF93CDB7DEB780910801DF91CF91D5
:100450000895CF93DF931F92CDB7DEB7898389814B
:10046000809309010F90DF91CF910895CF93DF938F
:10047000CDB7DEB780910901DF91CF910895CF9379
:10048000DF931F92CDB7DEB78983898180930A01FC
:100490000F90DF91CF910895CF93DF93CDB7DEB763
:1004A00080910A01DF91CF910895CF93DF931F923E
:1004B000CDB7DEB7898389818093AE020F90DF913B
:1004C000CF910895CF93DF93CDB7DEB78091AE0281
:1004D000DF91CF9108950F931F93CF93DF93CDB703
:1004E000DEB763970FB6F894DEBF0FBECDBF0E9494
:1004F000B01D9E838D838D819E810C9708F450C022
:100500008BE00E94E11D8F838F810E94F51D8D304D
:1005100009F043C0198212C08981082F10E0898137
:100520000E94E11D0E94F51D282FCE010896800F24
:10053000911FFC01208389818F5F898389818C30A1
:1005400058F31C821A8210C08A81882F90E09E0185
:10055000285F3F4F820F931FFC0180819C81890F90
:100560008C838A818F5F8A838A818A3068F39A8933
:100570008C81981779F41B8205C00E94651D8B81C0
:100580008F5F8B838B818C30C0F3CE0108960E94E5
:10059000EE1505C00E94651D02C00E94651DA7CF13
:1005A00063960FB6F894DEBF0FBECDBFDF91CF913B
:1005B0001F910F910895CF93DF93CDB7DEB7809150
:1005C000AF029091B0020A969093B0028093AF026E
:1005D0008091B1029091B2020A969093B2028093F8
:1005E000B1028091B3029091B4020A969093B40242
:1005F0008093B3028091B5029091B6020A969093CF
:10060000B6028093B5028091B7029091B8020A9623
:100610009093B8028093B70280910701882361F01C
:100620008091AF029091B002449730F01092B002E6
:100630001092AF020E94600380910801882361F04C
:100640008091B1029091B202449730F01092B202C0
:100650001092B1020E94BD0380910901882361F0CC
:100660008091B3029091B402449730F01092B4029A
:100670001092B3020E94C80480910A01882361F09D
:100680008091B5029091B602449730F01092B60274
:100690001092B5020E945C058091AE02882369F039
:1006A0008091B7029091B8028436910530F0109293
:1006B000B8021092B7020E94CB05DF91CF91089546
:1006C000CF93DF9300D000D000D0CDB7DEB71A8231
:1006D0008AEA0E947E1D8A8186558A830E9457017C
:1006E000882321F089EB92E00E946001198224C0E6
:1006F0008981882F90E0880F991F87549D4FFC01B6
:10070000808191819C838B838B818D838B819C8164
:10071000892F99278E838D810E947E1D9A818D81DC
:10072000890F8A838E810E947E1D9A818E81890F16
:100730008A8389818F5F898389818430C8F280911F
:10074000A9020E947E1D8091A9029A81890F8A8345
:100750008A810E947E1D8DE00E947E1D8091A902EB
:100760008F5F8F708093A90226960FB6F894DEBF34
:100770000FBECDBFDF91CF910895CF93DF93CDB75B
:10078000DEB764970FB6F894DEBF0FBECDBF1A82F6
:1007900019820E948C179C838B830E9498179E83DA
:1007A0008D830E94A41798878F838F819885CC01B1
:1007B000A0E0B0E00196A11DB11D880F991FAA1FEE
:1007C000BB1F880F991FAA1FBB1F880F991FAA1F45
:1007D000BB1F9C01AD0180E094E2A4EFB0E0BC013E
:1007E000CD010E94DF21DA01C9019A8789878F81B3
:1007F0009885CC01A0E0B0E0BC01CD010E94AB2007
:10080000DC01CB0124EA30E74DE75FE3BC01CD0119
:100810000E946221DC01CB01BC01CD010E947C2041
:10082000DC01CB019C018B819C818217930708F529
:100830008F819885CC01A0E0B0E0BC01CD010E9481
:10084000AB20DC01CB0124EA30E74DE75FE3BC01DC
:10085000CD010E946221DC01CB01BC01CD010E94CF
:100860007C20DC01CB019C018D819E818217930746
:1008700018F083E089831FC08B819C81892B21F034
:100880008B819C810B9740F08D819E81892B39F063
:100890008D819E810B9718F482E089830CC08B8137
:1008A0009C81892B31F48D819E81892B11F41982D1
:1008B00002C081E0898382EA0E947E1D8A818E5572
:1008C0008A838B818B878B819C81892F99278C8749
:1008D0008B850E947E1D9A818B85890F8A838C85EA
:1008E0000E947E1D9A818C85890F8A838D818D87D8
:1008F0008D819E81892F99278E878D850E947E1DEF
:100900009A818D85890F8A838E850E947E1D9A81AA
:100910008E85890F8A8389810E947E1D9A818981B3
:10092000890F8A8389858F8789859A85892F992759
:10093000888B8F850E947E1D9A818F85890F8A837F
:1009400088890E947E1D9A818889890F8A8380E028
:100950000E947E1D8091AA020E947E1D8091AA02A3
:100960009A81890F8A838A810E947E1D8DE00E9470
:100970007E1D8091AA028F5F8F708093AA02649679
:100980000FB6F894DEBF0FBECDBFDF91CF910895B3
:10099000CF93DF93CDB7DEB72C970FB6F894DEBFB9
:1009A0000FBECDBF1A8283EA0E947E1D8A818D55BB
:1009B0008A830E94C3189C838B830E9407198D83AE
:1009C0000E94F1188E838B819C81892F99278F83B8
:1009D0008B81888788850E947E1D9A818885890FF2
:1009E0008A838F810E947E1D9A818F81890F8A83DD
:1009F0008D81882F90E0092E000CAA0BBB0BBC0147
:100A0000CD010E94AD20DC01CB0120E030E040E2CE
:100A100051E4BC01CD010E946221DC01CB01BC018B
:100A2000CD010E947C20DC01CB019A8789878985D2
:100A30008B8789859A85892F99278C878B850E943A
:100A40007E1D9A818B85890F8A838C850E947E1DED
:100A50009A818C85890F8A838E810E947E1D9A815E
:100A60008E81890F8A83198206C080E00E947E1DD4
:100A700089818F5F898389818330B8F38091AB024C
:100A80000E947E1D8091AB029A81890F8A838A81A0
:100A90000E947E1D8DE00E947E1D8091AB028F5FC3
:100AA0008F708093AB022C960FB6F894DEBF0FBE0A
:100AB000CDBFDF91CF910895CF93DF93CDB7DEB750
:100AC00027970FB6F894DEBF0FBECDBF1A8284EA17
:100AD0000E947E1D8A818C558A8384E10E94140FB6
:100AE0008B8385E10E94140F8C838B810E947E1D75
:100AF0009A818B81890F8A838C810E947E1D9A81C5
:100B00008C81890F8A830E941D198D838D810E949B
:100B10007E1D9A818D81890F8A8383E10E94140F43
:100B20008E838E810E947E1D9A818E81890F8A8399
:100B30000E9422118F838F810E947E1D9A818F8156
:100B4000890F8A83198206C080E00E947E1D8981F8
:100B50008F5F898389818330B8F38091AC020E94D2
:100B60007E1D8091AC029A81890F8A838A810E94BE
:100B70007E1D8DE00E947E1D8091AC028F5F8F7084
:100B80008093AC0227960FB6F894DEBF0FBECDBFA0
:100B9000DF91CF910895CF93DF93CDB7DEB76F97F5
:100BA0000FB6F894DEBF0FBECDBF0E940C0F8A8730
:100BB0001F82198220C08981282F30E04DE0429F9A
:100BC000C001439F900D11248E5E9E4FFC018081D9
:100BD000882371F08F8191E0980F9F83882F90E098
:100BE0009E012C5E3F4F820F931F2981FC012083C1
:100BF00089818F5F898399818A859817E0F28F8137
:100C0000882341F5188685EA0E947E1D88858B55CC
:100C100088871B8206C080E00E947E1D8B818F5FCB
:100C20008B838B818830B8F38091AD020E947E1D4A
:100C30008091AD029885890F888788850E947E1DE6
:100C40008DE00E947E1D8091AD028F5F8F7080933A
:100C5000AD02A8C08F81882F90E001969695879568
:100C60008B871A829AC0198685EA0E947E1D898523
:100C70008B5589871C8275C08A81982F990F8C812A
:100C8000890F8C879C858F81981708F05CC08C85B4
:100C9000882F90E09E012C5E3F4F820F931FFC0136
:100CA00080818D878D85282F30E04DE0429FC001E7
:100CB000439F900D1124835F9E4FFC0180819181A1
:100CC000A281B3818E879F87A88BB98B8D85282FB2
:100CD00030E04DE0429FC001439F900D11248E5E95
:100CE0009E4FFC0180818A8B82E08D8321C08D81A3
:100CF000082E000C990B9C01220F331F220F331F6B
:100D0000220F331F8E859F85A889B98904C0B695A7
:100D1000A795979587952A95D2F78B8B8B890E94FB
:100D20007E1D99858B89890F89878D8181508D835F
:100D30008D818823E4F68A890E947E1D99858A899F
:100D4000890F89870BC01E8206C080E00E947E1D2D
:100D50008E818F5F8E838E818430B8F38C818F5F1C
:100D60008C838C81823008F487CF8091AD020E9401
:100D70007E1D8091AD029985890F898789850E94A2
:100D80007E1D8DE00E947E1D8091AD028F5F8F7071
:100D90008093AD028A818F5F8A839A818B859817B1
:100DA00008F461CF6F960FB6F894DEBF0FBECDBFCB
:100DB000DF91CF910895CF92DF92EF92FF920F9340
:100DC0001F93CF93DF93CDB7DEB72C970FB6F89470
:100DD000DEBF0FBECDBF9C838B830E94A4179A8376
:100DE00089830E948C179C0140E050E084E690E0EB
:100DF000DC010E9401227B018C0189819A819C0186
:100E000040E050E0C801B7010E94DF21DA01C901CA
:100E1000282F8B819C81FC0120838B819C818C01FC
:100E20000F5F1F4F0E9498179C0140E050E084E63E
:100E300090E0DC010E9401226B017C0189819A8192
:100E40009C0140E050E0C701B6010E94DF21DA01B9
:100E5000C901F80180832C960FB6F894DEBF0FBE4F
:100E6000CDBFDF91CF911F910F91FF90EF90DF9059
:100E7000CF900895CF93DF9300D0CDB7DEB79A839C
:100E8000898389819A81FC0180810E94B0178981C0
:100E90009A810196FC0180810E94C6170F900F90E5
:100EA000DF91CF910895CF93DF93CDB7DEB70E9446
:100EB000DB18882311F080E001C082E2DF91CF913E
:100EC0000895CF93DF9300D000D0CDB7DEB79C83D9
:100ED0008B830E94A4179A83898329818B819C81AB
:100EE000FC0120838B819C81019629813A81232FEB
:100EF0003327FC0120830F900F900F900F90DF910C
:100F0000CF910895CF93DF9300D000D0CDB7DEB757
:100F10009C838B838B819C810196FC018081882F2F
:100F200090E0382F22278B819C81FC018081882FC3
:100F300090E0822B932B9A83898389819A810E94E6
:100F400047170F900F900F900F90DF91CF9108955A
:100F5000CF93DF9300D0CDB7DEB79A8389830E9409
:100F6000C318282F89819A81FC0120830F900F904C
:100F7000DF91CF910895CF93DF9300D0CDB7DEB747
:100F80009A83898389819A81FC018081882F90E0EE
:100F90000E94B1180F900F90DF91CF910895CF93D9
:100FA000DF9300D0CDB7DEB79A8389830E94DB1828
:100FB000282F89819A81FC0120830F900F90DF9167
:100FC000CF910895CF93DF9300D0CDB7DEB79A834A
:100FD000898389819A81FC01908181E0992309F4B8
:100FE00080E00E94CE180F900F90DF91CF9108956E
:100FF000CF93DF9300D0CDB7DEB79A83898384E1A6
:101000000E94140F282F89819A81FC0120830F9060
:101010000F90DF91CF910895CF93DF9300D0CDB79C
:10102000DEB79A83898389819A81FC0180810E943D
:1010300030140F900F90DF91CF910895CF93DF93ED
:1010400000D0CDB7DEB79A83898385E10E94140F63
:10105000282F89819A81FC0120830F900F90DF91C6
:10106000CF910895CF93DF9300D0CDB7DEB79A83A9
:10107000898389819A81FC0180810E9444140F90A8
:101080000F90DF91CF910895CF93DF9300D0CDB72C
:10109000DEB79A8389830E946202282F89819A8110
:1010A000FC0120830F900F90DF91CF910895CF9393
:1010B000DF9300D0CDB7DEB79A83898389819A8187
:1010C000FC0180810E9455020F900F90DF91CF911B
:1010D0000895CF93DF9300D0CDB7DEB79A8389838D
:1010E0000E943602282F89819A81FC0120830F906B
:1010F0000F90DF91CF910895CF93DF9300D0CDB7BC
:10110000DEB79A83898389819A81FC0180810E945C
:1011100029020F900F90DF91CF910895CF93DF9325
:1011200000D0CDB7DEB79A8389830E942002282F92
:1011300089819A81FC0120830F900F90DF91CF91DC
:101140000895CF93DF9300D0CDB7DEB79A8389831C
:1011500089819A81FC0180810E9413020F900F9077
:10116000DF91CF910895CF93DF9300D0CDB7DEB755
:101170009A8389830E944C02282F89819A81FC01DD
:1011800020830F900F90DF91CF910895CF93DF933D
:1011900000D0CDB7DEB79A83898389819A81FC011B
:1011A00080810E943F020F900F90DF91CF910895B0
:1011B000CF93DF9300D0CDB7DEB79A8389830E94A7
:1011C0000A02282F89819A81FC0120830F900F90B9
:1011D000DF91CF910895CF93DF9300D0CDB7DEB7E5
:1011E0009A83898389819A81FC0180810E94FD0113
:1011F0000F900F90DF91CF910895CF93DF9300D0A0
:10120000CDB7DEB79A83898389819A81FC01908169
:1012100081E0992309F480E00E9458140F900F9008
:10122000DF91CF910895CF93DF93CDB7DEB781E003
:1012300090E090930C0180930B01DF91CF91089582
:10124000CF93DF9300D01F92CDB7DEB79B838A8305
:101250008A819B81892B09F43EC08A819B81FC0194
:10126000808189838981882F90E089319105D1F02F
:101270008A31910534F48131910561F0449779F018
:1012800025C08E329105C1F081339105D1F082974E
:1012900071F01CC08A819B810E9471091CC00E9450
:1012A000970919C08A819B810E94A60914C08A816E
:1012B0009B810E94C3090FC08A819B810E94D00A32
:1012C0000AC062E181E30E94BF0C05C061E189812F
:1012D0000E94BF0C00000F900F900F90DF91CF91F4
:1012E0000895CF93DF9300D01F92CDB7DEB79B83D5
:1012F0008A838A819B81FC018181898389818230F3
:1013000061F441E0CE010196BC0181E10E946B0CC9
:1013100081E090E00E940A1104C062E181E10E9434
:10132000BF0C0F900F900F90DF91CF910895CF9346
:10133000DF93CDB7DEB70E94BD0E40E060E070E005
:1013400084E10E946B0CDF91CF910895CF93DF93DE
:1013500000D01F92CDB7DEB79B838A838A819B81A1
:10136000FC01818189838981823019F40E94030FF5
:1013700004C062E189E10E94BF0C0F900F900F90B2
:10138000DF91CF910895CF93DF93CDB7DEB7639709
:101390000FB6F894DEBF0FBECDBF9B8B8A8B1B822E
:1013A0008A899B890196FC018081882F90E0382FE3
:1013B00022278A899B890296FC018081882F90E0F0
:1013C000822B932B9D838C831982D4C08981282FF3
:1013D00030E04FE0429FC001439F900D11248353A2
:1013E0009E4FFC01208131818C819D812817390716
:1013F00009F0BDC08A899B89FC0181818A878A891D
:101400009B89FC0182818B878981282F30E04FE006
:10141000429FC001439F900D11248C529E4FFC01AE
:1014200080819181892BA1F08981282F30E04FE0C4
:10143000429FC001439F900D11248C529E4FFC018E
:1014400020813181CE010A960296F901099575C075
:101450008981282F30E04FE0429FC001439F900DCB
:10146000112488529E4FFC0180819181892B09F4BF
:1014700064C08981282F30E04FE0429FC001439F24
:10148000900D112480539E4FFC0180819181019722
:10149000D9F48981282F30E04FE0429FC001439F5B
:1014A000900D112488529E4FFC0180819181FC0196
:1014B000808191819F838E838E818C878E819F8195
:1014C000892F99278D8739C08981282F30E04FE0F7
:1014D000429FC001439F900D112488529E4FFC01F2
:1014E00080819181998788871A8217C08A81882F85
:1014F00090E002962A81222F30E048855985240FFA
:10150000351FF90140819E01265F3F4F820F931FD7
:10151000FC0140838A818F5F8A838981282F30E094
:101520004FE0429FC001439F900D112481539E4F75
:10153000FC0190818A818917C8F28981282F30E0C7
:101540004FE0429FC001439F900D112481539E4F55
:10155000FC01808122E0280FCE010A96422FBC01B7
:1015600082E20E946B0C81E08B83000007C08981BE
:101570008F5F898389818C3008F428CF9B8181E03B
:101580008927882321F061E382E20E94BF0C6396E1
:101590000FB6F894DEBF0FBECDBFDF91CF91089597
:1015A000CF93DF93CDB7DEB764970FB6F894DEBF65
:1015B0000FBECDBF9C8B8B8B1B828B899C89019628
:1015C000FC018081882F90E0382F22278B899C890D
:1015D0000296FC018081882F90E0822B932B9D83C3
:1015E0008C830E942211049751F48C819D818A3052
:1015F000914029F062E28EE20E94BF0C63C1198221
:1016000054C18981282F30E04FE0429FC001439FA1
:10161000900D112483539E4FFC01208131818C81D8
:101620009D812817390709F03DC18981282F30E0B5
:101630004FE0429FC001439F900D11248E529E4F58
:10164000FC01808191810197A9F08981282F30E0E8
:101650004FE0429FC001439F900D11248E529E4F38
:10166000FC0180819181029729F062E28EE20E9462
:10167000BF0C28C18981282F30E04FE0429FC00174
:10168000439F900D112486529E4FFC0180819181D1
:10169000892BD1F08981282F30E04FE0429FC00193
:1016A000439F900D112486529E4FFC0180819181B1
:1016B000FC0109958E838E81882331F06E818EE244
:1016C0000E94BF0C0000FEC08981282F30E04FE04F
:1016D000429FC001439F900D11248A529E4FFC01EE
:1016E00080819181892BA1F08981282F30E04FE002
:1016F000429FC001439F900D11248A529E4FFC01CE
:10170000208131818B899C890396F901099582C0DA
:101710008981282F30E04FE0429FC001439F900D08
:10172000112488529E4FFC0180819181892B09F4FC
:1017300071C08981282F30E04FE0429FC001439F54
:10174000900D112480539E4FFC018081918101975F
:1017500041F58B899C890496FC018081882F90E05B
:10176000382F22278B899C890396FC018081882F42
:1017700090E0822B932B98878F838981282F30E0EC
:101780004FE0429FC001439F900D112488529E4F0D
:10179000FC01808191812F813885FC013183208378
:1017A00039C08981282F30E04FE0429FC001439F1C
:1017B000900D112488529E4FFC01808191819A875F
:1017C00089871A8217C08A81882F90E029853A85F7
:1017D000820F931F2A81222F30E02D5F3F4F4B89CC
:1017E0005C89240F351FF9012081FC0120838A8147
:1017F0008F5F8A838981282F30E04FE0429FC001AC
:10180000439F900D112481539E4FFC0190818A814A
:101810008917C8F28B899C89FC0181818B878B8910
:101820009C89FC0182818C878981282F30E04FE0E0
:10183000429FC001439F900D11248C529E4FFC018A
:1018400080819181892BA1F08981282F30E04FE0A0
:10185000429FC001439F900D11248C529E4FFC016A
:1018600020813181CE010B960296F901099501C0C4
:101870001D868981282F30E04FE0429FC001439FA1
:10188000900D112481539E4FFC01808122E0280F8E
:10189000CE010B96422FBC018EE20E946B0C81E0C0
:1018A0008B8307C089818F5F898389818C3008F49D
:1018B000A8CE9B8181E08927882321F061E38EE215
:1018C0000E94BF0C64960FB6F894DEBF0FBECDBF6A
:1018D000DF91CF910895CF93DF93CDB7DEB72897EF
:1018E0000FB6F894DEBF0FBECDBF8D837F836E83AE
:1018F00048871B828D81805C8C838C810E947E1D39
:101900009B818C81890F8B8319821AC08981882FD2
:1019100090E02E813F81820F931FFC0180810E9405
:101920007E1D8981882F90E02E813F81820F931F39
:10193000FC0180819B81890F8B8389818F5F8983E3
:1019400099818885981710F388858A8306C080E07E
:101950000E947E1D8A818F5F8A838A818930B8F3D5
:101960008B810E947E1D8DE00E947E1D28960FB601
:10197000F894DEBF0FBECDBFDF91CF910895CF9316
:10198000DF9300D000D0CDB7DEB78B836C831A8293
:101990008FE70E947E1D8A8181588A838B810E94F5
:1019A0007E1D9A818B81890F8A838C810E947E1D86
:1019B0009A818C81890F8A83198206C080E00E94F7
:1019C0007E1D89818F5F898389818730B8F38A8101
:1019D0000E947E1D8DE00E947E1D0F900F900F9043
:1019E0000F90DF91CF910895CF93DF931F92CDB7E2
:1019F000DEB7198238C08981282F30E04DE0429F40
:101A0000C001439F900D11248F5E9E4FFC011082F8
:101A10008981282F30E04DE0429FC001439F900D07
:101A200011248E5E9E4FFC0110828981282F30E0A8
:101A30004DE0429FC001439F900D11248D5E9E4F4B
:101A4000FC0110828981282F30E04DE0429FC001C7
:101A5000439F900D11248C5E9E4FFC0111821082D9
:101A600089818F5F898389818C3028F20F90DF9183
:101A7000CF910895CF93DF93CDB7DEB72A970FB6F6
:101A8000F894DEBF0FBECDBF89876A87CE0101966D
:101A90000E9460018A85823091F48985882F90E0C8
:101AA000880F991F9E012F5F3F4F820F931FFC01EC
:101AB00080819181892B09F061C081E060C08A85B5
:101AC000813099F48985882F90E0880F991F9E01B5
:101AD0002F5F3F4F820F931FFC01808191818F3FC9
:101AE000934009F04BC081E04AC08A85833011F5EC
:101AF0008985882F90E0880F991F9E012F5F3F4FA7
:101B0000820F931FFC01808191818B329340B0F151
:101B10008985882F90E0880F991F9E012F5F3F4F86
:101B2000820F931FFC01808191818F3F934031F19F
:101B300081E025C08A85843009F58985882F90E069
:101B4000880F991F9E012F5F3F4F820F931FFC014B
:101B5000808191818039914088F48985882F90E037
:101B6000880F991F9E012F5F3F4F820F931FFC012B
:101B700080819181892B11F081E001C080E02A965B
:101B80000FB6F894DEBF0FBECDBFDF91CF910895A1
:101B9000CF93DF93CDB7DEB72B970FB6F894DEBFA8
:101BA0000FBECDBF9A8789876B8789859A85892BD8
:101BB00009F47CC08B85882309F44DC089859A85FA
:101BC000FC018681843650F489859A85FC018681E2
:101BD00021E0280F89859A85FC01268389859A85CD
:101BE000FC018481882329F489859A8521E0FC0100
:101BF000248389859A85FC018481813009F056C04F
:101C000089859A85FC018681843608F44FC08985D0
:101C10009A8522E0FC01248389859A8522E0FC01D3
:101C20002583CE0101960E94600189859A85FC0179
:101C30008185882F90E0880F991F9E012F5F3F4F6D
:101C4000820F931FFC012081318189859A85FC01D7
:101C5000308727832BC089859A85FC01868188235C
:101C600059F089859A85FC0186812FEF280F898597
:101C70009A85FC0126831AC089859A85FC01848196
:101C8000823051F489859A85FC01148289859A8570
:101C900021E0FC0125830AC089859A85FC018481A5
:101CA000813021F489859A85FC0114822B960FB628
:101CB000F894DEBF0FBECDBFDF91CF910895CF93D3
:101CC000DF9300D0CDB7DEB719824EC01A8289816A
:101CD000282F30E04DE0429FC001439F900D11241A
:101CE000895E9E4FFC0180819181892B61F1898100
:101CF000282F30E04DE0429FC001439F900D1124FA
:101D0000895E9E4FFC01208131818981482F50E0FE
:101D10006DE0649FC001659F900D1124875E9E4F0A
:101D2000FC0170818981482F50E06DE0649FC00103
:101D3000659F900D11248A5E9E4FFC018081672F64
:101D4000F90109958A838981282F30E04DE0429F6F
:101D5000C001439F900D1124835F9E4F6A810E94B2
:101D6000C80D89818F5F898389818C3008F4AECF5B
:101D70000F900F90DF91CF910895CF93DF931F9233
:101D8000CDB7DEB7198238C08981282F30E04DE009
:101D9000429FC001439F900D11248F5E9E4FFC0116
:101DA00010828981282F30E04DE0429FC001439F7F
:101DB000900D11248E5E9E4FFC0110828981282F88
:101DC00030E04DE0429FC001439F900D11248D5E95
:101DD0009E4FFC0110828981282F30E04DE0429F08
:101DE000C001439F900D11248C5E9E4FFC01118217
:101DF000108289818F5F898389818C3028F20F90CE
:101E0000DF91CF910895CF93DF93CDB7DEB70E94D6
:101E1000CB05DF91CF910895CF93DF93CDB7DEB798
:101E20008CE0DF91CF910895CF93DF9300D000D065
:101E3000CDB7DEB78C8319828C8182958F708A83AF
:101E40008C818F708B838A818823A9F483E290E050
:101E5000FC018081882F90E02B81222F30E002C08E
:101E6000969587952A95E2F781709927892BD1F06D
:101E700081E0898317C08A818130A1F489E290E0F2
:101E8000FC018081882F90E02B81222F30E002C05E
:101E9000969587952A95E2F781709927892B11F0FD
:101EA00081E0898389810F900F900F900F90DF91CF
:101EB000CF910895CF93DF9300D000D0CDB7DEB798
:101EC0008B836C838B8182958F7089838B818F70DC
:101ED0008A838981882361F58C818130A1F485E230
:101EE00090E025E230E0F90160812A81422F50E044
:101EF00021E030E002C0220F331F4A95E2F7262B83
:101F0000FC01208343C085E290E025E230E0F90146
:101F100060812A81422F50E021E030E002C0220F90
:101F2000331F4A95E2F720952623FC0120832EC01B
:101F30008981813059F58C818130A1F48BE290E068
:101F40002BE230E0F90160812A81422F50E021E04C
:101F500030E002C0220F331F4A95E2F7262BFC0126
:101F6000208314C08BE290E02BE230E0F901608125
:101F70002A81422F50E021E030E002C0220F331FBF
:101F80004A95E2F720952623FC0120830F900F90BD
:101F90000F900F90DF91CF910895CF93DF93CDB73E
:101FA000DEB788E690E028E630E0F9012081246081
:101FB000FC0120838DE690E02DE630E0F9012081E0
:101FC0002460FC012083DF91CF9108951F920F922E
:101FD00000905F000F921124CF93DF93CDB7DEB74F
:101FE000DF91CF910F9000925F000F901F90189596
:101FF000CF93DF931F92CDB7DEB70E9422160E94C7
:10200000CD0F0E94C81482E10E94140F982F81E026
:10201000913009F080E089830E94F40C0E94F01452
:102020000E94311560E071EE80E090E00E94261D74
:102030000E9413090E941B010E945C110E94EE176E
:102040000E945F1687E00E94AE1E789489818823E3
:1020500039F081E090E09093C2028093C10215C0F4
:1020600060E080E00E94E91660E084E10E945A0F7F
:1020700060E085E10E945A0F84E090E09093C202F4
:102080008093C10281E08093C5020F90DF91CF91D0
:102090000895EF92FF920F931F93CF93DF93CDB7E5
:1020A000DEB78091C1029091C2028230910561F148
:1020B0008330910530F4009709F4A4C0019749F0EA
:1020C00099C08330910509F444C0049709F476C09F
:1020D00091C00E94D21E8091C3029091C402892BAC
:1020E00039F082E090E09093C2028093C1020BC06D
:1020F0008091C502882339F082E090E09093C2027B
:102100008093C10280C07FC00E94DA1E60E080E040
:102110000E94E91660E084E10E945A0F60E085E1C8
:102120000E945A0F0E94A4158091C3029091C4028C
:10213000019719F40E94EC1E0BC08091C502882300
:1021400039F083E090E09093C2028093C1025BC0BB
:102150005AC09091C50281E08927882351F087E019
:102160000E94AE1E81E090E09093C2028093C10273
:1021700024C02091CA023091CB024091CC025091F0
:10218000CD028091C6029091C702A091C802B09181
:10219000C90279018A01E81AF90A0A0B1B0BD80156
:1021A000C70180319742A105B10538F084E090E085
:1021B0009093C2028093C10226C025C00FB6F89446
:1021C000A895809160008861809360001092600003
:1021D0000FBE9091C50281E08927882351F087E0E6
:1021E0000E94AE1E81E090E09093C2028093C102F3
:1021F0000AC009C081E090E09093C2028093C102BE
:10220000000001C00000DF91CF911F910F91FF905E
:10221000EF900895CF93DF9300D0CDB7DEB79A83C8
:1022200089838091C1029091C202019731F4898122
:102230009A819093C4028093C3020F900F90DF9114
:10224000CF910895CF93DF93CDB7DEB78091C102D0
:102250009091C202DF91CF910895CF93DF93CDB7D4
:10226000DEB78091C1029091C2020197C9F49091AA
:10227000C50281E08927882399F081E08093C50217
:102280008091CA029091CB02A091CC02B091CD0274
:102290008093C6029093C702A093C802B093C9026C
:1022A000DF91CF910895CF93DF93CDB7DEB7109232
:1022B000C502DF91CF910895CF93DF93CDB7DEB7FD
:1022C00084E490E022E0FC01208387E490E029EFA1
:1022D000FC01208385E490E023E0FC0120838EE66E
:1022E00090E022E0FC012083DF91CF910895CF930D
:1022F000DF93CDB7DEB78091CA029091CB02A09157
:10230000CC02B091CD020196A11DB11D8093CA02ED
:102310009093CB02A093CC02B093CD02DF91CF91EA
:102320000895CF93DF93CDB7DEB78091D20290911D
:10233000D30201969093D3028093D2028091D4026B
:102340009091D50201969093D5028093D40280910A
:10235000D6029091D70201969093D7028093D6022D
:102360008091D8029091D90201969093D9028093DE
:10237000D8028091D2029091D3020A9738F010923D
:10238000D3021092D20281E08093CE028091D402D7
:102390009091D502C29738F01092D5021092D402D3
:1023A00081E08093CF028091D6029091D70284364B
:1023B000910538F01092D7021092D60281E08093F6
:1023C000D0028091D8029091D902843F914038F098
:1023D0001092D9021092D80281E08093D102DF914D
:1023E000CF9108951F920F9200905F000F921124D9
:1023F0002F933F934F935F936F937F938F939F930D
:10240000AF93BF93EF93FF93CF93DF93CDB7DEB737
:102410000E9477110E949111DF91CF91FF91EF916E
:10242000BF91AF919F918F917F916F915F914F91EC
:102430003F912F910F9000925F000F901F90189581
:10244000CF92DF92EF92FF92CF93DF9300D000D034
:1024500000D0CDB7DEB79A8389834B835C836D83CD
:102460007E8389819A818E5B9F4FFC01808191815F
:10247000A281B38129813A81205C3F4FF9012081FB
:10248000222F30E049815A81220F331F220F331F40
:10249000240F351FF9012081318142815381BC0114
:1024A000CD010E94981FDC01CB0129813A812E5B6E
:1024B0003F4FF90180839183A283B38389819A81FD
:1024C000805C9F4FFC018081882F90E029813A81B8
:1024D000880F991F880F991F280F391F8B819C81A6
:1024E000AD81BE81F90180839183A283B383898109
:1024F0009A818E5B9F4FFC0180819181A281B38183
:102500002B813C814D815E81BC01CD010E94991FD0
:10251000DC01CB0129813A812E5B3F4FF901808399
:102520009183A283B38389819A81805C9F4FFC0150
:1025300080818F5F282F2F7089819A81805C9F4FC7
:10254000FC01208389819A818F5B9F4FFC018081F0
:10255000803170F489819A818F5B9F4FFC0180816B
:1025600021E0280F89819A818F5B9F4FFC01208396
:1025700089819A818E5B9F4FFC01C080D180E2806F
:10258000F38089819A818F5B9F4FFC018081882F26
:1025900090E0A0E0B0E0BC01CD010E94AB20DC01E6
:1025A000CB019C01AD01C701B6010E940A20DC01EC
:1025B000CB01BC01CD0126960FB6F894DEBF0FBE4D
:1025C000CDBFDF91CF91FF90EF90DF90CF90089536
:1025D000CF93DF9300D000D000D0CDB7DEB79E837D
:1025E0008D838D819E81CC01A0E0B0E0BC01CD0146
:1025F0000E94AB20DC01CB0120E030EC4FE754E43B
:10260000BC01CD010E940A20DC01CB0120E030E0BA
:1026100040EA50E4BC01CD010E946221DC01CB0103
:1026200089839A83AB83BC8320E030E040E250E4AE
:1026300069817A818B819C810E94981FDC01CB018A
:1026400022E03BE247E85DE3BC01CD010E940A20A5
:10265000DC01CB01BC01CD0126960FB6F894DEBF9C
:102660000FBECDBFDF91CF910895CF93DF9300D000
:1026700000D000D0CDB7DEB79E838D838D819E8143
:10268000CC01A0E0B0E0BC01CD010E94AB20DC0198
:10269000CB0120E030EC4FE754E4BC01CD010E94B7
:1026A0000A20DC01CB0120E030E040EA50E4BC012C
:1026B000CD010E946221DC01CB0189839A83AB8327
:1026C000BC8320E030E040E451E469817A818B8171
:1026D0009C810E946221DC01CB01BC01CD012696C8
:1026E0000FB6F894DEBF0FBECDBFDF91CF91089536
:1026F000CF93DF93CDB7DEB7A8970FB6F894DEBFC0
:102700000FBECDBF0E945701882309F48CC0CE01B3
:1027100081960E94600189A19AA10E94E812DC01C1
:10272000CB0189839A83AB83BC8389819A81AB81F6
:10273000BC81AC01BD018AED92E00E942012DC0157
:10274000CB018D839E83AF83B8878D819E81AF81BE
:10275000B885BC01CD010E94F9178BA19CA10E94F4
:102760003513DC01CB0189879A87AB87BC878985C4
:102770009A85AB85BC85AC01BD0180E293E00E94E7
:102780002012DC01CB018D879E87AF87B88B8D85AA
:102790009E85AF85B889BC01CD010E9427188DA107
:1027A0009EA10E94E812DC01CB01898B9A8BAB8B36
:1027B000BC8B89899A89AB89BC89AC01BD0186E64D
:1027C00093E00E942012DC01CB018D8B9E8BAF8B9E
:1027D000B88F8D899E89AF89B88DBC01CD010E94CB
:1027E00055188FA198A50E943513DC01CB01898F64
:1027F0009A8FAB8FBC8F898D9A8DAB8DBC8DAC01C0
:10280000BD018CEA93E00E942012DC01CB018D8F88
:102810009E8FAF8FB8A38D8D9E8DAF8DB8A1BC015B
:10282000CD010E948318A8960FB6F894DEBF0FBEA4
:10283000CDBFDF91CF910895CF93DF9300D0CDB777
:10284000DEB70E94BD1789830E94D3178A836A81ED
:1028500089810E94E9160F900F90DF91CF91089522
:10286000CF93DF931F92CDB7DEB789838981882309
:1028700011F081E001C080E0682F84E10E945A0FCE
:102880000F90DF91CF910895CF93DF931F92CDB733
:10289000DEB789838981882311F081E001C080E05F
:1028A000682F85E10E945A0F0F90DF91CF91089514
:1028B000CF93DF931F92CDB7DEB789838981809351
:1028C000F20389818093F30383E08093F403898189
:1028D000882311F081E001C080E0682F83E10E942D
:1028E0005A0F89810E9410198981882319F00E944A
:1028F000531102C00E942D110F90DF91CF910895C6
:10290000CF93DF931F92CDB7DEB782E10E94140F01
:10291000982F81E0913009F080E089838091F30362
:102920009981981751F48091F403833060F4809179
:10293000F4038F5F8093F40306C089818093F303CF
:1029400081E08093F4038091F4038330E8F0809178
:10295000F20399819817C1F089818093F2038981EC
:10296000882311F081E001C080E0682F83E10E949C
:102970005A0F89810E9410198981882319F00E94B9
:10298000531102C00E942D110F90DF91CF91089535
:10299000CF93DF931F92CDB7DEB782E10E94140F71
:1029A000982F81E0913009F080E0898389818093BC
:1029B000F30389818093F20383E08093F403898198
:1029C000882311F081E001C080E0682F83E10E943C
:1029D0005A0F89810E9410190F90DF91CF910895AD
:1029E000CF93DF9300D000D0CDB7DEB780E090E08A
:1029F0000E9429229B838A838A819B818B35954AF9
:102A000049F16BE575EA80E090E00E9441226AEFAF
:102A100070E082E090E00E9441226CE084E090E06F
:102A20000E942F2260E085E090E00E942F220E9409
:102A30000C0F8C8319820AC08981882F90E006963A
:102A400060E00E942F2289818F5F898399818C8128
:102A5000981790F30F900F900F900F90DF91CF91F8
:102A60000895CF93DF93CDB7DEB727970FB6F894CD
:102A7000DEBF0FBECDBF82E090E00E9429229B8383
:102A80008A8384E090E00E9421228C8385E090E09C
:102A90000E942122982F81E0992309F480E08D8300
:102AA0008A819B81019621F484E690E09B838A834E
:102AB0008C818F3F11F48CE08C838A819B810E94F2
:102AC000DC178C81882F90E00E94B1188D810E94C4
:102AD000CE180E940C0F8E83198229C08981882FFD
:102AE00090E006960E9421228F838981282F30E072
:102AF0004DE0429FC001439F900D11248E5E9E4F7A
:102B00002F81FC0120838F81882371F08981282FF8
:102B100030E04DE0429FC001439F900D11248F5E35
:102B20009E4F22E0FC01208389818F5F89839981F8
:102B30008E81981798F227960FB6F894DEBF0FBED5
:102B4000CDBFDF91CF910895CF93DF9300D0CDB764
:102B5000DEB76BE575EA80E090E00E9441220E94BA
:102B6000EE17BC0182E090E00E9441220E94C3184F
:102B7000682F84E090E00E942F220E94DB188823B7
:102B800011F081E001C080E0682F85E090E00E94B4
:102B90002F220E940C0F8A83198217C08981282F47
:102BA00030E04DE0429FC001439F900D11248E5EA6
:102BB0009E4FFC0120818981882F90E00696622F2C
:102BC0000E942F2289818F5F898399818A8198173A
:102BD00028F30F900F90DF91CF910895CF93DF935B
:102BE00000D01F92CDB7DEB79B838A838A819B81F9
:102BF000892B11F18A819B81FC01808189838981E4
:102C0000882F90E08931910591F08A31910534F453
:102C10008131910561F0449751F00EC08E329105DB
:102C200031F08133910519F0829709F005C08A814E
:102C30009B810E94200900000F900F900F90DF9160
:102C4000CF910895CF93DF93CDB7DEB784E290E0C4
:102C500024E230E0F90120812660FC0120838AE231
:102C600090E02AE230E0F90120812063FC0120831A
:102C70008BE290E02BE230E0F90120812F7CFC0117
:102C800020838AE290E02AE230E0F90120812B7F64
:102C9000FC0120838AE290E02AE230E0F901208101
:102CA0002860FC0120838BE290E02BE230E0F90108
:102CB0002081277FFC012083DF91CF9108950F931E
:102CC0001F93CF93DF93CDB7DEB728970FB6F89455
:102CD000DEBF0FBECDBF9C838B838B819C81CC01DB
:102CE000A0E0B0E0880F991FAA1FBB1F880F991F93
:102CF000AA1FBB1F880F991FAA1FBB1F9C01AD01F4
:102D000080E094E2A4EFB0E0BC01CD010E94DF219D
:102D1000DA01C90101979A83898386E890E02981C5
:102D20003A81FC013183208380E890E022EAFC01B3
:102D3000208381E890E02AE1FC01208308E810E08C
:102D400089819A81CC01A0E0B0E0BC01CD010E9454
:102D5000AB20DC01CB0128E431EE4AE75FE3BC01A4
:102D6000CD010E946221DC01CB01BC01CD010E949A
:102D70007C20DC01CB01F801918380830AE810E01C
:102D800089819A81CC01A0E0B0E0BC01CD010E9414
:102D9000AB20DC01CB0128E431EE4AE75FE3BC0164
:102DA000CD010E946221DC01CB01BC01CD010E945A
:102DB0007C20DC01CB01F8019183808328960FB63B
:102DC000F894DEBF0FBECDBFDF91CF911F910F9161
:102DD00008950F931F93CF93DF93CDB7DEB72C9752
:102DE0000FB6F894DEBF0FBECDBF8B836C8386E831
:102DF00090E0FC01808191819A83898308E810E04A
:102E000089819A819C0140E050E08B81882F90E07D
:102E1000A0E0B0E0BC01CD010E94CF21DC01CB01DC
:102E200024E630E040E050E0BC01CD010E94DF210B
:102E3000DA01C901F801918380830AE810E08981F1
:102E40009A819C0140E050E08C81882F90E0A0E0C6
:102E5000B0E0BC01CD010E94CF21DC01CB0124E612
:102E600030E040E050E0BC01CD010E94DF21DA01FA
:102E7000C901F801918380832C960FB6F894DEBFC8
:102E80000FBECDBFDF91CF911F910F9108950F938A
:102E90001F93CF93DF9300D000D000D0CDB7DEB723
:102EA0009A83898389819A81892B59F189819A81B1
:102EB0004F9720F48FE190E09A83898306E810E031
:102EC00089819A81CC01A0E0B0E0880F991FAA1FE8
:102ED000BB1F880F991FAA1FBB1F880F991FAA1F0E
:102EE000BB1F9C01AD0180E094E2A4EFB0E0BC0107
:102EF000CD010E94DF21DA01C9010197F801918318
:102F0000808326960FB6F894DEBF0FBECDBFDF914B
:102F1000CF911F910F910895CF93DF93CDB7DEB777
:102F200088E890E0FC0180819181DF91CF91089544
:102F3000CF93DF93CDB7DEB78AE890E0FC018081C4
:102F40009181DF91CF910895CF93DF93CDB7DEB715
:102F500086E890E0FC0180819181DF91CF91089516
:102F6000CF93DF931F92CDB7DEB78983898180939A
:102F7000F5030F90DF91CF910895CF93DF93CDB7F5
:102F8000DEB78091F503DF91CF910895CF93DF9362
:102F90001F92CDB7DEB7898389818093F6030F90A6
:102FA000DF91CF910895CF93DF93CDB7DEB78091B6
:102FB000F603DF91CF910895CF93DF9300D0CDB783
:102FC000DEB79A83898389819A819093F8038093ED
:102FD000F7030F900F90DF91CF910895CF93DF9378
:102FE000CDB7DEB78091F7039091F803DF91CF91D1
:102FF0000895CF93DF9300D000D0CDB7DEB76983BB
:103000007A838B839C8389819A81AB81BC818093F5
:10301000F9039093FA03A093FB03B093FC030F9082
:103020000F900F900F90DF91CF910895CF93DF9382
:10303000CDB7DEB78091F9039091FA03A091FB031D
:10304000B091FC03BC01CD01DF91CF910895CF93E6
:10305000DF9300D000D0CDB7DEB769837A838B834E
:103060009C8389819A81AB81BC818093FD0390937D
:10307000FE03A093FF03B09300040F900F900F90F6
:103080000F90DF91CF910895CF93DF93CDB7DEB747
:103090008091FD039091FE03A091FF03B091000485
:1030A000BC01CD01DF91CF910895CF93DF9300D084
:1030B00000D0CDB7DEB769837A838B839C83898107
:1030C0009A81AB81BC818093010490930204A09308
:1030D0000304B09304040F900F900F900F90DF91B2
:1030E000CF910895CF93DF93CDB7DEB780910104E0
:1030F00090910204A0910304B0910404BC01CD019D
:10310000DF91CF910895CF93DF9300D000D0CDB75A
:10311000DEB769837A838B839C8389819A81AB81B3
:10312000BC818093050490930604A0930704B09398
:1031300008040F900F900F900F90DF91CF9108959A
:10314000CF93DF93CDB7DEB780910504909106044D
:10315000A0910704B0910804BC01CD01DF91CF918B
:103160000895CF93DF9300D0CDB7DEB79A838983DC
:1031700089819A8190930A04809309040F900F909B
:10318000DF91CF910895CF93DF93CDB7DEB78091D4
:10319000090490910A04DF91CF910895CF93DF93B2
:1031A0001F92CDB7DEB78983898180930B040F907E
:1031B000DF91CF910895CF93DF93CDB7DEB78091A4
:1031C0000B04DF91CF910895CF93DF931F92CDB77A
:1031D000DEB78983898180930C040F90DF91CF91B2
:1031E0000895CF93DF93CDB7DEB780910C04DF91C4
:1031F000CF910895CF93DF931F92CDB7DEB7898328
:10320000898180930D040F90DF91CF910895CF9322
:10321000DF93CDB7DEB780910D04DF91CF91089594
:10322000CF93DF931F92CDB7DEB7898389818093D7
:103230000E040F90DF91CF910895CF93DF93CDB718
:10324000DEB780910E04DF91CF910895CF92DF9287
:10325000EF92FF920F931F93CF93DF93CDB7DEB71B
:10326000A4970FB6F894DEBF0FBECDBF988F8F8B9B
:10327000498F5A8F6B8F7C8F0D8F1E8F2F8F38A3A6
:10328000C9A2DAA2EBA2FCA22D8D3E8D4F8D58A1D2
:10329000698D7A8D8B8D9C8D0E94981FDC01CB01EE
:1032A00089839A83AB83BC838F89988DFC01848D3D
:1032B000958DA68DB78DB05829813A814B815C815F
:1032C000BC01CD010E9405208823ACF48F89988D24
:1032D000FC01848D958DA68DB78D29813A814B8116
:1032E0005C81BC01CD010E945D21181624F4198275
:1032F0001A821B821C828F89988DFC0180819181AA
:10330000A281B38129813A814B815C81BC01CD01CD
:103310000E946221DC01CB018D879E87AF87B88B2D
:103320001D821E821F82188620E030E0A90169A15B
:103330007AA18BA19CA10E945D21181674F58F893A
:10334000988DFC01C084D184E284F3848F89988DA8
:10335000FC0184859585A685B7859C01AD016981B1
:103360007A818B819C810E94981FDC01CB019C019A
:10337000AD01C701B6010E946221DC01CB0129A188
:103380003AA14BA15CA1BC01CD010E940A20DC0145
:10339000CB018D839E83AF83B8872F89388D898138
:1033A0009A81AB81BC81F90184879587A687B7870D
:1033B0008F89988DFC0180899189A289B3892D8597
:1033C0003E854F855889BC01CD010E94991FDC01C3
:1033D000CB012D813E814F815885BC01CD010E94DA
:1033E000991FDC01CB01898B9A8BAB8BBC8B8F89AE
:1033F000988DFC01808D918DA28DB38D29893A899C
:103400004B895C89BC01CD010E940520181674F01F
:1034100020E030E0A90169817A818B819C810E9442
:103420005D2118161CF481E090E002C080E090E07D
:103430008D8B8D8981708D8B8F89988DFC0184890E
:103440009589A689B78929893A894B895C89BC0104
:10345000CD010E945D21882374F020E030E0A901B5
:1034600069817A818B819C810E94052088231CF4CC
:1034700081E090E002C080E090E08E8B8E898170C8
:103480008E8B9D8981E089278823B1F19E8981E017
:103490008927882389F18F89988DFC01C088D1887C
:1034A000E288F3888F89988DFC0184819581A681BB
:1034B000B78129813A814B815C81BC01CD010E9499
:1034C0006221DC01CB0129A13AA14BA15CA1BC0185
:1034D000CD010E946221DC01CB019C01AD01C7013D
:1034E000B6010E94991FDC01CB012F89388DF901AB
:1034F000808B918BA28BB38B8F89988DFC018089F7
:103500009189A289B3892D853E854F855889BC0153
:10351000CD010E94991FDC01CB012D813E814F819D
:103520005885BC01CD010E94991FDC01CB01898720
:103530009A87AB87BC878F89988DFC01808D918D90
:10354000A28DB38D29853A854B855C85BC01CD0163
:103550000E94052088235CF48F89988DFC01808D62
:10356000918DA28DB38D89879A87AB87BC878F8910
:10357000988DFC0184899589A689B78929853A8522
:103580004B855C85BC01CD010E945D2118165CF461
:103590008F89988DFC0184899589A689B789898747
:1035A0009A87AB87BC8789859A85AB85BC85BC012A
:1035B000CD01A4960FB6F894DEBF0FBECDBFDF914C
:1035C000CF911F910F91FF90EF90DF90CF900895D2
:1035D000CF92DF92EF92FF920F931F93CF93DF93DF
:1035E000CDB7DEB7A1970FB6F894DEBF0FBECDBF43
:1035F0006A8F7B8F8C8F9D8F2E8F3F8F48A359A30F
:103600002AE939E949E95EE36A8D7B8D8C8D9D8DD0
:103610000E94981FDC01CB012E8D3F8D48A159A13E
:10362000BC01CD010E9405201816D4F02AE939E921
:1036300049E95EE36A8D7B8D8C8D9D8D0E94991F7B
:10364000DC01CB012E8D3F8D48A159A1BC01CD01DC
:103650000E945D21882324F080E00E94E41813C0BA
:103660002A8D3B8D4C8D5D8D6E8D7F8D88A199A1AE
:103670000E940520882324F481E00E94E41803C0FE
:1036800082E00E94E4180E94DB188B870E94C31816
:103690009D878C878C859D85CC01A0E0B0E0BC0126
:1036A000CD010E94AB20DC01CB018E879F87A88BC8
:1036B000B98B9B8581E08927882309F45FC182E665
:1036C000898382E68A8320E030E040E050E46E8D1A
:1036D0007F8D88A199A10E9405208823ACF482E601
:1036E000898382E68A831092B9011092BA011092FE
:1036F000BB011092BC011092B5011092B60110925C
:10370000B7011092B80134C12AE939E949E95EE309
:103710006A8D7B8D8C8D9D8D0E94981FDC01CB0165
:103720002E853F8548895989BC01CD010E9405201D
:1037300018165CF12AE939E949E95EE36A8D7B8D67
:103740008C8D9D8D0E94991FDC01CB012E853F85BC
:1037500048895989BC01CD010E945D218823ACF0C4
:1037600082E6898382E68A831092B9011092BA01B7
:103770001092BB011092BC011092B5011092B601DB
:103780001092B7011092B801F3C02A8D3B8D4C8D79
:103790005D8D6E857F85888999890E945D211816C7
:1037A0000CF06DC082E689832E8D3F8D48A159A112
:1037B0008E859F85A889B9890F2EFDECCF2EFCEC54
:1037C000DF2EED2CFDE3FF2EF02D89019A01AC01D7
:1037D000BD0189EA91E00E942619DC01CB018A8BA8
:1037E0009B8BAC8BBD8B6A897B898C899D890E9460
:1037F0007C20DC01CB010E94FA182A893B894C8984
:103800005D8960E070E084EC92E40E94981FDC0126
:10381000CB018B839C83AD83BE8320E030E044ECFE
:1038200052E46B817C818D819E810E945D211816FE
:1038300044F480E090E0A4ECB2E48B839C83AD83FD
:10384000BE8320E030E040EA50E46B817C818D81D2
:103850009E810E940520882344F480E090E0A0EA45
:10386000B0E48B839C83AD83BE836B817C818D812F
:103870009E810E947C20DC01CB018A8379C02A8D45
:103880003B8D4C8D5D8D6E857F85888999890E94E1
:10389000052088230CF06CC082E68A832E853F8544
:1038A000488959898E8D9F8DA8A1B9A10F2EFDEC55
:1038B000CF2EFCECDF2EED2CFDE3FF2EF02D890149
:1038C0009A01AC01BD0189EA91E00E942619DC0150
:1038D000CB018E8B9F8BA88FB98F6E897F89888D46
:1038E000998D0E947C20DC01CB010E94FA182E8960
:1038F0003F89488D598D60E070E084EC92E40E942D
:10390000981FDC01CB018F839887A987BA8720E0B5
:1039100030E044EC52E46F81788589859A850E9475
:103920005D21181644F480E090E0A4ECB2E48F83AB
:103930009887A987BA8720E030E040EA50E46F8199
:10394000788589859A850E940520882344F480E043
:1039500090E0A0EAB0E48F839887A987BA876F8147
:10396000788589859A850E947C20DC01CB0189833A
:1039700089810E94B0178A810E94C617A1960FB64E
:10398000F894DEBF0FBECDBFDF91CF911F910F9195
:10399000FF90EF90DF90CF900895CF93DF93CDB756
:1039A000DEB70E941618DC01CB0180930F049093C0
:1039B0001004A0931104B09312040E944418DC0177
:1039C000CB018093130490931404A0931504B09337
:1039D00016040E947218DC01CB01809317049093A7
:1039E0001804A0931904B0931A040E94A018DC01D3
:1039F000CB0180931B0490931C04A0931D04B093EF
:103A00001E04DF91CF910895CF93DF93CDB7DEB73A
:103A10008091130490911404A0911504B0911604A0
:103A2000BC01CD01DF91CF910895CF93DF93CDB746
:103A3000DEB780911B0490911C04A0911D04B091ED
:103A40001E04BC01CD01DF91CF910895CF93DF9388
:103A5000CDB7DEB72A970FB6F894DEBF0FBECDBF45
:103A60006B837C838D839E8380E492E4AFE0B0E03F
:103A70002B813C814D815E81BC01CD010E94DF2103
:103A8000DA01C90101979A83898385EC90E0298145
:103A90003A81232F3327FC01208384EC90E0298195
:103AA000FC01208381EC90E028E9FC01208382EC7A
:103AB00090E026E0FC0120832A960FB6F894DEBF42
:103AC0000FBECDBFDF91CF910895CF93DF931F92AB
:103AD000CDB7DEB780912004882F90E08C549B4FA7
:103AE000FC0180818983809120048F5F8F77809390
:103AF000200489810F90DF91CF910895CF93DF93B8
:103B000000D0CDB7DEB78A83809121048F5F8F7795
:103B1000898300008091220499819817D9F38091BC
:103B20002104882F90E08C5C9B4F2A81FC0120832C
:103B300089818093210480912304882361F481E0AA
:103B40008093230481EC90E021EC30E0F9012081A6
:103B50002062FC0120830F900F90DF91CF91089598
:103B6000CF93DF9300D0CDB7DEB790911F04809143
:103B70002004981778F080911F04282F30E080915E
:103B80002004882F90E0A901481B590BCA019A8391
:103B9000898310C080911F04282F30E08091200479
:103BA000882F90E0A901481B590BCA0180589F4FEC
:103BB0009A83898389819A810F900F90DF91CF91A9
:103BC0000895CF93DF931F92CDB7DEB7898380919D
:103BD0002004282F30E08981882F90E0820F931FE6
:103BE0008F770F90DF91CF910895CF93DF931F923E
:103BF000CDB7DEB789838981882F90E08C549B4FA5
:103C0000FC0180810F90DF91CF910895CF93DF93D6
:103C100000D0CDB7DEB786EC90E0FC0180818983CF
:103C200080911F048F5F8F778A83809120049A810F
:103C3000981761F080911F04882F90E08C549B4F5F
:103C40002981FC0120838A8180931F040F900F90AB
:103C5000DF91CF910895CF93DF93CDB7DEB79091E9
:103C6000210480912204981761F481EC90E021EC0A
:103C700030E0F90120812F7DFC0120831092230484
:103C800012C086EC90E020912204222F30E02C5CC0
:103C90003B4FF9012081FC012083809122048F5F3A
:103CA0008F7780932204DF91CF9108951F920F9216
:103CB00000905F000F9211242F933F934F935F93D7
:103CC0006F937F938F939F93AF93BF93EF93FF93E4
:103CD000CF93DF93CDB7DEB70E94061EDF91CF9161
:103CE000FF91EF91BF91AF919F918F917F916F91D4
:103CF0005F914F913F912F910F9000925F000F9035
:103D00001F9018951F920F9200905F000F92112440
:103D10002F933F934F935F936F937F938F939F93D3
:103D2000AF93BF93EF93FF93CF93DF93CDB7DEB7FE
:103D30000E942B1EDF91CF91FF91EF91BF91AF9128
:103D40009F918F917F916F915F914F913F912F91B3
:103D50000F9000925F000F901F901895CF93DF9304
:103D600000D0CDB7DEB78A838A8189838981882F85
:103D700090E088709927892B11F088E201C088E0D3
:103D800099819770892B982F88E10FB6F894A895A0
:103D9000809360000FBE909360000F900F90DF91B2
:103DA000CF910895CF93DF93CDB7DEB7A895DF917C
:103DB000CF910895CF93DF93CDB7DEB70FB6F894C8
:103DC000A8958091600088618093600010926000E7
:103DD0000FBEDF91CF910895CF93DF93CDB7DEB7BC
:103DE00080E090E088709927892B11F088E201C06B
:103DF00088E090E09770892B982F88E10FB6F894AF
:103E0000A895809360000FBE90936000FFCFEFEF06
:103E1000F0E083E08083608381E090E0089588E2B1
:103E200094E00E94841FE4E2F4E01382128285E8A9
:103E300092E0918380830895CF92DF92EF92FF9278
:103E40000F931F93CF93DF936C017A018B01C0E036
:103E5000D0E0CE15DF0589F0D8016D918D01D60136
:103E6000ED91FC910190F081E02DC6010995892B1F
:103E700011F47E0102C02196ECCFC701DF91CF91F2
:103E80001F910F91FF90EF90DF90CF9008956115F3
:103E9000710579F0FB0101900020E9F73197AF013E
:103EA000461B570BDC01ED91FC910280F381E02D64
:103EB000099480E090E00895DC01ED91FC9101907F
:103EC000F081E02D099469E872E00C94471FFC0131
:103ED00053834283648315820895CF93DF93EC016B
:103EE0008A819B81009769F06F8161110E945C1F3C
:103EF0008C81882331F08A819B81DF91CF910C9452
:103F0000631FDF91CF910895FC018CE992E09183CA
:103F1000808313821282148215821682178282E0B5
:103F200090E0918780878AE090E093878287089568
:103F30005058BB27AA270E94B01F0C9423210E942F
:103F4000152138F00E941C2120F039F49F3F19F40C
:103F500026F40C9412210EF4E095E7FB0C940C214E
:103F6000E92F0E94342158F3BA17620773078407B8
:103F7000950720F079F4A6F50C9456210EF4E095FF
:103F80000B2EBA2FA02D0B01B90190010C01CA0113
:103F9000A0011124FF27591B99F0593F50F4503EBE
:103FA00068F11A16F040A22F232F342F4427585FB0
:103FB000F3CF469537952795A795F0405395C9F7C8
:103FC0007EF41F16BA0B620B730B840BBAF0915080
:103FD000A1F0FF0FBB1F661F771F881FC2F70EC01F
:103FE000BA0F621F731F841F48F4879577956795F2
:103FF000B795F7959E3F08F0B0CF9395880F08F0DE
:104000009927EE0F9795879508950E94E82008F468
:1040100081E008950E941E200C9423210E941C21FF
:1040200058F00E94152140F029F45F3F29F00C94CC
:104030000C2151110C9457210C9412210E9434210F
:1040400068F39923B1F3552391F3951B550BBB27C7
:10405000AA2762177307840738F09F5F5F4F220F0C
:10406000331F441FAA1FA9F335D00E2E3AF0E0E803
:1040700032D091505040E695001CCAF72BD0FE2F4D
:1040800029D0660F771F881FBB1F261737074807E1
:10409000AB07B0E809F0BB0B802DBF01FF27935899
:1040A0005F4F3AF09E3F510578F00C940C210C9430
:1040B00057215F3FE4F3983ED4F386957795679553
:1040C000B795F7959F5FC9F7880F911D96958795CE
:1040D00097F90895E1E0660F771F881FBB1F6217ED
:1040E00073078407BA0720F0621B730B840BBA0BAB
:1040F000EE1F88F7E09508950E943C2188F09F57B5
:1041000098F0B92F9927B751B0F0E1F0660F771FFB
:10411000881F991F1AF0BA95C9F714C0B13091F0F1
:104120000E945621B1E008950C945621672F782FF4
:104130008827B85F39F0B93FCCF3869577956795B6
:10414000B395D9F73EF490958095709561957F4F22
:104150008F4F9F4F0895E89409C097FB3EF49095C8
:104160008095709561957F4F8F4F9F4F9923A9F050
:10417000F92F96E9BB279395F695879577956795DF
:10418000B795F111F8CFFAF4BB0F11F460FF1BC023
:104190006F5F7F4F8F4F9F4F16C0882311F096E9B6
:1041A00011C0772321F09EE8872F762F05C0662364
:1041B00071F096E8862F70E060E02AF09A95660F1D
:1041C000771F881FDAF7880F9695879597F90895D6
:1041D000990F0008550FAA0BE0E8FEEF1616170618
:1041E000E807F907C0F012161306E407F50798F080
:1041F000621B730B840B950B39F40A2661F0232B99
:10420000242B252B21F408950A2609F4A140A69514
:104210008FEF811D811D089597F99F6780E870E0F9
:1042200060E008959FEF80EC089500240A9416162C
:10423000170618060906089500240A941216130694
:10424000140605060895092E0394000C11F4882322
:1042500052F0BB0F40F4BF2B11F460FF04C06F5F3E
:104260007F4F8F4F9F4F089557FD9058440F551F14
:1042700059F05F3F71F04795880F97FB991F61F0E8
:104280009F3F79F087950895121613061406551F5F
:10429000F2CF4695F1DF08C0161617061806991FCB
:1042A000F1CF86957105610508940895E894BB27C0
:1042B00066277727CB0197F908950E94E82008F434
:1042C0008FEF08950E9475210C9423210E941521DF
:1042D00038F00E941C2120F0952311F00C940C2141
:1042E0000C94122111240C9457210E94342170F354
:1042F000959FC1F3950F50E0551F629FF001729F8B
:10430000BB27F00DB11D639FAA27F00DB11DAA1F99
:10431000649F6627B00DA11D661F829F2227B00DE6
:10432000A11D621F739FB00DA11D621F839FA00D71
:10433000611D221F749F3327A00D611D231F849FC1
:10434000600D211D822F762F6A2F11249F57504018
:104350009AF0F1F088234AF0EE0FFF1FBB1F661F93
:10436000771F881F91505040A9F79E3F510580F05C
:104370000C940C210C9457215F3FE4F3983ED4F346
:10438000869577956795B795F795E7959F5FC1F700
:10439000FE2B880F911D9695879597F90895DB015F
:1043A0008F939F930E940122BF91AF91A29F800D96
:1043B000911DA39F900DB29F900D11240895A1E22D
:1043C0001A2EAA1BBB1BFD010DC0AA1FBB1FEE1F8F
:1043D000FF1FA217B307E407F50720F0A21BB30BDA
:1043E000E40BF50B661F771F881F991F1A9469F756
:1043F00060957095809590959B01AC01BD01CF01B2
:1044000008950E941222A59F900DB49F900DA49F25
:10441000800D911D11240895EE0FFF1F0590F4915A
:10442000E02D0994A29FB001B39FC001A39F700D1E
:10443000811D1124911DB29F700D811D1124911DAC
:104440000895F999FECF92BD81BDF89A992780B55C
:104450000895A8E1B0E042E050E00C944922262FF4
:10446000F999FECF92BD81BDF89A019700B402166A
:1044700039F01FBA20BD0FB6F894FA9AF99A0FBE18
:1044800008950196272F0E9430220C942F22DC01E0
:10449000CB01FC01F999FECF06C0F2BDE1BDF89A4F
:1044A000319600B40D9241505040B8F70895F894F9
:0244B000FFCF3C
:1044B2000000340580000101010101010000011A20
:1044C200000000000000003A0D0101011A00000086
:1044D200000000013A0D0102011A00000000000074
:1044E200023A0D0103011A000000000000033A0D18
:1044F2000110011A000000000000003A0D02110133
:104502001A000000000000013A0D0212011A000018
:1045120000000000023A0D0213011A000000000020
:1045220000033A0D0220011A000000000000003AC8
:104532000D0421011A000000000000013A0D0322BF
:10454200011A000000000000023A0D0423011A00C3
:104552000000000000033A0D039A99593F9A9919F5
:104562003ECDCC4C3D00000000000000000000A049
:10457200400000C442CDCC4C3E00010203000102C7
:1045820002000100DB063A070000530701010201A5
:104592000001006107820700000000020101000023
:1045A2000100A807BB070000000003010100000191
:1045B20000CF07E207000000000401010000010033
:1045C200F8070C0800000000050101000001001EB0
:1045D2000832080000000006010100000100440842
:1045E2005708000000000701010000010069087C73
:1045F2000800000000080101000001008E08A10867
:104602000000000009010100000100B308C6080013
:1046120000000010010100000100D808EB080000B2
:1046220000000A0101000002000000FD0800000075
:104632000000000000071F1C1F0D0A006E616E00C3
:10464200696E66006F76660000000000671F6D1FCE
:00000001FF
