:100000000C9435000C945D000C945D000C945D0024
:100010000C945D000C945D000C945D000C945D00EC
:100020000C945D000C945D000C945D000C945D00DC
:100030000C945D000C945D000C94420F0C945D00D8
:100040000C945D000C945D000C947C1A0C94A81A1E
:100050000C945D000C94A1010C945D000C945D0067
:100060000C945D000C945D00DC1A11241FBECFEFD0
:10007000D8E0DEBFCDBF12E0A0E0B1E0ECE4FCE3ED
:1000800002C005900D92AC37B107D9F724E0ACE778
:10009000B2E001C01D92AC3FB207E1F710E0C5E34A
:1000A000D0E004C02197FE010E94D91DC433D107BE
:1000B000C9F70E94B3000C94241E0C940000CF9347
:1000C000DF93CDB7DEB728970FB6F894DEBF0FBE2B
:1000D000CDBF0E94C8100E94F50C0E94F3180E9428
:1000E0002A19DC01CB0189839A83AB83BC830E94EC
:1000F0003B19DC01CB018D839E83AF83B8872D81B3
:100100003E814F81588589819A81AB81BC81BC0138
:10011000CD010E940E170E946C1128960FB6F8941C
:10012000DEBF0FBECDBFDF91CF910895CF93DF9398
:10013000CDB7DEB70E943B020E94AB02DF91CF91A8
:100140000895CF93DF93CDB7DEB70E94FF00DF9114
:10015000CF910895CF93DF93CDB7DEB70E944105CD
:10016000DF91CF910895CF93DF93CDB7DEB70E9493
:10017000740E789490919A0281E0992309F480E0BA
:10018000882321F010929A020E945F0090919B02B6
:1001900081E0992309F480E0882321F010929B02EA
:1001A0000E94960090919C0281E0992309F480E0DE
:1001B000882321F010929C020E94A10090919D0240
:1001C00081E0992309F480E0882321F010929D02B8
:1001D0000E94AA00CFCFCF93DF93CDB7DEB78CE7D5
:1001E00090E020E4FC0120838AE790E02FE8FC0106
:1001F000208381E080930601DF91CF910895CF9312
:10020000DF93CDB7DEB79091060181E0892788237F
:1002100009F01AC010920601109284028CE790E057
:100220002CE730E0F9012081322F307F20E02F7061
:10023000232BFC0120838AE790E02AE730E0F901D4
:1002400020812064FC012083DF91CF910895CF931A
:10025000DF93CDB7DEB780910601DF91CF9108958E
:10026000CF93DF9300D01F92CDB7DEB79B838A83F5
:100270008A819B81892BF1F0198219C08981882F8D
:1002800090E0880F991F2A813B81820F931F29815B
:10029000222F30E0220F331F24583D4FF9012081D7
:1002A0003181FC013183208389818F5F898389813A
:1002B000843020F30F900F900F90DF91CF9108952D
:1002C000CF93DF93CDB7DEB780918402882F90E083
:1002D00028E730E0F90120813181880F991F845887
:1002E0009D4FFC0131832083809184028F5F809336
:1002F0008402809184028430F0F48CE790E02CE753
:1003000030E0F9012081422F407F20918402222F8A
:1003100030E026533E4FF90120812F70242BFC0141
:1003200020838AE790E02AE730E0F9012081206409
:10033000FC01208303C081E080930601DF91CF910F
:1003400008951F920F9200905F000F9211242F9337
:100350003F934F935F936F937F938F939F93AF934D
:10036000BF93EF93FF93CF93DF93CDB7DEB70E9498
:100370006001DF91CF91FF91EF91BF91AF919F917C
:100380008F917F916F915F914F913F912F910F903E
:1003900000925F000F901F901895CF93DF931F92EC
:1003A000CDB7DEB789838981809307010F90DF91F4
:1003B000CF910895CF93DF93CDB7DEB7809107013A
:1003C000DF91CF910895CF93DF931F92CDB7DEB722
:1003D00089838981809308010F90DF91CF910895DF
:1003E000CF93DF93CDB7DEB780910801DF91CF9136
:1003F0000895CF93DF931F92CDB7DEB789838981AC
:10040000809309010F90DF91CF910895CF93DF93EF
:10041000CDB7DEB780910901DF91CF910895CF93D9
:10042000DF931F92CDB7DEB78983898180930A015C
:100430000F90DF91CF910895CF93DF93CDB7DEB7C3
:1004400080910A01DF91CF910895CF93DF931F929E
:10045000CDB7DEB78983898180930B010F90DF913F
:10046000CF910895CF93DF93CDB7DEB780910B0185
:10047000DF91CF9108950F931F93CF93DF93CDB763
:10048000DEB763970FB6F894DEBF0FBECDBF0E94F4
:10049000D6199E838D838D819E810C9708F450C060
:1004A0008BE00E94071A8F838F810E941B1A8D3068
:1004B00009F043C0198212C08981082F10E0898198
:1004C0000E94071A0E941B1A282FCE010896800F3F
:1004D000911FFC01208389818F5F898389818C3002
:1004E00058F31C821A8210C08A81882F90E09E01E6
:1004F000285F3F4F820F931FFC0180819C81890FF1
:100500008C838A818F5F8A838A818A3068F39A8993
:100510008C81981779F41B8205C00E948B198B81FE
:100520008F5F8B838B818C30C0F3CE0108960E9445
:100530007C1205C00E948B1902C00E948B19A7CFA4
:1005400063960FB6F894DEBF0FBECDBFDF91CF919B
:100550001F910F910895CF93DF93CDB7DEB78091B0
:100560008A0290918B020A9690938B0280938A0262
:1005700080918C0290918D020A9690938D028093C7
:100580008C0280918E0290918F020A9690938F0236
:1005900080938E0280919002909191020A9690939E
:1005A00091028093900280919202909193020A9618
:1005B000909393028093920280910701882361F0C7
:1005C00080918A0290918B02C29730F010928B0238
:1005D00010928A020E94330380910801882369F0F7
:1005E00080918C0290918D028436910530F01092AA
:1005F0008D0210928C020E9497038091090188233A
:1006000069F080918E0290918F028436910530F0CE
:1006100010928F0210928E020E94630480910A0150
:10062000882369F08091900290919102883C910515
:1006300030F010929102109290020E94F704809183
:100640000B01882369F08091920290919302843F7C
:10065000914030F010929302109292020E94410554
:10066000DF91CF910895CF93DF93CDB7DEB72E976B
:100670000FB6F894DEBF0FBECDBF1A828AEA0E9481
:10068000A4198A8186558A830E942701882321F034
:10069000CE0107960E943001198228C08981882FD7
:1006A00090E0880F991F9E012F5F3F4F820F931F8D
:1006B0000696FC01808191819C838B838B818D8345
:1006C0008B819C81892F99278E838D810E94A4190B
:1006D0009A818D81890F8A838E810E94A4199A81C3
:1006E0008E81890F8A8389818F5F89838981843094
:1006F000A8F2809185020E94A419809185029A81B6
:10070000890F8A838A810E94A4198DE00E94A4190E
:10071000809185028F5F8F70809385022E960FB631
:10072000F894DEBF0FBECDBFDF91CF910895CF9378
:10073000DF93CDB7DEB764970FB6F894DEBF0FBE78
:10074000CDBF1A8219820E94F7139C838B830E946B
:1007500003149E838D830E940F1498878F838F814B
:100760009885CC01A0E0B0E09C01AD012F5F3F4F28
:100770004F4F5F4F80E094E2A4EFB0E0BC01CD01A9
:100780000E94AC1DDA01C9019A8789878F819885FB
:10079000CC01A0E0B0E0BC01CD010E94781CDC01DE
:1007A000CB0124EA30E74DE75FE3BC01CD010E94B5
:1007B0002F1DDC01CB01BC01CD010E94491CDC01D5
:1007C000CB019C018B819C818217930718F081E0FB
:1007D00089830CC08B819C810B9720F08D819E8139
:1007E0000B9718F482E0898301C0198282EA0E9483
:1007F000A4198A818E558A838B818B878B819C81FA
:10080000892F99278C878B850E94A4199A818B85C3
:10081000890F8A838C850E94A4199A818C85890FFF
:100820008A838D818D878D819E81892F99278E87DF
:100830008D850E94A4199A818D85890F8A838E8562
:100840000E94A4199A818E85890F8A8389810E94CA
:10085000A4199A818981890F8A8389858F878985DF
:100860009A85892F9927888B8F850E94A4199A8150
:100870008F85890F8A8388890E94A4199A81888923
:10088000890F8A8380E00E94A419809186020E94C9
:10089000A419809186029A81890F8A838A810E9495
:1008A000A4198DE00E94A419809186028F5F8F7039
:1008B0008093860264960FB6F894DEBF0FBECDBF5C
:1008C000DF91CF910895CF93DF93CDB7DEB72C970B
:1008D0000FB6F894DEBF0FBECDBF1A8283EA0E9426
:1008E000A4198A818D558A830E942E159C838B833F
:1008F0000E9472158D830E945C158E838B819C8172
:10090000892F99278F838B81888788850E94A419D6
:100910009A818885890F8A838F810E94A4199A8180
:100920008F81890F8A838D81882F90E0092E000C9A
:10093000AA0BBB0BBC01CD010E947A1CDC01CB01D0
:1009400020E030E040E251E4BC01CD010E942F1DC7
:10095000DC01CB01BC01CD010E94491CDC01CB01B3
:100960009A87898789858B8789859A85892F992791
:100970008C878B850E94A4199A818B85890F8A8325
:100980008C850E94A4199A818C85890F8A838E8117
:100990000E94A4199A818E81890F8A83198206C0C8
:1009A00080E00E94A41989818F5F898389818330C7
:1009B000B8F3809187020E94A419809187029A81DE
:1009C000890F8A838A810E94A4198DE00E94A4194C
:1009D000809187028F5F8F70809387022C960FB66D
:1009E000F894DEBF0FBECDBFDF91CF910895CF93B6
:1009F000DF9300D000D0CDB7DEB71A8284EA0E9420
:100A0000A4198A818C558A8384E10E94BB0D8B8353
:100A100085E10E94BB0D8C838B810E94A4199A8171
:100A20008B81890F8A838C810E94A4199A818C8181
:100A3000890F8A83198206C080E00E94A4198981E7
:100A40008F5F898389818630B8F3809188020E9404
:100A5000A419809188029A81890F8A838A810E94D1
:100A6000A4198DE00E94A419809188028F5F8F7075
:100A7000809388020F900F900F900F90DF91CF918D
:100A80000895CF93DF93CDB7DEB76F970FB6F89485
:100A9000DEBF0FBECDBF0E94B30D8A871F821982B1
:100AA00020C08981282F30E04DE0429FC001439F44
:100AB000900D11248D5E9E4FFC018081882371F082
:100AC0008F8191E0980F9F83882F90E09E012C5E8C
:100AD0003F4F820F931F2981FC01208389818F5F03
:100AE000898399818A859817E0F28F81882341F55F
:100AF000188685EA0E94A41988858B5588871B82F1
:100B000006C080E00E94A4198B818F5F8B838B814C
:100B10008830B8F3809189020E94A41980918902DB
:100B20009885890F888788850E94A4198DE00E9486
:100B3000A419809189028F5F8F7080938902A8C069
:100B40008F81882F90E00196969587958B871A82E2
:100B50009AC0198685EA0E94A41989858B558987D0
:100B60001C8275C08A81982F990F8C81890F8C8780
:100B70009C858F81981708F05CC08C85882F90E049
:100B80009E012C5E3F4F820F931FFC0180818D8759
:100B90008D85282F30E04DE0429FC001439F900D8E
:100BA0001124825F9E4FFC0180819181A281B381DB
:100BB0008E879F87A88BB98B8D85282F30E04DE0DD
:100BC000429FC001439F900D11248D5E9E4FFC01FA
:100BD00080818A8B82E08D8321C08D81082E000C5C
:100BE000990B9C01220F331F220F331F220F331F3B
:100BF0008E859F85A889B98904C0B695A7959795D4
:100C000087952A95D2F78B8B8B890E94A419998599
:100C10008B89890F89878D8181508D838D81882370
:100C2000E4F68A890E94A41999858A89890F89879F
:100C30000BC01E8206C080E00E94A4198E818F5FC7
:100C40008E838E818430B8F38C818F5F8C838C810E
:100C5000823008F487CF809189020E94A419809184
:100C600089029985890F898789850E94A4198DE059
:100C70000E94A419809189028F5F8F7080938902EE
:100C80008A818F5F8A839A818B85981708F461CF58
:100C90006F960FB6F894DEBF0FBECDBFDF91CF9138
:100CA00008950F931F93CF93DF9300D0CDB7DEB796
:100CB0009A8389830E94F713282F89819A81FC01E6
:100CC000208389819A818C010F5F1F4F0E9403143A
:100CD000F80180830F900F90DF91CF911F910F91BA
:100CE0000895CF93DF9300D0CDB7DEB79A83898381
:100CF00089819A810196FC01208189819A81FC0178
:100D00008081622F0E945C130F900F90DF91CF9132
:100D10000895CF93DF9300D000D0CDB7DEB79C838A
:100D20008B830E940F149A83898329818B819C81F4
:100D3000FC0120838B819C81019629813A81232F9C
:100D40003327FC0120830F900F900F900F90DF91BD
:100D5000CF910895CF93DF9300D000D0CDB7DEB709
:100D60009C838B838B819C810196FC018081882FE1
:100D700090E0382F22278B819C81FC018081882F75
:100D800090E0822B932B9A83898389819A810E9498
:100D9000BA130F900F900F900F90DF91CF9108959D
:100DA000CF93DF9300D0CDB7DEB79A8389830E94BB
:100DB0002E15282F89819A81FC0120830F900F9096
:100DC000DF91CF910895CF93DF9300D0CDB7DEB7F9
:100DD0009A83898389819A81FC018081882F90E0A0
:100DE0000E941C150F900F90DF91CF910895CF9323
:100DF000DF9300D0CDB7DEB79A8389830E94461572
:100E0000282F89819A81FC0120830F900F90DF9118
:100E1000CF910895CF93DF9300D0CDB7DEB79A83FB
:100E2000898389819A81FC01908181E0992309F469
:100E300080E00E9439150F900F90DF91CF910895B7
:100E4000CF93DF9300D0CDB7DEB79A83898384E157
:100E50000E94BB0D282F89819A81FC0120830F906D
:100E60000F90DF91CF910895CF93DF9300D0CDB74E
:100E7000DEB79A83898389819A81FC018081882FDA
:100E800090E00E9480110F900F90DF91CF91089514
:100E9000CF93DF9300D0CDB7DEB79A83898385E106
:100EA0000E94BB0D282F89819A81FC0120830F901D
:100EB0000F90DF91CF910895CF93DF9300D0CDB7FE
:100EC000DEB79A83898389819A81FC018081882F8A
:100ED00090E00E9494110F900F90DF91CF910895B0
:100EE000CF93DF9300D0CDB7DEB79A8389830E947A
:100EF0003202282F89819A81FC0120830F900F9064
:100F0000DF91CF910895CF93DF9300D0CDB7DEB7B7
:100F10009A83898389819A81FC0180810E942502BC
:100F20000F900F90DF91CF910895CF93DF9300D072
:100F3000CDB7DEB79A8389830E940602282F898164
:100F40009A81FC0120830F900F90DF91CF9108953B
:100F5000CF93DF9300D0CDB7DEB79A8389838981A1
:100F60009A81FC0180810E94F9010F900F90DF911E
:100F7000CF910895CF93DF9300D0CDB7DEB79A839A
:100F800089830E94F001282F89819A81FC012083A6
:100F90000F900F90DF91CF910895CF93DF9300D002
:100FA000CDB7DEB79A83898389819A81FC018081DC
:100FB0000E94E3010F900F90DF91CF910895CF939E
:100FC000DF9300D0CDB7DEB79A8389830E941C02DD
:100FD000282F89819A81FC0120830F900F90DF9147
:100FE000CF910895CF93DF9300D0CDB7DEB79A832A
:100FF000898389819A81FC0180810E940F020F9070
:101000000F90DF91CF910895CF93DF9300D0CDB7AC
:10101000DEB79A8389830E94DA01282F89819A8119
:10102000FC0120830F900F90DF91CF910895CF9313
:10103000DF9300D0CDB7DEB79A83898389819A8107
:10104000FC0180810E94CD010F900F90DF91CF9124
:101050000895CF93DF93CDB7DEB781E090E0909312
:101060000D0180930C01DF91CF910895CF93DF9311
:1010700000D01F92CDB7DEB79B838A838A819B8184
:10108000892B09F43EC08A819B81FC018081898380
:101090008981882F90E089319105D1F08A319105BD
:1010A00034F48131910561F0449779F025C08E3296
:1010B0009105C1F081339105D1F0829771F01CC088
:1010C0008A819B810E9487081CC00E94A90819C0C0
:1010D0008A819B810E94B80814C08A819B810E94EA
:1010E000D5080FC08A819B810E94E2090AC062E193
:1010F00081E30E94550B05C061E189810E94550B77
:1011000000000F900F900F90DF91CF910895CF9333
:10111000DF9300D01F92CDB7DEB79B838A838A818D
:101120009B81FC01818189838981823041F441E086
:10113000CE010196BC0181E10E94010B04C062E175
:1011400081E10E94550B0F900F900F90DF91CF918E
:101150000895CF93DF93CDB7DEB70E94640D40E0D2
:1011600060E070E084E10E94010BDF91CF9108956F
:10117000CF93DF9300D01F92CDB7DEB79B838A83D6
:101180008A819B81FC01818189838981823019F464
:101190000E94AA0D04C062E189E10E94550B0F90E4
:1011A0000F900F90DF91CF910895CF93DF93CDB73C
:1011B000DEB763970FB6F894DEBF0FBECDBF9B8B33
:1011C0008A8B1B828A899B890196FC018081882FEA
:1011D00090E0382F22278A899B890296FC01808122
:1011E000882F90E0822B932B9D838C831982D4C00F
:1011F0008981282F30E04DE0429FC001439F900D30
:10120000112482539E4FFC01208131818C819D816C
:101210002817390709F0BDC08A899B89FC018181A3
:101220008A878A899B89FC0182818B878981282F03
:1012300030E04DE0429FC001439F900D11248B523E
:101240009E4FFC0180819181892BA1F08981282FFB
:1012500030E04DE0429FC001439F900D11248B521E
:101260009E4FFC0120813181CE010A960296F90140
:10127000099575C08981282F30E04DE0429FC0015B
:10128000439F900D112487529E4FFC0180819181D4
:10129000892B09F464C08981282F30E04DE0429FFA
:1012A000C001439F900D11248F529E4FFC018081FD
:1012B00091810197D9F48981282F30E04DE0429F38
:1012C000C001439F900D112487529E4FFC018081E5
:1012D0009181FC01808191819F838E838E818C8797
:1012E0008E819F81892F99278D8739C08981282FE9
:1012F00030E04DE0429FC001439F900D1124875282
:101300009E4FFC0180819181998788871A8217C03E
:101310008A81882F90E002962A81222F30E048852A
:101320005985240F351FF90140819E01265F3F4FEB
:10133000820F931FFC0140838A818F5F8A8389819A
:10134000282F30E04DE0429FC001439F900D1124B3
:1013500080539E4FFC0190818A818917C8F2898150
:10136000282F30E04DE0429FC001439F900D112493
:1013700080539E4FFC01808122E0280FCE010A9607
:10138000422FBC0182E20E94010B81E08B830000AE
:1013900007C089818F5F898389818B3008F428CFCA
:1013A0009B8181E08927882321F061E382E20E940A
:1013B000550B63960FB6F894DEBF0FBECDBFDF911D
:1013C000CF910895CF93DF93CDB7DEB72D970FB6AA
:1013D000F894DEBF0FBECDBF9D878C871B828C85A6
:1013E0009D850196FC018081882F90E0382F22276F
:1013F0008C859D850296FC018081882F90E0822B50
:10140000932B9D838C831982E6C08981282F30E03D
:101410004DE0429FC001439F900D112482539E4F87
:10142000FC01208131818C819D812817390709F0C9
:10143000CFC08981282F30E04DE0429FC001439FFB
:10144000900D11248D529E4FFC0180819181019756
:1014500029F062E28EE20E94550BCAC08981282FD2
:1014600030E04DE0429FC001439F900D112489520E
:101470009E4FFC0180819181892BA1F08981282FC9
:1014800030E04DE0429FC001439F900D11248952EE
:101490009E4FFC01208131818C859D850396F90149
:1014A000099582C08981282F30E04DE0429FC0011C
:1014B000439F900D112487529E4FFC0180819181A2
:1014C000892B09F471C08981282F30E04DE0429FBB
:1014D000C001439F900D11248F529E4FFC018081CB
:1014E0009181019741F58C859D850496FC01808151
:1014F000882F90E0382F22278C859D850396FC014C
:101500008081882F90E0822B932B9F838E8389810B
:10151000282F30E04DE0429FC001439F900D1124E1
:1015200087529E4FFC01808191812E813F81FC0179
:101530003183208339C08981282F30E04DE0429FDC
:10154000C001439F900D112487529E4FFC01808162
:101550009181998788871A8217C08A81882F90E0A5
:1015600028853985820F931F2A81222F30E02D5F35
:101570003F4F4C855D85240F351FF9012081FC010B
:1015800020838A818F5F8A838981282F30E04DE014
:10159000429FC001439F900D112480539E4FFC0138
:1015A00090818A818917C8F28C859D85FC01818193
:1015B0008A878C859D85FC0182818B87CE010A9666
:1015C00042E0BC018EE20E94010B81E08B8307C0E8
:1015D00089818F5F898389818B3008F416CF9B8145
:1015E00081E08927882321F061E38EE20E94550B78
:1015F0002D960FB6F894DEBF0FBECDBFDF91CF9111
:101600000895CF93DF93CDB7DEB728970FB6F89440
:10161000DEBF0FBECDBF8D837F836E8348871B8265
:101620008D81805C8C838C810E94A4199B818C812C
:10163000890F8B8319821AC08981882F90E02E81AF
:101640003F81820F931FFC0180810E94A419898130
:10165000882F90E02E813F81820F931FFC018081B3
:101660009B81890F8B8389818F5F8983998188858D
:10167000981710F388858A8306C080E00E94A41919
:101680008A818F5F8A838A818930B8F38B810E9437
:10169000A4198DE00E94A41928960FB6F894DEBF15
:1016A0000FBECDBFDF91CF910895CF93DF9300D0D0
:1016B00000D0CDB7DEB78B836C831A828FE70E9490
:1016C000A4198A8181588A838B810E94A4199A81E6
:1016D0008B81890F8A838C810E94A4199A818C81C5
:1016E000890F8A83198206C080E00E94A41989812B
:1016F0008F5F898389818730B8F38A810E94A4191A
:101700008DE00E94A4190F900F900F900F90DF9121
:10171000CF910895CF93DF931F92CDB7DEB7198293
:1017200038C08981282F30E04DE0429FC001439F9F
:10173000900D11248E5E9E4FFC0110828981282F0E
:1017400030E04DE0429FC001439F900D11248D5E1B
:101750009E4FFC0110828981282F30E04DE0429F8E
:10176000C001439F900D11248C5E9E4FFC0110829E
:101770008981282F30E04DE0429FC001439F900DAA
:1017800011248B5E9E4FFC011182108289818F5F34
:10179000898389818C3028F20F90DF91CF91089551
:1017A000CF93DF93CDB7DEB72A970FB6F894DEBF9D
:1017B0000FBECDBF89876A87CE0101960E94300196
:1017C0008A85823091F48985882F90E0880F991F4F
:1017D0009E012F5F3F4F820F931FFC0180819181FB
:1017E000892B09F061C081E060C08A85813099F45D
:1017F0008985882F90E0880F991F9E012F5F3F4FAA
:10180000820F931FFC01808191818F3F934009F0EB
:101810004BC081E04AC08A85833011F58985882FC5
:1018200090E0880F991F9E012F5F3F4F820F931FFB
:10183000FC01808191818B329340B0F18985882FA2
:1018400090E0880F991F9E012F5F3F4F820F931FDB
:10185000FC01808191818F3F934031F181E025C06F
:101860008A85843009F58985882F90E0880F991F33
:101870009E012F5F3F4F820F931FFC01808191815A
:101880008039914088F48985882F90E0880F991FCE
:101890009E012F5F3F4F820F931FFC01808191813A
:1018A000892B11F081E001C080E02A960FB6F894F0
:1018B000DEBF0FBECDBFDF91CF910895CF93DF93F1
:1018C000CDB7DEB72B970FB6F894DEBF0FBECDBFF6
:1018D0009A8789876B8789859A85892B09F47CC0CB
:1018E0008B85882309F44DC089859A85FC01868102
:1018F000843650F489859A85FC01868121E0280F81
:1019000089859A85FC01268389859A85FC018481D5
:10191000882329F489859A8521E0FC01248389851F
:101920009A85FC018481813009F056C089859A85A9
:10193000FC018681843608F44FC089859A8522E0AF
:10194000FC01248389859A8522E0FC012583CE0150
:1019500001960E94300189859A85FC018185882F36
:1019600090E0880F991F9E012F5F3F4F820F931FBA
:10197000FC012081318189859A85FC01308727838C
:101980002BC089859A85FC018681882359F0898539
:101990009A85FC0186812FEF280F89859A85FC01A5
:1019A00026831AC089859A85FC018481823051F48E
:1019B00089859A85FC01148289859A8521E0FC013C
:1019C00025830AC089859A85FC018481813021F4B0
:1019D00089859A85FC0114822B960FB6F894DEBF98
:1019E0000FBECDBFDF91CF910895CF93DF9300D08D
:1019F000CDB7DEB719825FC01A828981282F30E007
:101A00004DE0429FC001439F900D1124885E9E4F80
:101A1000FC0180819181892BE9F18981282F30E0B7
:101A20004DE0429FC001439F900D1124895E9E4F5F
:101A3000FC018081882F90E0892B61F18981282F1A
:101A400030E04DE0429FC001439F900D1124885E1D
:101A50009E4FFC01208131818981482F50E06DE04B
:101A6000649FC001659F900D1124865E9E4FFC010E
:101A700070818981482F50E06DE0649FC001659FAF
:101A8000900D1124895E9E4FFC018081672FF90122
:101A900009958A838981282F30E04DE0429FC0015B
:101AA000439F900D1124825F9E4F6A810E945E0CBD
:101AB00089818F5F898389818C3008F49DCF0F9055
:101AC0000F90DF91CF910895CF93DF931F92CDB701
:101AD000DEB7198238C08981282F30E04DE0429F5F
:101AE000C001439F900D11248E5E9E4FFC01108219
:101AF0008981282F30E04DE0429FC001439F900D27
:101B000011248D5E9E4FFC0110828981282F30E0C8
:101B10004DE0429FC001439F900D11248C5E9E4F6B
:101B2000FC0110828981282F30E04DE0429FC001E6
:101B3000439F900D11248B5E9E4FFC0111821082F9
:101B400089818F5F898389818C3028F20F90DF91A2
:101B5000CF910895CF93DF93CDB7DEB70E944105B3
:101B6000DF91CF910895CF93DF93CDB7DEB78CE0AF
:101B7000DF91CF910895CF93DF9300D000D0CDB700
:101B8000DEB78C8319828C8182958F708A838C81D9
:101B90008F708B838A818823A9F483E290E0FC0113
:101BA0008081882F90E02B81222F30E002C0969513
:101BB00087952A95E2F781709927892BD1F081E0EA
:101BC000898317C08A818130A1F489E290E0FC0109
:101BD0008081882F90E02B81222F30E002C09695E3
:101BE00087952A95E2F781709927892B11F081E07A
:101BF000898389810F900F900F900F90DF91CF9183
:101C00000895CF93DF9300D000D0CDB7DEB78B839C
:101C10006C838B8182958F7089838B818F708A838F
:101C20008981882361F58C818130A1F485E290E07F
:101C300025E230E0F90160812A81422F50E021E065
:101C400030E002C0220F331F4A95E2F7262BFC0139
:101C5000208343C085E290E025E230E0F901608115
:101C60002A81422F50E021E030E002C0220F331FD2
:101C70004A95E2F720952623FC0120832EC0898116
:101C8000813059F58C818130A1F48BE290E02BE218
:101C900030E0F90160812A81422F50E021E030E0FC
:101CA00002C0220F331F4A95E2F7262BFC01208346
:101CB00014C08BE290E02BE230E0F90160812A81D0
:101CC000422F50E021E030E002C0220F331F4A953E
:101CD000E2F720952623FC0120830F900F900F90B0
:101CE0000F90DF91CF910895CF93DF93CDB7DEB7FB
:101CF0000E94B0120E94A8110E94BF110E948A0B7C
:101D000060E071EE80E090E00E944C190E9429088A
:101D10000E94EB000E94AC0E84E690E00E94D2127A
:101D2000789483E50E94A41984E50E94A41981E4B3
:101D30000E94A41982E50E94A41984E50E94A419B6
:101D40008AE00E94A41981E090E09093950280932C
:101D50009402DF91CF910895CF93DF93CDB7DEB793
:101D600084E490E022E0FC01208387E490E029EF06
:101D7000FC01208385E490E023E0FC0120838EE6D3
:101D800090E022E0FC012083DF91CF910895CF9372
:101D9000DF93CDB7DEB78091960290919702A09124
:101DA0009802B09199020196A11DB11D80939602EF
:101DB00090939702A0939802B0939902DF91CF91EC
:101DC0000895CF93DF93CDB7DEB780919E029091B7
:101DD0009F02019690939F0280939E028091A002A1
:101DE0009091A10201969093A1028093A00280910C
:101DF000A2029091A30201969093A3028093A20263
:101E00008091A4029091A50201969093A5028093DF
:101E1000A40280919E0290919F020A9738F010923E
:101E20009F0210929E0281E080939A028091A0020C
:101E30009091A102C29738F01092A1021092A002D4
:101E400081E080939B028091A2029091A30284364C
:101E5000910538F01092A3021092A20281E08093C3
:101E60009C028091A4029091A502843F914038F099
:101E70001092A5021092A40281E080939D02DF914E
:101E8000CF9108951F920F9200905F000F9211243E
:101E90002F933F934F935F936F937F938F939F9372
:101EA000AF93BF93EF93FF93CF93DF93CDB7DEB79D
:101EB0000E94C70E0E94E10EDF91CF91FF91EF913A
:101EC000BF91AF919F918F917F916F915F914F9152
:101ED0003F912F910F9000925F000F901F901895E7
:101EE000CF92DF92EF92FF92CF93DF9300D000D09A
:101EF00000D0CDB7DEB79A8389834B835C836D8333
:101F00007E8389819A818E5B9F4FFC0180819181C4
:101F1000A281B38129813A81205C3F4FF901208160
:101F2000222F30E049815A81220F331F220F331FA5
:101F3000240F351FF9012081318142815381BC0179
:101F4000CD010E94651BDC01CB0129813A812E5B0A
:101F50003F4FF90180839183A283B38389819A8162
:101F6000805C9F4FFC018081882F90E029813A811D
:101F7000880F991F880F991F280F391F8B819C810B
:101F8000AD81BE81F90180839183A283B38389816E
:101F90009A818E5B9F4FFC0180819181A281B381E8
:101FA0002B813C814D815E81BC01CD010E94661B6D
:101FB000DC01CB0129813A812E5B3F4FF9018083FF
:101FC0009183A283B38389819A81805C9F4FFC01B6
:101FD00080818F5F282F2F7089819A81805C9F4F2D
:101FE000FC01208389819A818F5B9F4FFC01808156
:101FF000803170F489819A818F5B9F4FFC018081D1
:1020000021E0280F89819A818F5B9F4FFC012083FB
:1020100089819A818E5B9F4FFC01C080D180E280D4
:10202000F38089819A818F5B9F4FFC018081882F8B
:1020300090E0A0E0B0E0BC01CD010E94781CDC0182
:10204000CB019C01AD01C701B6010E94D71BDC0189
:10205000CB01BC01CD0126960FB6F894DEBF0FBEB2
:10206000CDBFDF91CF91FF90EF90DF90CF9008959B
:10207000CF93DF9300D000D000D0CDB7DEB79E83E2
:102080008D838D819E81CC01A0E0B0E0BC01CD01AB
:102090000E94781CDC01CB0120E030EC4FE754E4D7
:1020A000BC01CD010E94D71BDC01CB0120E030E058
:1020B00040EA50E4BC01CD010E942F1DDC01CB01A0
:1020C00089839A83AB83BC8320E030E040E250E414
:1020D00069817A818B819C810E94651BDC01CB0127
:1020E00022E03BE247E85DE3BC01CD010E94D71B43
:1020F000DC01CB01BC01CD0126960FB6F894DEBF02
:102100000FBECDBFDF91CF910895CF93DF9300D065
:1021100000D000D0CDB7DEB79E838D838D819E81A8
:10212000CC01A0E0B0E0BC01CD010E94781CDC0134
:10213000CB0120E030EC4FE754E4BC01CD010E941C
:10214000D71BDC01CB0120E030E040EA50E4BC01C9
:10215000CD010E942F1DDC01CB0189839A83AB83C3
:10216000BC8320E030E040E451E469817A818B81D6
:102170009C810E942F1DDC01CB01BC01CD01269664
:102180000FB6F894DEBF0FBECDBFDF91CF9108959B
:10219000CF93DF93CDB7DEB7A8970FB6F894DEBF25
:1021A0000FBECDBF0E942701882309F48CC0CE0149
:1021B00081960E94300189A19AA10E943810DC0109
:1021C000CB0189839A83AB83BC8389819A81AB815C
:1021D000BC81AC01BD0186EA92E00E94700FDC0177
:1021E000CB018D839E83AF83B8878D819E81AF8124
:1021F000B885BC01CD010E9464148BA19CA10E94F2
:102200008510DC01CB0189879A87AB87BC878985DC
:102210009A85AB85BC85AC01BD018CEE92E00E9435
:10222000700FDC01CB018D879E87AF87B88B8D85C2
:102230009E85AF85B889BC01CD010E9492148DA105
:102240009EA10E943810DC01CB01898B9A8BAB8B4D
:10225000BC8B89899A89AB89BC89AC01BD0182E3B9
:1022600093E00E94700FDC01CB018D8B9E8BAF8BB6
:10227000B88F8D899E89AF89B88DBC01CD010E9430
:10228000C0148FA198A50E948510DC01CB01898F15
:102290009A8FAB8FBC8F898D9A8DAB8DBC8DAC0125
:1022A000BD0188E793E00E94700FDC01CB018D8FA8
:1022B0009E8FAF8FB8A38D8D9E8DAF8DB8A1BC01C1
:1022C000CD010E94EE14A8960FB6F894DEBF0FBEA3
:1022D000CDBFDF91CF910895CF93DF9300D0CDB7DD
:1022E000DEB70E94281489830E943E148A836A8183
:1022F00089810E945C130F900F90DF91CF91089518
:10230000CF93DF931F92CDB7DEB78983898188236E
:1023100011F081E001C080E0682F84E10E94010E8D
:102320000F90DF91CF910895CF93DF931F92CDB798
:10233000DEB789838981882311F081E001C080E0C4
:10234000682F85E10E94010E0F90DF91CF910895D3
:10235000CF93DF9300D0CDB7DEB780E090E00E944E
:10236000F61D9A83898389819A818A35954A11F06D
:102370000E9432120F900F90DF91CF910895CF936A
:10238000DF93CDB7DEB727970FB6F894DEBF0FBE49
:10239000CDBF82E090E00E94F61D9B838A8384E09B
:1023A00090E00E94EE1D8C8385E090E00E94EE1D7F
:1023B000982F81E0992309F480E08D838A819B81A5
:1023C0000E9447148C81882F90E00E941C158D81FB
:1023D0000E9439158A819B81019621F484E690E060
:1023E0009B838A838C818F3F11F48CE08C830E94C5
:1023F000B30D8E83198229C08981882F90E00696BB
:102400000E94EE1D8F838981282F30E04DE0429F8E
:10241000C001439F900D11248D5E9E4F2F81FC01C2
:1024200020838F81882371F08981282F30E04DE04F
:10243000429FC001439F900D11248E5E9E4F22E06B
:10244000FC01208389818F5F898399818E81981710
:1024500098F227960FB6F894DEBF0FBECDBFDF917E
:10246000CF910895CF93DF9300D0CDB7DEB76AE563
:1024700075EA80E090E00E940E1E0E945914BC0193
:1024800082E090E00E940E1E0E942E15682F84E0CC
:1024900090E00E94FC1D0E944615882311F081E007
:1024A00001C080E0682F85E090E00E94FC1D0E9442
:1024B000B30D8A83198217C08981282F30E04DE03F
:1024C000429FC001439F900D11248D5E9E4FFC01E1
:1024D00020818981882F90E00696622F0E94FC1D42
:1024E00089818F5F898399818A81981728F30F905A
:1024F0000F90DF91CF910895CF93DF9300D01F927B
:10250000CDB7DEB79B838A838A819B81892B11F1AA
:102510008A819B81FC01808189838981882F90E059
:102520008931910591F08A31910534F48131910519
:1025300061F0449751F00EC08E32910531F0813335
:10254000910519F0829709F005C08A819B810E944C
:10255000360800000F900F900F90DF91CF910895F3
:10256000CF93DF93CDB7DEB784E290E024E230E092
:10257000F90120812660FC0120838AE290E02AE2B2
:1025800030E0F90120812063FC0120838BE290E0A0
:102590002BE230E0F90120812F7CFC012083DF91C8
:1025A000CF9108950F931F93CF93DF93CDB7DEB7ED
:1025B00028970FB6F894DEBF0FBECDBF9C838B83E8
:1025C0008B819C81CC01A0E0B0E0880F991FAA1FED
:1025D000BB1F880F991FAA1FBB1F880F991FAA1F17
:1025E000BB1F9C01AD0180E094E2A4EFB0E0BC0110
:1025F000CD010E94AC1DDA01C90101979A8389833C
:1026000086E890E029813A81FC013183208380E8CB
:1026100090E022EAFC01208381E890E02AE1FC01BD
:10262000208308E810E089819A81CC01A0E0B0E025
:10263000BC01CD010E94781CDC01CB0128E431EE05
:102640004AE75FE3BC01CD010E942F1DDC01CB01F5
:10265000BC01CD010E94491CDC01CB01F801918332
:1026600080830AE810E089819A81CC01A0E0B0E083
:10267000BC01CD010E94781CDC01CB0128E431EEC5
:102680004AE75FE3BC01CD010E942F1DDC01CB01B5
:10269000BC01CD010E94491CDC01CB01F8019183F2
:1026A000808328960FB6F894DEBF0FBECDBFDF91B2
:1026B000CF911F910F9108950F931F93CF93DF93A5
:1026C000CDB7DEB72C970FB6F894DEBF0FBECDBFE7
:1026D0008B836C8386E890E0FC01808191819A83F2
:1026E000898308E810E089819A819C0140E050E0EC
:1026F0008B81882F90E0A0E0B0E0BC01CD010E946A
:102700009C1DDC01CB0124E630E040E050E0BC0140
:10271000CD010E94AC1DDA01C901F80191838083CB
:102720000AE810E089819A819C0140E050E08C81A8
:10273000882F90E0A0E0B0E0BC01CD010E949C1D7C
:10274000DC01CB0124E630E040E050E0BC01CD01EB
:102750000E94AC1DDA01C901F801918380832C9697
:102760000FB6F894DEBF0FBECDBFDF91CF911F91A2
:102770000F9108950F931F93CF93DF9300D000D054
:1027800000D0CDB7DEB79A83898389819A81892B5E
:1027900019F106E810E089819A81CC01A0E0B0E04F
:1027A000880F991FAA1FBB1F880F991FAA1FBB1F45
:1027B000880F991FAA1FBB1F9C01AD0180E094E206
:1027C000A4EFB0E0BC01CD010E94AC1DDA01C9014B
:1027D0000197F8019183808326960FB6F894DEBFA7
:1027E0000FBECDBFDF91CF911F910F910895CF9371
:1027F000DF93CDB7DEB788E890E0FC01808191815E
:10280000DF91CF910895CF93DF93CDB7DEB78AE8FC
:1028100090E0FC0180819181DF91CF910895CF9369
:10282000DF93CDB7DEB786E890E0FC01808191812F
:10283000DF91CF910895CF93DF931F92CDB7DEB78D
:10284000898389818093BE030F90DF91CF91089592
:10285000CF93DF93CDB7DEB78091BE03DF91CF91E9
:102860000895CF93DF931F92CDB7DEB78983898117
:102870008093BF030F90DF91CF910895CF93DF93A3
:10288000CDB7DEB78091BF03DF91CF910895CF938D
:10289000DF9300D0CDB7DEB79A83898389819A818F
:1028A0009093C1038093C0030F900F90DF91CF915D
:1028B0000895CF93DF93CDB7DEB78091C003909199
:1028C000C103DF91CF910895CF93DF9300D000D063
:1028D000CDB7DEB769837A838B839C8389819A81A4
:1028E000AB81BC818093C2039093C303A093C403C4
:1028F000B093C5030F900F900F900F90DF91CF9181
:102900000895CF93DF93CDB7DEB78091C203909146
:10291000C303A091C403B091C503BC01CD01DF91F5
:10292000CF910895CF93DF9300D000D0CDB7DEB71D
:1029300069837A838B839C8389819A81AB81BC81F3
:102940008093C6039093C703A093C803B093C903B1
:102950000F900F900F900F90DF91CF910895CF932C
:10296000DF93CDB7DEB78091C6039091C703A091E6
:10297000C803B091C903BC01CD01DF91CF91089587
:10298000CF93DF9300D000D0CDB7DEB769837A83D1
:102990008B839C8389819A81AB81BC818093CA039C
:1029A0009093CB03A093CC03B093CD030F900F90E3
:1029B0000F900F90DF91CF910895CF93DF93CDB714
:1029C000DEB78091CA039091CB03A091CC03B09164
:1029D000CD03BC01CD01DF91CF910895CF93DF935B
:1029E00000D000D0CDB7DEB769837A838B839C8318
:1029F00089819A81AB81BC818093CE039093CF0370
:102A0000A093D003B093D1030F900F900F900F902D
:102A1000DF91CF910895CF93DF93CDB7DEB780914B
:102A2000CE039091CF03A091D003B091D103BC010C
:102A3000CD01DF91CF910895CF93DF9300D0CDB733
:102A4000DEB79A83898389819A819093D303809397
:102A5000D2030F900F90DF91CF910895CF93DF9322
:102A6000CDB7DEB78091D2039091D303DF91CF91A0
:102A70000895CF93DF931F92CDB7DEB78983898105
:102A80008093D4030F90DF91CF910895CF93DF937C
:102A9000CDB7DEB78091D403DF91CF910895CF9366
:102AA000DF931F92CDB7DEB7898389818093D503E9
:102AB0000F90DF91CF910895CF93DF93CDB7DEB71D
:102AC0008091D503DF91CF910895CF93DF931F922B
:102AD000CDB7DEB7898389818093D6030F90DF91CC
:102AE000CF910895CF93DF93CDB7DEB78091D60312
:102AF000DF91CF910895CF92DF92EF92FF920F93E3
:102B00001F93CF93DF93CDB7DEB76E970FB6F894D0
:102B1000DEBF0FBECDBF9A8B898B4B8B5C8B6D8BD1
:102B20007E8B0F8B188F298F3A8FCB8EDC8EED8E9C
:102B3000FE8E2F89388D498D5A8D6B897C898D89C0
:102B40009E890E94651BDC01CB0189839A83AB833C
:102B5000BC8389899A89FC01848D958DA68DB78D5A
:102B6000B05829813A814B815C81BC01CD010E9422
:102B7000D21B8823ACF489899A89FC01848D958DB8
:102B8000A68DB78D29813A814B815C81BC01CD0135
:102B90000E942A1D181624F419821A821B821C8294
:102BA00089899A89FC0180819181A281B3812981DF
:102BB0003A814B815C81BC01CD010E942F1DDC015B
:102BC000CB018D879E87AF87B88B89899A89FC0155
:102BD000C088D188E288F38889899A89FC01848138
:102BE0009581A681B78129813A814B815C81BC01A5
:102BF000CD010E942F1DDC01CB012B8D3C8D4D8D15
:102C00005E8DBC01CD010E942F1DDC01CB019C011A
:102C1000AD01C701B6010E94661BDC01CB01298909
:102C20003A89F901808B918BA28BB38B89899A8920
:102C3000FC0180899189A289B38929893A89F9019E
:102C4000208D318D428D538DBC01CD010E942A1DF6
:102C5000181674F489899A89FC01808D918DA28D52
:102C6000B38D29893A89F901808B918BA28BB38B23
:102C700089899A89FC0180899189A289B3892989E6
:102C80003A89F9012489358946895789BC01CD01E2
:102C90000E94D21B882374F489899A89FC01848953
:102CA0009589A689B78929893A89F901808B918B01
:102CB000A28BB38B1D821E821F82188620E030E01B
:102CC000A9016B8D7C8D8D8D9E8D0E942A1D1816FD
:102CD00074F589899A89FC01C084D184E284F384E3
:102CE00089899A89FC0184859585A685B7859C018B
:102CF000AD0169817A818B819C810E94651BDC0119
:102D0000CB019C01AD01C701B6010E942F1DDC0162
:102D1000CB012B8D3C8D4D8D5E8DBC01CD010E9474
:102D2000D71BDC01CB018D839E83AF83B8872989B4
:102D30003A8989819A81AB81BC81F9018487958721
:102D4000A687B78789899A89FC0180899189A28998
:102D5000B3892D853E854F855889BC01CD010E94E0
:102D6000661BDC01CB012D813E814F815885BC0162
:102D7000CD010E94661BDC01CB0189879A87AB8756
:102D8000BC8789899A89FC01808D918DA28DB38D34
:102D900029853A854B855C85BC01CD010E94D21BFB
:102DA00088235CF489899A89FC01808D918DA28D9C
:102DB000B38D89879A87AB87BC8789899A89FC01FB
:102DC00084899589A689B78929853A854B855C854B
:102DD000BC01CD010E942A1D18165CF489899A89CC
:102DE000FC0184899589A689B78989879A87AB87E9
:102DF000BC8789859A85AB85BC85BC01CD016E9663
:102E00000FB6F894DEBF0FBECDBFDF91CF911F91FB
:102E10000F91FF90EF90DF90CF900895CF92DF92C7
:102E2000EF92FF920F931F93CF93DF93CDB7DEB74F
:102E3000A1970FB6F894DEBF0FBECDBF6A8F7B8F10
:102E40008C8F9D8F2E8F3F8F48A359A32AE939E994
:102E500049E95EE36A8D7B8D8C8D9D8D0E94651B9B
:102E6000DC01CB012E8D3F8D48A159A1BC01CD01C4
:102E70000E94D21B1816D4F02AE939E949E95EE329
:102E80006A8D7B8D8C8D9D8D0E94661BDC01CB0134
:102E90002E8D3F8D48A159A1BC01CD010E942A1D54
:102EA000882324F080E00E944F1513C02A8D3B8DAB
:102EB0004C8D5D8D6E8D7F8D88A199A10E94D21B56
:102EC000882324F481E00E944F1503C082E00E9411
:102ED0004F150E9446158B870E942E159D878C8763
:102EE0008C859D85CC01A0E0B0E0BC01CD010E94A5
:102EF000781CDC01CB018E879F87A88BB98B9B85C3
:102F000081E08927882309F45FC182E6898382E60C
:102F10008A8320E030E040E050E46E8D7F8D88A110
:102F200099A10E94D21B8823ACF482E6898382E6B1
:102F30008A831092BA011092BB011092BC011092C8
:102F4000BD011092B6011092B7011092B801109213
:102F5000B90134C12AE939E949E95EE36A8D7B8D1B
:102F60008C8D9D8D0E94651BDC01CB012E853F85DC
:102F700048895989BC01CD010E94D21B18165CF109
:102F80002AE939E949E95EE36A8D7B8D8C8D9D8D57
:102F90000E94661BDC01CB012E853F85488959893B
:102FA000BC01CD010E942A1D8823ACF082E68983F2
:102FB00082E68A831092BA011092BB011092BC0182
:102FC0001092BD011092B6011092B7011092B80193
:102FD0001092B901F3C02A8D3B8D4C8D5D8D6E85AD
:102FE0007F85888999890E942A1D18160CF06DC06A
:102FF00082E689832E8D3F8D48A159A18E859F85BC
:10300000A889B9890F2EFAE9CF2EF9E9DF2EED2C28
:10301000FDE3FF2EF02D89019A01AC01BD018AEA82
:1030200091E00E947B15DC01CB018A8B9B8BAC8BE2
:10303000BD8B6A897B898C899D890E94491CDC0132
:10304000CB010E9465152A893B894C895D8960E026
:1030500070E084EC92E40E94651BDC01CB018B8361
:103060009C83AD83BE8320E030E044EC52E46B816E
:103070007C818D819E810E942A1D181644F480E077
:1030800090E0A4ECB2E48B839C83AD83BE8320E00C
:1030900030E040EA50E46B817C818D819E810E940A
:1030A000D21B882344F480E090E0A0EAB0E48B8354
:1030B0009C83AD83BE836B817C818D819E810E94C8
:1030C000491CDC01CB018A8379C02A8D3B8D4C8D54
:1030D0005D8D6E857F85888999890E94D21B8823A2
:1030E0000CF06CC082E68A832E853F854889598919
:1030F0008E8D9F8DA8A1B9A10F2EFAE9CF2EF9E9E7
:10310000DF2EED2CFDE3FF2EF02D89019A01AC019D
:10311000BD018AEA91E00E947B15DC01CB018E8B18
:103120009F8BA88FB98F6E897F89888D998D0E941A
:10313000491CDC01CB010E9465152E893F89488D11
:10314000598D60E070E084EC92E40E94651BDC0124
:10315000CB018F839887A987BA8720E030E044ECC1
:1031600052E46F81788589859A850E942A1D1816F8
:1031700044F480E090E0A4ECB2E48F839887A987C0
:10318000BA8720E030E040EA50E46F817885898595
:103190009A850E94D21B882344F480E090E0A0EA44
:1031A000B0E48F839887A987BA876F8178858985EE
:1031B0009A850E94491CDC01CB01898389810E9488
:1031C0001B148A810E943114A1960FB6F894DEBFB9
:1031D0000FBECDBFDF91CF911F910F91FF90EF9068
:1031E000DF90CF900895CF93DF93CDB7DEB70E94E5
:1031F0008114DC01CB018093D7039093D803A09373
:10320000D903B093DA030E94AF14DC01CB018093A1
:10321000DB039093DC03A093DD03B093DE030E94F5
:10322000DD14DC01CB018093DF039093E003A093D6
:10323000E103B093E2030E940B15DC01CB01809304
:10324000E3039093E403A093E503B093E603DF91D7
:10325000CF910895CF93DF93CDB7DEB78091DB0395
:103260009091DC03A091DD03B091DE03BC01CD01A0
:10327000DF91CF910895CF93DF93CDB7DEB78091E3
:10328000E3039091E403A091E503B091E603BC0150
:10329000CD01DF91CF910895CF93DF93CDB7DEB706
:1032A0002A970FB6F894DEBF0FBECDBF6B837C8329
:1032B0008D839E8380E492E4AFE0B0E02B813C817B
:1032C0004D815E81BC01CD010E94AC1DDA01C901B6
:1032D00001979A83898385EC90E029813A81232F95
:1032E0003327FC01208384EC90E02981FC012083BA
:1032F00081EC90E028E9FC01208382EC90E026E05C
:10330000FC0120832A960FB6F894DEBF0FBECDBF16
:10331000DF91CF910895CF93DF931F92CDB7DEB7A2
:103320008091E803882F90E084589B4FFC018081B6
:1033300089838091E8038F5F8F778093E803898189
:103340000F90DF91CF910895CF93DF9300D0CDB749
:10335000DEB78A838091E9038F5F8F7789830000CE
:103360008091EA0399819817D9F38091E903882F16
:1033700090E084509C4F2A81FC01208389818093B6
:10338000E9038091EB03882361F481E08093EB03F0
:1033900081EC90E021EC30E0F90120812062FC0119
:1033A00020830F900F90DF91CF910895CF93DF93FB
:1033B00000D0CDB7DEB79091E7038091E80398176E
:1033C00078F08091E703282F30E08091E803882F80
:1033D00090E0A901481B590BCA019A83898310C048
:1033E0008091E703282F30E08091E803882F90E058
:1033F000A901481B590BCA0180589F4F9A838983A2
:1034000089819A810F900F90DF91CF910895CF938A
:10341000DF931F92CDB7DEB789838091E803282F11
:1034200030E08981882F90E0820F931F8F770F9073
:10343000DF91CF910895CF93DF931F92CDB7DEB781
:1034400089838981882F90E084589B4FFC0180817B
:103450000F90DF91CF910895CF93DF9300D0CDB738
:10346000DEB786EC90E0FC01808189838091E703E0
:103470008F5F8F778A838091E8039A81981761F034
:103480008091E703882F90E084589B4F2981FC01AD
:1034900020838A818093E7030F900F90DF91CF9173
:1034A0000895CF93DF93CDB7DEB79091E903809174
:1034B000EA03981761F481EC90E021EC30E0F90127
:1034C00020812F7DFC0120831092EB0312C086EC3B
:1034D00090E02091EA03222F30E024503C4FF90184
:1034E0002081FC0120838091EA038F5F8F77809396
:1034F000EA03DF91CF9108951F920F9200905F0031
:103500000F9211242F933F934F935F936F937F9369
:103510008F939F93AF93BF93EF93FF93CF93DF93DB
:10352000CDB7DEB70E942C1ADF91CF91FF91EF91BA
:10353000BF91AF919F918F917F916F915F914F91CB
:103540003F912F910F9000925F000F901F90189560
:103550001F920F9200905F000F9211242F933F93C0
:103560004F935F936F937F938F939F93AF93BF938B
:10357000EF93FF93CF93DF93CDB7DEB70E94511A3D
:10358000DF91CF91FF91EF91BF91AF919F918F917B
:103590007F916F915F914F913F912F910F9000928A
:1035A0005F000F901F901895EFEFF0E083E08083AD
:1035B000608381E090E0089580EF93E00E94511BCA
:1035C000ECEEF3E01382128281E692E09183808335
:1035D0000895CF92DF92EF92FF920F931F93CF93B4
:1035E000DF936C017A018B01C0E0D0E0CE15DF05DE
:1035F00089F0D8016D918D01D601ED91FC9101907A
:10360000F081E02DC6010995892B11F47E0102C0DD
:103610002196ECCFC701DF91CF911F910F91FF90C1
:10362000EF90DF90CF9008956115710579F0FB015F
:1036300001900020E9F73197AF01461B570BDC01E1
:10364000ED91FC910280F381E02D099480E090E0FF
:103650000895DC01ED91FC910190F081E02D099439
:1036600065E672E00C94141BFC015383428364836F
:1036700015820895CF93DF93EC018A819B81009797
:1036800069F06F8161110E94291B8C81882331F0C0
:103690008A819B81DF91CF910C94301BDF91CF9178
:1036A0000895FC0188E792E091838083138212825F
:1036B000148215821682178282E090E091878087BB
:1036C0008AE090E09387828708955058BB27AA2705
:1036D0000E947D1B0C94F01C0E94E21C38F00E949A
:1036E000E91C20F039F49F3F19F426F40C94DF1CF8
:1036F0000EF4E095E7FB0C94D91CE92F0E94011D04
:1037000058F3BA17620773078407950720F079F416
:10371000A6F50C94231D0EF4E0950B2EBA2FA02DC8
:103720000B01B90190010C01CA01A0011124FF276E
:10373000591B99F0593F50F4503E68F11A16F04069
:10374000A22F232F342F4427585FF3CF4695379568
:103750002795A795F0405395C9F77EF41F16BA0B2D
:10376000620B730B840BBAF09150A1F0FF0FBB1FDB
:10377000661F771F881FC2F70EC0BA0F621F731F24
:10378000841F48F4879577956795B795F7959E3F81
:1037900008F0B0CF9395880F08F09927EE0F979512
:1037A000879508950E94B51C08F481E008950E9451
:1037B000EB1B0C94F01C0E94E91C58F00E94E21CC8
:1037C00040F029F45F3F29F00C94D91C51110C945E
:1037D000241D0C94DF1C0E94011D68F39923B1F392
:1037E000552391F3951B550BBB27AA276217730727
:1037F000840738F09F5F5F4F220F331F441FAA1FBB
:10380000A9F335D00E2E3AF0E0E832D09150504076
:10381000E695001CCAF72BD0FE2F29D0660F771F24
:10382000881FBB1F261737074807AB07B0E809F00A
:10383000BB0B802DBF01FF2793585F4F3AF09E3F8F
:10384000510578F00C94D91C0C94241D5F3FE4F3CF
:10385000983ED4F3869577956795B795F7959F5FD2
:10386000C9F7880F911D9695879597F90895E1E01E
:10387000660F771F881FBB1F621773078407BA077D
:1038800020F0621B730B840BBA0BEE1F88F7E095D8
:1038900008950E94091D88F09F5798F0B92F992725
:1038A000B751B0F0E1F0660F771F881F991F1AF02B
:1038B000BA95C9F714C0B13091F00E94231DB1E050
:1038C00008950C94231D672F782F8827B85F39F04F
:1038D000B93FCCF3869577956795B395D9F73EF4C4
:1038E00090958095709561957F4F8F4F9F4F08956C
:1038F000E89409C097FB3EF490958095709561958A
:103900007F4F8F4F9F4F9923A9F0F92F96E9BB273F
:103910009395F695879577956795B795F111F8CFBB
:10392000FAF4BB0F11F460FF1BC06F5F7F4F8F4F26
:103930009F4F16C0882311F096E911C0772321F01C
:103940009EE8872F762F05C0662371F096E8862FB4
:1039500070E060E02AF09A95660F771F881FDAF70B
:10396000880F9695879597F90895990F0008550F38
:10397000AA0BE0E8FEEF16161706E807F907C0F0F5
:1039800012161306E407F50798F0621B730B840BFD
:10399000950B39F40A2661F0232B242B252B21F4D7
:1039A00008950A2609F4A140A6958FEF811D811D77
:1039B000089597F99F6780E870E060E008959FEFB1
:1039C00080EC089500240A941616170618060906B6
:1039D000089500240A941216130614060506089585
:1039E000092E0394000C11F4882352F0BB0F40F40D
:1039F000BF2B11F460FF04C06F5F7F4F8F4F9F4F4D
:103A0000089557FD9058440F551F59F05F3F71F0CE
:103A10004795880F97FB991F61F09F3F79F0879535
:103A20000895121613061406551FF2CF4695F1DFBE
:103A300008C0161617061806991FF1CF869571054E
:103A4000610508940895E894BB2766277727CB0182
:103A500097F908950E94B51C08F48FEF08950E940D
:103A6000421D0C94F01C0E94E21C38F00E94E91CDC
:103A700020F0952311F00C94D91C0C94DF1C112418
:103A80000C94241D0E94011D70F3959FC1F3950FA6
:103A900050E0551F629FF001729FBB27F00DB11DD2
:103AA000639FAA27F00DB11DAA1F649F6627B00D62
:103AB000A11D661F829F2227B00DA11D621F739F4B
:103AC000B00DA11D621F839FA00D611D221F749F59
:103AD0003327A00D611D231F849F600D211D822FA0
:103AE000762F6A2F11249F5750409AF0F1F08823C7
:103AF0004AF0EE0FFF1FBB1F661F771F881F9150F4
:103B00005040A9F79E3F510580F00C94D91C0C94AD
:103B1000241D5F3FE4F3983ED4F38695779567952F
:103B2000B795F795E7959F5FC1F7FE2B880F911D1D
:103B30009695879597F90895DB018F939F930E943F
:103B4000CE1DBF91AF91A29F800D911DA39F900D9F
:103B5000B29F900D11240895A1E21A2EAA1BBB1B3F
:103B6000FD010DC0AA1FBB1FEE1FFF1FA217B30749
:103B7000E407F50720F0A21BB30BE40BF50B661F5F
:103B8000771F881F991F1A9469F760957095809523
:103B900090959B01AC01BD01CF0108950E94DF1DEE
:103BA000A59F900DB49F900DA49F800D911D112491
:103BB0000895EE0FFF1F0590F491E02D0994A29F48
:103BC000B001B39FC001A39F700D811D1124911DF1
:103BD000B29F700D811D1124911D0895F999FECF9A
:103BE00092BD81BDF89A992780B50895A8E1B0E00B
:103BF00042E050E00C94161E262FF999FECF92BD9C
:103C000081BDF89A019700B4021639F01FBA20BDA1
:103C10000FB6F894FA9AF99A0FBE08950196272FD5
:103C20000E94FD1D0C94FC1DDC01CB01FC01F999E7
:103C3000FECF06C0F2BDE1BDF89A319600B40D92F8
:0C3C400041505040B8F70895F894FFCFB1
:103C4C000000FC04800001010101010101000001E0
:103C5C001A00000000000000D00B0101011A000046
:103C6C000000000001D00B0102011A00000000004E
:103C7C000002D00B0103011A00000000000003D069
:103C8C000B0110011A00000000000000D00B021103
:103C9C00011A00000000000001D00B0212011A00F2
:103CAC00000000000002D00B0213011A00000000FB
:103CBC00000003D00B0220011A00000000000000DD
:103CCC00D00B0421011A00000000000001D00B03EE
:103CDC0022011A00000000000002D00B0423011A7C
:103CEC0000000000000003D00B039A99593F9A99E9
:103CFC00193ECDCC4C3D000000000000000000003F
:103D0C00A0400000C442CDCC4C3E00010203000197
:103D1C0002020001005106710600000101020100BF
:103D2C0001008906AA06000002010100000100D072
:103D3C0006E306000003010100000100F7060A0774
:103D4C0000000401010000010020073407000005F9
:103D5C0001010000010048075C070000060101009A
:103D6C00000100700783070000070101000001003B
:103D7C009507A807000008010100000100BA07CD53
:103D8C0007000009010100000100DF07F207000035
:103D9C0010010100000100040817080000000000D9
:103DAC0000D41AE91A0D0A006E616E00696E660085
:0C3DBC006F76660000000000341B3A1B0C
:00000001FF
