:100000000C9435000C945D000C945D000C945D0024
:100010000C945D000C945D000C945D000C945D00EC
:100020000C945D000C945D000C945D000C945D00DC
:100030000C945D000C945D000C94CC0F0C945D004E
:100040000C945D000C945D000C94E31A0C940F1B4F
:100050000C945D000C949F010C945D000C945D0069
:100060000C945D000C945D00431B11241FBECFEF68
:10007000D8E0DEBFCDBF12E0A0E0B1E0EAE1FDE3F1
:1000800002C005900D92A239B107D9F725E0A2E987
:10009000B2E001C01D92A331B207E1F710E0C5E361
:1000A000D0E004C02197FE010E94401EC433D10756
:1000B000C9F70E94B1000C948B1E0C940000CF93E2
:1000C000DF93CDB7DEB728970FB6F894DEBF0FBE2B
:1000D000CDBF0E9452110E94A20D0E945A190E9487
:1000E0009119DC01CB0189839A83AB83BC830E9485
:1000F000A219DC01CB018D839E83AF83B8872D814C
:100100003E814F81588589819A81AB81BC81BC0138
:10011000CD010E9475170E94F61128960FB6F8942B
:10012000DEBF0FBECDBFDF91CF910895CF93DF9398
:10013000CDB7DEB70E9439020E94A902DF91CF91AC
:100140000895CF93DF93CDB7DEB70E94FD00DF9116
:10015000CF910895CF93DF93CDB7DEB7DF91CF91E5
:100160000895CF93DF93CDB7DEB70E94100F789438
:100170009091B10281E0992309F480E0882321F075
:100180001092B1020E945F009091B20281E0992327
:1001900009F480E0882321F01092B2020E949600B8
:1001A0009091B30281E0992309F480E0882321F043
:1001B0001092B3020E94A1009091B40281E09923B1
:1001C00009F480E0882321F01092B4020E94AA0072
:1001D000CFCFCF93DF93CDB7DEB78CE790E020E4AD
:1001E000FC0120838AE790E02FE8FC01208381E076
:1001F00080930601DF91CF910895CF93DF93CDB720
:10020000DEB79091060181E08927882309F01AC0A2
:100210001092060110929A028CE790E02CE730E0F1
:10022000F9012081322F307F20E02F70232BFC0139
:1002300020838AE790E02AE730E0F90120812064FA
:10024000FC012083DF91CF910895CF93DF93CDB749
:10025000DEB780910601DF91CF910895CF93DF93B0
:1002600000D01F92CDB7DEB79B838A838A819B81A2
:10027000892BF1F0198219C08981882F90E0880FAD
:10028000991F2A813B81820F931F2981222F30E001
:10029000220F331F2E563D4FF90120813181FC0181
:1002A0003183208389818F5F89838981843020F322
:1002B0000F900F900F90DF91CF910895CF93DF9320
:1002C000CDB7DEB780919A02882F90E028E730E022
:1002D000F90120813181880F991F8E569D4FFC01B5
:1002E0003183208380919A028F5F80939A0280915C
:1002F0009A028430F0F48CE790E02CE730E0F901CA
:100300002081422F407F20919A02222F30E02753F4
:100310003E4FF90120812F70242BFC0120838AE7B6
:1003200090E02AE730E0F90120812064FC0120837D
:1003300003C081E080930601DF91CF9108951F9261
:100340000F9200905F000F9211242F933F934F93D1
:100350005F936F937F938F939F93AF93BF93EF932D
:10036000FF93CF93DF93CDB7DEB70E945E01DF919D
:10037000CF91FF91EF91BF91AF919F918F917F911D
:100380006F915F914F913F912F910F9000925F007D
:100390000F901F901895CF93DF931F92CDB7DEB7C4
:1003A00089838981809307010F90DF91CF91089510
:1003B000CF93DF93CDB7DEB780910701DF91CF9167
:1003C0000895CF93DF931F92CDB7DEB789838981DC
:1003D000809308010F90DF91CF910895CF93DF9321
:1003E000CDB7DEB780910801DF91CF910895CF930B
:1003F000DF931F92CDB7DEB789838981809309018E
:100400000F90DF91CF910895CF93DF93CDB7DEB7F3
:1004100080910901DF91CF910895CF93DF931F92CF
:10042000CDB7DEB78983898180930A010F90DF9170
:10043000CF910895CF93DF93CDB7DEB780910A01B6
:10044000DF91CF910895CF93DF931F92CDB7DEB7A1
:10045000898389818093A0020F90DF91CF910895C5
:10046000CF93DF93CDB7DEB78091A002DF91CF911C
:1004700008950F931F93CF93DF93CDB7DEB76397A4
:100480000FB6F894DEBF0FBECDBF0E943D1A9E830B
:100490008D838D819E810C9708F450C08BE00E9463
:1004A0006E1A8F838F810E94821A8D3009F043C0AB
:1004B000198212C08981082F10E089810E946E1A6A
:1004C0000E94821A282FCE010896800F911FFC01EE
:1004D000208389818F5F898389818C3058F31C82C6
:1004E0001A8210C08A81882F90E09E01285F3F4FBA
:1004F000820F931FFC0180819C81890F8C838A81EC
:100500008F5F8A838A818A3068F39A898C819817F1
:1005100079F41B8205C00E94F2198B818F5F8B8357
:100520008B818C30C0F3CE0108960E94E61205C084
:100530000E94F21902C00E94F219A7CF63960FB66B
:10054000F894DEBF0FBECDBFDF91CF911F910F9109
:100550000895CF93DF93CDB7DEB78091A10290913C
:10056000A2020A969093A2028093A1028091A30214
:100570009091A4020A969093A4028093A302809182
:10058000A5029091A6020A969093A6028093A502D6
:100590008091A7029091A8020A969093A802809356
:1005A000A7028091A9029091AA020A969093AA02AA
:1005B0008093A90280910701882361F08091A102B4
:1005C0009091A202449730F01092A2021092A102E0
:1005D0000E942F0380910801882361F08091A3027B
:1005E0009091A402889730F01092A4021092A30276
:1005F0000E94930380910901882361F08091A502F4
:100600009091A602889730F01092A6021092A5024F
:100610000E946A0480910A01882369F08091A702F0
:100620009091A8028035910530F01092A8021092A6
:10063000A7020E94FE048091A002882369F08091A5
:10064000A9029091AA02883C910530F01092AA026A
:100650001092A9020E944805DF91CF910895CF938F
:10066000DF93CDB7DEB72E970FB6F894DEBF0FBE7F
:10067000CDBF1A828AEA0E940B1A8A8186558A8324
:100680000E942501882321F0CE0107960E942E01A9
:10069000198228C08981882F90E0880F991F9E01B8
:1006A0002F5F3F4F820F931F0696FC01808191813F
:1006B0009C838B838B818D838B819C81892F992750
:1006C0008E838D810E940B1A9A818D81890F8A8376
:1006D0008E810E940B1A9A818E81890F8A8389816B
:1006E0008F5F898389818430A8F280919B020E9468
:1006F0000B1A80919B029A81890F8A838A810E94BA
:100700000B1A8DE00E940B1A80919B028F5F8F70F5
:1007100080939B022E960FB6F894DEBF0FBECDBF1E
:10072000DF91CF910895CF93DF93CDB7DEB7649774
:100730000FB6F894DEBF0FBECDBF1A8219820E9499
:1007400069149C838B830E9475149E838D830E9401
:10075000811498878F838F819885CC01A0E0B0E0C9
:100760000196A11DB11D880F991FAA1FBB1F880FDD
:10077000991FAA1FBB1F880F991FAA1FBB1F9C018F
:10078000AD0180E094E2A4EFB0E0BC01CD010E9495
:10079000131EDA01C9019A8789878F819885CC0158
:1007A000A0E0B0E0BC01CD010E94DF1CDC01CB0168
:1007B00024EA30E74DE75FE3BC01CD010E94961DBE
:1007C000DC01CB01BC01CD010E94B01CDC01CB01DE
:1007D0009C018B819C818217930718F081E08983AB
:1007E0000CC08B819C810B9720F08D819E810B9793
:1007F00018F482E0898301C0198282EA0E940B1AF0
:100800008A818E558A838B818B878B819C81892FEE
:1008100099278C878B850E940B1A9A818B85890F6B
:100820008A838C850E940B1A9A818C85890F8A8312
:100830008D818D878D819E81892F99278E878D85CA
:100840000E940B1A9A818D85890F8A838E850E945A
:100850000B1A9A818E85890F8A8389810E940B1ACF
:100860009A818981890F8A8389858F8789859A856D
:10087000892F9927888B8F850E940B1A9A818F85E3
:10088000890F8A8388890E940B1A9A818889890F27
:100890008A8380E00E940B1A80919C020E940B1AAE
:1008A00080919C029A81890F8A838A810E940B1A07
:1008B0008DE00E940B1A80919C028F5F8F70809355
:1008C0009C0264960FB6F894DEBF0FBECDBFDF91D9
:1008D000CF910895CF93DF93CDB7DEB72C970FB6A6
:1008E000F894DEBF0FBECDBF1A8283EA0E940B1AB6
:1008F0008A818D558A830E9495159C838B830E94E3
:10090000D9158D830E94C3158E838B819C81892F7D
:1009100099278F838B81888788850E940B1A9A81FB
:100920008885890F8A838F810E940B1A9A818F8113
:10093000890F8A838D81882F90E0092E000CAA0BE5
:10094000BB0BBC01CD010E94E11CDC01CB0120E00E
:1009500030E040E251E4BC01CD010E94961DDC0173
:10096000CB01BC01CD010E94B01CDC01CB019A87F8
:10097000898789858B8789859A85892F99278C878F
:100980008B850E940B1A9A818B85890F8A838C85AF
:100990000E940B1A9A818C85890F8A838E810E940E
:1009A0000B1A9A818E81890F8A83198206C080E092
:1009B0000E940B1A89818F5F898389818330B8F304
:1009C00080919D020E940B1A80919D029A81890F4D
:1009D0008A838A810E940B1A8DE00E940B1A8091F3
:1009E0009D028F5F8F7080939D022C960FB6F894B6
:1009F000DEBF0FBECDBFDF91CF910895CF93DF93C0
:100A000000D000D0CDB7DEB71A8284EA0E940B1A5C
:100A10008A818C558A8384E10E94570E8B8385E1FD
:100A20000E94570E8C838B810E940B1A9A818B81B6
:100A3000890F8A838C810E940B1A9A818C81890F7D
:100A40008A83198206C080E00E940B1A89818F5F19
:100A5000898389818630B8F380919E020E940B1AA7
:100A600080919E029A81890F8A838A810E940B1A43
:100A70008DE00E940B1A80919E028F5F8F70809391
:100A80009E020F900F900F900F90DF91CF910895DD
:100A9000CF93DF93CDB7DEB76F970FB6F894DEBF75
:100AA0000FBECDBF0E944F0E8A871F82198220C0C1
:100AB0008981282F30E04DE0429FC001439F900D77
:100AC00011248E5E9E4FFC018081882371F08F81FE
:100AD00091E0980F9F83882F90E09E012C5E3F4FFE
:100AE000820F931F2981FC01208389818F5F898375
:100AF00099818A859817E0F28F81882341F51886BD
:100B000085EA0E940B1A88858B5588871B8206C050
:100B100080E00E940B1A8B818F5F8B838B818830E2
:100B2000B8F380919F020E940B1A80919F029885D2
:100B3000890F888788850E940B1A8DE00E940B1A06
:100B400080919F028F5F8F7080939F02A8C08F81DA
:100B5000882F90E00196969587958B871A829AC088
:100B6000198685EA0E940B1A89858B5589871C8214
:100B700075C08A81982F990F8C81890F8C879C85ED
:100B80008F81981708F05CC08C85882F90E09E01BB
:100B90002C5E3F4F820F931FFC0180818D878D85D6
:100BA000282F30E04DE0429FC001439F900D11245B
:100BB000835F9E4FFC0180819181A281B3818E87EA
:100BC0009F87A88BB98B8D85282F30E04DE0429F01
:100BD000C001439F900D11248E5E9E4FFC018081C9
:100BE0008A8B82E08D8321C08D81082E000C990BA9
:100BF0009C01220F331F220F331F220F331F8E85BC
:100C00009F85A889B98904C0B695A79597958795BA
:100C10002A95D2F78B8B8B890E940B1A99858B8929
:100C2000890F89878D8181508D838D818823E4F69A
:100C30008A890E940B1A99858A89890F89870BC036
:100C40001E8206C080E00E940B1A8E818F5F8E8309
:100C50008E818430B8F38C818F5F8C838C8182305D
:100C600008F487CF80919F020E940B1A80919F0207
:100C70009985890F898789850E940B1A8DE00E94CA
:100C80000B1A80919F028F5F8F7080939F028A81E1
:100C90008F5F8A839A818B85981708F461CF6F964E
:100CA0000FB6F894DEBF0FBECDBFDF91CF91089590
:100CB000CF92DF92EF92FF920F931F93CF93DF9328
:100CC000CDB7DEB72C970FB6F894DEBF0FBECDBF01
:100CD0009C838B830E9481149A8389830E94691468
:100CE0009C0140E050E084E690E0DC010E94351E6B
:100CF0007B018C0189819A819C0140E050E0C80110
:100D0000B7010E94131EDA01C901282F8B819C8133
:100D1000FC0120838B819C818C010F5F1F4F0E94FF
:100D200075149C0140E050E084E690E0DC010E94F4
:100D3000351E6B017C0189819A819C0140E050E065
:100D4000C701B6010E94131EDA01C901F8018083B0
:100D50002C960FB6F894DEBF0FBECDBFDF91CF91BA
:100D60001F910F91FF90EF90DF90CF900895CF9358
:100D7000DF9300D0CDB7DEB79A83898389819A81CA
:100D8000FC0180810E948D1489819A810196FC0169
:100D900080810E94A3140F900F90DF91CF9108954E
:100DA000CF93DF93CDB7DEB70E94AD15882311F046
:100DB00080E001C082E2DF91CF910895CF93DF936D
:100DC00000D000D0CDB7DEB79C838B830E94811406
:100DD0009A83898329818B819C81FC0120838B816B
:100DE0009C81019629813A81232F3327FC0120839E
:100DF0000F900F900F900F90DF91CF910895CF93A8
:100E0000DF9300D000D0CDB7DEB79C838B838B817E
:100E10009C810196FC018081882F90E0382F222749
:100E20008B819C81FC018081882F90E0822B932B09
:100E30009A83898389819A810E9424140F900F904C
:100E40000F900F90DF91CF910895CF93DF9300D053
:100E5000CDB7DEB79A8389830E949515282F8981A3
:100E60009A81FC0120830F900F90DF91CF9108951C
:100E7000CF93DF9300D0CDB7DEB79A838983898182
:100E80009A81FC018081882F90E00E9483150F9049
:100E90000F90DF91CF910895CF93DF9300D0CDB71E
:100EA000DEB79A8389830E94AD15282F89819A81A4
:100EB000FC0120830F900F90DF91CF910895CF9385
:100EC000DF9300D0CDB7DEB79A83898389819A8179
:100ED000FC01908181E0992309F480E00E94A01533
:100EE0000F900F90DF91CF910895CF93DF9300D0B3
:100EF000CDB7DEB79A83898384E10E94570E282FED
:100F000089819A81FC0120830F900F90DF91CF910E
:100F10000895CF93DF9300D0CDB7DEB79A8389834E
:100F200089819A81FC0180810E940A120F900F90A2
:100F3000DF91CF910895CF93DF9300D0CDB7DEB787
:100F40009A83898385E10E94570E282F89819A818F
:100F5000FC0120830F900F90DF91CF910895CF93E4
:100F6000DF9300D0CDB7DEB79A83898389819A81D8
:100F7000FC0180810E941E120F900F90DF91CF9193
:100F80000895CF93DF9300D0CDB7DEB79A838983DE
:100F90000E943002282F89819A81FC0120830F90C2
:100FA0000F90DF91CF910895CF93DF9300D0CDB70D
:100FB000DEB79A83898389819A81FC0180810E94AE
:100FC00023020F900F90DF91CF910895CF93DF937D
:100FD00000D0CDB7DEB79A8389830E940402282F00
:100FE00089819A81FC0120830F900F90DF91CF912E
:100FF0000895CF93DF9300D0CDB7DEB79A8389836E
:1010000089819A81FC0180810E94F7010F900F90E5
:10101000DF91CF910895CF93DF9300D0CDB7DEB7A6
:101020009A8389830E94EE01282F89819A81FC018D
:1010300020830F900F90DF91CF910895CF93DF938E
:1010400000D0CDB7DEB79A83898389819A81FC016C
:1010500080810E94E1010F900F90DF91CF91089560
:10106000CF93DF9300D0CDB7DEB79A8389830E94F8
:101070001A02282F89819A81FC0120830F900F90FA
:10108000DF91CF910895CF93DF9300D0CDB7DEB736
:101090009A83898389819A81FC0180810E940D0253
:1010A0000F900F90DF91CF910895CF93DF9300D0F1
:1010B000CDB7DEB79A8389830E94D801282F898112
:1010C0009A81FC0120830F900F90DF91CF910895BA
:1010D000CF93DF9300D0CDB7DEB79A838983898120
:1010E0009A81FC0180810E94CB010F900F90DF91CB
:1010F000CF910895CF93DF93CDB7DEB781E090E035
:1011000090930C0180930B01DF91CF910895CF93C1
:10111000DF9300D01F92CDB7DEB79B838A838A818D
:101120009B81892B09F43EC08A819B81FC018081CF
:1011300089838981882F90E089319105D1F08A31A6
:10114000910534F48131910561F0449779F025C01F
:101150008E329105C1F081339105D1F0829771F003
:101160001CC08A819B810E94D8081CC00E94FA087A
:1011700019C08A819B810E94090914C08A819B81C0
:101180000E9426090FC08A819B810E94330A0AC0EF
:1011900062E181E30E94020C05C061E189810E9445
:1011A000020C00000F900F900F90DF91CF910895E7
:1011B000CF93DF9300D01F92CDB7DEB79B838A8396
:1011C0008A819B81FC01818189838981823041F4FC
:1011D00041E0CE010196BC0181E10E94AE0B04C04A
:1011E00062E181E10E94020C0F900F900F90DF915D
:1011F000CF910895CF93DF93CDB7DEB70E94000E55
:1012000040E060E070E084E10E94AE0BDF91CF919E
:101210000895CF93DF9300D01F92CDB7DEB79B83A5
:101220008A838A819B81FC018181898389818230C3
:1012300019F40E94460E04C062E189E10E94020C8A
:101240000F900F900F90DF91CF910895CF93DF9380
:10125000CDB7DEB763970FB6F894DEBF0FBECDBF34
:101260009B8B8A8B1B828A899B890196FC018081DA
:10127000882F90E0382F22278A899B890296FC01CB
:101280008081882F90E0822B932B9D838C83198201
:10129000D4C08981282F30E04FE0429FC001439F96
:1012A000900D112483539E4FFC01208131818C814C
:1012B0009D812817390709F0BDC08A899B89FC01E7
:1012C00081818A878A899B89FC0182818B878981B8
:1012D000282F30E04FE0429FC001439F900D112422
:1012E0008C529E4FFC0180819181892BA1F08981D4
:1012F000282F30E04FE0429FC001439F900D112402
:101300008C529E4FFC0120813181CE010A960296BB
:10131000F901099575C08981282F30E04FE0429F7F
:10132000C001439F900D112488529E4FFC01808183
:101330009181892B09F464C08981282F30E04FE026
:10134000429FC001439F900D112480539E4FFC018A
:10135000808191810197D9F48981282F30E04FE075
:10136000429FC001439F900D112488529E4FFC0163
:1013700080819181FC01808191819F838E838E8108
:101380008C878E819F81892F99278D8739C089818C
:10139000282F30E04FE0429FC001439F900D112461
:1013A00088529E4FFC0180819181998788871A829B
:1013B00017C08A81882F90E002962A81222F30E080
:1013C00048855985240F351FF90140819E01265F0C
:1013D0003F4F820F931FFC0140838A818F5F8A8376
:1013E0008981282F30E04FE0429FC001439F900D3C
:1013F000112481539E4FFC0190818A818917C8F284
:101400008981282F30E04FE0429FC001439F900D1B
:10141000112481539E4FFC01808122E0280FCE01D0
:101420000A96422FBC0182E20E94AE0B81E08B83C0
:10143000000007C089818F5F898389818B3008F420
:1014400028CF9B8181E08927882321F061E382E214
:101450000E94020C63960FB6F894DEBF0FBECDBF9C
:10146000DF91CF910895CF93DF93CDB7DEB7649727
:101470000FB6F894DEBF0FBECDBF9C8B8B8B1B824B
:101480008B899C890196FC018081882F90E0382F00
:1014900022278B899C890296FC018081882F90E00D
:1014A000822B932B9D838C83198242C18981282FA3
:1014B00030E04FE0429FC001439F900D11248353C1
:1014C0009E4FFC01208131818C819D812817390735
:1014D00009F02BC18981282F30E04FE0429FC001E5
:1014E000439F900D11248E529E4FFC01808191816B
:1014F000019729F062E28EE20E94020C26C18981E6
:10150000282F30E04FE0429FC001439F900D1124EF
:1015100086529E4FFC0180819181892BD1F0898177
:10152000282F30E04FE0429FC001439F900D1124CF
:1015300086529E4FFC0180819181FC0109958E832A
:101540008E81882331F06E818EE20E94020C0000B1
:10155000FCC08981282F30E04FE0429FC001439FAB
:10156000900D11248A529E4FFC0180819181892B1C
:10157000A1F08981282F30E04FE0429FC001439FB6
:10158000900D11248A529E4FFC01208131818B895C
:101590009C890396F901099582C08981282F30E042
:1015A0004FE0429FC001439F900D112488529E4FEF
:1015B000FC0180819181892B09F471C08981282FD8
:1015C00030E04FE0429FC001439F900D11248053B3
:1015D0009E4FFC0180819181019741F58B899C8907
:1015E0000496FC018081882F90E0382F22278B8978
:1015F0009C890396FC018081882F90E0822B932B9D
:1016000098878F838981282F30E04FE0429FC00167
:10161000439F900D112488529E4FFC01808191813F
:101620002F813885FC013183208339C08981282F9F
:1016300030E04FE0429FC001439F900D112488523B
:101640009E4FFC01808191819A8789871A8217C0F9
:101650008A81882F90E029853A85820F931F2A81FD
:10166000222F30E02D5F3F4F4B895C89240F351FBF
:10167000F9012081FC0120838A818F5F8A8389811F
:10168000282F30E04FE0429FC001439F900D11246E
:1016900081539E4FFC0190818A818917C8F28B8902
:1016A0009C89FC0181818B878B899C89FC018281CB
:1016B0008C878981282F30E04FE0429FC001439FF3
:1016C000900D11248C529E4FFC0180819181892BB9
:1016D00099F08981282F30E04FE0429FC001439F5D
:1016E000900D11248C529E4FFC0120813181CE013E
:1016F0000B960296F90109958981282F30E04FE079
:10170000429FC001439F900D112481539E4FFC01C5
:10171000808122E0280FCE010B96422FBC018EE281
:101720000E94AE0B81E08B8307C089818F5F898324
:1017300089818B3008F4BACE9B8181E08927882388
:1017400021F061E38EE20E94020C64960FB6F894D9
:10175000DEBF0FBECDBFDF91CF910895CF93DF9352
:10176000CDB7DEB728970FB6F894DEBF0FBECDBF5A
:101770008D837F836E8348871B828D81805C8C8301
:101780008C810E940B1A9B818C81890F8B8319821B
:101790001AC08981882F90E02E813F81820F931F8C
:1017A000FC0180810E940B1A8981882F90E02E8194
:1017B0003F81820F931FFC0180819B81890F8B8366
:1017C00089818F5F898399818885981710F388852F
:1017D0008A8306C080E00E940B1A8A818F5F8A8309
:1017E0008A818930B8F38B810E940B1A8DE00E94A8
:1017F0000B1A28960FB6F894DEBF0FBECDBFDF914F
:10180000CF910895CF93DF9300D000D0CDB7DEB74E
:101810008B836C831A828FE70E940B1A8A8181580E
:101820008A838B810E940B1A9A818B81890F8A830C
:101830008C810E940B1A9A818C81890F8A8319826C
:1018400006C080E00E940B1A89818F5F898389819D
:101850008730B8F38A810E940B1A8DE00E940B1A20
:101860000F900F900F900F90DF91CF910895CF932D
:10187000DF931F92CDB7DEB7198238C08981282F38
:1018800030E04DE0429FC001439F900D11248F5ED8
:101890009E4FFC0110828981282F30E04DE0429F4D
:1018A000C001439F900D11248E5E9E4FFC0110825B
:1018B0008981282F30E04DE0429FC001439F900D69
:1018C00011248D5E9E4FFC0110828981282F30E00B
:1018D0004DE0429FC001439F900D11248C5E9E4FAE
:1018E000FC011182108289818F5F898389818C300C
:1018F00028F20F90DF91CF910895CF93DF93CDB76A
:10190000DEB72A970FB6F894DEBF0FBECDBF89872A
:101910006A87CE0101960E942E018A85823091F459
:101920008985882F90E0880F991F9E012F5F3F4F78
:10193000820F931FFC0180819181892B09F061C086
:1019400081E060C08A85813099F48985882F90E094
:10195000880F991F9E012F5F3F4F820F931FFC013D
:10196000808191818F3F934009F04BC081E04AC054
:101970008A85833011F58985882F90E0880F991F1B
:101980009E012F5F3F4F820F931FFC018081918149
:101990008B329340B0F18985882F90E0880F991F92
:1019A0009E012F5F3F4F820F931FFC018081918129
:1019B0008F3F934031F181E025C08A85843009F55D
:1019C0008985882F90E0880F991F9E012F5F3F4FD8
:1019D000820F931FFC01808191818039914088F4AE
:1019E0008985882F90E0880F991F9E012F5F3F4FB8
:1019F000820F931FFC0180819181892B11F081E07E
:101A000001C080E02A960FB6F894DEBF0FBECDBFAE
:101A1000DF91CF910895CF93DF93CDB7DEB72B97AA
:101A20000FB6F894DEBF0FBECDBF9A8789876B874C
:101A300089859A85892B09F47CC08B85882309F4D4
:101A40004DC089859A85FC018681843650F489854C
:101A50009A85FC01868121E0280F89859A85FC0101
:101A6000268389859A85FC018481882329F48985C8
:101A70009A8521E0FC01248389859A85FC01848173
:101A8000813009F056C089859A85FC0186818436AB
:101A900008F44FC089859A8522E0FC01248389855A
:101AA0009A8522E0FC012583CE0101960E942E0139
:101AB00089859A85FC018185882F90E0880F991F80
:101AC0009E012F5F3F4F820F931FFC0120813181C8
:101AD00089859A85FC01308727832BC089859A8563
:101AE000FC018681882359F089859A85FC018681CD
:101AF0002FEF280F89859A85FC0126831AC08985D6
:101B00009A85FC018481823051F489859A85FC0193
:101B1000148289859A8521E0FC0125830AC0898584
:101B20009A85FC018481813021F489859A85FC01A4
:101B300014822B960FB6F894DEBF0FBECDBFDF9197
:101B4000CF910895CF93DF9300D0CDB7DEB7198240
:101B50004EC01A828981282F30E04DE0429FC0019B
:101B6000439F900D1124895E9E4FFC0180819181DD
:101B7000892B61F18981282F30E04DE0429FC0011F
:101B8000439F900D1124895E9E4FFC01208131817D
:101B90008981482F50E06DE0649FC001659F900DE2
:101BA0001124875E9E4FFC0170818981482F50E08F
:101BB0006DE0649FC001659F900D11248A5E9E4F69
:101BC000FC018081672FF90109958A838981282F7B
:101BD00030E04DE0429FC001439F900D1124835F90
:101BE0009E4F6A810E940B0D89818F5F8983898155
:101BF0008C3008F4AECF0F900F90DF91CF91089505
:101C0000CF93DF931F92CDB7DEB7198238C0898199
:101C1000282F30E04DE0429FC001439F900D1124DA
:101C20008F5E9E4FFC0110828981282F30E04DE0AD
:101C3000429FC001439F900D11248E5E9E4FFC0178
:101C400010828981282F30E04DE0429FC001439FE0
:101C5000900D11248D5E9E4FFC0110828981282FEA
:101C600030E04DE0429FC001439F900D11248C5EF7
:101C70009E4FFC011182108289818F5F8983898147
:101C80008C3028F20F90DF91CF910895CF93DF939E
:101C9000CDB7DEB70E944805DF91CF910895CF936D
:101CA000DF93CDB7DEB78CE0DF91CF910895CF936E
:101CB000DF9300D000D0CDB7DEB78C8319828C8142
:101CC00082958F708A838C818F708B838A81882321
:101CD000A9F483E290E0FC018081882F90E02B81C1
:101CE000222F30E002C0969587952A95E2F7817001
:101CF0009927892BD1F081E0898317C08A818130AF
:101D0000A1F489E290E0FC018081882F90E02B8192
:101D1000222F30E002C0969587952A95E2F78170D0
:101D20009927892B11F081E0898389810F900F9089
:101D30000F900F90DF91CF910895CF93DF9300D054
:101D400000D0CDB7DEB78B836C838B8182958F708B
:101D500089838B818F708A838981882361F58C8147
:101D60008130A1F485E290E025E230E0F901608164
:101D70002A81422F50E021E030E002C0220F331FC1
:101D80004A95E2F7262BFC01208343C085E290E0D0
:101D900025E230E0F90160812A81422F50E021E004
:101DA00030E002C0220F331F4A95E2F72095262328
:101DB000FC0120832EC08981813059F58C818130CE
:101DC000A1F48BE290E02BE230E0F90160812A81FE
:101DD000422F50E021E030E002C0220F331F4A952D
:101DE000E2F7262BFC01208314C08BE290E02BE26B
:101DF00030E0F90160812A81422F50E021E030E09B
:101E000002C0220F331F4A95E2F720952623FC01DA
:101E100020830F900F900F900F90DF91CF91089536
:101E2000CF93DF93CDB7DEB70E941A130E94370C11
:101E30000E9432120E94731260E071EE80E090E026
:101E40000E94B3190E947A080E94E9000E94360F8E
:101E500084E690E00E943C13789481E090E09093B7
:101E6000AC028093AB02DF91CF910895CF93DF93C3
:101E7000CDB7DEB784E490E022E0FC01208387E464
:101E800090E029EFFC01208385E490E023E0FC0151
:101E900020838EE690E022E0FC012083DF91CF9149
:101EA0000895CF93DF93CDB7DEB78091AD029091C7
:101EB000AE02A091AF02B091B0020196A11DB11D7A
:101EC0008093AD029093AE02A093AF02B093B002A4
:101ED000DF91CF910895CF93DF93CDB7DEB7809197
:101EE000B5029091B60201969093B6028093B50226
:101EF0008091B7029091B80201969093B8028093B6
:101F0000B7028091B9029091BA0201969093BA02F9
:101F10008093B9028091BB029091BC02019690938C
:101F2000BC028093BB028091B5029091B6020A97E1
:101F300038F01092B6021092B50281E08093B1029F
:101F40008091B7029091B802C29738F01092B8020F
:101F50001092B70281E08093B2028091B902909111
:101F6000BA028436910538F01092BA021092B90282
:101F700081E08093B3028091BB029091BC02843FC8
:101F8000914038F01092BC021092BB0281E0809325
:101F9000B402DF91CF9108951F920F9200905F00DD
:101FA0000F9211242F933F934F935F936F937F93DF
:101FB0008F939F93AF93BF93EF93FF93CF93DF9351
:101FC000CDB7DEB70E94510F0E946B0FDF91CF910A
:101FD000FF91EF91BF91AF919F918F917F916F9101
:101FE0005F914F913F912F910F9000925F000F9062
:101FF0001F901895CF92DF92EF92FF92CF93DF93CD
:1020000000D000D000D0CDB7DEB79A8389834B8350
:102010005C836D837E8389819A818E5B9F4FFC01F7
:1020200080819181A281B38129813A81205C3F4FD7
:10203000F9012081222F30E049815A81220F331F7C
:10204000220F331F240F351FF90120813181428176
:102050005381BC01CD010E94CC1BDC01CB01298145
:102060003A812E5B3F4FF90180839183A283B38332
:1020700089819A81805C9F4FFC018081882F90E04C
:1020800029813A81880F991F880F991F280F391FBE
:102090008B819C81AD81BE81F90180839183A28374
:1020A000B38389819A818E5B9F4FFC0180819181EE
:1020B000A281B3812B813C814D815E81BC01CD0128
:1020C0000E94CD1BDC01CB0129813A812E5B3F4F61
:1020D000F90180839183A283B38389819A81805C93
:1020E0009F4FFC0180818F5F282F2F7089819A81FB
:1020F000805C9F4FFC01208389819A818F5B9F4F79
:10210000FC018081803170F489819A818F5B9F4FBF
:10211000FC01808121E0280F89819A818F5B9F4F8C
:10212000FC01208389819A818E5B9F4FFC01C080D6
:10213000D180E280F38089819A818F5B9F4FFC017F
:102140008081882F90E0A0E0B0E0BC01CD010E942A
:10215000DF1CDC01CB019C01AD01C701B6010E946F
:102160003E1CDC01CB01BC01CD0126960FB6F894D4
:10217000DEBF0FBECDBFDF91CF91FF90EF90DF901C
:10218000CF900895CF93DF9300D000D000D0CDB78B
:10219000DEB79E838D838D819E81CC01A0E0B0E06F
:1021A000BC01CD010E94DF1CDC01CB0120E030EC42
:1021B0004FE754E4BC01CD010E943E1CDC01CB0181
:1021C00020E030E040EA50E4BC01CD010E94961DC1
:1021D000DC01CB0189839A83AB83BC8320E030E0B0
:1021E00040E250E469817A818B819C810E94CC1B02
:1021F000DC01CB0122E03BE247E85DE3BC01CD011D
:102200000E943E1CDC01CB01BC01CD0126960FB61D
:10221000F894DEBF0FBECDBFDF91CF910895CF936D
:10222000DF9300D000D000D0CDB7DEB79E838D8382
:102230008D819E81CC01A0E0B0E0BC01CD010E9467
:10224000DF1CDC01CB0120E030EC4FE754E4BC01A3
:10225000CD010E943E1CDC01CB0120E030E040EAD1
:1022600050E4BC01CD010E94961DDC01CB018983A5
:102270009A83AB83BC8320E030E040E451E4698181
:102280007A818B819C810E94961DDC01CB01BC016F
:10229000CD0126960FB6F894DEBF0FBECDBFDF91FD
:1022A000CF910895CF93DF93CDB7DEB7A8970FB640
:1022B000F894DEBF0FBECDBF0E942501882309F42C
:1022C0008CC0CE0181960E942E0189A19AA10E9404
:1022D000C210DC01CB0189839A83AB83BC838981E3
:1022E0009A81AB81BC81AC01BD018DEB92E00E9473
:1022F000FA0FDC01CB018D839E83AF83B8878D817C
:102300009E81AF81B885BC01CD010E94CB148BA109
:102310009CA10E940F11DC01CB0189879A87AB87B2
:10232000BC8789859A85AB85BC85AC01BD0183E0FE
:1023300093E00E94FA0FDC01CB018D879E87AF8767
:10234000B88B8D859E85AF85B889BC01CD010E9473
:10235000F9148DA19EA10E94C210DC01CB01898BD2
:102360009A8BAB8BBC8B89899A89AB89BC89AC0170
:10237000BD0189E493E00E94FA0FDC01CB018D8B53
:102380009E8BAF8BB88F8D899E89AF89B88DBC012C
:10239000CD010E9427158FA198A50E940F11DC0185
:1023A000CB01898F9A8FAB8FBC8F898D9A8DAB8D26
:1023B000BC8DAC01BD018FE893E00E94FA0FDC01F7
:1023C000CB018D8F9E8FAF8FB8A38D8D9E8DAF8DDE
:1023D000B8A1BC01CD010E945515A8960FB6F8947E
:1023E000DEBF0FBECDBFDF91CF910895CF93DF93B6
:1023F00000D0CDB7DEB70E949A1489830E94B01432
:102400008A836A8189810E94C6130F900F90DF91A1
:10241000CF910895CF93DF931F92CDB7DEB7898315
:102420008981882311F081E001C080E0682F84E178
:102430000E949D0E0F90DF91CF910895CF93DF936F
:102440001F92CDB7DEB789838981882311F081E09F
:1024500001C080E0682F85E10E949D0E0F90DF9102
:10246000CF910895CF93DF9300D000D0CDB7DEB7E2
:1024700080E090E00E945D1E9B838A838A819B811D
:102480008A35954A49F16AE575EA80E090E00E9454
:10249000751E64E670E082E090E00E94751E6CE0BC
:1024A00084E090E00E94631E60E085E090E00E947E
:1024B000631E0E944F0E8C8319820AC08981882F67
:1024C00090E0069660E00E94631E89818F5F898399
:1024D00099818C81981790F30F900F900F900F9027
:1024E000DF91CF910895CF93DF93CDB7DEB72797D4
:1024F0000FB6F894DEBF0FBECDBF82E090E00E9421
:102500005D1E9B838A8384E090E00E94551E8C832D
:1025100085E090E00E94551E982F81E0992309F4F0
:1025200080E08D838A819B81019621F484E690E08E
:102530009B838A838C818F3F11F48CE08C838A810A
:102540009B810E94B9148C81882F90E00E94831592
:102550008D810E94A0150E944F0E8E83198229C082
:102560008981882F90E006960E94551E8F8389816D
:10257000282F30E04DE0429FC001439F900D112471
:102580008E5E9E4F2F81FC0120838F81882371F006
:102590008981282F30E04DE0429FC001439F900D7C
:1025A00011248F5E9E4F22E0FC01208389818F5F82
:1025B000898399818E81981798F227960FB6F8949F
:1025C000DEBF0FBECDBFDF91CF910895CF93DF93D4
:1025D00000D01F92CDB7DEB79B838A838A819B810F
:1025E000892B11F18A819B81FC01808189838981FA
:1025F000882F90E08931910591F08A31910534F46A
:102600008131910561F0449751F00EC08E329105F1
:1026100031F08133910519F0829709F005C08A8164
:102620009B810E94870800000F900F900F90DF9110
:10263000CF910895CF93DF93CDB7DEB784E290E0DA
:1026400024E230E0F90120812660FC0120838AE247
:1026500090E02AE230E0F90120812063FC01208330
:102660008BE290E02BE230E0F90120812F7CFC012D
:102670002083DF91CF9108950F931F93CF93DF9322
:10268000CDB7DEB728970FB6F894DEBF0FBECDBF2B
:102690009C838B838B819C81CC01A0E0B0E0880F70
:1026A000991FAA1FBB1F880F991FAA1FBB1F880F46
:1026B000991FAA1FBB1F9C01AD0180E094E2A4EF0B
:1026C000B0E0BC01CD010E94131EDA01C9010197DF
:1026D0009A83898386E890E029813A81FC013183DD
:1026E000208380E890E022EAFC01208381E890E0EA
:1026F0002AE1FC01208308E810E089819A81CC015D
:10270000A0E0B0E0BC01CD010E94DF1CDC01CB01E8
:1027100028E431EE4AE75FE3BC01CD010E94961D3B
:10272000DC01CB01BC01CD010E94B01CDC01CB015E
:10273000F801918380830AE810E089819A81CC01B5
:10274000A0E0B0E0BC01CD010E94DF1CDC01CB01A8
:1027500028E431EE4AE75FE3BC01CD010E94961DFB
:10276000DC01CB01BC01CD010E94B01CDC01CB011E
:10277000F8019183808328960FB6F894DEBF0FBED0
:10278000CDBFDF91CF911F910F9108950F931F93AC
:10279000CF93DF93CDB7DEB72C970FB6F894DEBF9B
:1027A0000FBECDBF8B836C8386E890E0FC018081F7
:1027B00091819A83898308E810E089819A819C013C
:1027C00040E050E08B81882F90E0A0E0B0E0BC01B9
:1027D000CD010E94031EDC01CB0124E630E040E085
:1027E00050E0BC01CD010E94131EDA01C901F801BD
:1027F000918380830AE810E089819A819C0140E0FE
:1028000050E08C81882F90E0A0E0B0E0BC01CD01C9
:102810000E94031EDC01CB0124E630E040E050E0E2
:10282000BC01CD010E94131EDA01C901F801918398
:1028300080832C960FB6F894DEBF0FBECDBFDF911C
:10284000CF911F910F9108950F931F93CF93DF9313
:1028500000D000D000D0CDB7DEB79A8389838981BC
:102860009A81892B59F189819A814F9720F48FE1C0
:1028700090E09A83898306E810E089819A81CC01EF
:10288000A0E0B0E0880F991FAA1FBB1F880F991FF7
:10289000AA1FBB1F880F991FAA1FBB1F9C01AD0158
:1028A00080E094E2A4EFB0E0BC01CD010E94131ED1
:1028B000DA01C9010197F8019183808326960FB64A
:1028C000F894DEBF0FBECDBFDF91CF911F910F9166
:1028D0000895CF93DF93CDB7DEB788E890E0FC0191
:1028E00080819181DF91CF910895CF93DF93CDB710
:1028F000DEB78AE890E0FC0180819181DF91CF9181
:102900000895CF93DF93CDB7DEB786E890E0FC0162
:1029100080819181DF91CF910895CF93DF931F92B2
:10292000CDB7DEB7898389818093D5030F90DF917E
:10293000CF910895CF93DF93CDB7DEB78091D503C4
:10294000DF91CF910895CF93DF931F92CDB7DEB77C
:10295000898389818093D6030F90DF91CF91089569
:10296000CF93DF93CDB7DEB78091D603DF91CF91C0
:102970000895CF93DF9300D0CDB7DEB79A838983D4
:1029800089819A819093D8038093D7030F900F90F9
:10299000DF91CF910895CF93DF9300D000D0CDB7D2
:1029A000DEB769837A838B839C8389819A81AB812B
:1029B000BC818093D9039093DA03A093DB03B09397
:1029C000DC030F900F900F900F90DF91CF9108953F
:1029D000CF93DF93CDB7DEB78091D9039091DA031F
:1029E000A091DB03B091DC03BC01CD01DF91CF915D
:1029F0000895CF93DF9300D000D0CDB7DEB76983C1
:102A00007A838B839C8389819A81AB81BC818093FB
:102A1000DD039093DE03A093DF03B093E0030F90F8
:102A20000F900F900F90DF91CF910895CF93DF9388
:102A3000CDB7DEB78091DD039091DE03A091DF0377
:102A4000B091E003BC01CD01DF91CF910895CF9308
:102A5000DF9300D000D0CDB7DEB769837A838B8354
:102A60009C8389819A81AB81BC818093E10390939F
:102A7000E203A093E303B093E4030F900F900F9051
:102A80000F90DF91CF910895CF93DF93CDB7DEB74D
:102A90008091E1039091E203A091E303B091E403FC
:102AA000BC01CD01DF91CF910895CF93DF9300D08A
:102AB00000D0CDB7DEB769837A838B839C8389810D
:102AC0009A81AB81BC818093E5039093E603A09348
:102AD000E703B093E8030F900F900F900F90DF91F2
:102AE000CF910895CF93DF93CDB7DEB78091E50303
:102AF0009091E603A091E703B091E803BC01CD01FA
:102B0000DF91CF910895CF93DF9300D0CDB7DEB79B
:102B10009A83898389819A819093EA038093E90358
:102B20000F900F90DF91CF910895CF93DF93CDB7A2
:102B3000DEB78091E9039091EA03DF91CF91089588
:102B4000CF93DF931F92CDB7DEB7898389818093BE
:102B5000EB030F90DF91CF910895CF93DF93CDB723
:102B6000DEB78091EB03DF91CF910895CF93DF9390
:102B70001F92CDB7DEB7898389818093EC030F90D4
:102B8000DF91CF910895CF93DF93CDB7DEB78091DA
:102B9000EC03DF91CF910895CF93DF931F92CDB7D0
:102BA000DEB7898389818093ED030F90DF91CF9108
:102BB0000895CF93DF93CDB7DEB78091ED03DF911A
:102BC000CF910895CF92DF92EF92FF920F931F93D0
:102BD000CF93DF93CDB7DEB76E970FB6F894DEBF15
:102BE0000FBECDBF9A8B898B4B8B5C8B6D8B7E8B95
:102BF0000F8B188F298F3A8FCB8EDC8EED8EFE8E49
:102C00002F89388D498D5A8D6B897C898D899E8954
:102C10000E94CC1BDC01CB0189839A83AB83BC83EC
:102C200089899A89FC01848D958DA68DB78DB058C0
:102C300029813A814B815C81BC01CD010E94391C04
:102C40008823ACF489899A89FC01848D958DA68DA1
:102C5000B78D29813A814B815C81BC01CD010E94F5
:102C6000911D181624F419821A821B821C828989EC
:102C70009A89FC0180819181A281B38129813A8165
:102C80004B815C81BC01CD010E94961DDC01CB0112
:102C90008D879E87AF87B88B89899A89FC01C08808
:102CA000D188E288F38889899A89FC018481958199
:102CB000A681B78129813A814B815C81BC01CD011C
:102CC0000E94961DDC01CB012B8D3C8D4D8D5E8DC0
:102CD000BC01CD010E94961DDC01CB019C01AD0120
:102CE000C701B6010E94CD1BDC01CB0129893A89BD
:102CF000F901808B918BA28BB38B89899A89FC0116
:102D000080899189A289B38929893A89F901208D1D
:102D1000318D428D538DBC01CD010E94911D18163D
:102D200074F489899A89FC01808D918DA28DB38D6F
:102D300029893A89F901808B918BA28BB38B898980
:102D40009A89FC0180899189A289B38929893A8964
:102D5000F9012489358946895789BC01CD010E9432
:102D6000391C882374F489899A89FC01848995899E
:102D7000A689B78929893A89F901808B918BA28B21
:102D8000B38B1D821E821F82188620E030E0A901CD
:102D90006B8D7C8D8D8D9E8D0E94911D181674F506
:102DA00089899A89FC01C084D184E284F384898969
:102DB0009A89FC0184859585A685B7859C01AD011E
:102DC00069817A818B819C810E94CC1BDC01CB01C3
:102DD0009C01AD01C701B6010E94961DDC01CB012B
:102DE0002B8D3C8D4D8D5E8DBC01CD010E943E1C16
:102DF000DC01CB018D839E83AF83B88729893A8913
:102E000089819A81AB81BC81F90184879587A687E6
:102E1000B78789899A89FC0180899189A289B389B8
:102E20002D853E854F855889BC01CD010E94CD1B63
:102E3000DC01CB012D813E814F815885BC01CD0144
:102E40000E94CD1BDC01CB0189879A87AB87BC87A9
:102E500089899A89FC01808D918DA28DB38D2985F8
:102E60003A854B855C85BC01CD010E94391C8823C5
:102E70005CF489899A89FC01808D918DA28DB38D36
:102E800089879A87AB87BC8789899A89FC0184895D
:102E90009589A689B78929853A854B855C85BC01CA
:102EA000CD010E94911D18165CF489899A89FC0154
:102EB00084899589A689B78989879A87AB87BC87D2
:102EC00089859A85AB85BC85BC01CD016E960FB610
:102ED000F894DEBF0FBECDBFDF91CF911F910F9150
:102EE000FF90EF90DF90CF900895CF92DF92EF9216
:102EF000FF920F931F93CF93DF93CDB7DEB7A197C8
:102F00000FB6F894DEBF0FBECDBF6A8F7B8F8C8F5C
:102F10009D8F2E8F3F8F48A359A32AE939E949E9AC
:102F20005EE36A8D7B8D8C8D9D8D0E94CC1BDC01B8
:102F3000CB012E8D3F8D48A159A1BC01CD010E942E
:102F4000391C1816D4F02AE939E949E95EE36A8D9B
:102F50007B8D8C8D9D8D0E94CD1BDC01CB012E8D38
:102F60003F8D48A159A1BC01CD010E94911D88232C
:102F700024F080E00E94B61513C02A8D3B8D4C8D45
:102F80005D8D6E8D7F8D88A199A10E94391C88234B
:102F900024F481E00E94B61503C082E00E94B615B9
:102FA0000E94AD158B870E9495159D878C878C8517
:102FB0009D85CC01A0E0B0E0BC01CD010E94DF1CEA
:102FC000DC01CB018E879F87A88BB98B9B8581E025
:102FD0008927882309F45FC182E6898382E68A8390
:102FE00020E030E040E050E46E8D7F8D88A199A113
:102FF0000E94391C8823ACF482E6898382E68A83A6
:103000001092B9011092BA011092BB011092BC014A
:103010001092B5011092B6011092B7011092B8014A
:1030200034C12AE939E949E95EE36A8D7B8D8C8DEB
:103030009D8D0E94CC1BDC01CB012E853F854889EC
:103040005989BC01CD010E94391C18165CF12AE98E
:1030500039E949E95EE36A8D7B8D8C8D9D8D0E94F7
:10306000CD1BDC01CB012E853F8548895989BC01E8
:10307000CD010E94911D8823ACF082E6898382E60F
:103080008A831092B9011092BA011092BB0110927A
:10309000BC011092B5011092B6011092B7011092C6
:1030A000B801F3C02A8D3B8D4C8D5D8D6E857F857B
:1030B000888999890E94911D18160CF06DC082E6CE
:1030C00089832E8D3F8D48A159A18E859F85A88922
:1030D000B9890F2EFDECCF2EFCECDF2EED2CFCE39E
:1030E000FF2EF02D89019A01AC01BD0189EA91E022
:1030F0000E94E215DC01CB018A8B9B8BAC8BBD8BD4
:103100006A897B898C899D890E94B01CDC01CB0176
:103110000E94CC152A893B894C895D8960E070E06A
:1031200084EC92E40E94CC1BDC01CB018B839C835A
:10313000AD83BE8320E030E044EC52E46B817C81BF
:103140008D819E810E94911D181644F480E090E0CC
:10315000A4ECB2E48B839C83AD83BE8320E030E09B
:1031600040EA50E46B817C818D819E810E94391CF4
:10317000882344F480E090E0A0EAB0E48B839C8351
:10318000AD83BE836B817C818D819E810E94B01C4A
:10319000DC01CB018A8379C02A8D3B8D4C8D5D8DFE
:1031A0006E857F85888999890E94391C88230CF057
:1031B0006CC082E68A832E853F85488959898E8D29
:1031C0009F8DA8A1B9A10F2EFDECCF2EFCECDF2E18
:1031D000ED2CFCE3FF2EF02D89019A01AC01BD011D
:1031E00089EA91E00E94E215DC01CB018E8B9F8B76
:1031F000A88FB98F6E897F89888D998D0E94B01CA8
:10320000DC01CB010E94CC152E893F89488D598D58
:1032100060E070E084EC92E40E94CC1BDC01CB0106
:103220008F839887A987BA8720E030E044EC52E486
:103230006F81788589859A850E94911D181644F4BE
:1032400080E090E0A4ECB2E48F839887A987BA87E6
:1032500020E030E040EA50E46F81788589859A85E6
:103260000E94391C882344F480E090E0A0EAB0E496
:103270008F839887A987BA876F81788589859A8592
:103280000E94B01CDC01CB01898389810E948D14CE
:103290008A810E94A314A1960FB6F894DEBF0FBED8
:1032A000CDBFDF91CF911F910F91FF90EF90DF90F5
:1032B000CF900895CF93DF93CDB7DEB70E94E81487
:1032C000DC01CB018093EE039093EF03A093F00316
:1032D000B093F1030E941615DC01CB018093F20339
:1032E0009093F303A093F403B093F5030E94441565
:1032F000DC01CB018093F6039093F703A093F803CE
:10330000B093F9030E947215DC01CB018093FA039C
:103310009093FB03A093FC03B093FD03DF91CF9147
:103320000895CF93DF93CDB7DEB78091F2039091EC
:10333000F303A091F403B091F503BC01CD01DF913B
:10334000CF910895CF93DF93CDB7DEB78091FA0385
:103350009091FB03A091FC03B091FD03BC01CD0152
:10336000DF91CF910895CF93DF93CDB7DEB72A9742
:103370000FB6F894DEBF0FBECDBF6B837C838D8309
:103380009E8380E492E4AFE0B0E02B813C814D81EC
:103390005E81BC01CD010E94131EDA01C9010197B3
:1033A0009A83898385EC90E029813A81232F332702
:1033B000FC01208384EC90E02981FC01208381ECD6
:1033C00090E028E9FC01208382EC90E026E0FC01FB
:1033D00020832A960FB6F894DEBF0FBECDBFDF91D3
:1033E000CF910895CF93DF931F92CDB7DEB7809131
:1033F000FF03882F90E08D569B4FFC0180818983CD
:103400008091FF038F5F8F778093FF0389810F90F7
:10341000DF91CF910895CF93DF9300D0CDB7DEB782
:103420008A83809100048F5F8F7789830000809169
:10343000010499819817D9F380910004882F90E0B6
:103440008D5E9B4F2A81FC0120838981809300043B
:1034500080910204882361F481E08093020481EC6E
:1034600090E021EC30E0F90120812062FC01208312
:103470000F900F90DF91CF910895CF93DF9300D0FD
:10348000CDB7DEB79091FE038091FF03981778F0D7
:103490008091FE03282F30E08091FF03882F90E079
:1034A000A901481B590BCA019A83898310C08091D6
:1034B000FE03282F30E08091FF03882F90E0A901C0
:1034C000481B590BCA0180589F4F9A838983898171
:1034D0009A810F900F90DF91CF910895CF93DF9352
:1034E0001F92CDB7DEB789838091FF03282F30E08C
:1034F0008981882F90E0820F931F8F770F90DF9143
:10350000CF910895CF93DF931F92CDB7DEB7898314
:103510008981882F90E08D569B4FFC0180810F9010
:10352000DF91CF910895CF93DF9300D0CDB7DEB771
:1035300086EC90E0FC01808189838091FE038F5F9F
:103540008F778A838091FF039A81981761F0809129
:10355000FE03882F90E08D569B4F2981FC0120832C
:103560008A818093FE030F900F90DF91CF91089591
:10357000CF93DF93CDB7DEB7909100048091010423
:10358000981761F481EC90E021EC30E0F9012081A2
:103590002F7DFC0120831092020412C086EC90E083
:1035A00020910104222F30E02D5E3B4FF901208154
:1035B000FC012083809101048F5F8F778093010449
:1035C000DF91CF9108951F920F9200905F000F92AC
:1035D00011242F933F934F935F936F937F938F9318
:1035E0009F93AF93BF93EF93FF93CF93DF93CDB7A9
:1035F000DEB70E94931ADF91CF91FF91EF91BF91B7
:10360000AF919F918F917F916F915F914F913F917A
:103610002F910F9000925F000F901F9018951F92AE
:103620000F9200905F000F9211242F933F934F93BE
:103630005F936F937F938F939F93AF93BF93EF931A
:10364000FF93CF93DF93CDB7DEB70E94B81ADF9117
:10365000CF91FF91EF91BF91AF919F918F917F910A
:103660006F915F914F913F912F910F9000925F006A
:103670000F901F901895EFEFF0E083E08083608358
:1036800081E090E0089587E094E00E94B81BE3E0B9
:10369000F4E01382128286E792E09183808308959A
:1036A000CF92DF92EF92FF920F931F93CF93DF930E
:1036B0006C017A018B01C0E0D0E0CE15DF0589F006
:1036C000D8016D918D01D601ED91FC910190F081B1
:1036D000E02DC6010995892B11F47E0102C02196C7
:1036E000ECCFC701DF91CF911F910F91FF90EF9029
:1036F000DF90CF9008956115710579F0FB0101907D
:103700000020E9F73197AF01461B570BDC01ED9123
:10371000FC910280F381E02D099480E090E008950F
:10372000DC01ED91FC910190F081E02D09946AE7B4
:1037300072E00C947B1BFC015383428364831582EB
:103740000895CF93DF93EC018A819B81009769F004
:103750006F8161110E94901B8C81882331F08A81D6
:103760009B81DF91CF910C94971BDF91CF910895AE
:10377000FC018DE892E0918380831382128214828F
:1037800015821682178282E090E0918780878AE016
:1037900090E09387828708955058BB27AA270E94FC
:1037A000E41B0C94571D0E94491D38F00E94501DC7
:1037B00020F039F49F3F19F426F40C94461D0EF4C2
:1037C000E095E7FB0C94401DE92F0E94681D58F31B
:1037D000BA17620773078407950720F079F4A6F5F6
:1037E0000C948A1D0EF4E0950B2EBA2FA02D0B0120
:1037F000B90190010C01CA01A0011124FF27591B36
:1038000099F0593F50F4503E68F11A16F040A22F3B
:10381000232F342F4427585FF3CF469537952795AC
:10382000A795F0405395C9F77EF41F16BA0B620BAB
:10383000730B840BBAF09150A1F0FF0FBB1F661FF2
:10384000771F881FC2F70EC0BA0F621F731F841F35
:1038500048F4879577956795B795F7959E3F08F05B
:10386000B0CF9395880F08F09927EE0F979587951D
:1038700008950E941C1D08F481E008950E94521CC6
:103880000C94571D0E94501D58F00E94491D40F095
:1038900029F45F3F29F00C94401D51110C948B1DAD
:1038A0000C94461D0E94681D68F39923B1F35523BB
:1038B00091F3951B550BBB27AA2762177307840743
:1038C00038F09F5F5F4F220F331F441FAA1FA9F3D9
:1038D00035D00E2E3AF0E0E832D091505040E695C7
:1038E000001CCAF72BD0FE2F29D0660F771F881F28
:1038F000BB1F261737074807AB07B0E809F0BB0B1B
:10390000802DBF01FF2793585F4F3AF09E3F51052E
:1039100078F00C94401D0C948B1D5F3FE4F3983EAF
:10392000D4F3869577956795B795F7959F5FC9F717
:10393000880F911D9695879597F90895E1E0660F98
:10394000771F881FBB1F621773078407BA0720F011
:10395000621B730B840BBA0BEE1F88F7E09508957A
:103960000E94701D88F09F5798F0B92F9927B75182
:10397000B0F0E1F0660F771F881F991F1AF0BA9513
:10398000C9F714C0B13091F00E948A1DB1E00895CA
:103990000C948A1D672F782F8827B85F39F0B93FBC
:1039A000CCF3869577956795B395D9F73EF49095C6
:1039B0008095709561957F4F8F4F9F4F0895E89444
:1039C00009C097FB3EF490958095709561957F4F67
:1039D0008F4F9F4F9923A9F0F92F96E9BB27939515
:1039E000F695879577956795B795F111F8CFFAF425
:1039F000BB0F11F460FF1BC06F5F7F4F8F4F9F4F56
:103A000016C0882311F096E911C0772321F09EE8B3
:103A1000872F762F05C0662371F096E8862F70E019
:103A200060E02AF09A95660F771F881FDAF7880FF3
:103A30009695879597F90895990F0008550FAA0B49
:103A4000E0E8FEEF16161706E807F907C0F01216B1
:103A50001306E407F50798F0621B730B840B950BB4
:103A600039F40A2661F0232B242B252B21F4089509
:103A70000A2609F4A140A6958FEF811D811D0895A6
:103A800097F99F6780E870E060E008959FEF80EC11
:103A9000089500240A9416161706180609060895B4
:103AA00000240A9412161306140605060895092E1A
:103AB0000394000C11F4882352F0BB0F40F4BF2B89
:103AC00011F460FF04C06F5F7F4F8F4F9F4F0895C9
:103AD00057FD9058440F551F59F05F3F71F04795BF
:103AE000880F97FB991F61F09F3F79F087950895A4
:103AF000121613061406551FF2CF4695F1DF08C0C3
:103B0000161617061806991FF1CF869571056105DF
:103B100008940895E894BB2766277727CB0197F987
:103B200008950E941C1D08F48FEF08950E94A91D9E
:103B30000C94571D0E94491D38F00E94501D20F022
:103B4000952311F00C94401D0C94461D11240C94E7
:103B50008B1D0E94681D70F3959FC1F3950F50E077
:103B6000551F629FF001729FBB27F00DB11D639F2F
:103B7000AA27F00DB11DAA1F649F6627B00DA11DD5
:103B8000661F829F2227B00DA11D621F739FB00D7B
:103B9000A11D621F839FA00D611D221F749F3327EB
:103BA000A00D611D231F849F600D211D822F762F84
:103BB0006A2F11249F5750409AF0F1F088234AF061
:103BC000EE0FFF1FBB1F661F771F881F91505040CD
:103BD000A9F79E3F510580F00C94401D0C948B1D5D
:103BE0005F3FE4F3983ED4F3869577956795B79554
:103BF000F795E7959F5FC1F7FE2B880F911D96956E
:103C0000879597F90895DB018F939F930E94351E46
:103C1000BF91AF91A29F800D911DA39F900DB29F68
:103C2000900D11240895A1E21A2EAA1BBB1BFD01C1
:103C30000DC0AA1FBB1FEE1FFF1FA217B307E4078B
:103C4000F50720F0A21BB30BE40BF50B661F771FE3
:103C5000881F991F1A9469F76095709580959095C3
:103C60009B01AC01BD01CF0108950E94461EA59F96
:103C7000900DB49F900DA49F800D911D1124089567
:103C8000EE0FFF1F0590F491E02D0994A29FB00163
:103C9000B39FC001A39F700D811D1124911DB29F80
:103CA000700D811D1124911D0895F999FECF92BDCB
:103CB00081BDF89A992780B50895A8E1B0E042E067
:103CC00050E00C947D1E262FF999FECF92BD81BD48
:103CD000F89A019700B4021639F01FBA20BD0FB64A
:103CE000F894FA9AF99A0FBE08950196272F0E9428
:103CF000641E0C94631EDC01CB01FC01F999FECF1C
:103D000006C0F2BDE1BDF89A319600B40D92415063
:0A3D10005040B8F70895F894FFCF73
:103D1A000000130580000101010101010000011AE0
:103D2A00000000000000007D0C0101011A000000E3
:103D3A00000000017D0C0102011A000000000000D1
:103D4A00027D0C0103011A000000000000037D0C33
:103D5A000110011A000000000000007D0C02110190
:103D6A001A000000000000017D0C0212011A000076
:103D7A0000000000027D0C0213011A00000000007E
:103D8A0000037D0C0220011A000000000000007DE3
:103D9A000C0421011A000000000000017D0C03221E
:103DAA00011A000000000000027D0C0423011A0021
:103DBA000000000000037D0C039A99593F9A991953
:103DCA003ECDCC4C3D00000000000000000000A0E9
:103DDA00400000C442CDCC4C3E0001020300010267
:103DEA00020001005806B7060000D00601010201D0
:103DFA00000100DE06FF06000000000201010000CB
:103E0A000100250738070000000003010100000136
:103E1A00004C075F070000000004010100000100D8
:103E2A007507890700000000050101000001009BD9
:103E3A0007AF070000000006010100000100C107EA
:103E4A00D4070000000007010100000100E607F99D
:103E5A000700000000080101000001000B081E080D
:103E6A0000000000090101000001003008430800B9
:103E7A000000001001010000010055086808000058
:103E8A000000000000003B1B501B0D0A006E616E13
:103E9A0000696E66006F766600000000009B1BA139
:023EAA001B00FB
:00000001FF
