:100000000C9435000C945D000C945D000C945D0024
:100010000C945D000C94E80F0C945D000C945D0052
:100020000C945D000C945D000C945D000C945D00DC
:100030000C945D000C945D000C94F4110C945D0024
:100040000C945D000C945D000C944B1F0C94771F76
:100050000C945D000C94D3010C945D000C945D0035
:100060000C945D000C945D00042011241FBECFEFA2
:10007000D8E0DEBFCDBF12E0A0E0B1E0ECE9F6E4ED
:1000800002C005900D92A03AB107D9F725E0A0EA89
:10009000B2E001C01D92A933B207E1F710E0C5E359
:1000A000D0E004C02197FE010E940123C433D10790
:1000B000C9F70E94E5000C944C230C940000CF93E8
:1000C000DF93CDB7DEB72A970FB6F894DEBF0FBE29
:1000D000CDBF0E9424119A83898389819A810197D7
:1000E00021F089819A81039711F40E947A13898102
:1000F0009A81019711F50E94610E0E94C21D0E9413
:10010000F91DDC01CB018B839C83AD83BE830E94F0
:100110000A1EDC01CB018F839887A987BA872F81BC
:10012000388549855A858B819C81AD81BE81BC0112
:10013000CD010E94DD1B0E941E140E944B102A96C6
:100140000FB6F894DEBF0FBECDBFDF91CF910895FB
:10015000CF93DF9300D0CDB7DEB70E9482140E9408
:100160006D020E9424119A83898389819A81019763
:1001700021F089819A81039711F40E94DD020F908A
:100180000F90DF91CF910895CF93DF9300D0CDB73B
:10019000DEB70E9424119A83898389819A8101970D
:1001A00021F089819A81039721F40E9431010E94F4
:1001B00038150F900F90DF91CF910895CF93DF9373
:1001C000CDB7DEB7DF91CF910895CF93DF93CDB751
:1001D000DEB70E94FA0F78949091CE0281E09923C5
:1001E00009F480E0882321F01092CE020E945F0083
:1001F0009091CF0281E0992309F480E0882321F0D7
:100200001092CF020E94A8009091D00281E0992321
:1002100009F480E0882321F01092D0020E94C400EB
:100220009091D10281E0992309F480E0882321F0A4
:100230001092D1020E94DE00CFCFCF93DF93CDB7D3
:10024000DEB78CE790E020E4FC0120838AE790E0B1
:100250002FE8FC01208381E080930601DF91CF919C
:100260000895CF93DF93CDB7DEB79091060181E07B
:100270008927882309F01AC0109206011092A8025B
:100280008CE790E02CE730E0F9012081322F307FBD
:1002900020E02F70232BFC0120838AE790E02AE7DF
:1002A00030E0F90120812064FC012083DF91CF91AF
:1002B0000895CF93DF93CDB7DEB780910601DF912C
:1002C000CF910895CF93DF9300D01F92CDB7DEB7C3
:1002D0009B838A838A819B81892BF1F0198219C0C3
:1002E0008981882F90E0880F991F2A813B81820F96
:1002F000931F2981222F30E0220F331F20563D4FBC
:10030000F90120813181FC013183208389818F5F54
:1003100089838981843020F30F900F900F90DF91B3
:10032000CF910895CF93DF93CDB7DEB78091A80228
:10033000882F90E028E730E0F90120813181880F93
:10034000991F80569D4FFC01318320838091A80224
:100350008F5F8093A8028091A8028430F0F48CE72C
:1003600090E02CE730E0F9012081422F407F20917E
:10037000A802222F30E027533E4FF90120812F7031
:10038000242BFC0120838AE790E02AE730E0F90182
:1003900020812064FC01208303C081E0809306015A
:1003A000DF91CF9108951F920F9200905F000F92FE
:1003B00011242F933F934F935F936F937F938F936A
:1003C0009F93AF93BF93EF93FF93CF93DF93CDB7FB
:1003D000DEB70E949201DF91CF91FF91EF91BF9123
:1003E000AF919F918F917F916F915F914F913F91CD
:1003F0002F910F9000925F000F901F901895CF9350
:10040000DF931F92CDB7DEB789838981809307017F
:100410000F90DF91CF910895CF93DF93CDB7DEB7E3
:1004200080910701DF91CF910895CF93DF931F92C1
:10043000CDB7DEB789838981809308010F90DF9162
:10044000CF910895CF93DF93CDB7DEB780910801A8
:10045000DF91CF910895CF93DF931F92CDB7DEB791
:1004600089838981809309010F90DF91CF9108954D
:10047000CF93DF93CDB7DEB780910901DF91CF91A4
:100480000895CF93DF931F92CDB7DEB7898389811B
:1004900080930A010F90DF91CF910895CF93DF935E
:1004A000CDB7DEB780910A01DF91CF910895CF9348
:1004B000DF931F92CDB7DEB7898389818093AE0227
:1004C0000F90DF91CF910895CF93DF93CDB7DEB733
:1004D0008091AE02DF91CF9108950F931F93CF9338
:1004E000DF93CDB7DEB763970FB6F894DEBF0FBECC
:1004F000CDBF0E94A51E9E838D838D819E810C970A
:1005000008F450C08BE00E94D61E8F838F810E941A
:10051000EA1E8D3009F043C0198212C08981082F6C
:1005200010E089810E94D61E0E94EA1E282FCE016B
:100530000896800F911FFC01208389818F5F89833A
:1005400089818C3058F31C821A8210C08A81882FCE
:1005500090E09E01285F3F4F820F931FFC01808136
:100560009C81890F8C838A818F5F8A838A818A30FC
:1005700068F39A898C81981779F41B8205C00E94D0
:100580005A1E8B818F5F8B838B818C30C0F3CE01A1
:1005900008960E94981605C00E945A1E02C00E942A
:1005A0005A1EA7CF63960FB6F894DEBF0FBECDBF1D
:1005B000DF91CF911F910F910895CF93DF93CDB726
:1005C000DEB78091AF029091B0020A969093B0028C
:1005D0008093AF028091B1029091B2020A969093FB
:1005E000B2028093B1028091B3029091B4020A9654
:1005F0009093B4028093B3028091B5029091B602B9
:100600000A969093B6028093B5028091B7029091BA
:10061000B8020A969093B8028093B70280910701BE
:10062000882361F08091AF029091B002449730F03E
:100630001092B0021092AF020E94620380910801F2
:10064000882361F08091B1029091B202449730F01A
:100650001092B2021092B1020E94BF038091090170
:10066000882361F08091B3029091B402449730F0F6
:100670001092B4021092B3020E94CA0480910A013F
:10068000882361F08091B5029091B602449730F0D2
:100690001092B6021092B5020E945E058091AE02E1
:1006A000882369F08091B7029091B8028436910551
:1006B00030F01092B8021092B7020E94CD05DF917F
:1006C000CF910895CF93DF9300D000D000D0CDB765
:1006D000DEB71A828AEA0E94731E8A8186558A834F
:1006E0000E945901882321F089EB92E00E94620167
:1006F000198224C08981882F90E0880F991F875420
:100700009D4FFC01808191819C838B838B818D83A4
:100710008B819C81892F99278E838D810E94731EE6
:100720009A818D81890F8A838E810E94731E9A819E
:100730008E81890F8A8389818F5F89838981843043
:10074000C8F28091A9020E94731E8091A9029A8129
:10075000890F8A838A810E94731E8DE00E94731E16
:100760008091A9028F5F8F708093A90226960FB6A1
:10077000F894DEBF0FBECDBFDF91CF910895CF9328
:10078000DF93CDB7DEB764970FB6F894DEBF0FBE28
:10079000CDBF1A8219820E945A189C838B830E94B3
:1007A00066189E838D830E94721898878F838F812D
:1007B0009885CC01A0E0B0E00196A11DB11D880F85
:1007C000991FAA1FBB1F880F991FAA1FBB1F880F45
:1007D000991FAA1FBB1F9C01AD0180E094E2A4EF0A
:1007E000B0E0BC01CD010E94D422DA01C9019A8790
:1007F00089878F819885CC01A0E0B0E0BC01CD0154
:100800000E94A021DC01CB0124EA30E74DE75FE341
:10081000BC01CD010E945722DC01CB01BC01CD01FE
:100820000E947121DC01CB019C018B819C8182178C
:10083000930708F58F819885CC01A0E0B0E0BC015A
:10084000CD010E94A021DC01CB0124EA30E74DE775
:100850005FE3BC01CD010E945722DC01CB01BC014A
:10086000CD010E947121DC01CB019C018D819E8113
:100870008217930718F083E089831FC08B819C81C6
:10088000892B21F08B819C810B9740F08D819E817B
:10089000892B39F08D819E810B9718F482E0898332
:1008A0000CC08B819C81892B31F48D819E81892B99
:1008B00011F4198202C081E0898382EA0E94731ECA
:1008C0008A818E558A838B818B878B819C81892F2E
:1008D00099278C878B850E94731E9A818B85890F3F
:1008E0008A838C850E94731E9A818C85890F8A83E6
:1008F0008D818D878D819E81892F99278E878D850A
:100900000E94731E9A818D85890F8A838E850E942D
:10091000731E9A818E85890F8A8389810E94731E36
:100920009A818981890F8A8389858F8789859A85AC
:10093000892F9927888B8F850E94731E9A818F85B6
:10094000890F8A8388890E94731E9A818889890FFA
:100950008A8380E00E94731E8091AA020E94731E07
:100960008091AA029A81890F8A838A810E94731ECC
:100970008DE00E94731E8091AA028F5F8F7080931A
:10098000AA0264960FB6F894DEBF0FBECDBFDF910A
:10099000CF910895CF93DF93CDB7DEB72C970FB6E5
:1009A000F894DEBF0FBECDBF1A8283EA0E94731E89
:1009B0008A818D558A830E9491199C838B830E9422
:1009C000D5198D830E94BF198E838B819C81892FBD
:1009D00099278F838B81888788850E94731E9A81CF
:1009E0008885890F8A838F810E94731E9A818F81E7
:1009F000890F8A838D81882F90E0092E000CAA0B25
:100A0000BB0BBC01CD010E94A221DC01CB0120E087
:100A100030E040E251E4BC01CD010E945722DC01EC
:100A2000CB01BC01CD010E947121DC01CB019A8771
:100A3000898789858B8789859A85892F99278C87CE
:100A40008B850E94731E9A818B85890F8A838C8582
:100A50000E94731E9A818C85890F8A838E810E94E1
:100A6000731E9A818E81890F8A83198206C080E065
:100A70000E94731E89818F5F898389818330B8F3D7
:100A80008091AB020E94731E8091AB029A81890F04
:100A90008A838A810E94731E8DE00E94731E80915A
:100AA000AB028F5F8F708093AB022C960FB6F894D9
:100AB000DEBF0FBECDBFDF91CF910895CF93DF93FF
:100AC000CDB7DEB727970FB6F894DEBF0FBECDBF08
:100AD0001A8284EA0E94731E8A818C558A8384E17B
:100AE0000E94160F8B8385E10E94160F8C838B81E9
:100AF0000E94731E9A818B81890F8A838C810E9448
:100B0000731E9A818C81890F8A830E94EB198D83D1
:100B10008D810E94731E9A818D81890F8A8383E162
:100B20000E94160F8E838E810E94731E9A818E8181
:100B3000890F8A830E9424118F838F810E94731EE4
:100B40009A818F81890F8A83198206C080E00E9472
:100B5000731E89818F5F898389818330B8F3809187
:100B6000AC020E94731E8091AC029A81890F8A8325
:100B70008A810E94731E8DE00E94731E8091AC02D8
:100B80008F5F8F708093AC0227960FB6F894DEBF0C
:100B90000FBECDBFDF91CF910895CF93DF93CDB737
:100BA000DEB76F970FB6F894DEBF0FBECDBF0E94C1
:100BB0000E0F8A871F82198220C08981282F30E07A
:100BC0004DE0429FC001439F900D11248E5E9E4FC9
:100BD000FC018081882371F08F8191E0980F9F83C1
:100BE000882F90E09E012C5E3F4F820F931F29813A
:100BF000FC01208389818F5F898399818A85981779
:100C0000E0F28F81882341F5188685EA0E94731EE1
:100C100088858B5588871B8206C080E00E94731EE2
:100C20008B818F5F8B838B818830B8F38091AD028D
:100C30000E94731E8091AD029885890F88878885F0
:100C40000E94731E8DE00E94731E8091AD028F5F23
:100C50008F708093AD02A8C08F81882F90E001969D
:100C6000969587958B871A829AC0198685EA0E9485
:100C7000731E89858B5589871C8275C08A81982F40
:100C8000990F8C81890F8C879C858F81981708F02C
:100C90005CC08C85882F90E09E012C5E3F4F820FB8
:100CA000931FFC0180818D878D85282F30E04DE0DA
:100CB000429FC001439F900D1124835F9E4FFC0112
:100CC00080819181A281B3818E879F87A88BB98B08
:100CD0008D85282F30E04DE0429FC001439F900D4D
:100CE00011248E5E9E4FFC0180818A8B82E08D8371
:100CF00021C08D81082E000C990B9C01220F331FFF
:100D0000220F331F220F331F8E859F85A889B98933
:100D100004C0B695A795979587952A95D2F78B8BA2
:100D20008B890E94731E99858B89890F89878D8194
:100D300081508D838D818823E4F68A890E94731EF9
:100D400099858A89890F89870BC01E8206C080E039
:100D50000E94731E8E818F5F8E838E818430B8F3E4
:100D60008C818F5F8C838C81823008F487CF809157
:100D7000AD020E94731E8091AD029985890F89870B
:100D800089850E94731E8DE00E94731E8091AD02C2
:100D90008F5F8F708093AD028A818F5F8A839A8183
:100DA0008B85981708F461CF6F960FB6F894DEBF65
:100DB0000FBECDBFDF91CF910895CF92DF92EF921A
:100DC000FF920F931F93CF93DF93CDB7DEB72C978E
:100DD0000FB6F894DEBF0FBECDBF9C838B830E94FD
:100DE00072189A8389830E945A189C0140E050E04F
:100DF00084E690E0DC010E94F6227B018C0189816F
:100E00009A819C0140E050E0C801B7010E94D422C1
:100E1000DA01C901282F8B819C81FC0120838B8101
:100E20009C818C010F5F1F4F0E9466189C0140E05F
:100E300050E084E690E0DC010E94F6226B017C0128
:100E400089819A819C0140E050E0C701B6010E946F
:100E5000D422DA01C901F80180832C960FB6F894E8
:100E6000DEBF0FBECDBFDF91CF911F910F91FF90DD
:100E7000EF90DF90CF900895CF93DF9300D0CDB760
:100E8000DEB79A83898389819A81FC0180810E94DF
:100E90007E1889819A810196FC0180810E949418B4
:100EA0000F900F90DF91CF910895CF93DF93CDB73F
:100EB000DEB70E94A919882311F080E001C082E208
:100EC000DF91CF910895CF93DF9300D000D0CDB7BD
:100ED000DEB79C838B830E9472189A838983298151
:100EE0008B819C81FC0120838B819C8101962981CF
:100EF0003A81232F3327FC0120830F900F900F900E
:100F00000F90DF91CF910895CF93DF9300D000D061
:100F1000CDB7DEB79C838B838B819C810196FC01CE
:100F20008081882F90E0382F22278B819C81FC01C3
:100F30008081882F90E0822B932B9A8389838981EB
:100F40009A810E9415180F900F900F900F90DF91CB
:100F5000CF910895CF93DF9300D0CDB7DEB79A83BA
:100F600089830E949119282F89819A81FC0120830D
:100F70000F900F90DF91CF910895CF93DF9300D022
:100F8000CDB7DEB79A83898389819A81FC018081FC
:100F9000882F90E00E947F190F900F90DF91CF91E2
:100FA0000895CF93DF9300D0CDB7DEB79A838983BE
:100FB0000E94A919282F89819A81FC0120830F9012
:100FC0000F90DF91CF910895CF93DF9300D0CDB7ED
:100FD000DEB79A83898389819A81FC01908181E0BF
:100FE000992309F480E00E949C190F900F90DF91E3
:100FF000CF910895CF93DF9300D0CDB7DEB79A831A
:10100000898384E10E94160F282F89819A81FC012F
:1010100020830F900F90DF91CF910895CF93DF93AE
:1010200000D0CDB7DEB79A83898389819A81FC018C
:1010300080810E9432140F900F90DF91CF9108951C
:10104000CF93DF9300D0CDB7DEB79A83898385E154
:101050000E94160F282F89819A81FC0120830F900E
:101060000F90DF91CF910895CF93DF9300D0CDB74C
:10107000DEB79A83898389819A81FC0180810E94ED
:1010800046140F900F90DF91CF910895CF93DF9387
:1010900000D0CDB7DEB79A8389830E946402282FDF
:1010A00089819A81FC0120830F900F90DF91CF916D
:1010B0000895CF93DF9300D0CDB7DEB79A838983AD
:1010C00089819A81FC0180810E9457020F900F90C4
:1010D000DF91CF910895CF93DF9300D0CDB7DEB7E6
:1010E0009A8389830E943802282F89819A81FC0182
:1010F00020830F900F90DF91CF910895CF93DF93CE
:1011000000D0CDB7DEB79A83898389819A81FC01AB
:1011100080810E942B020F900F90DF91CF91089554
:10112000CF93DF9300D0CDB7DEB79A8389830E9437
:101130002202282F89819A81FC0120830F900F9031
:10114000DF91CF910895CF93DF9300D0CDB7DEB775
:101150009A83898389819A81FC0180810E9415028A
:101160000F900F90DF91CF910895CF93DF9300D030
:10117000CDB7DEB79A8389830E944E02282F8981DA
:101180009A81FC0120830F900F90DF91CF910895F9
:10119000CF93DF9300D0CDB7DEB79A83898389815F
:1011A0009A81FC0180810E9441020F900F90DF9193
:1011B000CF910895CF93DF9300D0CDB7DEB79A8358
:1011C00089830E940C02282F89819A81FC01208347
:1011D0000F900F90DF91CF910895CF93DF9300D0C0
:1011E000CDB7DEB79A83898389819A81FC0180819A
:1011F0000E94FF010F900F90DF91CF910895CF9340
:10120000DF9300D0CDB7DEB79A83898389819A8135
:10121000FC01908181E0992309F480E00E945A1436
:101220000F900F90DF91CF910895CF93DF93CDB7BB
:10123000DEB781E090E090930C0180930B01DF9189
:10124000CF910895CF93DF9300D01F92CDB7DEB733
:101250009B838A838A819B81892B09F43EC08A8182
:101260009B81FC01808189838981882F90E089316D
:101270009105D1F08A31910534F48131910561F005
:10128000449779F025C08E329105C1F081339105E4
:10129000D1F0829771F01CC08A819B810E947309F2
:1012A0001CC00E94990919C08A819B810E94A809CB
:1012B00014C08A819B810E94C5090FC08A819B81CD
:1012C0000E94D20A0AC062E181E30E94C10C05C0FB
:1012D00061E189810E94C10C00000F900F900F9076
:1012E000DF91CF910895CF93DF9300D01F92CDB7B8
:1012F000DEB79B838A838A819B81FC0181818983FC
:101300008981823061F441E0CE010196BC0181E126
:101310000E946D0C81E090E00E940C1104C062E11B
:1013200081E10E94C10C0F900F900F90DF91CF913F
:101330000895CF93DF93CDB7DEB70E94BF0E40E094
:1013400060E070E084E10E946D0CDF91CF91089520
:10135000CF93DF9300D01F92CDB7DEB79B838A83F4
:101360008A819B81FC01818189838981823019F482
:101370000E94050F04C062E189E10E94C10C0F9038
:101380000F900F90DF91CF910895CF93DF93CDB75A
:10139000DEB763970FB6F894DEBF0FBECDBF9B8B51
:1013A0008A8B1B828A899B890196FC018081882F08
:1013B00090E0382F22278A899B890296FC01808140
:1013C000882F90E0822B932B9D838C831982D4C02D
:1013D0008981282F30E04FE0429FC001439F900D4C
:1013E000112483539E4FFC01208131818C819D818A
:1013F0002817390709F0BDC08A899B89FC018181C2
:101400008A878A899B89FC0182818B878981282F21
:1014100030E04FE0429FC001439F900D11248C5259
:101420009E4FFC0180819181892BA1F08981282F19
:1014300030E04FE0429FC001439F900D11248C5239
:101440009E4FFC0120813181CE010A960296F9015E
:10145000099575C08981282F30E04FE0429FC00177
:10146000439F900D112488529E4FFC0180819181F1
:10147000892B09F464C08981282F30E04FE0429F16
:10148000C001439F900D112480539E4FFC01808129
:1014900091810197D9F48981282F30E04FE0429F54
:1014A000C001439F900D112488529E4FFC01808102
:1014B0009181FC01808191819F838E838E818C87B5
:1014C0008E819F81892F99278D8739C08981282F07
:1014D00030E04FE0429FC001439F900D112488529D
:1014E0009E4FFC0180819181998788871A8217C05D
:1014F0008A81882F90E002962A81222F30E0488549
:101500005985240F351FF90140819E01265F3F4F09
:10151000820F931FFC0140838A818F5F8A838981B8
:10152000282F30E04FE0429FC001439F900D1124CF
:1015300081539E4FFC0190818A818917C8F289816D
:10154000282F30E04FE0429FC001439F900D1124AF
:1015500081539E4FFC01808122E0280FCE010A9624
:10156000422FBC0182E20E946D0C81E08B8300005F
:1015700007C089818F5F898389818C3008F428CFE7
:101580009B8181E08927882321F061E382E20E9428
:10159000C10C63960FB6F894DEBF0FBECDBFDF91CE
:1015A000CF910895CF93DF93CDB7DEB764970FB691
:1015B000F894DEBF0FBECDBF9C8B8B8B1B828B89BB
:1015C0009C890196FC018081882F90E0382F22278A
:1015D0008B899C890296FC018081882F90E0822B68
:1015E000932B9D838C830E942411049751F48C814A
:1015F0009D818A30914029F062E28EE20E94C10C06
:1016000063C1198254C18981282F30E04FE0429F85
:10161000C001439F900D112483539E4FFC012081F4
:1016200031818C819D812817390709F03DC189815D
:10163000282F30E04FE0429FC001439F900D1124BE
:101640008E529E4FFC01808191810197A9F0898182
:10165000282F30E04FE0429FC001439F900D11249E
:101660008E529E4FFC0180819181029729F062E2A7
:101670008EE20E94C10C28C18981282F30E04FE002
:10168000429FC001439F900D112486529E4FFC0142
:1016900080819181892BD1F08981282F30E04FE022
:1016A000429FC001439F900D112486529E4FFC0122
:1016B00080819181FC0109958E838E81882331F090
:1016C0006E818EE20E94C10C0000FEC08981282F2D
:1016D00030E04FE0429FC001439F900D11248A5299
:1016E0009E4FFC0180819181892BA1F08981282F57
:1016F00030E04FE0429FC001439F900D11248A5279
:101700009E4FFC01208131818B899C890396F901D0
:10171000099582C08981282F30E04FE0429FC001A7
:10172000439F900D112488529E4FFC01808191812E
:10173000892B09F471C08981282F30E04FE0429F46
:10174000C001439F900D112480539E4FFC01808166
:101750009181019741F58B899C890496FC018081D8
:10176000882F90E0382F22278B899C890396FC01D3
:101770008081882F90E0822B932B98878F8389819B
:10178000282F30E04FE0429FC001439F900D11246D
:1017900088529E4FFC01808191812F813885FC0108
:1017A0003183208339C08981282F30E04FE0429F68
:1017B000C001439F900D112488529E4FFC018081EF
:1017C00091819A8789871A8217C08A81882F90E031
:1017D00029853A85820F931F2A81222F30E02D5FC1
:1017E0003F4F4B895C89240F351FF9012081FC0193
:1017F00020838A818F5F8A838981282F30E04FE0A0
:10180000429FC001439F900D112481539E4FFC01C4
:1018100090818A818917C8F28B899C89FC0181811A
:101820008B878B899C89FC0182818C878981282FF9
:1018300030E04FE0429FC001439F900D11248C5235
:101840009E4FFC0180819181892BA1F08981282FF5
:1018500030E04FE0429FC001439F900D11248C5215
:101860009E4FFC0120813181CE010B960296F90139
:10187000099501C01D868981282F30E04FE0429FE5
:10188000C001439F900D112481539E4FFC01808124
:1018900022E0280FCE010B96422FBC018EE20E945F
:1018A0006D0C81E08B8307C089818F5F898389817B
:1018B0008C3008F4A8CE9B8181E08927882321F011
:1018C00061E38EE20E94C10C64960FB6F894DEBF0D
:1018D0000FBECDBFDF91CF910895CF93DF93CDB7EA
:1018E000DEB728970FB6F894DEBF0FBECDBF8D834D
:1018F0007F836E8348871B828D81805C8C838C8183
:101900000E94731E9B818C81890F8B8319821AC060
:101910008981882F90E02E813F81820F931FFC01E7
:1019200080810E94731E8981882F90E02E813F81E3
:10193000820F931FFC0180819B81890F8B8389819A
:101940008F5F898399818885981710F388858A83AA
:1019500006C080E00E94731E8A818F5F8A838A811D
:101960008930B8F38B810E94731E8DE00E94731E34
:1019700028960FB6F894DEBF0FBECDBFDF91CF9192
:101980000895CF93DF9300D000D0CDB7DEB78B831F
:101990006C831A828FE70E94731E8A8181588A8322
:1019A0008B810E94731E9A818B81890F8A838C811F
:1019B0000E94731E9A818C81890F8A83198206C0C6
:1019C00080E00E94731E89818F5F898389818730BF
:1019D000B8F38A810E94731E8DE00E94731E0F90DF
:1019E0000F900F900F90DF91CF910895CF93DF93D9
:1019F0001F92CDB7DEB7198238C08981282F30E019
:101A00004DE0429FC001439F900D11248F5E9E4F79
:101A1000FC0110828981282F30E04DE0429FC001F7
:101A2000439F900D11248E5E9E4FFC011082898190
:101A3000282F30E04DE0429FC001439F900D1124BC
:101A40008D5E9E4FFC0110828981282F30E04DE091
:101A5000429FC001439F900D11248C5E9E4FFC015C
:101A60001182108289818F5F898389818C3028F26D
:101A70000F90DF91CF910895CF93DF93CDB7DEB76D
:101A80002A970FB6F894DEBF0FBECDBF89876A874D
:101A9000CE0101960E9462018A85823091F4898587
:101AA000882F90E0880F991F9E012F5F3F4F820F74
:101AB000931FFC0180819181892B09F061C081E035
:101AC00060C08A85813099F48985882F90E0880FDD
:101AD000991F9E012F5F3F4F820F931FFC01808152
:101AE00091818F3F934009F04BC081E04AC08A85C5
:101AF000833011F58985882F90E0880F991F9E010A
:101B00002F5F3F4F820F931FFC01808191818B32A9
:101B10009340B0F18985882F90E0880F991F9E012E
:101B20002F5F3F4F820F931FFC01808191818F3F78
:101B3000934031F181E025C08A85843009F589859B
:101B4000882F90E0880F991F9E012F5F3F4F820FD3
:101B5000931FFC01808191818039914088F48985AF
:101B6000882F90E0880F991F9E012F5F3F4F820FB3
:101B7000931FFC0180819181892B11F081E001C0CC
:101B800080E02A960FB6F894DEBF0FBECDBFDF917E
:101B9000CF910895CF93DF93CDB7DEB72B970FB6D4
:101BA000F894DEBF0FBECDBF9A8789876B87898582
:101BB0009A85892B09F47CC08B85882309F44DC054
:101BC00089859A85FC018681843650F489859A85B9
:101BD000FC01868121E0280F89859A85FC012683F6
:101BE00089859A85FC018481882329F489859A85D1
:101BF00021E0FC01248389859A85FC018481813060
:101C000009F056C089859A85FC018681843608F4DE
:101C10004FC089859A8522E0FC01248389859A85B5
:101C200022E0FC012583CE0101960E946201898594
:101C30009A85FC018185882F90E0880F991F9E016D
:101C40002F5F3F4F820F931FFC01208131818985D7
:101C50009A85FC01308727832BC089859A85FC01F2
:101C60008681882359F089859A85FC0186812FEF2A
:101C7000280F89859A85FC0126831AC089859A8553
:101C8000FC018481823051F489859A85FC0114829B
:101C900089859A8521E0FC0125830AC089859A857A
:101CA000FC018481813021F489859A85FC011482AC
:101CB0002B960FB6F894DEBF0FBECDBFDF91CF914C
:101CC0000895CF93DF9300D0CDB7DEB719824EC011
:101CD0001A828981282F30E04DE0429FC001439F46
:101CE000900D1124895E9E4FFC0180819181892B8A
:101CF00061F18981282F30E04DE0429FC001439F70
:101D0000900D1124895E9E4FFC01208131818981D3
:101D1000482F50E06DE0649FC001659F900D112435
:101D2000875E9E4FFC0170818981482F50E06DE0F5
:101D3000649FC001659F900D11248A5E9E4FFC0137
:101D40008081672FF90109958A838981282F30E0E6
:101D50004DE0429FC001439F900D1124835F9E4F31
:101D60006A810E94CA0D89818F5F898389818C3045
:101D700008F4AECF0F900F90DF91CF910895CF93DD
:101D8000DF931F92CDB7DEB7198238C08981282F23
:101D900030E04DE0429FC001439F900D11248F5EC3
:101DA0009E4FFC0110828981282F30E04DE0429F38
:101DB000C001439F900D11248E5E9E4FFC01108246
:101DC0008981282F30E04DE0429FC001439F900D54
:101DD00011248D5E9E4FFC0110828981282F30E0F6
:101DE0004DE0429FC001439F900D11248C5E9E4F99
:101DF000FC011182108289818F5F898389818C30F7
:101E000028F20F90DF91CF910895CF93DF93CDB754
:101E1000DEB70E94CD05DF91CF910895CF93DF9378
:101E2000CDB7DEB78CE0DF91CF910895CF93DF93EC
:101E300000D000D0CDB7DEB78C8319828C8182951B
:101E40008F708A838C818F708B838A818823A9F419
:101E500083E290E0FC018081882F90E02B81222F8B
:101E600030E002C0969587952A95E2F78170992710
:101E7000892BD1F081E0898317C08A818130A1F458
:101E800089E290E0FC018081882F90E02B81222F55
:101E900030E002C0969587952A95E2F781709927E0
:101EA000892B11F081E0898389810F900F900F9029
:101EB0000F90DF91CF910895CF93DF9300D000D0A2
:101EC000CDB7DEB78B836C838B8182958F708983CE
:101ED0008B818F708A838981882361F58C81813021
:101EE000A1F485E290E025E230E0F90160812A81E9
:101EF000422F50E021E030E002C0220F331F4A950C
:101F0000E2F7262BFC01208343C085E290E025E226
:101F100030E0F90160812A81422F50E021E030E079
:101F200002C0220F331F4A95E2F720952623FC01B9
:101F300020832EC08981813059F58C818130A1F4B4
:101F40008BE290E02BE230E0F90160812A81422FA0
:101F500050E021E030E002C0220F331F4A95E2F743
:101F6000262BFC01208314C08BE290E02BE230E0B2
:101F7000F90160812A81422F50E021E030E002C067
:101F8000220F331F4A95E2F720952623FC01208378
:101F90000F900F900F900F90DF91CF910895CF93F6
:101FA000DF93CDB7DEB788E690E028E630E0F901B0
:101FB00020812460FC0120838DE690E02DE630E056
:101FC000F90120812460FC012083DF91CF910895E5
:101FD0001F920F9200905F000F921124CF93DF9316
:101FE000CDB7DEB7DF91CF910F9000925F000F90D9
:101FF0001F901895CF93DF931F92CDB7DEB70E9445
:10200000CC160E94CF0F0E94CA1482E10E94160FC4
:10201000982F81E0913009F080E089830E94F60CCE
:102020000E949A150E94DB1560E071EE80E090E05E
:102030000E941B1E0E9415090E941D010E945E1134
:102040000E94BC180E942D1787E00E94A31F78945D
:102050008981882339F081E090E09093C2028093D7
:10206000C10215C060E080E00E94B71760E084E123
:102070000E945C0F60E085E10E945C0F84E090E0CC
:102080009093C2028093C10281E08093C5020F90B9
:10209000DF91CF910895EF92FF920F931F93CF930B
:1020A000DF93CDB7DEB78091C1029091C20282303A
:1020B000910561F18330910530F4009709F4A4C0D3
:1020C000019749F099C08330910509F444C0049701
:1020D00009F476C091C00E94C71F8091C3029091FD
:1020E000C402892B39F082E090E09093C202809381
:1020F000C1020BC08091C502882339F082E090E0D4
:102100009093C2028093C10280C07FC00E94CF1F03
:1021100060E080E00E94B71760E084E10E945C0FFD
:1021200060E085E10E945C0F0E944E168091C30220
:102130009091C402019719F40E94E11F0BC0809195
:10214000C502882339F083E090E09093C202809327
:10215000C1025BC05AC09091C50281E089278823E3
:1021600051F087E00E94A31F81E090E09093C202AB
:102170008093C10224C02091CA023091CB024091C9
:10218000CC025091CD028091C6029091C702A091DD
:10219000C802B091C90279018A01E81AF90A0A0B4A
:1021A0001B0BD801C70180319742A105B10538F05A
:1021B00084E090E09093C2028093C10226C025C0C3
:1021C0000FB6F894A89580916000886180936000B4
:1021D000109260000FBE9091C50281E0892788238C
:1021E00051F087E00E94A31F81E090E09093C2022B
:1021F0008093C1020AC009C081E090E09093C202BE
:102200008093C102000001C00000DF91CF911F91B7
:102210000F91FF90EF900895CF93DF9300D0CDB74B
:10222000DEB79A8389838091C1029091C20201979F
:1022300031F489819A819093C4028093C3020F90F4
:102240000F90DF91CF910895CF93DF93CDB7DEB795
:102250008091C1029091C202DF91CF910895CF93F6
:10226000DF93CDB7DEB78091C1029091C202019792
:10227000C9F49091C50281E08927882399F081E013
:102280008093C5028091CA029091CB02A091CC02AA
:10229000B091CD028093C6029093C702A093C8026A
:1022A000B093C902DF91CF910895CF93DF93CDB75B
:1022B000DEB71092C502DF91CF910895CF93DF93DF
:1022C000CDB7DEB784E490E022E0FC01208387E410
:1022D00090E029EFFC01208385E490E023E0FC01FD
:1022E00020838EE690E022E0FC012083DF91CF91F5
:1022F0000895CF93DF93CDB7DEB78091CA02909156
:10230000CB02A091CC02B091CD020196A11DB11DCE
:102310008093CA029093CB02A093CC02B093CD02DB
:10232000DF91CF910895CF93DF93CDB7DEB7809142
:10233000D2029091D30201969093D3028093D2025D
:102340008091D4029091D50201969093D50280930A
:10235000D4028091D6029091D70201969093D70231
:102360008093D6028091D8029091D90201969093E1
:10237000D9028093D8028091D2029091D3020A9719
:1023800038F01092D3021092D20281E08093CE02F4
:102390008091D4029091D502C29738F01092D50264
:1023A0001092D40281E08093CF028091D602909166
:1023B000D7028436910538F01092D7021092D602D7
:1023C00081E08093D0028091D8029091D902843F1D
:1023D000914038F01092D9021092D80281E0809397
:1023E000D102DF91CF9108951F920F9200905F006C
:1023F0000F9211242F933F934F935F936F937F938B
:102400008F939F93AF93BF93EF93FF93CF93DF93FC
:10241000CDB7DEB70E9479110E949311DF91CF9161
:10242000FF91EF91BF91AF919F918F917F916F91AC
:102430005F914F913F912F910F9000925F000F900D
:102440001F901895CF92DF92EF92FF92CF93DF9378
:1024500000D000D000D0CDB7DEB79A8389834B83FC
:102460005C836D837E8389819A818E5B9F4FFC01A3
:1024700080819181A281B38129813A81205C3F4F83
:10248000F9012081222F30E049815A81220F331F28
:10249000220F331F240F351FF90120813181428122
:1024A0005381BC01CD010E948D20DC01CB0129812B
:1024B0003A812E5B3F4FF90180839183A283B383DE
:1024C00089819A81805C9F4FFC018081882F90E0F8
:1024D00029813A81880F991F880F991F280F391F6A
:1024E0008B819C81AD81BE81F90180839183A28320
:1024F000B38389819A818E5B9F4FFC01808191819A
:10250000A281B3812B813C814D815E81BC01CD01D3
:102510000E948E20DC01CB0129813A812E5B3F4F46
:10252000F90180839183A283B38389819A81805C3E
:102530009F4FFC0180818F5F282F2F7089819A81A6
:10254000805C9F4FFC01208389819A818F5B9F4F24
:10255000FC018081803170F489819A818F5B9F4F6B
:10256000FC01808121E0280F89819A818F5B9F4F38
:10257000FC01208389819A818E5B9F4FFC01C08082
:10258000D180E280F38089819A818F5B9F4FFC012B
:102590008081882F90E0A0E0B0E0BC01CD010E94D6
:1025A000A021DC01CB019C01AD01C701B6010E9455
:1025B000FF20DC01CB01BC01CD0126960FB6F894BB
:1025C000DEBF0FBECDBFDF91CF91FF90EF90DF90C8
:1025D000CF900895CF93DF9300D000D000D0CDB737
:1025E000DEB79E838D838D819E81CC01A0E0B0E01B
:1025F000BC01CD010E94A021DC01CB0120E030EC28
:102600004FE754E4BC01CD010E94FF20DC01CB0167
:1026100020E030E040EA50E4BC01CD010E945722A6
:10262000DC01CB0189839A83AB83BC8320E030E05B
:1026300040E250E469817A818B819C810E948D20E7
:10264000DC01CB0122E03BE247E85DE3BC01CD01C8
:102650000E94FF20DC01CB01BC01CD0126960FB604
:10266000F894DEBF0FBECDBFDF91CF910895CF9319
:10267000DF9300D000D000D0CDB7DEB79E838D832E
:102680008D819E81CC01A0E0B0E0BC01CD010E9413
:10269000A021DC01CB0120E030EC4FE754E4BC0189
:1026A000CD010E94FF20DC01CB0120E030E040EAB8
:1026B00050E4BC01CD010E945722DC01CB0189838B
:1026C0009A83AB83BC8320E030E040E451E469812D
:1026D0007A818B819C810E945722DC01CB01BC0155
:1026E000CD0126960FB6F894DEBF0FBECDBFDF91A9
:1026F000CF910895CF93DF93CDB7DEB7A8970FB6EC
:10270000F894DEBF0FBECDBF0E945901882309F4A3
:102710008CC0CE0181960E94620189A19AA10E947B
:10272000EA12DC01CB0189839A83AB83BC83898164
:102730009A81AB81BC81AC01BD018AED92E00E941F
:102740002212DC01CB018D839E83AF83B8878D81FC
:102750009E81AF81B885BC01CD010E94C7188BA1B5
:102760009CA10E943713DC01CB0189879A87AB8734
:10277000BC8789859A85AB85BC85AC01BD0180E2AB
:1027800093E00E942212DC01CB018D879E87AF87E8
:10279000B88B8D859E85AF85B889BC01CD010E941F
:1027A000F5188DA19EA10E94EA12DC01CB01898B54
:1027B0009A8BAB8BBC8B89899A89AB89BC89AC011C
:1027C000BD0186E693E00E942212DC01CB018D8BD5
:1027D0009E8BAF8BB88F8D899E89AF89B88DBC01D8
:1027E000CD010E9423198FA198A50E943713DC0107
:1027F000CB01898F9A8FAB8FBC8F898D9A8DAB8DD2
:10280000BC8DAC01BD018CEA93E00E942212DC0178
:10281000CB018D8F9E8FAF8FB8A38D8D9E8DAF8D89
:10282000B8A1BC01CD010E945119A8960FB6F89429
:10283000DEBF0FBECDBFDF91CF910895CF93DF9361
:1028400000D0CDB7DEB70E948B1889830E94A118F3
:102850008A836A8189810E94B7170F900F90DF9158
:10286000CF910895CF93DF931F92CDB7DEB78983C1
:102870008981882311F081E001C080E0682F84E124
:102880000E945C0F0F90DF91CF910895CF93DF935B
:102890001F92CDB7DEB789838981882311F081E04B
:1028A00001C080E0682F85E10E945C0F0F90DF91EE
:1028B000CF910895CF93DF931F92CDB7DEB7898371
:1028C00089818093F20389818093F30383E080936D
:1028D000F4038981882311F081E001C080E0682F32
:1028E00083E10E945C0F89810E94DE19898188231F
:1028F00019F00E94551102C00E942F110F90DF9114
:10290000CF910895CF93DF931F92CDB7DEB782E1C9
:102910000E94160F982F81E0913009F080E08983A2
:102920008091F3039981981751F48091F4038330D7
:1029300060F48091F4038F5F8093F40306C0898173
:102940008093F30381E08093F4038091F403833058
:10295000E8F08091F20399819817C1F08981809302
:10296000F2038981882311F081E001C080E0682FA3
:1029700083E10E945C0F89810E94DE19898188238E
:1029800019F00E94551102C00E942F110F90DF9183
:10299000CF910895CF93DF931F92CDB7DEB782E139
:1029A0000E94160F982F81E0913009F080E0898312
:1029B00089818093F30389818093F20383E080937C
:1029C000F4038981882311F081E001C080E0682F41
:1029D00083E10E945C0F89810E94DE190F90DF91D4
:1029E000CF910895CF93DF9300D01F92CDB7DEB77C
:1029F00089837B836A838981882F90E08330910566
:102A0000D9F0843091052CF4009749F0019769F0D2
:102A100028C087309105B9F00F97E1F022C08A8174
:102A20009B81FC01108281E01DC08A819B8129E18C
:102A3000FC01208381E016C08A819B8122E3FC0196
:102A4000208381E00FC08A819B812BE4FC012083DD
:102A500081E008C08A819B8124E6FC01208381E01B
:102A600001C080E00F900F900F90DF91CF910895FB
:102A70001F93CF93DF9300D01F92CDB7DEB786E1CF
:102A80000E94160F813011F411E001C010E087E1BF
:102A90000E94160F813011F482E001C080E0182BF3
:102AA00080E00E94160F813011F484E001C080E0C4
:102AB000182B84E00E94160F813011F488E001C0C9
:102AC00080E0812B89838091F5039981981751F4D7
:102AD0008091F603833060F48091F6038F5F8093DA
:102AE000F60306C089818093F50381E08093F603A5
:102AF0008091F6038330B8F0CE010396BC01898142
:102B00000E94F2148A838A81882319F08B81809332
:102B1000F70389810E94011A8091F7030E94F4193A
:102B20008A810E940E1A0F900F900F90DF91CF9123
:102B30001F910895CF93DF9300D000D0CDB7DEB7BB
:102B400080E090E00E941E239B838A838A819B8180
:102B50008B35954A49F16BE575EA80E090E00E947B
:102B600036236AEF70E082E090E00E9436236CE04A
:102B700084E090E00E94242360E085E090E00E94E1
:102B800024230E940E0F8C8319820AC08981882F0A
:102B900090E0069660E00E94242389818F5F8983FC
:102BA00099818C81981790F30F900F900F900F9050
:102BB000DF91CF910895CF93DF93CDB7DEB72797FD
:102BC0000FB6F894DEBF0FBECDBF82E090E00E944A
:102BD0001E239B838A8384E090E00E9416238C83CB
:102BE00085E090E00E941623982F81E0992309F454
:102BF00080E08D838A819B81019621F484E690E0B8
:102C00009B838A838C818F3F11F48CE08C838A8133
:102C10009B810E94AA188C81882F90E00E947F19C6
:102C20008D810E949C190E940E0F8E83198229C0EB
:102C30008981882F90E006960E9416238F838981D0
:102C4000282F30E04DE0429FC001439F900D11249A
:102C50008E5E9E4F2F81FC0120838F81882371F02F
:102C60008981282F30E04DE0429FC001439F900DA5
:102C700011248F5E9E4F22E0FC01208389818F5FAB
:102C8000898399818E81981798F227960FB6F894C8
:102C9000DEBF0FBECDBFDF91CF910895CF93DF93FD
:102CA00000D0CDB7DEB76BE575EA80E090E00E941A
:102CB00036230E94BC18BC0182E090E00E943623BB
:102CC0000E949119682F84E090E00E9424230E94C2
:102CD000A919882311F081E001C080E0682F85E008
:102CE00090E00E9424230E940E0F8A83198217C04D
:102CF0008981282F30E04DE0429FC001439F900D15
:102D000011248E5E9E4FFC0120818981882F90E0E6
:102D10000696622F0E94242389818F5F898399817F
:102D20008A81981728F30F900F90DF91CF91089523
:102D3000CF93DF9300D01F92CDB7DEB79B838A83FA
:102D40008A819B81892B11F18A819B81FC01808181
:102D500089838981882F90E08931910591F08A31AA
:102D6000910534F48131910561F0449751F00EC022
:102D70008E32910531F08133910519F0829709F077
:102D800005C08A819B810E94220900000F900F904C
:102D90000F90DF91CF910895CF93DF93CDB7DEB73A
:102DA00084E290E024E230E0F90120812660FC0119
:102DB00020838AE290E02AE230E0F901208120635A
:102DC000FC0120838BE290E02BE230E0F9012081CE
:102DD0002F7CFC0120838AE290E02AE230E0F901B6
:102DE00020812B7FFC0120838AE290E02AE230E000
:102DF000F90120812860FC0120838BE290E02BE226
:102E000030E0F9012081277FFC0120838AE290E0F5
:102E10002AE230E0F90120812F73FC0120838BE24C
:102E200090E02BE230E0F9012081206CFC0120834E
:102E300084E290E024E230E0F90120812E7EFC0162
:102E4000208385E290E025E230E0F90120812161D4
:102E5000FC012083DF91CF9108950F931F93CF93AF
:102E6000DF93CDB7DEB728970FB6F894DEBF0FBE5D
:102E7000CDBF9C838B838B819C81CC01A0E0B0E093
:102E8000880F991FAA1FBB1F880F991FAA1FBB1F5E
:102E9000880F991FAA1FBB1F9C01AD0180E094E21F
:102EA000A4EFB0E0BC01CD010E94D422DA01C90137
:102EB00001979A83898386E890E029813A81FC0111
:102EC0003183208380E890E022EAFC01208381E8BE
:102ED00090E02AE1FC01208308E810E089819A81D2
:102EE000CC01A0E0B0E0BC01CD010E94A021DC013A
:102EF000CB0128E431EE4AE75FE3BC01CD010E943B
:102F00005722DC01CB01BC01CD010E947121DC0103
:102F1000CB01F801918380830AE810E089819A81CE
:102F2000CC01A0E0B0E0BC01CD010E94A021DC01F9
:102F3000CB0128E431EE4AE75FE3BC01CD010E94FA
:102F40005722DC01CB01BC01CD010E947121DC01C3
:102F5000CB01F8019183808328960FB6F894DEBFE9
:102F60000FBECDBFDF91CF911F910F9108950F93A9
:102F70001F93CF93DF93CDB7DEB72C970FB6F8949E
:102F8000DEBF0FBECDBF8B836C8386E890E0FC0173
:102F9000808191819A83898308E810E089819A81F0
:102FA0009C0140E050E08B81882F90E0A0E0B0E0F1
:102FB000BC01CD010E94C422DC01CB0124E630E03B
:102FC00040E050E0BC01CD010E94D422DA01C901E9
:102FD000F801918380830AE810E089819A819C013D
:102FE00040E050E08C81882F90E0A0E0B0E0BC0190
:102FF000CD010E94C422DC01CB0124E630E040E098
:1030000050E0BC01CD010E94D422DA01C901F801CF
:10301000918380832C960FB6F894DEBF0FBECDBF90
:10302000DF91CF911F910F9108950F931F93CF932D
:10303000DF9300D000D000D0CDB7DEB79A8389836C
:1030400089819A81892B59F189819A814F9720F43E
:103050008FE190E09A83898306E810E089819A8164
:10306000CC01A0E0B0E0880F991FAA1FBB1F880FFA
:10307000991FAA1FBB1F880F991FAA1FBB1F9C0166
:10308000AD0180E094E2A4EFB0E0BC01CD010E946C
:10309000D422DA01C9010197F80191838083269631
:1030A0000FB6F894DEBF0FBECDBFDF91CF911F9159
:1030B0000F910895CF93DF93CDB7DEB788E890E006
:1030C000FC0180819181DF91CF910895CF93DF93AF
:1030D000CDB7DEB78AE890E0FC0180819181DF9175
:1030E000CF910895CF93DF93CDB7DEB786E890E018
:1030F000FC0180819181DF91CF910895CF93DF937F
:103100001F92CDB7DEB7898389818093F8030F9032
:10311000DF91CF910895CF93DF93CDB7DEB7809144
:10312000F803DF91CF910895CF93DF931F92CDB72E
:10313000DEB7898389818093F9030F90DF91CF9166
:103140000895CF93DF93CDB7DEB78091F903DF9178
:10315000CF910895CF93DF9300D0CDB7DEB79A8398
:10316000898389819A819093FB038093FA030F905E
:103170000F90DF91CF910895CF93DF93CDB7DEB756
:103180008091FA039091FB03DF91CF910895CF9343
:10319000DF9300D000D0CDB7DEB769837A838B830D
:1031A0009C8389819A81AB81BC818093FC0390933D
:1031B000FD03A093FE03B093FF030F900F900F90B9
:1031C0000F90DF91CF910895CF93DF93CDB7DEB706
:1031D0008091FC039091FD03A091FE03B091FF0349
:1031E000BC01CD01DF91CF910895CF93DF9300D043
:1031F00000D0CDB7DEB769837A838B839C838981C6
:103200009A81AB81BC818093000490930104A093C8
:103210000204B09303040F900F900F900F90DF9172
:10322000CF910895CF93DF93CDB7DEB7809100049F
:1032300090910104A0910204B0910304BC01CD015E
:10324000DF91CF910895CF93DF9300D000D0CDB719
:10325000DEB769837A838B839C8389819A81AB8172
:10326000BC818093040490930504A0930604B0935A
:1032700007040F900F900F900F90DF91CF9108955A
:10328000CF93DF93CDB7DEB780910404909105040E
:10329000A0910604B0910704BC01CD01DF91CF914C
:1032A0000895CF93DF9300D000D0CDB7DEB7698308
:1032B0007A838B839C8389819A81AB81BC81809343
:1032C000080490930904A0930A04B0930B040F9090
:1032D0000F900F900F90DF91CF910895CF93DF93D0
:1032E000CDB7DEB78091080490910904A0910A043B
:1032F000B0910B04BC01CD01DF91CF910895CF9324
:10330000DF9300D0CDB7DEB79A83898389819A8114
:1033100090930D0480930C040F900F90DF91CF9148
:103320000895CF93DF93CDB7DEB780910C049091D1
:103330000D04DF91CF910895CF93DF931F92CDB706
:10334000DEB78983898180930E040F90DF91CF913E
:103350000895CF93DF93CDB7DEB780910E04DF9150
:10336000CF910895CF93DF931F92CDB7DEB78983B6
:10337000898180930F040F90DF91CF910895CF93AF
:10338000DF93CDB7DEB780910F04DF91CF91089521
:10339000CF93DF931F92CDB7DEB789838981809366
:1033A00010040F90DF91CF910895CF93DF93CDB7A5
:1033B000DEB780911004DF91CF910895CF93DF9312
:1033C0001F92CDB7DEB789838981809311040F9056
:1033D000DF91CF910895CF93DF93CDB7DEB7809182
:1033E0001104DF91CF910895CF93DF931F92CDB752
:1033F000DEB789838981809312040F90DF91CF918A
:103400000895CF93DF931F92CDB7DEB7898389816B
:10341000809312040F90DF91CF910895CF93DF93A3
:103420001F92CDB7DEB789838981809313040F90F3
:10343000DF91CF910895CF92DF92EF92FF920F9399
:103440001F93CF93DF93CDB7DEB7A4970FB6F89451
:10345000DEBF0FBECDBF988F8F8B498F5A8F6B8F7A
:103460007C8F0D8F1E8F2F8F38A3C9A2DAA2EBA2FB
:10347000FCA22D8D3E8D4F8D58A1698D7A8D8B8D3F
:103480009C8D0E948D20DC01CB0189839A83AB83C4
:10349000BC838F89988DFC01848D958DA68DB78D09
:1034A000B05829813A814B815C81BC01CD010E94D9
:1034B000FA208823ACF48F89988DFC01848D958D3A
:1034C000A68DB78D29813A814B815C81BC01CD01EC
:1034D0000E945222181624F419821A821B821C821E
:1034E0008F89988DFC0180819181A281B38129818E
:1034F0003A814B815C81BC01CD010E945722DC01E5
:10350000CB018D879E87AF87B88B1D821E821F825D
:10351000188620E030E0A90169A17AA18BA19CA1C5
:103520000E945222181674F58F89988DFC01C08470
:10353000D184E284F3848F89988DFC0184859585FC
:10354000A685B7859C01AD0169817A818B819C81BB
:103550000E948D20DC01CB019C01AD01C701B601A9
:103560000E945722DC01CB0129A13AA14BA15CA109
:10357000BC01CD010E94FF20DC01CB018D839E8325
:10358000AF83B8872F89388D89819A81AB81BC81BF
:10359000F90184879587A687B7878F89988DFC0165
:1035A00080899189A289B3892D853E854F85588967
:1035B000BC01CD010E948E20DC01CB012D813E811A
:1035C0004F815885BC01CD010E948E20DC01CB01CA
:1035D000898B9A8BAB8BBC8B8F89988DFC01808DEE
:1035E000918DA28DB38D29893A894B895C89BC0163
:1035F000CD010E94FA20181674F020E030E0A901F5
:1036000069817A818B819C810E94522218161CF458
:1036100081E090E002C080E090E08D8B8D89817028
:103620008D8B8F89988DFC0184899589A689B789AE
:1036300029893A894B895C89BC01CD010E945222BB
:10364000882374F020E030E0A90169817A818B81C0
:103650009C810E94FA2088231CF481E090E002C043
:1036600080E090E08E8B8E8981708E8B9D8981E0C9
:1036700089278823B1F19E8981E08927882389F1F0
:103680008F89988DFC01C088D188E288F3888F8962
:10369000988DFC0184819581A681B78129813A8129
:1036A0004B815C81BC01CD010E945722DC01CB0122
:1036B00029A13AA14BA15CA1BC01CD010E945722D6
:1036C000DC01CB019C01AD01C701B6010E948E2037
:1036D000DC01CB012F89388DF901808B918BA28B76
:1036E000B38B8F89988DFC0180899189A289B389D8
:1036F0002D853E854F855889BC01CD010E948E20C5
:10370000DC01CB012D813E814F815885BC01CD016B
:103710000E948E20DC01CB0189879A87AB87BC870A
:103720008F89988DFC01808D918DA28DB38D298517
:103730003A854B855C85BC01CD010E94FA20882327
:103740005CF48F89988DFC01808D918DA28DB38D55
:1037500089879A87AB87BC878F89988DFC0184897C
:103760009589A689B78929853A854B855C85BC01F1
:10377000CD010E94522218165CF48F89988DFC01AD
:1037800084899589A689B78989879A87AB87BC87F9
:1037900089859A85AB85BC85BC01CD01A4960FB601
:1037A000F894DEBF0FBECDBFDF91CF911F910F9177
:1037B000FF90EF90DF90CF900895CF92DF92EF923D
:1037C000FF920F931F93CF93DF93CDB7DEB7A197EF
:1037D0000FB6F894DEBF0FBECDBF6A8F7B8F8C8F84
:1037E0009D8F2E8F3F8F48A359A32AE939E949E9D4
:1037F0005EE36A8D7B8D8C8D9D8D0E948D20DC011A
:10380000CB012E8D3F8D48A159A1BC01CD010E9455
:10381000FA201816D4F02AE939E949E95EE36A8DFD
:103820007B8D8C8D9D8D0E948E20DC01CB012E8D99
:103830003F8D48A159A1BC01CD010E94522288238D
:1038400024F080E00E94B21913C02A8D3B8D4C8D6C
:103850005D8D6E8D7F8D88A199A10E94FA208823AD
:1038600024F481E00E94B21903C082E00E94B219E0
:103870000E94A9198B870E9491199D878C878C853E
:103880009D85CC01A0E0B0E0BC01CD010E94A0214B
:10389000DC01CB018E879F87A88BB98B9B8581E04C
:1038A0008927882309F45FC182E6898382E68A83B7
:1038B00020E030E040E050E46E8D7F8D88A199A13A
:1038C0000E94FA208823ACF482E6898382E68A8308
:1038D0001092B9011092BA011092BB011092BC0172
:1038E0001092B5011092B6011092B7011092B80172
:1038F00034C12AE939E949E95EE36A8D7B8D8C8D13
:103900009D8D0E948D20DC01CB012E853F8548894D
:103910005989BC01CD010E94FA2018165CF12AE9F0
:1039200039E949E95EE36A8D7B8D8C8D9D8D0E941E
:103930008E20DC01CB012E853F8548895989BC0149
:10394000CD010E9452228823ACF082E6898382E670
:103950008A831092B9011092BA011092BB011092A1
:10396000BC011092B5011092B6011092B7011092ED
:10397000B801F3C02A8D3B8D4C8D5D8D6E857F85A2
:10398000888999890E94522218160CF06DC082E62F
:1039900089832E8D3F8D48A159A18E859F85A88949
:1039A000B9890F2EFDECCF2EFCECDF2EED2CFDE3C4
:1039B000FF2EF02D89019A01AC01BD0189EA91E049
:1039C0000E941B1ADC01CB018A8B9B8BAC8BBD8BBD
:1039D0006A897B898C899D890E947121DC01CB01D8
:1039E0000E94C8192A893B894C895D8960E070E092
:1039F00084EC92E40E948D20DC01CB018B839C83BC
:103A0000AD83BE8320E030E044EC52E46B817C81E6
:103A10008D819E810E945222181644F480E090E02D
:103A2000A4ECB2E48B839C83AD83BE8320E030E0C2
:103A300040EA50E46B817C818D819E810E94FA2056
:103A4000882344F480E090E0A0EAB0E48B839C8378
:103A5000AD83BE836B817C818D819E810E947121AB
:103A6000DC01CB018A8379C02A8D3B8D4C8D5D8D25
:103A70006E857F85888999890E94FA2088230CF0B9
:103A80006CC082E68A832E853F85488959898E8D50
:103A90009F8DA8A1B9A10F2EFDECCF2EFCECDF2E3F
:103AA000ED2CFDE3FF2EF02D89019A01AC01BD0143
:103AB00089EA91E00E941B1ADC01CB018E8B9F8B5F
:103AC000A88FB98F6E897F89888D998D0E94712109
:103AD000DC01CB010E94C8192E893F89488D598D80
:103AE00060E070E084EC92E40E948D20DC01CB0168
:103AF0008F839887A987BA8720E030E044EC52E4AE
:103B00006F81788589859A850E945222181644F41F
:103B100080E090E0A4ECB2E48F839887A987BA870D
:103B200020E030E040EA50E46F81788589859A850D
:103B30000E94FA20882344F480E090E0A0EAB0E4F8
:103B40008F839887A987BA876F81788589859A85B9
:103B50000E947121DC01CB01898389810E947E183A
:103B60008A810E949418A1960FB6F894DEBF0FBE0A
:103B7000CDBFDF91CF911F910F91FF90EF90DF901C
:103B8000CF900895CF93DF93CDB7DEB70E94E418AE
:103B9000DC01CB018093140490931504A0931604C8
:103BA000B09317040E941219DC01CB018093180412
:103BB00090931904A0931A04B0931B040E94401917
:103BC000DC01CB0180931C0490931D04A0931E0480
:103BD000B0931F040E946E19DC01CB018093200476
:103BE00090932104A0932204B0932304DF91CF91FA
:103BF0000895CF93DF93CDB7DEB7809118049091ED
:103C00001904A0911A04B0911B04BC01CD01DF91ED
:103C1000CF910895CF93DF93CDB7DEB78091200485
:103C200090912104A0912204B0912304BC01CD0104
:103C3000DF91CF910895CF93DF93CDB7DEB72A9769
:103C40000FB6F894DEBF0FBECDBF6B837C838D8330
:103C50009E8380E492E4AFE0B0E02B813C814D8113
:103C60005E81BC01CD010E94D422DA01C901019715
:103C70009A83898385EC90E029813A81232F332729
:103C8000FC01208384EC90E02981FC01208381ECFD
:103C900090E028E9FC01208382EC90E026E0FC0122
:103CA00020832A960FB6F894DEBF0FBECDBFDF91FA
:103CB000CF910895CF93DF931F92CDB7DEB7809158
:103CC0002504882F90E087549B4FFC0180818983D5
:103CD000809125048F5F8F778093250489810F90D1
:103CE000DF91CF910895CF93DF9300D0CDB7DEB7AA
:103CF0008A83809126048F5F8F778983000080916B
:103D0000270499819817D9F380912604882F90E091
:103D1000875C9B4F2A81FC01208389818093260444
:103D200080912804882361F481E08093280481EC49
:103D300090E021EC30E0F90120812062FC01208339
:103D40000F900F90DF91CF910895CF93DF9300D024
:103D5000CDB7DEB79091240480912504981778F0B0
:103D600080912404282F30E080912504882F90E052
:103D7000A901481B590BCA019A83898310C08091FD
:103D80002404282F30E080912504882F90E0A90199
:103D9000481B590BCA0180589F4F9A838983898198
:103DA0009A810F900F90DF91CF910895CF93DF9379
:103DB0001F92CDB7DEB7898380912504282F30E08C
:103DC0008981882F90E0820F931F8F770F90DF916A
:103DD000CF910895CF93DF931F92CDB7DEB789833C
:103DE0008981882F90E087549B4FFC0180810F9040
:103DF000DF91CF910895CF93DF9300D0CDB7DEB799
:103E000086EC90E0FC0180818983809124048F5F9F
:103E10008F778A83809125049A81981761F0809129
:103E20002404882F90E087549B4F2981FC01208334
:103E30008A81809324040F900F90DF91CF91089591
:103E4000CF93DF93CDB7DEB79091260480912704FE
:103E5000981761F481EC90E021EC30E0F9012081C9
:103E60002F7DFC0120831092280412C086EC90E084
:103E700020912704222F30E0275C3B4FF90120815D
:103E8000FC012083809127048F5F8F778093270424
:103E9000DF91CF9108951F920F9200905F000F92D3
:103EA00011242F933F934F935F936F937F938F933F
:103EB0009F93AF93BF93EF93FF93CF93DF93CDB7D0
:103EC000DEB70E94FB1EDF91CF91FF91EF91BF9172
:103ED000AF919F918F917F916F915F914F913F91A2
:103EE0002F910F9000925F000F901F9018951F92D6
:103EF0000F9200905F000F9211242F933F934F93E6
:103F00005F936F937F938F939F93AF93BF93EF9341
:103F1000FF93CF93DF93CDB7DEB70E94201FDF91D1
:103F2000CF91FF91EF91BF91AF919F918F917F9131
:103F30006F915F914F913F912F910F9000925F0091
:103F40000F901F901895CF93DF9300D0CDB7DEB7B9
:103F50008A838A8189838981882F90E08870992754
:103F6000892B11F088E201C088E099819770892B34
:103F7000982F88E10FB6F894A895809360000FBE43
:103F8000909360000F900F90DF91CF910895CF93A1
:103F9000DF93CDB7DEB7A895DF91CF910895CF938A
:103FA000DF93CDB7DEB70FB6F894A8958091600087
:103FB000886180936000109260000FBEDF91CF9106
:103FC0000895CF93DF93CDB7DEB780E090E088709F
:103FD0009927892B11F088E201C088E090E0977062
:103FE000892B982F88E10FB6F894A89580936000EC
:103FF0000FBE90936000FFCFEFEFF0E083E080838F
:10400000608381E090E008958DE294E00E94792041
:10401000E9E2F4E01382128285E892E091838083E2
:104020000895CF92DF92EF92FF920F931F93CF9359
:10403000DF936C017A018B01C0E0D0E0CE15DF0583
:1040400089F0D8016D918D01D601ED91FC9101901F
:10405000F081E02DC6010995892B11F47E0102C083
:104060002196ECCFC701DF91CF911F910F91FF9067
:10407000EF90DF90CF9008956115710579F0FB0105
:1040800001900020E9F73197AF01461B570BDC0187
:10409000ED91FC910280F381E02D099480E090E0A5
:1040A0000895DC01ED91FC910190F081E02D0994DF
:1040B00069E872E00C943C20FC01538342836483E2
:1040C00015820895CF93DF93EC018A819B8100973D
:1040D00069F06F8161110E9451208C81882331F039
:1040E0008A819B81DF91CF910C945820DF91CF91F1
:1040F0000895FC018CE992E09183808313821282FF
:10410000148215821682178282E090E09187808760
:104110008AE090E09387828708955058BB27AA27AA
:104120000E94A5200C9418220E940A2238F00E94B6
:10413000112220F039F49F3F19F426F40C94072241
:104140000EF4E095E7FB0C940122E92F0E9429224E
:1041500058F3BA17620773078407950720F079F4BC
:10416000A6F50C944B220EF4E0950B2EBA2FA02D41
:104170000B01B90190010C01CA01A0011124FF2714
:10418000591B99F0593F50F4503E68F11A16F0400F
:10419000A22F232F342F4427585FF3CF469537950E
:1041A0002795A795F0405395C9F77EF41F16BA0BD3
:1041B000620B730B840BBAF09150A1F0FF0FBB1F81
:1041C000661F771F881FC2F70EC0BA0F621F731FCA
:1041D000841F48F4879577956795B795F7959E3F27
:1041E00008F0B0CF9395880F08F09927EE0F9795B8
:1041F000879508950E94DD2108F481E008950E94CA
:1042000013210C9418220E94112258F00E940A22B5
:1042100040F029F45F3F29F00C94012251110C94D5
:104220004C220C9407220E94292268F39923B1F3AF
:10423000552391F3951B550BBB27AA2762177307CC
:10424000840738F09F5F5F4F220F331F441FAA1F60
:10425000A9F335D00E2E3AF0E0E832D0915050401C
:10426000E695001CCAF72BD0FE2F29D0660F771FCA
:10427000881FBB1F261737074807AB07B0E809F0B0
:10428000BB0B802DBF01FF2793585F4F3AF09E3F35
:10429000510578F00C9401220C944C225F3FE4F31A
:1042A000983ED4F3869577956795B795F7959F5F78
:1042B000C9F7880F911D9695879597F90895E1E0C4
:1042C000660F771F881FBB1F621773078407BA0723
:1042D00020F0621B730B840BBA0BEE1F88F7E0957E
:1042E00008950E94312288F09F5798F0B92F99279E
:1042F000B751B0F0E1F0660F771F881F991F1AF0D1
:10430000BA95C9F714C0B13091F00E944B22B1E0C8
:1043100008950C944B22672F782F8827B85F39F0C7
:10432000B93FCCF3869577956795B395D9F73EF469
:1043300090958095709561957F4F8F4F9F4F089511
:10434000E89409C097FB3EF490958095709561952F
:104350007F4F8F4F9F4F9923A9F0F92F96E9BB27E5
:104360009395F695879577956795B795F111F8CF61
:10437000FAF4BB0F11F460FF1BC06F5F7F4F8F4FCC
:104380009F4F16C0882311F096E911C0772321F0C2
:104390009EE8872F762F05C0662371F096E8862F5A
:1043A00070E060E02AF09A95660F771F881FDAF7B1
:1043B000880F9695879597F90895990F0008550FDE
:1043C000AA0BE0E8FEEF16161706E807F907C0F09B
:1043D00012161306E407F50798F0621B730B840BA3
:1043E000950B39F40A2661F0232B242B252B21F47D
:1043F00008950A2609F4A140A6958FEF811D811D1D
:10440000089597F99F6780E870E060E008959FEF56
:1044100080EC089500240A9416161706180609065B
:10442000089500240A94121613061406050608952A
:10443000092E0394000C11F4882352F0BB0F40F4B2
:10444000BF2B11F460FF04C06F5F7F4F8F4F9F4FF2
:10445000089557FD9058440F551F59F05F3F71F074
:104460004795880F97FB991F61F09F3F79F08795DB
:104470000895121613061406551FF2CF4695F1DF64
:1044800008C0161617061806991FF1CF86957105F4
:10449000610508940895E894BB2766277727CB0128
:1044A00097F908950E94DD2108F48FEF08950E9486
:1044B0006A220C9418220E940A2238F00E941122CB
:1044C00020F0952311F00C9401220C940722112462
:1044D0000C944C220E94292270F3959FC1F3950FF2
:1044E00050E0551F629FF001729FBB27F00DB11D78
:1044F000639FAA27F00DB11DAA1F649F6627B00D08
:10450000A11D661F829F2227B00DA11D621F739FF0
:10451000B00DA11D621F839FA00D611D221F749FFE
:104520003327A00D611D231F849F600D211D822F45
:10453000762F6A2F11249F5750409AF0F1F088236C
:104540004AF0EE0FFF1FBB1F661F771F881F915099
:104550005040A9F79E3F510580F00C9401220C9425
:104560004C225F3FE4F3983ED4F3869577956795A8
:10457000B795F795E7959F5FC1F7FE2B880F911DC3
:104580009695879597F90895DB018F939F930E94E5
:10459000F622BF91AF91A29F800D911DA39F900D18
:1045A000B29F900D11240895A1E21A2EAA1BBB1BE5
:1045B000FD010DC0AA1FBB1FEE1FFF1FA217B307EF
:1045C000E407F50720F0A21BB30BE40BF50B661F05
:1045D000771F881F991F1A9469F7609570958095C9
:1045E00090959B01AC01BD01CF0108950E94072366
:1045F000A59F900DB49F900DA49F800D911D112437
:104600000895EE0FFF1F0590F491E02D0994A29FED
:10461000B001B39FC001A39F700D811D1124911D96
:10462000B29F700D811D1124911D0895F999FECF3F
:1046300092BD81BDF89A992780B50895A8E1B0E0B0
:1046400042E050E00C943E23262FF999FECF92BD14
:1046500081BDF89A019700B4021639F01FBA20BD47
:104660000FB6F894FA9AF99A0FBE08950196272F7B
:104670000E9425230C942423DC01CB01FC01F99931
:10468000FECF06C0F2BDE1BDF89A319600B40D929E
:0C46900041505040B8F70895F894FFCF57
:10469C000000390580000101010101010000011A2F
:1046AC00000000000000003C0D0101011A00000098
:1046BC00000000013C0D0102011A00000000000086
:1046CC00023C0D0103011A000000000000033C0D28
:1046DC000110011A000000000000003C0D02110145
:1046EC001A000000000000013C0D0212011A00002B
:1046FC0000000000023C0D0213011A000000000033
:10470C0000033C0D0220011A000000000000003CD8
:10471C000D0421011A000000000000013C0D0322D1
:10472C00011A000000000000023C0D0423011A00D5
:10473C000000000000033C0D039A99593F9A991907
:10474C003ECDCC4C3D00000000000000000000A05D
:10475C00400000C442CDCC4C3E00010203000102DB
:10476C0002000100DD063C070000550701010201B3
:10477C000001006307840700000000020101000033
:10478C000100AA07BD0700000000030101000001A1
:10479C0000D107E407000000000401010000010043
:1047AC00FA070E08000000000501010000010020BE
:1047BC000834080000000006010100000100460852
:1047CC00590800000000070101000001006B087E81
:1047DC000800000000080101000001009008A30877
:1047EC000000000009010100000100B508C8080024
:1047FC0000000010010100000100DA08ED080000C3
:10480C0000000A0101000002000000FF0800000087
:10481C000000000000FC1F11200D0A006E616E00EC
:10482C00696E66006F766600000000005C206220F6
:00000001FF
