:100000000C9435000C945D000C945D000C945D0024
:100010000C945D000C945D000C945D000C945D00EC
:100020000C945D000C945D000C945D000C945D00DC
:100030000C945D000C945D000C94930F0C945D0087
:100040000C945D000C945D000C94E11A0C940D1B53
:100050000C945D000C949F010C945D000C945D0069
:100060000C945D000C945D00411B11241FBECFEF6A
:10007000D8E0DEBFCDBF12E0A0E0B1E0E6E1FDE3F5
:1000800002C005900D92AC37B107D9F724E0ACE778
:10009000B2E001C01D92AC3FB207E1F710E0C5E34A
:1000A000D0E004C02197FE010E943E1EC433D10758
:1000B000C9F70E94B1000C94891E0C940000CF93E4
:1000C000DF93CDB7DEB728970FB6F894DEBF0FBE2B
:1000D000CDBF0E9419110E94690D0E9458190E94FB
:1000E0008F19DC01CB0189839A83AB83BC830E9487
:1000F000A019DC01CB018D839E83AF83B8872D814E
:100100003E814F81588589819A81AB81BC81BC0138
:10011000CD010E9471170E94BD1128960FB6F89468
:10012000DEBF0FBECDBFDF91CF910895CF93DF9398
:10013000CDB7DEB70E9439020E94A902DF91CF91AC
:100140000895CF93DF93CDB7DEB70E94FD00DF9116
:10015000CF910895CF93DF93CDB7DEB7DF91CF91E5
:100160000895CF93DF93CDB7DEB70E94D70E789472
:1001700090919A0281E0992309F480E0882321F08C
:1001800010929A020E945F0090919B0281E0992355
:1001900009F480E0882321F010929B020E949600CF
:1001A00090919C0281E0992309F480E0882321F05A
:1001B00010929C020E94A10090919D0281E09923DF
:1001C00009F480E0882321F010929D020E94AA0089
:1001D000CFCFCF93DF93CDB7DEB78CE790E020E4AD
:1001E000FC0120838AE790E02FE8FC01208381E076
:1001F00080930601DF91CF910895CF93DF93CDB720
:10020000DEB79091060181E08927882309F01AC0A2
:1002100010920601109284028CE790E02CE730E007
:10022000F9012081322F307F20E02F70232BFC0139
:1002300020838AE790E02AE730E0F90120812064FA
:10024000FC012083DF91CF910895CF93DF93CDB749
:10025000DEB780910601DF91CF910895CF93DF93B0
:1002600000D01F92CDB7DEB79B838A838A819B81A2
:10027000892BF1F0198219C08981882F90E0880FAD
:10028000991F2A813B81820F931F2981222F30E001
:10029000220F331F24583D4FF90120813181FC0189
:1002A0003183208389818F5F89838981843020F322
:1002B0000F900F900F90DF91CF910895CF93DF9320
:1002C000CDB7DEB780918402882F90E028E730E038
:1002D000F90120813181880F991F84589D4FFC01BD
:1002E00031832083809184028F5F80938402809188
:1002F00084028430F0F48CE790E02CE730E0F901E0
:100300002081422F407F20918402222F30E026530B
:100310003E4FF90120812F70242BFC0120838AE7B6
:1003200090E02AE730E0F90120812064FC0120837D
:1003300003C081E080930601DF91CF9108951F9261
:100340000F9200905F000F9211242F933F934F93D1
:100350005F936F937F938F939F93AF93BF93EF932D
:10036000FF93CF93DF93CDB7DEB70E945E01DF919D
:10037000CF91FF91EF91BF91AF919F918F917F911D
:100380006F915F914F913F912F910F9000925F007D
:100390000F901F901895CF93DF931F92CDB7DEB7C4
:1003A00089838981809307010F90DF91CF91089510
:1003B000CF93DF93CDB7DEB780910701DF91CF9167
:1003C0000895CF93DF931F92CDB7DEB789838981DC
:1003D000809308010F90DF91CF910895CF93DF9321
:1003E000CDB7DEB780910801DF91CF910895CF930B
:1003F000DF931F92CDB7DEB789838981809309018E
:100400000F90DF91CF910895CF93DF93CDB7DEB7F3
:1004100080910901DF91CF910895CF93DF931F92CF
:10042000CDB7DEB78983898180930A010F90DF9170
:10043000CF910895CF93DF93CDB7DEB780910A01B6
:10044000DF91CF910895CF93DF931F92CDB7DEB7A1
:100450008983898180930B010F90DF91CF9108955B
:10046000CF93DF93CDB7DEB780910B01DF91CF91B2
:1004700008950F931F93CF93DF93CDB7DEB76397A4
:100480000FB6F894DEBF0FBECDBF0E943B1A9E830D
:100490008D838D819E810C9708F450C08BE00E9463
:1004A0006C1A8F838F810E94801A8D3009F043C0AF
:1004B000198212C08981082F10E089810E946C1A6C
:1004C0000E94801A282FCE010896800F911FFC01F0
:1004D000208389818F5F898389818C3058F31C82C6
:1004E0001A8210C08A81882F90E09E01285F3F4FBA
:1004F000820F931FFC0180819C81890F8C838A81EC
:100500008F5F8A838A818A3068F39A898C819817F1
:1005100079F41B8205C00E94F0198B818F5F8B8359
:100520008B818C30C0F3CE0108960E94D71205C093
:100530000E94F01902C00E94F019A7CF63960FB66F
:10054000F894DEBF0FBECDBFDF91CF911F910F9109
:100550000895CF93DF93CDB7DEB780918A02909153
:100560008B020A9690938B0280938A0280918C0270
:1005700090918D020A9690938D0280938C028091C7
:100580008E0290918F020A9690938F0280938E0232
:1005900080919002909191020A969093910280939B
:1005A000900280919202909193020A969093930206
:1005B0008093920280910701882361F080918A02E2
:1005C00090918B020A9730F010928B0210928A025F
:1005D0000E942E0380910801882361F080918C0293
:1005E00090918D02449730F010928D0210928C02FF
:1005F0000E94920380910901882361F080918E020C
:1006000090918F02449730F010928F0210928E02D8
:100610000E94690480910A01882361F08091900210
:1006200090919102889730F010929102109290026E
:100630000E94FD0480910B01882369F08091920251
:10064000909193028436910530F0109293021092AB
:1006500092020E944705DF91CF910895CF93DF93D7
:10066000CDB7DEB72E970FB6F894DEBF0FBECDBF65
:100670001A828AEA0E94091A8A8186558A830E9410
:100680002501882321F0CE0107960E942E011982B0
:1006900028C08981882F90E0880F991F9E012F5FC5
:1006A0003F4F820F931F0696FC01808191819C83AE
:1006B0008B838B818D838B819C81892F99278E835E
:1006C0008D810E94091A9A818D81890F8A838E817A
:1006D0000E94091A9A818E81890F8A8389818F5F8E
:1006E000898389818430A8F2809185020E94091A49
:1006F000809185029A81890F8A838A810E94091AD2
:100700008DE00E94091A809185028F5F8F7080931F
:1007100085022E960FB6F894DEBF0FBECDBFDF91D7
:10072000CF910895CF93DF93CDB7DEB764970FB61F
:10073000F894DEBF0FBECDBF1A8219820E945A14F0
:100740009C838B830E9466149E838D830E94721407
:1007500098878F838F819885CC01A0E0B0E00196C7
:10076000A11DB11D880F991FAA1FBB1F880F991FBC
:10077000AA1FBB1F880F991FAA1FBB1F9C01AD0199
:1007800080E094E2A4EFB0E0BC01CD010E94111E14
:10079000DA01C9019A8789878F819885CC01A0E009
:1007A000B0E0BC01CD010E94DD1CDC01CB0124EADC
:1007B00030E74DE75FE3BC01CD010E94941DDC01F1
:1007C000CB01BC01CD010E94AE1CDC01CB019C0120
:1007D0008B819C818217930718F081E089830CC07C
:1007E0008B819C810B9720F08D819E810B9718F453
:1007F00082E0898301C0198282EA0E94091A8A81F3
:100800008E558A838B818B878B819C81892F992739
:100810008C878B850E94091A9A818B85890F8A8320
:100820008C850E94091A9A818C85890F8A838D8113
:100830008D878D819E81892F99278E878D850E9436
:10084000091A9A818D85890F8A838E850E94091ADB
:100850009A818E85890F8A8389810E94091A9A81DB
:100860008981890F8A8389858F8789859A85892FD0
:100870009927888B8F850E94091A9A818F85890F05
:100880008A8388890E94091A9A818889890F8A83B4
:1008900080E00E94091A809186020E94091A8091C4
:1008A00086029A81890F8A838A810E94091A8DE0C3
:1008B0000E94091A809186028F5F8F708093860252
:1008C00064960FB6F894DEBF0FBECDBFDF91CF9117
:1008D0000895CF93DF93CDB7DEB72C970FB6F8947A
:1008E000DEBF0FBECDBF1A8283EA0E94091A8A8139
:1008F0008D558A830E9491159C838B830E94D51508
:100900008D830E94BF158E838B819C81892F9927AF
:100910008F838B81888788850E94091A9A818885B0
:10092000890F8A838F810E94091A9A818F81890F8A
:100930008A838D81882F90E0092E000CAA0BBB0BB7
:10094000BC01CD010E94DF1CDC01CB0120E030E0C6
:1009500040E251E4BC01CD010E94941DDC01CB01B9
:10096000BC01CD010E94AE1CDC01CB019A878987B6
:1009700089858B8789859A85892F99278C878B858F
:100980000E94091A9A818B85890F8A838C850E941F
:10099000091A9A818C85890F8A838E810E94091A8F
:1009A0009A818E81890F8A83198206C080E00E9415
:1009B000091A89818F5F898389818330B8F3809197
:1009C00087020E94091A809187029A81890F8A837F
:1009D0008A810E94091A8DE00E94091A809187027B
:1009E0008F5F8F70809387022C960FB6F894DEBFCE
:1009F0000FBECDBFDF91CF910895CF93DF9300D08D
:100A000000D0CDB7DEB71A8284EA0E94091A8A8123
:100A10008C558A8384E10E941E0E8B8385E10E949F
:100A20001E0E8C838B810E94091A9A818B81890FFB
:100A30008A838C810E94091A9A818C81890F8A830A
:100A4000198206C080E00E94091A89818F5F89831C
:100A500089818630B8F3809188020E94091A8091BA
:100A600088029A81890F8A838A810E94091A8DE0FF
:100A70000E94091A809188028F5F8F70809388028C
:100A80000F900F900F900F90DF91CF910895CF931B
:100A9000DF93CDB7DEB76F970FB6F894DEBF0FBE0A
:100AA000CDBF0E94160E8A871F82198220C08981BD
:100AB000282F30E04DE0429FC001439F900D11244C
:100AC0008D5E9E4FFC018081882371F08F8191E0C3
:100AD000980F9F83882F90E09E012C5E3F4F820FDE
:100AE000931F2981FC01208389818F5F89839981EC
:100AF0008A859817E0F28F81882341F5188685EA68
:100B00000E94091A88858B5588871B8206C080E061
:100B10000E94091A8B818F5F8B838B818830B8F399
:100B2000809189020E94091A809189029885890F13
:100B3000888788850E94091A8DE00E94091A809191
:100B400089028F5F8F7080938902A8C08F81882F60
:100B500090E00196969587958B871A829AC01986A0
:100B600085EA0E94091A89858B5589871C8275C080
:100B70008A81982F990F8C81890F8C879C858F8112
:100B8000981708F05CC08C85882F90E09E012C5E41
:100B90003F4F820F931FFC0180818D878D85282F09
:100BA00030E04DE0429FC001439F900D1124825FD1
:100BB0009E4FFC0180819181A281B3818E879F87A6
:100BC000A88BB98B8D85282F30E04DE0429FC00166
:100BD000439F900D11248D5E9E4FFC0180818A8B76
:100BE00082E08D8321C08D81082E000C990B9C0121
:100BF000220F331F220F331F220F331F8E859F8535
:100C0000A889B98904C0B695A795979587952A951F
:100C1000D2F78B8B8B890E94091A99858B89890F52
:100C200089878D8181508D838D818823E4F68A891F
:100C30000E94091A99858A89890F89870BC01E82AB
:100C400006C080E00E94091A8E818F5F8E838E819C
:100C50008430B8F38C818F5F8C838C81823008F470
:100C600087CF809189020E94091A80918902998513
:100C7000890F898789850E94091A8DE00E94091AC7
:100C8000809189028F5F8F70809389028A818F5F44
:100C90008A839A818B85981708F461CF6F960FB677
:100CA000F894DEBF0FBECDBFDF91CF910895CF92F4
:100CB000DF92EF92FF920F931F93CF93DF93CDB705
:100CC000DEB72C970FB6F894DEBF0FBECDBF9C8366
:100CD0008B830E9472149A8389830E945A149C0108
:100CE00040E050E084E690E0DC010E94331E7B018E
:100CF0008C0189819A819C0140E050E0C801B701D4
:100D00000E94111EDA01C901282F8B819C81FC01F0
:100D100020838B819C818C010F5F1F4F0E94661482
:100D20009C0140E050E084E690E0DC010E94331E2C
:100D30006B017C0189819A819C0140E050E0C701F0
:100D4000B6010E94111EDA01C901F80180832C96B8
:100D50000FB6F894DEBF0FBECDBFDF91CF911F91CC
:100D60000F91FF90EF90DF90CF900895CF93DF9396
:100D700000D0CDB7DEB79A83898389819A81FC013F
:100D800080810E947E1489819A810196FC01808174
:100D90000E9494140F900F90DF91CF910895CF93FC
:100DA000DF9300D000D0CDB7DEB79C838B830E9449
:100DB00072149A83898329818B819C81FC01208311
:100DC0008B819C81019629813A81232F3327FC0155
:100DD00020830F900F900F900F90DF91CF91089587
:100DE000CF93DF9300D000D0CDB7DEB79C838B8349
:100DF0008B819C810196FC018081882F90E0382FA7
:100E000022278B819C81FC018081882F90E0822B9E
:100E1000932B9A83898389819A810E9415140F905C
:100E20000F900F900F90DF91CF910895CF93DF93A4
:100E300000D0CDB7DEB79A8389830E949115282F01
:100E400089819A81FC0120830F900F90DF91CF91CF
:100E50000895CF93DF9300D0CDB7DEB79A8389830F
:100E600089819A81FC018081882F90E00E947F1502
:100E70000F900F90DF91CF910895CF93DF9300D023
:100E8000CDB7DEB79A8389830E94A915282F89815F
:100E90009A81FC0120830F900F90DF91CF910895EC
:100EA000CF93DF9300D0CDB7DEB79A838983898152
:100EB0009A81FC01908181E0992309F480E00E94ED
:100EC0009C150F900F90DF91CF910895CF93DF93F2
:100ED00000D0CDB7DEB79A83898384E10E941E0ECD
:100EE000282F89819A81FC0120830F900F90DF9138
:100EF000CF910895CF93DF9300D0CDB7DEB79A831B
:100F0000898389819A81FC0180810E94DB110F9085
:100F10000F90DF91CF910895CF93DF9300D0CDB79D
:100F2000DEB79A83898385E10E941E0E282F89816E
:100F30009A81FC0120830F900F90DF91CF9108954B
:100F4000CF93DF9300D0CDB7DEB79A8389838981B1
:100F50009A81FC0180810E94EF110F900F90DF9128
:100F6000CF910895CF93DF9300D0CDB7DEB79A83AA
:100F700089830E943002282F89819A81FC01208375
:100F80000F900F90DF91CF910895CF93DF9300D012
:100F9000CDB7DEB79A83898389819A81FC018081EC
:100FA0000E9423020F900F90DF91CF910895CF936D
:100FB000DF9300D0CDB7DEB79A8389830E94040205
:100FC000282F89819A81FC0120830F900F90DF9157
:100FD000CF910895CF93DF9300D0CDB7DEB79A833A
:100FE000898389819A81FC0180810E94F7010F9099
:100FF0000F90DF91CF910895CF93DF9300D0CDB7BD
:10100000DEB79A8389830E94EE01282F89819A8115
:10101000FC0120830F900F90DF91CF910895CF9323
:10102000DF9300D0CDB7DEB79A83898389819A8117
:10103000FC0180810E94E1010F900F90DF91CF9120
:101040000895CF93DF9300D0CDB7DEB79A8389831D
:101050000E941A02282F89819A81FC0120830F9017
:101060000F90DF91CF910895CF93DF9300D0CDB74C
:10107000DEB79A83898389819A81FC0180810E94ED
:101080000D020F900F90DF91CF910895CF93DF93D2
:1010900000D0CDB7DEB79A8389830E94D801282F6C
:1010A00089819A81FC0120830F900F90DF91CF916D
:1010B0000895CF93DF9300D0CDB7DEB79A838983AD
:1010C00089819A81FC0180810E94CB010F900F9051
:1010D000DF91CF910895CF93DF93CDB7DEB781E055
:1010E00090E090930D0180930C01DF91CF910895D2
:1010F000CF93DF9300D01F92CDB7DEB79B838A8357
:101100008A819B81892B09F43EC08A819B81FC01E5
:10111000808189838981882F90E089319105D1F080
:101120008A31910534F48131910561F0449779F069
:1011300025C08E329105C1F081339105D1F082979F
:1011400071F01CC08A819B810E94C9081CC00E944A
:10115000EB0819C08A819B810E94FA0814C08A8119
:101160009B810E9417090FC08A819B810E94240ADB
:101170000AC062E181E30E94C90B05C061E1898177
:101180000E94C90B00000F900F900F90DF91CF913C
:101190000895CF93DF9300D01F92CDB7DEB79B8326
:1011A0008A838A819B81FC01818189838981823044
:1011B00041F441E0CE010196BC0181E10E94750B32
:1011C00004C062E181E10E94C90B0F900F900F9063
:1011D000DF91CF910895CF93DF93CDB7DEB70E9413
:1011E000C70D40E060E070E084E10E94750BDF9184
:1011F000CF910895CF93DF9300D01F92CDB7DEB784
:101200009B838A838A819B81FC0181818983898177
:10121000823019F40E940D0E04C062E189E10E943F
:10122000C90B0F900F900F90DF91CF910895CF933E
:10123000DF93CDB7DEB763970FB6F894DEBF0FBE6E
:10124000CDBF9B8B8A8B1B828A899B890196FC016F
:101250008081882F90E0382F22278A899B890296E7
:10126000FC018081882F90E0822B932B9D838C83BF
:101270001982D4C08981282F30E04DE0429FC001FF
:10128000439F900D112482539E4FFC012081318198
:101290008C819D812817390709F0BDC08A899B89F7
:1012A000FC0181818A878A899B89FC0182818B87E5
:1012B0008981282F30E04DE0429FC001439F900D6F
:1012C00011248B529E4FFC0180819181892BA1F0CA
:1012D0008981282F30E04DE0429FC001439F900D4F
:1012E00011248B529E4FFC0120813181CE010A9640
:1012F0000296F901099575C08981282F30E04DE0EB
:10130000429FC001439F900D112487529E4FFC01C4
:1013100080819181892B09F464C08981282F30E074
:101320004DE0429FC001439F900D11248F529E4F6C
:10133000FC01808191810197D9F48981282F30E0C7
:101340004DE0429FC001439F900D112487529E4F54
:10135000FC0180819181FC01808191819F838E833A
:101360008E818C878E819F81892F99278D8739C0A7
:101370008981282F30E04DE0429FC001439F900DAE
:10138000112487529E4FFC01808191819987888723
:101390001A8217C08A81882F90E002962A81222F14
:1013A00030E048855985240F351FF90140819E01A1
:1013B000265F3F4F820F931FFC0140838A818F5F1E
:1013C0008A838981282F30E04DE0429FC001439FEE
:1013D000900D112480539E4FFC0190818A818917C2
:1013E000C8F28981282F30E04DE0429FC001439F21
:1013F000900D112480539E4FFC01808122E0280F24
:10140000CE010A96422FBC0182E20E94750B81E058
:101410008B83000007C089818F5F898389818B302E
:1014200008F428CF9B8181E08927882321F061E39C
:1014300082E20E94C90B63960FB6F894DEBF0FBE1E
:10144000CDBFDF91CF910895CF93DF93CDB7DEB7B6
:1014500063970FB6F894DEBF0FBECDBF9B8B8A8B10
:101460001B828A899B890196FC018081882F90E0EC
:10147000382F22278A899B890296FC018081882F38
:1014800090E0822B932B9D838C83198218C18981D4
:10149000282F30E04DE0429FC001439F900D112462
:1014A00082539E4FFC01208131818C819D812817C0
:1014B000390709F001C18981282F30E04DE0429FB2
:1014C000C001439F900D11248D529E4FFC018081DD
:1014D0009181019729F062E28EE20E94C90BFCC063
:1014E0008981282F30E04DE0429FC001439F900D3D
:1014F000112489529E4FFC0180819181892BA1F09A
:101500008981282F30E04DE0429FC001439F900D1C
:10151000112489529E4FFC01208131818A899B8947
:101520000396F901099582C08981282F30E04DE0AA
:10153000429FC001439F900D112487529E4FFC0192
:1015400080819181892B09F471C08981282F30E035
:101550004DE0429FC001439F900D11248F529E4F3A
:10156000FC0180819181019741F58A899B890496CC
:10157000FC018081882F90E0382F22278A899B895F
:101580000396FC018081882F90E0822B932B9F8310
:101590008E838981282F30E04DE0429FC001439F18
:1015A000900D112487529E4FFC01808191812E81E4
:1015B0003F81FC013183208339C08981282F30E0AD
:1015C0004DE0429FC001439F900D112487529E4FD2
:1015D000FC0180819181998788871A8217C08A814E
:1015E000882F90E028853985820F931F2A81222F2A
:1015F00030E02D5F3F4F4A895B89240F351FF90189
:101600002081FC0120838A818F5F8A838981282F32
:1016100030E04DE0429FC001439F900D1124805364
:101620009E4FFC0190818A818917C8F28A899B8923
:10163000FC0181818A878A899B89FC0182818B8751
:101640008981282F30E04DE0429FC001439F900DDB
:1016500011248B529E4FFC0180819181892B99F03E
:101660008981282F30E04DE0429FC001439F900DBB
:1016700011248B529E4FFC0120813181CE010A96AC
:101680000296F90109958981282F30E04DE0429FAB
:10169000C001439F900D112480539E4FFC01808117
:1016A00022E0280FCE010A96422FBC018EE20E9452
:1016B000750B81E08B8307C089818F5F8983898166
:1016C0008B3008F4E4CE9B8181E08927882321F0C8
:1016D00061E38EE20E94C90B63960FB6F894DEBFF9
:1016E0000FBECDBFDF91CF910895CF93DF93CDB7DC
:1016F000DEB728970FB6F894DEBF0FBECDBF8D833F
:101700007F836E8348871B828D81805C8C838C8174
:101710000E94091A9B818C81890F8B8319821AC0C0
:101720008981882F90E02E813F81820F931FFC01D9
:1017300080810E94091A8981882F90E02E813F8143
:10174000820F931FFC0180819B81890F8B8389818C
:101750008F5F898399818885981710F388858A839C
:1017600006C080E00E94091A8A818F5F8A838A817D
:101770008930B8F38B810E94091A8DE00E94091A02
:1017800028960FB6F894DEBF0FBECDBFDF91CF9184
:101790000895CF93DF9300D000D0CDB7DEB78B8311
:1017A0006C831A828FE70E94091A8A8181588A8382
:1017B0008B810E94091A9A818B81890F8A838C817F
:1017C0000E94091A9A818C81890F8A83198206C026
:1017D00080E00E94091A89818F5F8983898187301F
:1017E000B8F38A810E94091A8DE00E94091A0F90AD
:1017F0000F900F900F90DF91CF910895CF93DF93CB
:101800001F92CDB7DEB7198238C08981282F30E00A
:101810004DE0429FC001439F900D11248E5E9E4F6C
:10182000FC0110828981282F30E04DE0429FC001E9
:10183000439F900D11248D5E9E4FFC011082898183
:10184000282F30E04DE0429FC001439F900D1124AE
:101850008C5E9E4FFC0110828981282F30E04DE084
:10186000429FC001439F900D11248B5E9E4FFC014F
:101870001182108289818F5F898389818C3028F25F
:101880000F90DF91CF910895CF93DF93CDB7DEB75F
:101890002A970FB6F894DEBF0FBECDBF89876A873F
:1018A000CE0101960E942E018A85823091F48985AD
:1018B000882F90E0880F991F9E012F5F3F4F820F66
:1018C000931FFC0180819181892B09F061C081E027
:1018D00060C08A85813099F48985882F90E0880FCF
:1018E000991F9E012F5F3F4F820F931FFC01808144
:1018F00091818F3F934009F04BC081E04AC08A85B7
:10190000833011F58985882F90E0880F991F9E01FB
:101910002F5F3F4F820F931FFC01808191818B329B
:101920009340B0F18985882F90E0880F991F9E0120
:101930002F5F3F4F820F931FFC01808191818F3F6A
:10194000934031F181E025C08A85843009F589858D
:10195000882F90E0880F991F9E012F5F3F4F820FC5
:10196000931FFC01808191818039914088F48985A1
:10197000882F90E0880F991F9E012F5F3F4F820FA5
:10198000931FFC0180819181892B11F081E001C0BE
:1019900080E02A960FB6F894DEBF0FBECDBFDF9170
:1019A000CF910895CF93DF93CDB7DEB72B970FB6C6
:1019B000F894DEBF0FBECDBF9A8789876B87898574
:1019C0009A85892B09F47CC08B85882309F44DC046
:1019D00089859A85FC018681843650F489859A85AB
:1019E000FC01868121E0280F89859A85FC012683E8
:1019F00089859A85FC018481882329F489859A85C3
:101A000021E0FC01248389859A85FC018481813051
:101A100009F056C089859A85FC018681843608F4D0
:101A20004FC089859A8522E0FC01248389859A85A7
:101A300022E0FC012583CE0101960E942E018985BA
:101A40009A85FC018185882F90E0880F991F9E015F
:101A50002F5F3F4F820F931FFC01208131818985C9
:101A60009A85FC01308727832BC089859A85FC01E4
:101A70008681882359F089859A85FC0186812FEF1C
:101A8000280F89859A85FC0126831AC089859A8545
:101A9000FC018481823051F489859A85FC0114828D
:101AA00089859A8521E0FC0125830AC089859A856C
:101AB000FC018481813021F489859A85FC0114829E
:101AC0002B960FB6F894DEBF0FBECDBFDF91CF913E
:101AD0000895CF93DF9300D0CDB7DEB719824EC003
:101AE0001A828981282F30E04DE0429FC001439F38
:101AF000900D1124885E9E4FFC0180819181892B7D
:101B000061F18981282F30E04DE0429FC001439F61
:101B1000900D1124885E9E4FFC01208131818981C6
:101B2000482F50E06DE0649FC001659F900D112427
:101B3000865E9E4FFC0170818981482F50E06DE0E8
:101B4000649FC001659F900D1124895E9E4FFC012A
:101B50008081672FF90109958A838981282F30E0D8
:101B60004DE0429FC001439F900D1124825F9E4F24
:101B70006A810E94D20C89818F5F898389818C3030
:101B800008F4AECF0F900F90DF91CF910895CF93CF
:101B9000DF931F92CDB7DEB7198238C08981282F15
:101BA00030E04DE0429FC001439F900D11248E5EB6
:101BB0009E4FFC0110828981282F30E04DE0429F2A
:101BC000C001439F900D11248D5E9E4FFC01108239
:101BD0008981282F30E04DE0429FC001439F900D46
:101BE00011248C5E9E4FFC0110828981282F30E0E9
:101BF0004DE0429FC001439F900D11248B5E9E4F8C
:101C0000FC011182108289818F5F898389818C30E8
:101C100028F20F90DF91CF910895CF93DF93CDB746
:101C2000DEB70E944705DF91CF910895CF93DF93F0
:101C3000CDB7DEB78CE0DF91CF910895CF93DF93DE
:101C400000D000D0CDB7DEB78C8319828C8182950D
:101C50008F708A838C818F708B838A818823A9F40B
:101C600083E290E0FC018081882F90E02B81222F7D
:101C700030E002C0969587952A95E2F78170992702
:101C8000892BD1F081E0898317C08A818130A1F44A
:101C900089E290E0FC018081882F90E02B81222F47
:101CA00030E002C0969587952A95E2F781709927D2
:101CB000892B11F081E0898389810F900F900F901B
:101CC0000F90DF91CF910895CF93DF9300D000D094
:101CD000CDB7DEB78B836C838B8182958F708983C0
:101CE0008B818F708A838981882361F58C81813013
:101CF000A1F485E290E025E230E0F90160812A81DB
:101D0000422F50E021E030E002C0220F331F4A95FD
:101D1000E2F7262BFC01208343C085E290E025E218
:101D200030E0F90160812A81422F50E021E030E06B
:101D300002C0220F331F4A95E2F720952623FC01AB
:101D400020832EC08981813059F58C818130A1F4A6
:101D50008BE290E02BE230E0F90160812A81422F92
:101D600050E021E030E002C0220F331F4A95E2F735
:101D7000262BFC01208314C08BE290E02BE230E0A4
:101D8000F90160812A81422F50E021E030E002C059
:101D9000220F331F4A95E2F720952623FC0120836A
:101DA0000F900F900F900F90DF91CF910895CF93E8
:101DB000DF93CDB7DEB70E940B130E94FE0B0E948B
:101DC00003120E941A1260E071EE80E090E00E941F
:101DD000B1190E946B080E94E9000E94FD0E84E682
:101DE00090E00E942D13789481E090E0909395020A
:101DF00080939402DF91CF910895CF93DF93CDB775
:101E0000DEB784E490E022E0FC01208387E490E0E8
:101E100029EFFC01208385E490E023E0FC0120838E
:101E20008EE690E022E0FC012083DF91CF910895BF
:101E3000CF93DF93CDB7DEB7809196029091970252
:101E4000A0919802B09199020196A11DB11D8093B5
:101E5000960290939702A0939802B0939902DF9113
:101E6000CF910895CF93DF93CDB7DEB780919E02D7
:101E700090919F02019690939F0280939E02809181
:101E8000A0029091A10201969093A1028093A002DA
:101E90008091A2029091A30201969093A302809355
:101EA000A2028091A4029091A50201969093A502AE
:101EB0008093A40280919E0290919F020A9738F02D
:101EC00010929F0210929E0281E080939A0280916C
:101ED000A0029091A102C29738F01092A102109234
:101EE000A00281E080939B028091A2029091A302C4
:101EF0008436910538F01092A3021092A20281E07C
:101F000080939C028091A4029091A502843F91400D
:101F100038F01092A5021092A40281E080939D02F5
:101F2000DF91CF9108951F920F9200905F000F9262
:101F300011242F933F934F935F936F937F938F93CE
:101F40009F93AF93BF93EF93FF93CF93DF93CDB75F
:101F5000DEB70E94180F0E94320FDF91CF91FF91E0
:101F6000EF91BF91AF919F918F917F916F915F9111
:101F70004F913F912F910F9000925F000F901F9013
:101F80001895CF92DF92EF92FF92CF93DF9300D01C
:101F900000D000D0CDB7DEB79A8389834B835C83B2
:101FA0006D837E8389819A818E5B9F4FFC01808146
:101FB0009181A281B38129813A81205C3F4FF9014F
:101FC0002081222F30E049815A81220F331F220FB6
:101FD000331F240F351FF901208131814281538144
:101FE000BC01CD010E94CA1BDC01CB0129813A81D1
:101FF0002E5B3F4FF90180839183A283B383898154
:102000009A81805C9F4FFC018081882F90E029811C
:102010003A81880F991F880F991F280F391F8B81CC
:102020009C81AD81BE81F90180839183A283B383BA
:1020300089819A818E5B9F4FFC0180819181A28171
:10204000B3812B813C814D815E81BC01CD010E9419
:10205000CB1BDC01CB0129813A812E5B3F4FF9017B
:1020600080839183A283B38389819A81805C9F4F0F
:10207000FC0180818F5F282F2F7089819A81805C7D
:102080009F4FFC01208389819A818F5B9F4FFC01C8
:102090008081803170F489819A818F5B9F4FFC0130
:1020A000808121E0280F89819A818F5B9F4FFC01FD
:1020B000208389819A818E5B9F4FFC01C080D180F3
:1020C000E280F38089819A818F5B9F4FFC01808140
:1020D000882F90E0A0E0B0E0BC01CD010E94DD1CA3
:1020E000DC01CB019C01AD01C701B6010E943C1C83
:1020F000DC01CB01BC01CD0126960FB6F894DEBF02
:102100000FBECDBFDF91CF91FF90EF90DF90CF90CA
:102110000895CF93DF9300D000D000D0CDB7DEB7C5
:102120009E838D838D819E81CC01A0E0B0E0BC01B7
:10213000CD010E94DD1CDC01CB0120E030EC4FE73B
:1021400054E4BC01CD010E943C1CDC01CB0120E029
:1021500030E040EA50E4BC01CD010E94941DDC0156
:10216000CB0189839A83AB83BC8320E030E040E2DB
:1021700050E469817A818B819C810E94CA1BDC01B9
:10218000CB0122E03BE247E85DE3BC01CD010E94C8
:102190003C1CDC01CB01BC01CD0126960FB6F894A6
:1021A000DEBF0FBECDBFDF91CF910895CF93DF93F8
:1021B00000D000D000D0CDB7DEB79E838D838D8157
:1021C0009E81CC01A0E0B0E0BC01CD010E94DD1CED
:1021D000DC01CB0120E030EC4FE754E4BC01CD0141
:1021E0000E943C1CDC01CB0120E030E040EA50E4DE
:1021F000BC01CD010E94941DDC01CB0189839A832F
:10220000AB83BC8320E030E040E451E469817A8113
:102210008B819C810E94941DDC01CB01BC01CD010E
:1022200026960FB6F894DEBF0FBECDBFDF91CF91DB
:102230000895CF93DF93CDB7DEB7A8970FB6F89484
:10224000DEBF0FBECDBF0E942501882309F48CC0DC
:10225000CE0181960E942E0189A19AA10E94891027
:10226000DC01CB0189839A83AB83BC8389819A810A
:10227000AB81BC81AC01BD0186EA92E00E94C10F36
:10228000DC01CB018D839E83AF83B8878D819E81D6
:10229000AF81B885BC01CD010E94C7148BA19CA160
:1022A0000E94D610DC01CB0189879A87AB87BC8757
:1022B00089859A85AB85BC85AC01BD018CEE92E029
:1022C0000E94C10FDC01CB018D879E87AF87B88B41
:1022D0008D859E85AF85B889BC01CD010E94F5141E
:1022E0008DA19EA10E948910DC01CB01898B9A8B64
:1022F000AB8BBC8B89899A89AB89BC89AC01BD0148
:1023000082E393E00E94C10FDC01CB018D8B9E8B99
:10231000AF8BB88F8D899E89AF89B88DBC01CD01F7
:102320000E9423158FA198A50E94D610DC01CB0135
:10233000898F9A8FAB8FBC8F898D9A8DAB8DBC8D19
:10234000AC01BD0188E793E00E94C10FDC01CB0125
:102350008D8F9E8FAF8FB8A38D8D9E8DAF8DB8A1C1
:10236000BC01CD010E945115A8960FB6F894DEBFAE
:102370000FBECDBFDF91CF910895CF93DF9300D0F3
:102380001F92CDB7DEB70E94A9158983998181E09C
:102390008927882351F00E948B148A830E94A114FC
:1023A0008B836B818A810E94B7130F900F900F90DF
:1023B000DF91CF910895CF93DF931F92CDB7DEB712
:1023C00089838981882311F081E001C080E0682F32
:1023D00084E10E94640E0F90DF91CF910895CF9316
:1023E000DF931F92CDB7DEB789838981882311F0EF
:1023F00081E001C080E0682F85E10E94640E0F90AB
:10240000DF91CF910895CF93DF9300D0CDB7DEB7A2
:1024100080E090E00E945B1E9A83898389819A8183
:102420008A35954A11F00E948D120F900F90DF911E
:10243000CF910895CF93DF93CDB7DEB727970FB62F
:10244000F894DEBF0FBECDBF82E090E00E945B1E1D
:102450009B838A8384E090E00E94531E8C8385E0F6
:1024600090E00E94531E982F81E0992309F480E0A8
:102470008D838A819B81019621F484E690E09B8381
:102480008A838C818F3F11F48CE08C838A819B81BD
:102490000E94AA148C81882F90E00E947F158D8164
:1024A0000E949C150E94160E8E83198229C0898174
:1024B000882F90E006960E94531E8F838981282FD3
:1024C00030E04DE0429FC001439F900D11248D5E8E
:1024D0009E4F2F81FC0120838F81882371F0898199
:1024E000282F30E04DE0429FC001439F900D112402
:1024F0008E5E9E4F22E0FC01208389818F5F89835D
:1025000099818E81981798F227960FB6F894DEBFBE
:102510000FBECDBFDF91CF910895CF93DF9300D051
:10252000CDB7DEB76AE575EA80E090E00E94731EE1
:102530000E94BC14BC0182E090E00E94731E0E94C5
:102540009115682F84E090E00E94611E0E94A915F9
:10255000882311F081E001C080E0682F85E090E0E1
:102560000E94611E0E94160E8A83198217C08981FB
:10257000282F30E04DE0429FC001439F900D112471
:102580008D5E9E4FFC0120818981882F90E0069608
:10259000622F0E94611E89818F5F898399818A8160
:1025A000981728F30F900F90DF91CF910895CF9354
:1025B000DF9300D01F92CDB7DEB79B838A838A81D9
:1025C0009B81892B11F18A819B81FC018081898308
:1025D0008981882F90E08931910591F08A319105A8
:1025E00034F48131910561F0449751F00EC08E3280
:1025F000910531F08133910519F0829709F005C0FA
:102600008A819B810E94780800000F900F900F90A4
:10261000DF91CF910895CF93DF93CDB7DEB784E2FA
:1026200090E024E230E0F90120812660FC01208363
:102630008AE290E02AE230E0F90120812063FC0187
:1026400020838BE290E02BE230E0F90120812F7CA7
:10265000FC012083DF91CF9108950F931F93CF93B7
:10266000DF93CDB7DEB728970FB6F894DEBF0FBE65
:10267000CDBF9C838B838B819C81CC01A0E0B0E09B
:10268000880F991FAA1FBB1F880F991FAA1FBB1F66
:10269000880F991FAA1FBB1F9C01AD0180E094E227
:1026A000A4EFB0E0BC01CD010E94111EDA01C90106
:1026B00001979A83898386E890E029813A81FC0119
:1026C0003183208380E890E022EAFC01208381E8C6
:1026D00090E02AE1FC01208308E810E089819A81DA
:1026E000CC01A0E0B0E0BC01CD010E94DD1CDC010A
:1026F000CB0128E431EE4AE75FE3BC01CD010E9443
:10270000941DDC01CB01BC01CD010E94AE1CDC019B
:10271000CB01F801918380830AE810E089819A81D6
:10272000CC01A0E0B0E0BC01CD010E94DD1CDC01C9
:10273000CB0128E431EE4AE75FE3BC01CD010E9402
:10274000941DDC01CB01BC01CD010E94AE1CDC015B
:10275000CB01F8019183808328960FB6F894DEBFF1
:102760000FBECDBFDF91CF911F910F9108950F93B1
:102770001F93CF93DF93CDB7DEB72C970FB6F894A6
:10278000DEBF0FBECDBF8B836C8386E890E0FC017B
:10279000808191819A83898308E810E089819A81F8
:1027A0009C0140E050E08B81882F90E0A0E0B0E0F9
:1027B000BC01CD010E94011EDC01CB0124E630E00A
:1027C00040E050E0BC01CD010E94111EDA01C901B8
:1027D000F801918380830AE810E089819A819C0145
:1027E00040E050E08C81882F90E0A0E0B0E0BC0198
:1027F000CD010E94011EDC01CB0124E630E040E067
:1028000050E0BC01CD010E94111EDA01C901F8019E
:10281000918380832C960FB6F894DEBF0FBECDBF98
:10282000DF91CF911F910F9108950F931F93CF9335
:10283000DF9300D000D000D0CDB7DEB79A83898374
:1028400089819A81892B59F189819A814F9720F446
:102850008FE190E09A83898306E810E089819A816C
:10286000CC01A0E0B0E0880F991FAA1FBB1F880F02
:10287000991FAA1FBB1F880F991FAA1FBB1F9C016E
:10288000AD0180E094E2A4EFB0E0BC01CD010E9474
:10289000111EDA01C9010197F80191838083269600
:1028A0000FB6F894DEBF0FBECDBFDF91CF911F9161
:1028B0000F910895CF93DF93CDB7DEB788E890E00E
:1028C000FC0180819181DF91CF910895CF93DF93B7
:1028D000CDB7DEB78AE890E0FC0180819181DF917D
:1028E000CF910895CF93DF93CDB7DEB786E890E020
:1028F000FC0180819181DF91CF910895CF93DF9387
:102900001F92CDB7DEB7898389818093BE030F9074
:10291000DF91CF910895CF93DF93CDB7DEB780914C
:10292000BE03DF91CF910895CF93DF931F92CDB770
:10293000DEB7898389818093BF030F90DF91CF91A8
:102940000895CF93DF93CDB7DEB78091BF03DF91BA
:10295000CF910895CF93DF9300D0CDB7DEB79A83A0
:10296000898389819A819093C1038093C0030F90DA
:102970000F90DF91CF910895CF93DF93CDB7DEB75E
:102980008091C0039091C103DF91CF910895CF93BF
:10299000DF9300D000D0CDB7DEB769837A838B8315
:1029A0009C8389819A81AB81BC818093C20390937F
:1029B000C303A093C403B093C5030F900F900F906F
:1029C0000F90DF91CF910895CF93DF93CDB7DEB70E
:1029D0008091C2039091C303A091C403B091C50339
:1029E000BC01CD01DF91CF910895CF93DF9300D04B
:1029F00000D0CDB7DEB769837A838B839C838981CE
:102A00009A81AB81BC818093C6039093C703A09346
:102A1000C803B093C9030F900F900F900F90DF91F0
:102A2000CF910895CF93DF93CDB7DEB78091C603E2
:102A30009091C703A091C803B091C903BC01CD0117
:102A4000DF91CF910895CF93DF9300D000D0CDB721
:102A5000DEB769837A838B839C8389819A81AB817A
:102A6000BC818093CA039093CB03A093CC03B09313
:102A7000CD030F900F900F900F90DF91CF9108959D
:102A8000CF93DF93CDB7DEB78091CA039091CB038C
:102A9000A091CC03B091CD03BC01CD01DF91CF91CA
:102AA0000895CF93DF9300D000D0CDB7DEB7698310
:102AB0007A838B839C8389819A81AB81BC8180934B
:102AC000CE039093CF03A093D003B093D1030F9084
:102AD0000F900F900F90DF91CF910895CF93DF93D8
:102AE000CDB7DEB78091CE039091CF03A091D003F4
:102AF000B091D103BC01CD01DF91CF910895CF9367
:102B0000DF9300D0CDB7DEB79A83898389819A811C
:102B10009093D3038093D2030F900F90DF91CF91C6
:102B20000895CF93DF93CDB7DEB78091D203909114
:102B3000D303DF91CF910895CF93DF931F92CDB749
:102B4000DEB7898389818093D4030F90DF91CF9181
:102B50000895CF93DF93CDB7DEB78091D403DF9193
:102B6000CF910895CF93DF931F92CDB7DEB78983BE
:102B700089818093D5030F90DF91CF910895CF93F2
:102B8000DF93CDB7DEB78091D503DF91CF91089564
:102B9000CF93DF931F92CDB7DEB78983898180936E
:102BA000D6030F90DF91CF910895CF93DF93CDB7E8
:102BB000DEB78091D603DF91CF910895CF92DF9257
:102BC000EF92FF920F931F93CF93DF93CDB7DEB7B2
:102BD0006E970FB6F894DEBF0FBECDBF9A8B898B70
:102BE0004B8B5C8B6D8B7E8B0F8B188F298F3A8F65
:102BF000CB8EDC8EED8EFE8E2F89388D498D5A8DD1
:102C00006B897C898D899E890E94CA1BDC01CB015E
:102C100089839A83AB83BC8389899A89FC01848DDB
:102C2000958DA68DB78DB05829813A814B815C81F5
:102C3000BC01CD010E94371C8823ACF489899A8994
:102C4000FC01848D958DA68DB78D29813A814B81AC
:102C50005C81BC01CD010E948F1D181624F41982DD
:102C60001A821B821C8289899A89FC018081918148
:102C7000A281B38129813A814B815C81BC01CD0164
:102C80000E94941DDC01CB018D879E87AF87B88B96
:102C900089899A89FC01C088D188E288F38889896A
:102CA0009A89FC0184819581A681B78129813A8125
:102CB0004B815C81BC01CD010E94941DDC01CB01E4
:102CC0002B8D3C8D4D8D5E8DBC01CD010E94941DE0
:102CD000DC01CB019C01AD01C701B6010E94CB1BF9
:102CE000DC01CB0129893A89F901808B918BA28B78
:102CF000B38B89899A89FC0180899189A289B389DA
:102D000029893A89F901208D318D428D538DBC017D
:102D1000CD010E948F1D181674F489899A89FC01CF
:102D2000808D918DA28DB38D29893A89F901808B8F
:102D3000918BA28BB38B89899A89FC0180899189B7
:102D4000A289B38929893A89F90124893589468973
:102D50005789BC01CD010E94371C882374F48989EE
:102D60009A89FC0184899589A689B78929893A8934
:102D7000F901808B918BA28BB38B1D821E821F82E7
:102D8000188620E030E0A9016B8D7C8D8D8D9E8DA5
:102D90000E948F1D181674F589899A89FC01C084D8
:102DA000D184E284F38489899A89FC01848595859C
:102DB000A685B7859C01AD0169817A818B819C8153
:102DC0000E94CA1BDC01CB019C01AD01C701B60109
:102DD0000E94941DDC01CB012B8D3C8D4D8D5E8DB1
:102DE000BC01CD010E943C1CDC01CB018D839E8384
:102DF000AF83B88729893A8989819A81AB81BC815F
:102E0000F90184879587A687B78789899A89FC0104
:102E100080899189A289B3892D853E854F855889FE
:102E2000BC01CD010E94CB1BDC01CB012D813E8179
:102E30004F815885BC01CD010E94CB1BDC01CB0129
:102E400089879A87AB87BC8789899A89FC01808D9D
:102E5000918DA28DB38D29853A854B855C85BC010A
:102E6000CD010E94371C88235CF489899A89FC0172
:102E7000808D918DA28DB38D89879A87AB87BC8712
:102E800089899A89FC0184899589A689B7892985C8
:102E90003A854B855C85BC01CD010E948F1D1816BB
:102EA0005CF489899A89FC0184899589A689B78906
:102EB00089879A87AB87BC8789859A85AB85BC85CE
:102EC000BC01CD016E960FB6F894DEBF0FBECDBF2C
:102ED000DF91CF911F910F91FF90EF90DF90CF90F6
:102EE0000895CF92DF92EF92FF920F931F93CF93AB
:102EF000DF93CDB7DEB7A1970FB6F894DEBF0FBE54
:102F0000CDBF6A8F7B8F8C8F9D8F2E8F3F8F48A375
:102F100059A32AE939E949E95EE36A8D7B8D8C8DF5
:102F20009D8D0E94CA1BDC01CB012E8D3F8D48A1D7
:102F300059A1BC01CD010E94371C1816D4F02AE912
:102F400039E949E95EE36A8D7B8D8C8D9D8D0E9408
:102F5000CB1BDC01CB012E8D3F8D48A159A1BC01BB
:102F6000CD010E948F1D882324F080E00E94B215BD
:102F700013C02A8D3B8D4C8D5D8D6E8D7F8D88A10C
:102F800099A10E94371C882324F481E00E94B21585
:102F900003C082E00E94B2150E94A9158B870E948F
:102FA00091159D878C878C859D85CC01A0E0B0E034
:102FB000BC01CD010E94DD1CDC01CB018E879F8707
:102FC000A88BB98B9B8581E08927882309F461C18F
:102FD00082E6898382E68A8320E030E040E050E4A4
:102FE0006E8D7F8D88A199A10E94371C8823ACF437
:102FF00082E6898382E68A831092BA011092BB012D
:103000001092BC011092BD011092B6011092B7014E
:103010001092B8011092B90136C12AE939E949E99B
:103020005EE36A8D7B8D8C8D9D8D0E94CA1BDC01B9
:10303000CB012E853F8548895989BC01CD010E946D
:10304000371C18165CF12AE939E949E95EE36A8D13
:103050007B8D8C8D9D8D0E94CB1BDC01CB012E8541
:103060003F8548895989BC01CD010E948F1D882365
:10307000ACF082E6898382E68A831092BA011092CC
:10308000BB011092BC011092BD011092B6011092CA
:10309000B7011092B8011092B901F5C02A8D3B8D8D
:1030A0004C8D5D8D6E857F85888999890E948F1DE5
:1030B00018160CF06EC082E689832E8D3F8D48A1D4
:1030C00059A18E859F85A889B9890F2EFAE0CF2E48
:1030D000F7EDDF2EF3E2EF2EFCE3FF2EF02D89015A
:1030E0009A01AC01BD018AEA91E00E94DE15DC0183
:1030F000CB018A8B9B8BAC8BBD8B6A897B898C893E
:103100009D890E94AE1CDC01CB010E94C8152A8952
:103110003B894C895D8960E070E084EC92E40E9418
:10312000CA1BDC01CB018B839C83AD83BE8320E073
:1031300030E044EC52E46B817C818D819E810E9461
:103140008F1D181644F480E090E0A4ECB2E48B8369
:103150009C83AD83BE8320E030E040EA50E46B8185
:103160007C818D819E810E94371C882344F480E0FD
:1031700090E0A0EAB0E48B839C83AD83BE836B8137
:103180007C818D819E810E94AE1CDC01CB018A83F3
:103190007AC02A8D3B8D4C8D5D8D6E857F858889AB
:1031A00099890E94371C88230CF06DC082E68A83BF
:1031B0002E853F85488959898E8D9F8DA8A1B9A1FB
:1031C0000F2EFAE0CF2EF7EDDF2EF3E2EF2EFCE329
:1031D000FF2EF02D89019A01AC01BD018AEA91E030
:1031E0000E94DE15DC01CB018E8B9F8BA88FB98FDF
:1031F0006E897F89888D998D0E94AE1CDC01CB0180
:103200000E94C8152E893F89488D598D60E070E075
:1032100084EC92E40E94CA1BDC01CB018F83988767
:10322000A987BA8720E030E044EC52E46F817885CA
:1032300089859A850E948F1D181644F480E090E0DD
:10324000A4ECB2E48F839887A987BA8720E030E0A6
:1032500040EA50E46F81788589859A850E94371C01
:10326000882344F480E090E0A0EAB0E48F8398875C
:10327000A987BA876F81788589859A850E94AE1C57
:10328000DC01CB01898389810E947E148A810E949E
:103290009414A1960FB6F894DEBF0FBECDBFDF9198
:1032A000CF911F910F91FF90EF90DF90CF900895F5
:1032B000CF93DF93CDB7DEB70E94E414DC01CB01DE
:1032C0008093D7039093D803A093D903B093DA03E4
:1032D0000E941215DC01CB018093DB039093DC0389
:1032E000A093DD03B093DE030E944015DC01CB0107
:1032F0008093DF039093E003A093E103B093E20394
:103300000E946E15DC01CB018093E3039093E403EC
:10331000A093E503B093E603DF91CF910895CF9397
:10332000DF93CDB7DEB78091DB039091DC03A091F2
:10333000DD03B091DE03BC01CD01DF91CF91089593
:10334000CF93DF93CDB7DEB78091E3039091E40391
:10335000A091E503B091E603BC01CD01DF91CF91CF
:103360000895CF93DF93CDB7DEB72A970FB6F894C1
:10337000DEBF0FBECDBF6B837C838D839E8380E4D5
:1033800092E4AFE0B0E02B813C814D815E81BC01D5
:10339000CD010E94111EDA01C90101979A83898328
:1033A00085EC90E029813A81232F3327FC0120838B
:1033B00084EC90E02981FC01208381EC90E028E9F5
:1033C000FC01208382EC90E026E0FC0120832A9619
:1033D0000FB6F894DEBF0FBECDBFDF91CF91089539
:1033E000CF93DF931F92CDB7DEB78091E803882F8C
:1033F00090E084589B4FFC01808189838091E80391
:103400008F5F8F778093E80389810F90DF91CF9151
:103410000895CF93DF9300D0CDB7DEB78A83809134
:10342000E9038F5F8F77898300008091EA03998198
:103430009817D9F38091E903882F90E084509C4F2E
:103440002A81FC01208389818093E9038091EB0329
:10345000882361F481E08093EB0381EC90E021EC20
:1034600030E0F90120812062FC0120830F900F9051
:10347000DF91CF910895CF93DF9300D0CDB7DEB722
:103480009091E7038091E803981778F08091E70323
:10349000282F30E08091E803882F90E0A901481B95
:1034A000590BCA019A83898310C08091E703282FA2
:1034B00030E08091E803882F90E0A901481B590B68
:1034C000CA0180589F4F9A83898389819A810F907E
:1034D0000F90DF91CF910895CF93DF931F92CDB7D7
:1034E000DEB789838091E803282F30E08981882F17
:1034F00090E0820F931F8F770F90DF91CF91089507
:10350000CF93DF931F92CDB7DEB789838981882F50
:1035100090E084589B4FFC0180810F90DF91CF9108
:103520000895CF93DF9300D0CDB7DEB786EC90E05F
:10353000FC01808189838091E7038F5F8F778A8385
:103540008091E8039A81981761F08091E703882FB2
:1035500090E084589B4F2981FC0120838A818093CD
:10356000E7030F900F90DF91CF910895CF93DF93F2
:10357000CDB7DEB79091E9038091EA03981761F423
:1035800081EC90E021EC30E0F90120812F7DFC01FD
:1035900020831092EB0312C086EC90E02091EA03A6
:1035A000222F30E024503C4FF9012081FC01208380
:1035B0008091EA038F5F8F778093EA03DF91CF9149
:1035C00008951F920F9200905F000F9211242F9385
:1035D0003F934F935F936F937F938F939F93AF939B
:1035E000BF93EF93FF93CF93DF93CDB7DEB70E94E6
:1035F000911ADF91CF91FF91EF91BF91AF919F9180
:103600008F917F916F915F914F913F912F910F908B
:1036100000925F000F901F9018951F920F920090DC
:103620005F000F9211242F933F934F935F936F93FB
:103630007F938F939F93AF93BF93EF93FF93CF931A
:10364000DF93CDB7DEB70E94B61ADF91CF91FF911D
:10365000EF91BF91AF919F918F917F916F915F910A
:103660004F913F912F910F9000925F000F901F900C
:103670001895EFEFF0E083E08083608381E090E0D5
:10368000089580EF93E00E94B61BECEEF3E0138206
:10369000128281E692E0918380830895CF92DF9237
:1036A000EF92FF920F931F93CF93DF936C017A01F8
:1036B0008B01C0E0D0E0CE15DF0589F0D8016D9117
:1036C0008D01D601ED91FC910190F081E02DC601B4
:1036D0000995892B11F47E0102C02196ECCFC70118
:1036E000DF91CF911F910F91FF90EF90DF90CF90DE
:1036F00008956115710579F0FB0101900020E9F74B
:103700003197AF01461B570BDC01ED91FC91028014
:10371000F381E02D099480E090E00895DC01ED91C3
:10372000FC910190F081E02D099465E672E00C9423
:10373000791BFC0153834283648315820895CF93E0
:10374000DF93EC018A819B81009769F06F816111A1
:103750000E948E1B8C81882331F08A819B81DF91AE
:10376000CF910C94951BDF91CF910895FC0188E7D0
:1037700092E09183808313821282148215821682D2
:10378000178282E090E0918780878AE090E09387BB
:10379000828708955058BB27AA270E94E21B0C94E9
:1037A000551D0E94471D38F00E944E1D20F039F42F
:1037B0009F3F19F426F40C94441D0EF4E095E7FBAA
:1037C0000C943E1DE92F0E94661D58F3BA1762073C
:1037D00073078407950720F079F4A6F50C94881DEB
:1037E0000EF4E0950B2EBA2FA02D0B01B90190011C
:1037F0000C01CA01A0011124FF27591B99F0593F60
:1038000050F4503E68F11A16F040A22F232F342FA7
:103810004427585FF3CF469537952795A795F040F5
:103820005395C9F77EF41F16BA0B620B730B840B0A
:10383000BAF09150A1F0FF0FBB1F661F771F881FC2
:10384000C2F70EC0BA0F621F731F841F48F487951A
:1038500077956795B795F7959E3F08F0B0CF93950C
:10386000880F08F09927EE0F9795879508950E9485
:103870001A1D08F481E008950E94501C0C94551DF7
:103880000E944E1D58F00E94471D40F029F45F3FF2
:1038900029F00C943E1D51110C94891D0C94441D6B
:1038A0000E94661D68F39923B1F3552391F3951B8C
:1038B000550BBB27AA2762177307840738F09F5F51
:1038C0005F4F220F331F441FAA1FA9F335D00E2EBE
:1038D0003AF0E0E832D091505040E695001CCAF72B
:1038E0002BD0FE2F29D0660F771F881FBB1F2617EE
:1038F00037074807AB07B0E809F0BB0B802DBF01C5
:10390000FF2793585F4F3AF09E3F510578F00C9493
:103910003E1D0C94891D5F3FE4F3983ED4F38695D9
:1039200077956795B795F7959F5FC9F7880F911DB4
:103930009695879597F90895E1E0660F771F881FA0
:10394000BB1F621773078407BA0720F0621B730B53
:10395000840BBA0BEE1F88F7E09508950E946E1D48
:1039600088F09F5798F0B92F9927B751B0F0E1F040
:10397000660F771F881F991F1AF0BA95C9F714C0F0
:10398000B13091F00E94881DB1E008950C94881D1B
:10399000672F782F8827B85F39F0B93FCCF3869529
:1039A00077956795B395D9F73EF490958095709586
:1039B00061957F4F8F4F9F4F0895E89409C097FB03
:1039C0003EF490958095709561957F4F8F4F9F4FF6
:1039D0009923A9F0F92F96E9BB279395F69587953A
:1039E00077956795B795F111F8CFFAF4BB0F11F4FD
:1039F00060FF1BC06F5F7F4F8F4F9F4F16C08823A4
:103A000011F096E911C0772321F09EE8872F762FD9
:103A100005C0662371F096E8862F70E060E02AF01A
:103A20009A95660F771F881FDAF7880F9695879506
:103A300097F90895990F0008550FAA0BE0E8FEEFDB
:103A400016161706E807F907C0F012161306E40762
:103A5000F50798F0621B730B840B950B39F40A265B
:103A600061F0232B242B252B21F408950A2609F439
:103A7000A140A6958FEF811D811D089597F99F673D
:103A800080E870E060E008959FEF80EC08950024E6
:103A90000A941616170618060906089500240A94B3
:103AA00012161306140605060895092E0394000C39
:103AB00011F4882352F0BB0F40F4BF2B11F460FFC8
:103AC00004C06F5F7F4F8F4F9F4F089557FD9058F1
:103AD000440F551F59F05F3F71F04795880F97FBD2
:103AE000991F61F09F3F79F087950895121613068C
:103AF0001406551FF2CF4695F1DF08C016161706BB
:103B00001806991FF1CF86957105610508940895EF
:103B1000E894BB2766277727CB0197F908950E9481
:103B20001A1D08F48FEF08950E94A71D0C94551DCF
:103B30000E94471D38F00E944E1D20F0952311F081
:103B40000C943E1D0C94441D11240C94891D0E945C
:103B5000661D70F3959FC1F3950F50E0551F629F4E
:103B6000F001729FBB27F00DB11D639FAA27F00DD6
:103B7000B11DAA1F649F6627B00DA11D661F829FFD
:103B80002227B00DA11D621F739FB00DA11D621FE2
:103B9000839FA00D611D221F749F3327A00D611DFF
:103BA000231F849F600D211D822F762F6A2F1124E1
:103BB0009F5750409AF0F1F088234AF0EE0FFF1F14
:103BC000BB1F661F771F881F91505040A9F79E3F6B
:103BD000510580F00C943E1D0C94891D5F3FE4F369
:103BE000983ED4F3869577956795B795F795E795C1
:103BF0009F5FC1F7FE2B880F911D9695879597F9CA
:103C00000895DB018F939F930E94331EBF91AF9164
:103C1000A29F800D911DA39F900DB29F900D112426
:103C20000895A1E21A2EAA1BBB1BFD010DC0AA1FFD
:103C3000BB1FEE1FFF1FA217B307E407F50720F015
:103C4000A21BB30BE40BF50B661F771F881F991F90
:103C50001A9469F760957095809590959B01AC01D9
:103C6000BD01CF0108950E94441EA59F900DB49FF1
:103C7000900DA49F800D911D11240895EE0FFF1F3C
:103C80000590F491E02D0994A29FB001B39FC0016B
:103C9000A39F700D811D1124911DB29F700D811D78
:103CA0001124911D0895F999FECF92BD81BDF89A16
:103CB000992780B50895A8E1B0E042E050E00C9467
:103CC0007B1E262FF999FECF92BD81BDF89A0197F0
:103CD00000B4021639F01FBA20BD0FB6F894FA9A54
:103CE000F99A0FBE08950196272F0E94621E0C9428
:103CF000611EDC01CB01FC01F999FECF06C0F2BDCB
:103D0000E1BDF89A319600B40D9241505040B8F799
:063D10000895F894FFCFB6
:103D16000000FC0480000101010101010100000115
:103D26001A00000000000000440C0101011A000006
:103D36000000000001440C0102011A00000000000E
:103D46000002440C0103011A0000000000000344B5
:103D56000C0110011A00000000000000440C0211C2
:103D6600011A00000000000001440C0212011A00B2
:103D7600000000000002440C0213011A00000000BB
:103D8600000003440C0220011A000000000000009D
:103D9600440C0421011A00000000000001440C0339
:103DA60022011A00000000000002440C0423011A3C
:103DB60000000000000003440C039A99593F9A99A9
:103DC600193ECDCC4C3D0000000000000000000074
:103DD600A0400000C442CDCC4C3E000102030001CD
:103DE60002020001005706B60600000101020100AA
:103DF6000100CF06F00600000201010000010016D6
:103E06000729070000030101000001003D075007D4
:103E160000000401010000010066077A07000005A2
:103E26000101000001008C07A00700000601010047
:103E3600000100B207C507000007010100000100EC
:103E4600D707EA07000008010100000100FC070F80
:103E560008000009010100000100210834080000E3
:103E6600100101000001004608590800000000008A
:103E760000391B4E1B0D0A006E616E00696E6600EE
:0C3E86006F76660000000000991B9F1B77
:00000001FF
