:100000000C9435000C945D000C945D000C945D0024
:100010000C945D000C94A2100C945D000C945D0097
:100020000C945D000C945D000C945D000C945D00DC
:100030000C945D000C945D000C94AE120C945D0069
:100040000C945D000C945D000C9420200C944C20CA
:100050000C945D000C94D3010C945D000C945D0035
:100060000C945D000C945D00D92011241FBECFEFCD
:10007000D8E0DEBFCDBF12E0A0E0B1E0E6E4F8E4F6
:1000800002C005900D92A03BB107D9F725E0A0EB87
:10009000B2E001C01D92AD34B207E1F710E0C5E354
:1000A000D0E004C02197FE010E94D623C433D107BB
:1000B000C9F70E94E5000C9421240C940000CF9312
:1000C000DF93CDB7DEB72A970FB6F894DEBF0FBE29
:1000D000CDBF0E94DE119A83898389819A8101971D
:1000E00021F089819A81039711F40E943414898147
:1000F0009A81019711F50E941B0F0E94971E0E9482
:10010000CE1EDC01CB018B839C83AD83BE830E941A
:10011000DF1EDC01CB018F839887A987BA872F81E7
:10012000388549855A858B819C81AD81BE81BC0112
:10013000CD010E94B21C0E94D8140E9405112A967B
:100140000FB6F894DEBF0FBECDBFDF91CF910895FB
:10015000CF93DF9300D0CDB7DEB70E943C150E944D
:1001600083020E94DE119A83898389819A81019793
:1001700021F089819A81039711F40E94F3020F9074
:100180000F90DF91CF910895CF93DF9300D0CDB73B
:10019000DEB70E94DE119A83898389819A81019753
:1001A00021F089819A81039721F40E9431010E94F4
:1001B000F2150F900F90DF91CF910895CF93DF93B9
:1001C000CDB7DEB7DF91CF910895CF93DF93CDB751
:1001D000DEB70E94B41078949091E10281E09923F7
:1001E00009F480E0882321F01092E1020E945F0070
:1001F0009091E20281E0992309F480E0882321F0C4
:100200001092E2020E94A8009091E30281E09923FB
:1002100009F480E0882321F01092E3020E94C400D8
:100220009091E40281E0992309F480E0882321F091
:100230001092E4020E94DE00CFCFCF93DF93CDB7C0
:10024000DEB78CE790E020E4FC0120838AE790E0B1
:100250002FE8FC01208381E080930601DF91CF919C
:100260000895CF93DF93CDB7DEB79091060181E07B
:100270008927882309F01AC0109206011092B8024B
:100280008CE790E02CE730E0F9012081322F307FBD
:1002900020E02F70232BFC0120838AE790E02AE7DF
:1002A00030E0F90120812064FC012083DF91CF91AF
:1002B0000895CF93DF93CDB7DEB780910601DF912C
:1002C000CF910895CF93DF9300D01F92CDB7DEB7C3
:1002D0009B838A838A819B81892BF1F0198219C0C3
:1002E0008981882F90E0880F991F2A813B81820F96
:1002F000931F2981222F30E0220F331F20553D4FBD
:10030000F90120813181FC013183208389818F5F54
:1003100089838981843020F30F900F900F90DF91B3
:10032000CF910895CF93DF93CDB7DEB78091B80218
:10033000882F90E028E730E0F90120813181880F93
:10034000991F80559D4FFC01318320838091B80215
:100350008F5F8093B8028091B8028430F0F48CE70C
:1003600090E02CE730E0F9012081422F407F20917E
:10037000B802222F30E026533E4FF90120812F7022
:10038000242BFC0120838AE790E02AE730E0F90182
:1003900020812064FC01208303C081E0809306015A
:1003A000DF91CF9108951F920F9200905F000F92FE
:1003B00011242F933F934F935F936F937F938F936A
:1003C0009F93AF93BF93EF93FF93CF93DF93CDB7FB
:1003D000DEB70E949201DF91CF91FF91EF91BF9123
:1003E000AF919F918F917F916F915F914F913F91CD
:1003F0002F910F9000925F000F901F901895CF9350
:10040000DF931F92CDB7DEB789838981809307017F
:100410000F90DF91CF910895CF93DF93CDB7DEB7E3
:1004200080910701DF91CF910895CF93DF931F92C1
:10043000CDB7DEB789838981809308010F90DF9162
:10044000CF910895CF93DF93CDB7DEB780910801A8
:10045000DF91CF910895CF93DF931F92CDB7DEB791
:1004600089838981809309010F90DF91CF9108954D
:10047000CF93DF93CDB7DEB780910901DF91CF91A4
:100480000895CF93DF931F92CDB7DEB7898389811B
:1004900080930A010F90DF91CF910895CF93DF935E
:1004A000CDB7DEB780910A01DF91CF910895CF9348
:1004B000DF931F92CDB7DEB7898389818093BF0216
:1004C0000F90DF91CF910895CF93DF93CDB7DEB733
:1004D0008091BF02DF91CF910895CF93DF931F9258
:1004E000CDB7DEB78983898180930B010F90DF91AF
:1004F000CF910895CF93DF93CDB7DEB780910B01F5
:10050000DF91CF9108950F931F93CF93DF93CDB7D2
:10051000DEB763970FB6F894DEBF0FBECDBF0E9463
:100520007A1F9E838D838D819E810C9708F450C025
:100530008BE00E94AB1F8F838F810E94BF1F8D3085
:1005400009F043C0198212C08981082F10E0898107
:100550000E94AB1F0E94BF1F282FCE010896800F5C
:10056000911FFC01208389818F5F898389818C3071
:1005700058F31C821A8210C08A81882F90E09E0155
:10058000285F3F4F820F931FFC0180819C81890F60
:100590008C838A818F5F8A838A818A3068F39A8903
:1005A0008C81981779F41B8205C00E942F1F8B81C4
:1005B0008F5F8B838B818C30C0F3CE0108960E94B5
:1005C000521705C00E942F1F02C00E942F1FA7CFE5
:1005D00063960FB6F894DEBF0FBECDBFDF91CF910B
:1005E0001F910F910895CF93DF93CDB7DEB7809120
:1005F000C0029091C1020A969093C1028093C002FA
:100600008091C2029091C3020A969093C302809394
:10061000C2028091C4029091C5020A969093C502CD
:100620008093C4028091C6029091C7020A9690936B
:10063000C7028093C6028091C8029091C9020A96AF
:100640009093C9028093C8028091CA029091CB0214
:100650000A969093CB028093CA0280910701882367
:1006600061F08091C0029091C102449730F01092E5
:10067000C1021092C0020E94920380910801882357
:1006800061F08091C2029091C302449730F01092C1
:10069000C3021092C2020E94EF03809109018823D5
:1006A00061F08091C4029091C502449730F010929D
:1006B000C5021092C4020E94FA0480910A018823A4
:1006C00061F08091C6029091C702449730F0109279
:1006D000C7021092C6020E948E058091BF02882335
:1006E00069F08091C8029091C9028436910530F07A
:1006F0001092C9021092C8020E94FD0580910B0160
:10070000882369F08091CA029091CB0284369105CA
:1007100030F01092CB021092CA020E940D07DF91B6
:10072000CF910895CF93DF9300D000D000D0CDB704
:10073000DEB71A828AEA0E94481F8A8186558A8318
:100740000E945901882321F08CEC92E00E94620102
:10075000198224C08981882F90E0880F991F8453C3
:100760009D4FFC01808191819C838B838B818D8344
:100770008B819C81892F99278E838D810E94481FB0
:100780009A818D81890F8A838E810E94481F9A8168
:100790008E81890F8A8389818F5F898389818430E3
:1007A000C8F28091B9020E94481F8091B9029A81D3
:1007B000890F8A838A810E94481F8DE00E94481F0A
:1007C0008091B9028F5F8F708093B90226960FB621
:1007D000F894DEBF0FBECDBFDF91CF910895CF93C8
:1007E000DF93CDB7DEB764970FB6F894DEBF0FBEC8
:1007F000CDBF1A8219820E9414199C838B830E9498
:1008000020199E838D830E942C1998878F838F8156
:100810009885CC01A0E0B0E00196A11DB11D880F24
:10082000991FAA1FBB1F880F991FAA1FBB1F880FE4
:10083000991FAA1FBB1F9C01AD0180E094E2A4EFA9
:10084000B0E0BC01CD010E94A923DA01C9019A8759
:1008500089878F819885CC01A0E0B0E0BC01CD01F3
:100860000E947522DC01CB0124EA30E74DE75FE30B
:10087000BC01CD010E942C23DC01CB01BC01CD01C8
:100880000E944622DC01CB019C018B819C81821756
:10089000930708F58F819885CC01A0E0B0E0BC01FA
:1008A000CD010E947522DC01CB0124EA30E74DE73F
:1008B0005FE3BC01CD010E942C23DC01CB01BC0114
:1008C000CD010E944622DC01CB019C018D819E81DD
:1008D0008217930718F083E089831FC08B819C8166
:1008E000892B21F08B819C810B9740F08D819E811B
:1008F000892B39F08D819E810B9718F482E08983D2
:100900000CC08B819C81892B31F48D819E81892B38
:1009100011F4198202C081E0898382EA0E94481F93
:100920008A818E558A838B818B878B819C81892FCD
:1009300099278C878B850E94481F9A818B85890F08
:100940008A838C850E94481F9A818C85890F8A83AF
:100950008D818D878D819E81892F99278E878D85A9
:100960000E94481F9A818D85890F8A838E850E94F7
:10097000481F9A818E85890F8A8389810E94481F2A
:100980009A818981890F8A8389858F8789859A854C
:10099000892F9927888B8F850E94481F9A818F8580
:1009A000890F8A8388890E94481F9A818889890FC4
:1009B0008A8380E00E94481F8091BA020E94481FEB
:1009C0008091BA029A81890F8A838A810E94481F86
:1009D0008DE00E94481F8091BA028F5F8F708093D4
:1009E000BA0264960FB6F894DEBF0FBECDBFDF919A
:1009F000CF910895CF93DF93CDB7DEB72C970FB685
:100A0000F894DEBF0FBECDBF1A8283EA0E94481F52
:100A10008A818D558A830E944B1A9C838B830E9406
:100A20008F1A8D830E94791A8E838B819C81892FE6
:100A300099278F838B81888788850E94481F9A8198
:100A40008885890F8A838F810E94481F9A818F81B0
:100A5000890F8A838D81882F90E0092E000CAA0BC4
:100A6000BB0BBC01CD010E947722DC01CB0120E051
:100A700030E040E251E4BC01CD010E942C23DC01B6
:100A8000CB01BC01CD010E944622DC01CB019A873B
:100A9000898789858B8789859A85892F99278C876E
:100AA0008B850E94481F9A818B85890F8A838C854C
:100AB0000E94481F9A818C85890F8A838E810E94AB
:100AC000481F9A818E81890F8A83198206C080E02F
:100AD0000E94481F89818F5F898389818330B8F3A1
:100AE0008091BB020E94481F8091BB029A81890FAE
:100AF0008A838A810E94481F8DE00E94481F80914E
:100B0000BB028F5F8F708093BB022C960FB6F89458
:100B1000DEBF0FBECDBFDF91CF910895CF93DF939E
:100B2000CDB7DEB727970FB6F894DEBF0FBECDBFA7
:100B30001A8284EA0E94481F8A818C558A8384E144
:100B40000E94D00F8B8385E10E94D00F8C838B8114
:100B50000E94481F9A818B81890F8A838C810E9411
:100B6000481F9A818C81890F8A830E94A51A8D83E0
:100B70008D810E94481F9A818D81890F8A8383E12C
:100B80000E94D00F8E838E810E94481F9A818E8191
:100B9000890F8A830E94DE118F838F810E94481FF4
:100BA0009A818F81890F8A83198206C080E00E9412
:100BB000481F89818F5F898389818330B8F3809151
:100BC000BC020E94481F8091BC029A81890F8A83CF
:100BD0008A810E94481F8DE00E94481F8091BC02BC
:100BE0008F5F8F708093BC0227960FB6F894DEBF9C
:100BF0000FBECDBFDF91CF910895CF93DF93CDB7D7
:100C0000DEB76F970FB6F894DEBF0FBECDBF0E9460
:100C1000C80F8A871F82198220C08981282F30E05F
:100C20004DE0429FC001439F900D11248D5E9E4F69
:100C3000FC018081882371F08F8191E0980F9F8360
:100C4000882F90E09E012C5E3F4F820F931F2981D9
:100C5000FC01208389818F5F898399818A85981718
:100C6000E0F28F81882341F5188685EA0E94481FAB
:100C700088858B5588871B8206C080E00E94481FAC
:100C80008B818F5F8B838B818830B8F38091BD021D
:100C90000E94481F8091BD029885890F88878885AA
:100CA0000E94481F8DE00E94481F8091BD028F5F07
:100CB0008F708093BD02A8C08F81882F90E001962D
:100CC000969587958B871A829AC0198685EA0E9425
:100CD000481F89858B5589871C8275C08A81982F0A
:100CE000990F8C81890F8C879C858F81981708F0CC
:100CF0005CC08C85882F90E09E012C5E3F4F820F58
:100D0000931FFC0180818D878D85282F30E04DE079
:100D1000429FC001439F900D1124825F9E4FFC01B2
:100D200080819181A281B3818E879F87A88BB98BA7
:100D30008D85282F30E04DE0429FC001439F900DEC
:100D400011248D5E9E4FFC0180818A8B82E08D8311
:100D500021C08D81082E000C990B9C01220F331F9E
:100D6000220F331F220F331F8E859F85A889B989D3
:100D700004C0B695A795979587952A95D2F78B8B42
:100D80008B890E94481F99858B89890F89878D815E
:100D900081508D838D818823E4F68A890E94481FC3
:100DA00099858A89890F89870BC01E8206C080E0D9
:100DB0000E94481F8E818F5F8E838E818430B8F3AE
:100DC0008C818F5F8C838C81823008F487CF8091F7
:100DD000BD020E94481F8091BD029985890F8987B5
:100DE00089850E94481F8DE00E94481F8091BD02A6
:100DF0008F5F8F708093BD028A818F5F8A839A8113
:100E00008B85981708F461CF6F960FB6F894DEBF04
:100E10000FBECDBFDF91CF910895CF93DF93CDB7B4
:100E2000DEB72A970FB6F894DEBF0FBECDBF1A8289
:100E30001B821C821D821E820E94BB1A8F830E940D
:100E4000D11A88870E94E71A882311F082E001C036
:100E500080E089871A8686EA0E94481F8A818A551F
:100E60008A8319821CC08981882F90E09E012D5FA2
:100E70003F4F820F931FFC0180810E94481F898190
:100E8000882F90E09E012D5F3F4F820F931FFC0142
:100E900080819A81890F8A8389818F5F8983898183
:100EA000883008F38091BE020E94481F8091BE02E4
:100EB0009A81890F8A838A810E94481F8DE00E944F
:100EC000481F8091BE028F5F8F708093BE022A966A
:100ED0000FB6F894DEBF0FBECDBFDF91CF9108955E
:100EE000CF92DF92EF92FF920F931F93CF93DF93F6
:100EF000CDB7DEB72C970FB6F894DEBF0FBECDBFCF
:100F00009C838B830E942C199A8389830E941419D5
:100F10009C0140E050E084E690E0DC010E94CB239D
:100F20007B018C0189819A819C0140E050E0C801DD
:100F3000B7010E94A923DA01C901282F8B819C8166
:100F4000FC0120838B819C818C010F5F1F4F0E94CD
:100F500020199C0140E050E084E690E0DC010E9412
:100F6000CB236B017C0189819A819C0140E050E098
:100F7000C701B6010E94A923DA01C901F8018083E3
:100F80002C960FB6F894DEBF0FBECDBFDF91CF9188
:100F90001F910F91FF90EF90DF90CF900895CF9326
:100FA000DF9300D0CDB7DEB79A83898389819A8198
:100FB000FC0180810E94381989819A810196FC0187
:100FC00080810E944E190F900F90DF91CF9108956C
:100FD000CF93DF93CDB7DEB70E94631A882311F059
:100FE00080E001C082E2DF91CF910895CF93DF933B
:100FF00000D000D0CDB7DEB79C838B830E942C1924
:101000009A83898329818B819C81FC0120838B8138
:101010009C81019629813A81232F3327FC0120836B
:101020000F900F900F900F90DF91CF910895CF9375
:10103000DF9300D000D0CDB7DEB79C838B838B814C
:101040009C810196FC018081882F90E0382F222717
:101050008B819C81FC018081882F90E0822B932BD7
:101060009A83898389819A810E94CF180F900F906B
:101070000F900F90DF91CF910895CF93DF9300D021
:10108000CDB7DEB79A8389830E944B1A282F8981B6
:101090009A81FC0120830F900F90DF91CF910895EA
:1010A000CF93DF9300D0CDB7DEB79A838983898150
:1010B0009A81FC018081882F90E00E94391A0F905C
:1010C0000F90DF91CF910895CF93DF9300D0CDB7EC
:1010D000DEB79A8389830E94631A282F89819A81B7
:1010E000FC0120830F900F90DF91CF910895CF9353
:1010F000DF9300D0CDB7DEB79A83898389819A8147
:10110000FC01908181E0992309F480E00E94561A45
:101110000F900F90DF91CF910895CF93DF9300D080
:10112000CDB7DEB79A83898384E10E94D00F282F40
:1011300089819A81FC0120830F900F90DF91CF91DC
:101140000895CF93DF9300D0CDB7DEB79A8389831C
:1011500089819A81FC0180810E94EC140F900F908C
:10116000DF91CF910895CF93DF9300D0CDB7DEB755
:101170009A83898385E10E94D00F282F89819A81E3
:10118000FC0120830F900F90DF91CF910895CF93B2
:10119000DF9300D0CDB7DEB79A83898389819A81A6
:1011A000FC0180810E9400150F900F90DF91CF917C
:1011B0000895CF93DF9300D0CDB7DEB79A838983AC
:1011C0000E946402282F89819A81FC0120830F905C
:1011D0000F90DF91CF910895CF93DF9300D0CDB7DB
:1011E000DEB79A83898389819A81FC0180810E947C
:1011F00057020F900F90DF91CF910895CF93DF9317
:1012000000D0CDB7DEB79A8389830E943802282F99
:1012100089819A81FC0120830F900F90DF91CF91FB
:101220000895CF93DF9300D0CDB7DEB79A8389833B
:1012300089819A81FC0180810E942B020F900F907E
:10124000DF91CF910895CF93DF9300D0CDB7DEB774
:101250009A8389830E942202282F89819A81FC0126
:1012600020830F900F90DF91CF910895CF93DF935C
:1012700000D0CDB7DEB79A83898389819A81FC013A
:1012800080810E9415020F900F90DF91CF910895F9
:10129000CF93DF9300D0CDB7DEB79A8389830E94C6
:1012A0004E02282F89819A81FC0120830F900F9094
:1012B000DF91CF910895CF93DF9300D0CDB7DEB704
:1012C0009A83898389819A81FC0180810E944102ED
:1012D0000F900F90DF91CF910895CF93DF9300D0BF
:1012E000CDB7DEB79A8389830E940C02282F8981AB
:1012F0009A81FC0120830F900F90DF91CF91089588
:10130000CF93DF9300D0CDB7DEB79A8389838981ED
:101310009A81FC0180810E94FF010F900F90DF9164
:10132000CF910895CF93DF9300D0CDB7DEB79A83E6
:1013300089830E947A02282F89819A81FC01208367
:101340000F900F90DF91CF910895CF93DF9300D04E
:10135000CDB7DEB79A83898389819A81FC01808128
:10136000882F90E00E946D020F900F90DF91CF9137
:101370000895CF93DF9300D0CDB7DEB79A838983EA
:1013800089819A81FC01908181E0992309F480E0B0
:101390000E9414150F900F90DF91CF910895CF9375
:1013A000DF93CDB7DEB781E090E090930D0180939D
:1013B0000C01DF91CF910895CF93DF9300D01F925E
:1013C000CDB7DEB79B838A838A819B81892B09F401
:1013D0003EC08A819B81FC01808189838981882F1D
:1013E00090E089319105D1F08A31910534F4813151
:1013F000910561F0449779F025C08E329105C1F0D6
:1014000081339105D1F0829771F01CC08A819B8154
:101410000E942D0A1CC00E94530A19C08A819B8118
:101420000E94620A14C08A819B810E947F0A0FC0B9
:101430008A819B810E948C0B0AC062E181E30E9439
:101440007B0D05C061E189810E947B0D00000F903A
:101450000F900F90DF91CF910895CF93DF9300D03D
:101460001F92CDB7DEB79B838A838A819B81FC0163
:10147000818189838981823061F441E0CE010196C6
:10148000BC0181E10E94270D81E090E00E94C6111D
:1014900004C062E181E10E947B0D0F900F900F90DC
:1014A000DF91CF910895CF93DF93CDB7DEB70E9440
:1014B000790F40E060E070E084E10E94270DDF9149
:1014C000CF910895CF93DF9300D01F92CDB7DEB7B1
:1014D0009B838A838A819B81FC01818189838981A5
:1014E000823019F40E94BF0F04C062E189E10E94BA
:1014F0007B0D0F900F900F90DF91CF910895CF93B8
:10150000DF93CDB7DEB763970FB6F894DEBF0FBE9B
:10151000CDBF9B8B8A8B1B828A899B890196FC019C
:101520008081882F90E0382F22278A899B89029614
:10153000FC018081882F90E0822B932B9D838C83EC
:101540001982D4C08981282F30E04FE0429FC0012A
:10155000439F900D112482539E4FFC0120813181C5
:101560008C819D812817390709F0BDC08A899B8924
:10157000FC0181818A878A899B89FC0182818B8712
:101580008981282F30E04FE0429FC001439F900D9A
:1015900011248B529E4FFC0180819181892BA1F0F7
:1015A0008981282F30E04FE0429FC001439F900D7A
:1015B00011248B529E4FFC0120813181CE010A966D
:1015C0000296F901099575C08981282F30E04FE016
:1015D000429FC001439F900D112487529E4FFC01F2
:1015E00080819181892B09F464C08981282F30E0A2
:1015F0004FE0429FC001439F900D11248F529E4F98
:10160000FC01808191810197D9F48981282F30E0F4
:101610004FE0429FC001439F900D112487529E4F7F
:10162000FC0180819181FC01808191819F838E8367
:101630008E818C878E819F81892F99278D8739C0D4
:101640008981282F30E04FE0429FC001439F900DD9
:10165000112487529E4FFC01808191819987888750
:101660001A8217C08A81882F90E002962A81222F41
:1016700030E048855985240F351FF90140819E01CE
:10168000265F3F4F820F931FFC0140838A818F5F4B
:101690008A838981282F30E04FE0429FC001439F19
:1016A000900D112480539E4FFC0190818A818917EF
:1016B000C8F28981282F30E04FE0429FC001439F4C
:1016C000900D112480539E4FFC01808122E0280F51
:1016D000CE010A96422FBC0182E20E94270D81E0D2
:1016E0008B83000007C089818F5F898389818D305A
:1016F00008F428CF9B8181E08927882321F061E3CA
:1017000082E20E947B0D63960FB6F894DEBF0FBE97
:10171000CDBFDF91CF910895CF93DF93CDB7DEB7E3
:1017200064970FB6F894DEBF0FBECDBF9C8B8B8B3A
:101730001B828B899C890196FC018081882F90E017
:10174000382F22278B899C890296FC018081882F63
:1017500090E0822B932B9D838C830E94DE11049753
:1017600051F48C819D818A30914029F062E28EE2B1
:101770000E947B0D63C1198254C18981282F30E0FA
:101780004FE0429FC001439F900D112482539E4F12
:10179000FC01208131818C819D812817390709F056
:1017A0003DC18981282F30E04FE0429FC001439F17
:1017B000900D11248D529E4FFC01808191810197E3
:1017C000A9F08981282F30E04FE0429FC001439F5C
:1017D000900D11248D529E4FFC01808191810297C2
:1017E00029F062E28EE20E947B0D28C18981282FB8
:1017F00030E04FE0429FC001439F900D112485527D
:101800009E4FFC0180819181892BD1F08981282F05
:1018100030E04FE0429FC001439F900D112485525C
:101820009E4FFC0180819181FC0109958E838E8100
:10183000882331F06E818EE20E947B0D0000FEC095
:101840008981282F30E04FE0429FC001439F900DD7
:10185000112489529E4FFC0180819181892BA1F036
:101860008981282F30E04FE0429FC001439F900DB7
:10187000112489529E4FFC01208131818B899C89E2
:101880000396F901099582C08981282F30E04FE045
:10189000429FC001439F900D112487529E4FFC012F
:1018A00080819181892B09F471C08981282F30E0D2
:1018B0004FE0429FC001439F900D11248F529E4FD5
:1018C000FC0180819181019741F58B899C89049667
:1018D000FC018081882F90E0382F22278B899C89FA
:1018E0000396FC018081882F90E0822B932B9887B0
:1018F0008F838981282F30E04FE0429FC001439FB2
:10190000900D112487529E4FFC01808191812F817F
:101910003885FC013183208339C08981282F30E04C
:101920004FE0429FC001439F900D112487529E4F6C
:10193000FC01808191819A8789871A8217C08A81E8
:10194000882F90E029853A85820F931F2A81222FC4
:1019500030E02D5F3F4F4B895C89240F351FF90123
:101960002081FC0120838A818F5F8A838981282FCF
:1019700030E04FE0429FC001439F900D11248053FF
:101980009E4FFC0190818A818917C8F28B899C89BE
:10199000FC0181818B878B899C89FC0182818C87EA
:1019A0008981282F30E04FE0429FC001439F900D76
:1019B00011248B529E4FFC0180819181892BA1F0D3
:1019C0008981282F30E04FE0429FC001439F900D56
:1019D00011248B529E4FFC0120813181CE010B9648
:1019E0000296F901099501C01D868981282F30E0F2
:1019F0004FE0429FC001439F900D112480539E4FA2
:101A0000FC01808122E0280FCE010B96422FBC0101
:101A10008EE20E94270D81E08B8307C089818F5F52
:101A2000898389818D3008F4A8CE9B8181E0892744
:101A3000882321F061E38EE20E947B0D64960FB64D
:101A4000F894DEBF0FBECDBFDF91CF910895CF9345
:101A5000DF93CDB7DEB728970FB6F894DEBF0FBE81
:101A6000CDBF8D837F836E8348871B828D81805C91
:101A70008C838C810E94481F9B818C81890F8B8372
:101A800019821AC08981882F90E02E813F81820FB0
:101A9000931FFC0180810E94481F8981882F90E05C
:101AA0002E813F81820F931FFC0180819B81890FD2
:101AB0008B8389818F5F898399818885981710F33B
:101AC00088858A8306C080E00E94481F8A818F5FD4
:101AD0008A838A818930B8F38B810E94481F8DE008
:101AE0000E94481F28960FB6F894DEBF0FBECDBFE8
:101AF000DF91CF910895CF93DF9300D000D0CDB781
:101B0000DEB78B836C831A828FE70E94481F8A811D
:101B100081588A838B810E94481F9A818B81890F0B
:101B20008A838C810E94481F9A818C81890F8A83C5
:101B3000198206C080E00E94481F89818F5F8983D7
:101B400089818730B8F38A810E94481F8DE00E9406
:101B5000481F0F900F900F900F90DF91CF91089535
:101B6000CF93DF931F92CDB7DEB7198238C089813A
:101B7000282F30E04DE0429FC001439F900D11247B
:101B80008E5E9E4FFC0110828981282F30E04DE04F
:101B9000429FC001439F900D11248D5E9E4FFC011A
:101BA00010828981282F30E04DE0429FC001439F81
:101BB000900D11248C5E9E4FFC0110828981282F8C
:101BC00030E04DE0429FC001439F900D11248B5E99
:101BD0009E4FFC011182108289818F5F89838981E8
:101BE0008C3028F20F90DF91CF910895CF93DF933F
:101BF000CDB7DEB72A970FB6F894DEBF0FBECDBFC4
:101C000089876A87CE0101960E9462018A858230A7
:101C100091F48985882F90E0880F991F9E012F5F8E
:101C20003F4F820F931FFC0180819181892B09F026
:101C300061C081E060C08A85813099F48985882FF0
:101C400090E0880F991F9E012F5F3F4F820F931FD7
:101C5000FC01808191818F3F934009F04BC081E06E
:101C60004AC08A85833011F58985882F90E0880FD6
:101C7000991F9E012F5F3F4F820F931FFC018081B0
:101C800091818B329340B0F18985882F90E0880F45
:101C9000991F9E012F5F3F4F820F931FFC01808190
:101CA00091818F3F934031F181E025C08A85843056
:101CB00009F58985882F90E0880F991F9E012F5F75
:101CC0003F4F820F931FFC018081918180399140A9
:101CD00088F48985882F90E0880F991F9E012F5FD7
:101CE0003F4F820F931FFC0180819181892B11F05E
:101CF00081E001C080E02A960FB6F894DEBF0FBEE7
:101D0000CDBFDF91CF910895CF93DF93CDB7DEB7ED
:101D10002B970FB6F894DEBF0FBECDBF9A87898789
:101D20006B8789859A85892B09F47CC08B858823EC
:101D300009F44DC089859A85FC018681843650F46A
:101D400089859A85FC01868121E0280F89859A85FD
:101D5000FC01268389859A85FC018481882329F4E6
:101D600089859A8521E0FC01248389859A85FC0177
:101D70008481813009F056C089859A85FC0186816D
:101D8000843608F44FC089859A8522E0FC012483BB
:101D900089859A8522E0FC012583CE0101960E9467
:101DA000620189859A85FC018185882F90E0880FE2
:101DB000991F9E012F5F3F4F820F931FFC012081CF
:101DC000318189859A85FC01308727832BC08985DD
:101DD0009A85FC018681882359F089859A85FC01C2
:101DE00086812FEF280F89859A85FC0126831AC0EA
:101DF00089859A85FC018481823051F489859A8590
:101E0000FC01148289859A8521E0FC0125830AC0A2
:101E100089859A85FC018481813021F489859A85A0
:101E2000FC0114822B960FB6F894DEBF0FBECDBF17
:101E3000DF91CF910895CF93DF9300D0CDB7DEB778
:101E400019824EC01A828981282F30E04DE0429FCE
:101E5000C001439F900D1124885E9E4FFC0180813C
:101E60009181892B61F18981282F30E04DE0429FDB
:101E7000C001439F900D1124885E9E4FFC0120817C
:101E800031818981482F50E06DE0649FC001659FDA
:101E9000900D1124865E9E4FFC0170818981482F30
:101EA00050E06DE0649FC001659F900D1124895E34
:101EB0009E4FFC018081672FF90109958A838981F2
:101EC000282F30E04DE0429FC001439F900D112428
:101ED000825F9E4F6A810E94840E89818F5F898311
:101EE00089818C3008F4AECF0F900F90DF91CF91A5
:101EF0000895CF93DF931F92CDB7DEB7198238C014
:101F00008981282F30E04DE0429FC001439F900D12
:101F100011248E5E9E4FFC0110828981282F30E0B3
:101F20004DE0429FC001439F900D11248D5E9E4F56
:101F3000FC0110828981282F30E04DE0429FC001D2
:101F4000439F900D11248C5E9E4FFC01108289816D
:101F5000282F30E04DE0429FC001439F900D112497
:101F60008B5E9E4FFC011182108289818F5F898375
:101F700089818C3028F20F90DF91CF910895CF9313
:101F8000DF93CDB7DEB70E94FD05DF91CF910895B5
:101F9000CF93DF93CDB7DEB78CE0DF91CF9108957B
:101FA000CF93DF9300D000D0CDB7DEB78C831982FA
:101FB0008C8182958F708A838C818F708B838A81CC
:101FC0008823A9F483E290E0FC018081882F90E0CF
:101FD0002B81222F30E002C0969587952A95E2F753
:101FE00081709927892BD1F081E0898317C08A817C
:101FF0008130A1F489E290E0FC018081882F90E09B
:102000002B81222F30E002C0969587952A95E2F722
:1020100081709927892B11F081E0898389810F9044
:102020000F900F900F90DF91CF910895CF93DF9392
:1020300000D000D0CDB7DEB78B836C838B818295C7
:102040008F7089838B818F708A838981882361F562
:102050008C818130A1F485E290E025E230E0F90145
:1020600060812A81422F50E021E030E002C0220F3F
:10207000331F4A95E2F7262BFC01208343C085E2FB
:1020800090E025E230E0F90160812A81422F50E0A2
:1020900021E030E002C0220F331F4A95E2F720957D
:1020A0002623FC0120832EC08981813059F58C8143
:1020B0008130A1F48BE290E02BE230E0F901608105
:1020C0002A81422F50E021E030E002C0220F331F6E
:1020D0004A95E2F7262BFC01208314C08BE290E0A6
:1020E0002BE230E0F90160812A81422F50E021E0AB
:1020F00030E002C0220F331F4A95E2F720952623D5
:10210000FC0120830F900F900F900F90DF91CF91E3
:102110000895CF93DF93CDB7DEB788E690E028E649
:1021200030E0F90120812460FC0120838DE690E0FD
:102130002DE630E0F90120812460FC012083DF914D
:10214000CF9108951F920F9200905F000F9211247B
:10215000CF93DF93CDB7DEB7DF91CF910F90009291
:102160005F000F901F901895CF93DF931F92CDB70C
:10217000DEB70E9486170E9489100E94841582E1B2
:102180000E94D00F982F81E0913009F080E0898380
:102190000E94B00D0E9454160E94951660E071EEE8
:1021A00080E090E00E94F01E0E94CF090E941D0175
:1021B0000E9418120E9476190E94E71787E00E9479
:1021C000782078948981882339F081E090E0909399
:1021D000D5028093D40215C060E080E00E9471189F
:1021E00060E084E10E94161060E085E10E94161014
:1021F00084E090E09093D5028093D40281E08093B4
:10220000D8020F90DF91CF910895EF92FF920F9334
:102210001F93CF93DF93CDB7DEB78091D402909117
:10222000D5028230910561F18330910530F4009739
:1022300009F4A4C0019749F099C08330910509F4CD
:1022400044C0049709F476C091C00E949C208091FC
:10225000D6029091D702892B39F082E090E09093DA
:10226000D5028093D4020BC08091D802882339F024
:1022700082E090E09093D5028093D40280C07FC02A
:102280000E94A42060E080E00E94711860E084E178
:102290000E94161060E085E10E9416100E94081747
:1022A0008091D6029091D702019719F40E94B6202E
:1022B0000BC08091D802882339F083E090E090939E
:1022C000D5028093D4025BC05AC09091D80281E0BD
:1022D0008927882351F087E00E94782081E090E0F0
:1022E0009093D5028093D40224C02091DD023091D6
:1022F000DE024091DF025091E0028091D90290917C
:10230000DA02A091DB02B091DC0279018A01E81ABD
:10231000F90A0A0B1B0BD801C70180319742A105AE
:10232000B10538F084E090E09093D5028093D40218
:1023300026C025C00FB6F894A895809160008861EA
:1023400080936000109260000FBE9091D80281E0EF
:102350008927882351F087E00E94782081E090E06F
:102360009093D5028093D4020AC009C081E090E026
:102370009093D5028093D402000001C00000DF9149
:10238000CF911F910F91FF90EF900895CF93DF931E
:1023900000D0CDB7DEB79A8389838091D402909123
:1023A000D502019731F489819A819093D702809365
:1023B000D6020F900F90DF91CF910895CF93DF93C6
:1023C000CDB7DEB78091D4029091D502DF91CF9145
:1023D0000895CF93DF93CDB7DEB78091D40290916B
:1023E000D5020197C9F49091D80281E0892788230A
:1023F00099F081E08093D8028091DD029091DE0215
:10240000A091DF02B091E0028093D9029093DA02AA
:10241000A093DB02B093DC02DF91CF910895CF93BC
:10242000DF93CDB7DEB71092D802DF91CF91089538
:10243000CF93DF93CDB7DEB784E490E022E0FC01D8
:10244000208387E490E029EFFC01208385E490E07D
:1024500023E0FC0120838EE690E022E0FC01208353
:10246000DF91CF910895CF93DF93CDB7DEB7809101
:10247000DD029091DE02A091DF02B091E0020196B0
:10248000A11DB11D8093DD029093DE02A093DF02B7
:10249000B093E002DF91CF910895CF93DF93CDB752
:1024A000DEB78091E5029091E60201969093E602F4
:1024B0008093E5028091E7029091E8020196909363
:1024C000E8028093E7028091E9029091EA02019686
:1024D0009093EA028093E9028091EB029091EC02E2
:1024E00001969093EC028093EB028091E50290912B
:1024F000E6020A9738F01092E6021092E50281E0B7
:102500008093E1028091E7029091E802C29738F04F
:102510001092E8021092E70281E08093E20280913B
:10252000E9029091EA028436910538F01092EA02AD
:102530001092E90281E08093E3028091EB02909196
:10254000EC02843F914038F01092EC021092EB02C2
:1025500081E08093E402DF91CF9108951F920F9262
:1025600000905F000F9211242F933F934F935F933E
:102570006F937F938F939F93AF93BF93EF93FF934B
:10258000CF93DF93CDB7DEB70E9433120E944D1276
:10259000DF91CF91FF91EF91BF91AF919F918F917B
:1025A0007F916F915F914F913F912F910F9000928A
:1025B0005F000F901F901895CF92DF92EF92FF92DD
:1025C000CF93DF9300D000D000D0CDB7DEB79A8391
:1025D00089834B835C836D837E8389819A818E5B43
:1025E0009F4FFC0180819181A281B38129813A8131
:1025F000205C3F4FF9012081222F30E049815A8130
:10260000220F331F220F331F240F351FF9012081A2
:10261000318142815381BC01CD010E946221DC01E4
:10262000CB0129813A812E5B3F4FF9018083918351
:10263000A283B38389819A81805C9F4FFC01808152
:10264000882F90E029813A81880F991F880F991F60
:10265000280F391F8B819C81AD81BE81F901808358
:102660009183A283B38389819A818E5B9F4FFC0102
:1026700080819181A281B3812B813C814D815E81DA
:10268000BC01CD010E946321DC01CB0129813A818B
:102690002E5B3F4FF90180839183A283B3838981AD
:1026A0009A81805C9F4FFC0180818F5F282F2F7063
:1026B00089819A81805C9F4FFC01208389819A8166
:1026C0008F5B9F4FFC018081803170F489819A81FA
:1026D0008F5B9F4FFC01808121E0280F89819A81C7
:1026E0008F5B9F4FFC01208389819A818E5B9F4F76
:1026F000FC01C080D180E280F38089819A818F5B68
:102700009F4FFC018081882F90E0A0E0B0E0BC01E9
:10271000CD010E947522DC01CB019C01AD01C701F6
:10272000B6010E94D421DC01CB01BC01CD0126966B
:102730000FB6F894DEBF0FBECDBFDF91CF91FF90F3
:10274000EF90DF90CF900895CF93DF9300D000D02B
:1027500000D0CDB7DEB79E838D838D819E81CC0165
:10276000A0E0B0E0BC01CD010E947522DC01CB01EC
:1027700020E030EC4FE754E4BC01CD010E94D421AD
:10278000DC01CB0120E030E040EA50E4BC01CD01A7
:102790000E942C23DC01CB0189839A83AB83BC8309
:1027A00020E030E040E250E469817A818B819C81B5
:1027B0000E946221DC01CB0122E03BE247E85DE3BD
:1027C000BC01CD010E94D421DC01CB01BC01CD01B3
:1027D00026960FB6F894DEBF0FBECDBFDF91CF9126
:1027E0000895CF93DF9300D000D000D0CDB7DEB7EF
:1027F0009E838D838D819E81CC01A0E0B0E0BC01E1
:10280000CD010E947522DC01CB0120E030EC4FE7C6
:1028100054E4BC01CD010E94D421DC01CB0120E0B5
:1028200030E040EA50E4BC01CD010E942C23DC01E1
:10283000CB0189839A83AB83BC8320E030E040E402
:1028400051E469817A818B819C810E942C23DC0177
:10285000CB01BC01CD0126960FB6F894DEBF0FBEAA
:10286000CDBFDF91CF910895CF93DF93CDB7DEB782
:10287000A8970FB6F894DEBF0FBECDBF0E945901D6
:10288000882309F48CC0CE0181960E94620189A13F
:102890009AA10E94A413DC01CB0189839A83AB83A4
:1028A000BC8389819A81AB81BC81AC01BD018DEE75
:1028B00092E00E94DC12DC01CB018D839E83AF830A
:1028C000B8878D819E81AF81B885BC01CD010E9402
:1028D00081198BA19CA10E94F113DC01CB01898796
:1028E0009A87AB87BC8789859A85AB85BC85AC0107
:1028F000BD0183E393E00E94DC12DC01CB018D87F4
:102900009E87AF87B88B8D859E85AF85B889BC01C2
:10291000CD010E94AF198DA19EA10E94A413DC01DC
:10292000CB01898B9A8BAB8BBC8B89899A89AB89BC
:10293000BC89AC01BD0189E793E00E94DC12DC0197
:10294000CB018D8B9E8BAF8BB88F8D899E89AF8984
:10295000B88DBC01CD010E94DD198FA198A50E9400
:10296000F113DC01CB01898F9A8FAB8FBC8F898DDE
:102970009A8DAB8DBC8DAC01BD018FEB93E00E94B5
:10298000DC12DC01CB018D8F9E8FAF8FB8A38D8DB4
:102990009E8DAF8DB8A1BC01CD010E940B1AA896E7
:1029A0000FB6F894DEBF0FBECDBFDF91CF91089573
:1029B000CF93DF9300D0CDB7DEB70E94451989834E
:1029C0000E945B198A836A8189810E9471180F9025
:1029D0000F90DF91CF910895CF93DF931F92CDB7E2
:1029E000DEB789838981882311F081E001C080E00E
:1029F000682F84E10E9416100F90DF91CF91089507
:102A0000CF93DF931F92CDB7DEB789838981882367
:102A100011F081E001C080E0682F85E10E9416106E
:102A20000F90DF91CF910895CF93DF931F92CDB791
:102A3000DEB78983898180930504898180930604A8
:102A400083E0809307048981882311F081E001C02D
:102A500080E0682F83E10E94161089810E94981AF5
:102A60008981882319F00E940F1202C00E94E91187
:102A70000F90DF91CF910895CF93DF931F92CDB741
:102A8000DEB782E10E94D00F982F81E0913009F0EB
:102A900080E08983809106049981981751F4809190
:102AA0000704833060F4809107048F5F80930704EC
:102AB00006C089818093060481E080930704809199
:102AC00007048330E8F08091050499819817C1F0DC
:102AD0008981809305048981882311F081E001C0F8
:102AE00080E0682F83E10E94161089810E94981A65
:102AF0008981882319F00E940F1202C00E94E911F7
:102B00000F90DF91CF910895CF93DF931F92CDB7B0
:102B1000DEB782E10E94D00F982F81E0913009F05A
:102B200080E08983898180930604898180930504EC
:102B300083E0809307048981882311F081E001C03C
:102B400080E0682F83E10E94161089810E94981A04
:102B50000F90DF91CF910895CF93DF9300D01F9214
:102B6000CDB7DEB789837B836A838981882F90E024
:102B700083309105D9F0843091052CF4009749F009
:102B8000019769F028C087309105B9F00F97E1F0FF
:102B900022C08A819B81FC01108281E01DC08A8154
:102BA0009B8129E1FC01208381E016C08A819B8101
:102BB00022E3FC01208381E00FC08A819B812BE40A
:102BC000FC01208381E008C08A819B8124E6FC010E
:102BD000208381E001C080E00F900F900F90DF9183
:102BE000CF9108951F93CF93DF9300D01F92CDB75D
:102BF000DEB786E10E94D00F813011F411E001C0F0
:102C000010E087E10E94D00F813011F482E001C012
:102C100080E0182B80E00E94D00F813011F484E016
:102C200001C080E0182B84E00E94D00F813011F4A5
:102C300088E001C080E0812B89838091080499811C
:102C4000981751F480910904833060F4809109044D
:102C50008F5F8093090406C089818093080481E016
:102C600080930904809109048330B8F0CE01039663
:102C7000BC0189810E94AC158A838A81882319F05E
:102C80008B8180930A0489810E94C41A80910A046E
:102C90000E94AE1A8A810E94DA1A0F900F900F904C
:102CA000DF91CF911F910895CF93DF9300D000D093
:102CB000CDB7DEB780E090E00E94F3239B838A8348
:102CC0008A819B818B35954A49F16BE575EA80E0F5
:102CD00090E00E940B246AEF70E082E090E00E9496
:102CE0000B246CE084E090E00E94F92360E085E032
:102CF00090E00E94F9230E94C80F8C8319820AC0B9
:102D00008981882F90E0069660E00E94F9238981EE
:102D10008F5F898399818C81981790F30F900F9022
:102D20000F900F90DF91CF910895CF93DF93CDB7A0
:102D3000DEB727970FB6F894DEBF0FBECDBF82E097
:102D400090E00E94F3239B838A8384E090E00E94BA
:102D5000EB238C8385E090E00E94EB23982F81E0A9
:102D6000992309F480E08D838A819B81019621F467
:102D700084E690E09B838A838C818F3F11F48CE002
:102D80008C838A819B810E9464198C81882F90E0BA
:102D90000E94391A8D810E94561A0E94C80F8E8394
:102DA000198229C08981882F90E006960E94EB2322
:102DB0008F838981282F30E04DE0429FC001439FDF
:102DC000900D11248D5E9E4F2F81FC0120838F81F9
:102DD000882371F08981282F30E04DE0429FC001A7
:102DE000439F900D11248E5E9E4F22E0FC012083B4
:102DF00089818F5F898399818E81981798F22796B0
:102E00000FB6F894DEBF0FBECDBFDF91CF9108950E
:102E1000CF93DF9300D0CDB7DEB76BE575EA80E0E6
:102E200090E00E940B240E947619BC0182E090E0A1
:102E30000E940B240E944B1A682F84E090E00E94AD
:102E4000F9230E94631A882311F081E001C080E019
:102E5000682F85E090E00E94F9230E94C80F8A83C2
:102E6000198217C08981282F30E04DE0429FC001B0
:102E7000439F900D11248D5E9E4FFC01208189811E
:102E8000882F90E00696622F0E94F92389818F5F38
:102E9000898399818A81981728F30F900F90DF9189
:102EA000CF910895CF93DF9300D01F92CDB7DEB7B7
:102EB0009B838A838A819B81892B11F18A819B81E3
:102EC000FC01808189838981882F90E08931910577
:102ED00091F08A31910534F48131910561F0449784
:102EE00051F00EC08E32910531F08133910519F009
:102EF000829709F005C08A819B810E94DC0900004D
:102F00000F900F900F90DF91CF910895CF93DF93A3
:102F1000CDB7DEB784E290E024E230E0F901208111
:102F20002660FC0120838AE290E02AE230E0F90189
:102F300020812063FC0120838BE290E02BE230E0D3
:102F4000F90120812F7CFC0120838AE290E02AE2B3
:102F500030E0F90120812B7FFC0120838AE290E0A0
:102F60002AE230E0F90120812860FC0120838BE215
:102F700090E02BE230E0F9012081277FFC012083E3
:102F80008AE290E02AE230E0F90120812F73FC010F
:102F900020838BE290E02BE230E0F9012081206C6D
:102FA000FC01208384E290E024E230E0F9012081FA
:102FB0002E7EFC01208385E290E025E230E0F901DD
:102FC00020812161FC012083DF91CF9108950F932F
:102FD0001F93CF93DF93CDB7DEB728970FB6F89442
:102FE000DEBF0FBECDBF9C838B838B819C81CC01C8
:102FF000A0E0B0E0880F991FAA1FBB1F880F991F80
:10300000AA1FBB1F880F991FAA1FBB1F9C01AD01E0
:1030100080E094E2A4EFB0E0BC01CD010E94A923BE
:10302000DA01C90101979A83898386E890E02981B2
:103030003A81FC013183208380E890E022EAFC01A0
:10304000208381E890E02AE1FC01208308E810E079
:1030500089819A81CC01A0E0B0E0BC01CD010E9441
:103060007522DC01CB0128E431EE4AE75FE3BC01C5
:10307000CD010E942C23DC01CB01BC01CD010E94BB
:103080004622DC01CB01F801918380830AE810E03D
:1030900089819A81CC01A0E0B0E0BC01CD010E9401
:1030A0007522DC01CB0128E431EE4AE75FE3BC0185
:1030B000CD010E942C23DC01CB01BC01CD010E947B
:1030C0004622DC01CB01F8019183808328960FB65C
:1030D000F894DEBF0FBECDBFDF91CF911F910F914E
:1030E00008950F931F93CF93DF93CDB7DEB72C973F
:1030F0000FB6F894DEBF0FBECDBF8B836C8386E81E
:1031000090E0FC01808191819A83898308E810E036
:1031100089819A819C0140E050E08B81882F90E06A
:10312000A0E0B0E0BC01CD010E949923DC01CB01FD
:1031300024E630E040E050E0BC01CD010E94A9232C
:10314000DA01C901F801918380830AE810E08981DE
:103150009A819C0140E050E08C81882F90E0A0E0B3
:10316000B0E0BC01CD010E949923DC01CB0124E633
:1031700030E040E050E0BC01CD010E94A923DA011B
:10318000C901F801918380832C960FB6F894DEBFB5
:103190000FBECDBFDF91CF911F910F9108950F9377
:1031A0001F93CF93DF9300D000D000D0CDB7DEB710
:1031B0009A83898389819A81892B59F189819A819E
:1031C0004F9720F48FE190E09A83898306E810E01E
:1031D00089819A81CC01A0E0B0E0880F991FAA1FD5
:1031E000BB1F880F991FAA1FBB1F880F991FAA1FFB
:1031F000BB1F9C01AD0180E094E2A4EFB0E0BC01F4
:10320000CD010E94A923DA01C9010197F801918338
:10321000808326960FB6F894DEBF0FBECDBFDF9138
:10322000CF911F910F910895CF93DF93CDB7DEB764
:1032300088E890E0FC0180819181DF91CF91089531
:10324000CF93DF93CDB7DEB78AE890E0FC018081B1
:103250009181DF91CF910895CF93DF93CDB7DEB702
:1032600086E890E0FC0180819181DF91CF91089503
:10327000CF93DF931F92CDB7DEB789838981809387
:103280000B040F90DF91CF910895CF93DF93CDB7CB
:10329000DEB780910B04DF91CF910895CF93DF9338
:1032A0001F92CDB7DEB78983898180930C040F907C
:1032B000DF91CF910895CF93DF93CDB7DEB78091A3
:1032C0000C04DF91CF910895CF93DF9300D0CDB759
:1032D000DEB79A83898389819A8190930E048093C3
:1032E0000D040F900F90DF91CF910895CF93DF934E
:1032F000CDB7DEB780910D0490910E04DF91CF9190
:103300000895CF93DF9300D000D0CDB7DEB76983A7
:103310007A838B839C8389819A81AB81BC818093E2
:103320000F0490931004A0931104B09312040F9013
:103330000F900F900F90DF91CF910895CF93DF936F
:10334000CDB7DEB780910F0490911004A0911104C5
:10335000B0911204BC01CD01DF91CF910895CF93BC
:10336000DF9300D000D0CDB7DEB769837A838B833B
:103370009C8389819A81AB81BC8180931304909353
:103380001404A0931504B09316040F900F900F909F
:103390000F90DF91CF910895CF93DF93CDB7DEB734
:1033A0008091130490911404A0911504B091160417
:1033B000BC01CD01DF91CF910895CF93DF9300D071
:1033C00000D0CDB7DEB769837A838B839C838981F4
:1033D0009A81AB81BC818093170490931804A093C9
:1033E0001904B0931A040F900F900F900F90DF9173
:1033F000CF910895CF93DF93CDB7DEB780911704B7
:1034000090911804A0911904B0911A04BC01CD0147
:10341000DF91CF910895CF93DF9300D000D0CDB747
:10342000DEB769837A838B839C8389819A81AB81A0
:10343000BC8180931B0490931C04A0931D04B09343
:103440001E040F900F900F900F90DF91CF91089571
:10345000CF93DF93CDB7DEB780911B0490911C040E
:10346000A0911D04B0911E04BC01CD01DF91CF914C
:103470000895CF93DF9300D0CDB7DEB79A838983C9
:1034800089819A819093200480931F040F900F905C
:10349000DF91CF910895CF93DF93CDB7DEB78091C1
:1034A0001F0490912004DF91CF910895CF93DF9373
:1034B0001F92CDB7DEB789838981809321040F9055
:1034C000DF91CF910895CF93DF93CDB7DEB7809191
:1034D0002104DF91CF910895CF93DF931F92CDB751
:1034E000DEB789838981809322040F90DF91CF9189
:1034F0000895CF93DF93CDB7DEB780912204DF919B
:10350000CF910895CF93DF931F92CDB7DEB7898314
:103510008981809323040F90DF91CF910895CF93F9
:10352000DF93CDB7DEB780912304DF91CF9108956B
:10353000CF93DF931F92CDB7DEB7898389818093C4
:1035400024040F90DF91CF910895CF93DF93CDB7EF
:10355000DEB780912404DF91CF910895CF93DF935C
:103560001F92CDB7DEB789838981809325040F90A0
:10357000DF91CF910895CF93DF93CDB7DEB78091E0
:103580002504DF91CF910895CF93DF931F92CDB79C
:10359000DEB789838981809326040F90DF91CF91D4
:1035A0000895CF93DF93CDB7DEB780912604DF91E6
:1035B000CF910895CF93DF931F92CDB7DEB7898364
:1035C0008981809327040F90DF91CF910895CF9345
:1035D000DF93CDB7DEB780912704DF91CF910895B7
:1035E000CF92DF92EF92FF920F931F93CF93DF93CF
:1035F000CDB7DEB7A4970FB6F894DEBF0FBECDBF30
:10360000988F8F8B498F5A8F6B8F7C8F0D8F1E8F6A
:103610002F8F38A3C9A2DAA2EBA2FCA22D8D3E8D7A
:103620004F8D58A1698D7A8D8B8D9C8D0E94622162
:10363000DC01CB0189839A83AB83BC838F89988D0E
:10364000FC01848D958DA68DB78DB05829813A8166
:103650004B815C81BC01CD010E94CF218823ACF459
:103660008F89988DFC01848D958DA68DB78D2981CC
:103670003A814B815C81BC01CD010E942723181641
:1036800024F419821A821B821C828F89988DFC0176
:1036900080819181A281B38129813A814B815C81B2
:1036A000BC01CD010E942C23DC01CB018D879E87BC
:1036B000AF87B88B1D821E821F82188620E030E003
:1036C000A90169A17AA18BA19CA10E9427231816A8
:1036D00074F58F89988DFC01C084D184E284F384D1
:1036E0008F89988DFC0184859585A685B7859C0179
:1036F000AD0169817A818B819C810E946221DC010C
:10370000CB019C01AD01C701B6010E942C23DC0155
:10371000CB0129A13AA14BA15CA1BC01CD010E9422
:10372000D421DC01CB018D839E83AF83B8872F89A1
:10373000388D89819A81AB81BC81F9018487958715
:10374000A687B7878F89988DFC0180899189A28986
:10375000B3892D853E854F855889BC01CD010E94D6
:103760006321DC01CB012D813E814F815885BC0155
:10377000CD010E946321DC01CB01898B9A8BAB8B3D
:10378000BC8B8F89988DFC01808D918DA28DB38D1E
:1037900029893A894B895C89BC01CD010E94CF21DE
:1037A000181674F020E030E0A90169817A818B81DC
:1037B0009C810E94272318161CF481E090E002C02F
:1037C00080E090E08D8B8D8981708D8B8F89988DB5
:1037D000FC0184899589A689B78929893A894B8909
:1037E0005C89BC01CD010E942723882374F020E06E
:1037F00030E0A90169817A818B819C810E94CF216F
:1038000088231CF481E090E002C080E090E08E8B81
:103810008E8981708E8B9D8981E089278823B1F103
:103820009E8981E08927882389F18F89988DFC0101
:10383000C088D188E288F3888F89988DFC018481C3
:103840009581A681B78129813A814B815C81BC0138
:10385000CD010E942C23DC01CB0129A13AA14BA16F
:103860005CA1BC01CD010E942C23DC01CB019C0199
:10387000AD01C701B6010E946321DC01CB012F8994
:10388000388DF901808B918BA28BB38B8F89988DAA
:10389000FC0180899189A289B3892D853E854F8558
:1038A0005889BC01CD010E946321DC01CB012D812F
:1038B0003E814F815885BC01CD010E946321DC010E
:1038C000CB0189879A87AB87BC878F89988DFC014C
:1038D000808D918DA28DB38D29853A854B855C8530
:1038E000BC01CD010E94CF2188235CF48F89988D83
:1038F000FC01808D918DA28DB38D89879A87AB87CE
:10390000BC878F89988DFC0184899589A689B789A0
:1039100029853A854B855C85BC01CD010E94272312
:1039200018165CF48F89988DFC0184899589A68985
:10393000B78989879A87AB87BC8789859A85AB8544
:10394000BC85BC01CD01A4960FB6F894DEBF0FBEB6
:10395000CDBFDF91CF911F910F91FF90EF90DF903E
:10396000CF900895CF92DF92EF92FF920F931F9323
:10397000CF93DF93CDB7DEB7A1970FB6F894DEBF34
:103980000FBECDBF6A8F7B8F8C8F9D8F2E8F3F8F09
:1039900048A359A32AE939E949E95EE36A8D7B8D99
:1039A0008C8D9D8D0E946221DC01CB012E8D3F8D7F
:1039B00048A159A1BC01CD010E94CF211816D4F015
:1039C0002AE939E949E95EE36A8D7B8D8C8D9D8D0D
:1039D0000E946321DC01CB012E8D3F8D48A159A1AE
:1039E000BC01CD010E942723882324F080E00E949F
:1039F0006C1A13C02A8D3B8D4C8D5D8D6E8D7F8D25
:103A000088A199A10E94CF21882324F481E00E94FB
:103A10006C1A03C082E00E946C1A0E94631A8B87A2
:103A20000E944B1A9D878C878C859D85CC01A0E0D8
:103A3000B0E0BC01CD010E947522DC01CB018E8774
:103A40009F87A88BB98B9B8581E08927882309F400
:103A50005FC182E6898382E68A8320E030E040E02D
:103A600050E46E8D7F8D88A199A10E94CF2188237B
:103A7000ACF482E6898382E68A831092BA011092BE
:103A8000BB011092BC011092BD011092B6011092C0
:103A9000B7011092B8011092B90134C12AE939E98D
:103AA00049E95EE36A8D7B8D8C8D9D8D0E9462213C
:103AB000DC01CB012E853F8548895989BC01CD01A8
:103AC0000E94CF2118165CF12AE939E949E95EE341
:103AD0006A8D7B8D8C8D9D8D0E946321DC01CB01D5
:103AE0002E853F8548895989BC01CD010E94272335
:103AF0008823ACF082E6898382E68A831092BA0139
:103B00001092BB011092BC011092BD011092B6013F
:103B10001092B7011092B8011092B901F3C02A8D2A
:103B20003B8D4C8D5D8D6E857F85888999890E943E
:103B3000272318160CF06DC082E689832E8D3F8DE9
:103B400048A159A18E859F85A889B9890F2EFDECC2
:103B5000CF2EFCECDF2EED2CFDE3FF2EF02D8901A6
:103B60009A01AC01BD018AEA91E00E94F01ADC01E1
:103B7000CB018A8B9B8BAC8BBD8B6A897B898C89B3
:103B80009D890E944622DC01CB010E94821A2A896B
:103B90003B894C895D8960E070E084EC92E40E948E
:103BA0006221DC01CB018B839C83AD83BE8320E04B
:103BB00030E044EC52E46B817C818D819E810E94D7
:103BC0002723181644F480E090E0A4ECB2E48B8341
:103BD0009C83AD83BE8320E030E040EA50E46B81FB
:103BE0007C818D819E810E94CF21882344F480E0D6
:103BF00090E0A0EAB0E48B839C83AD83BE836B81AD
:103C00007C818D819E810E944622DC01CB018A83CA
:103C100079C02A8D3B8D4C8D5D8D6E857F85888921
:103C200099890E94CF2188230CF06CC082E68A8398
:103C30002E853F85488959898E8D9F8DA8A1B9A170
:103C40000F2EFDECCF2EFCECDF2EED2CFDE3FF2E36
:103C5000F02D89019A01AC01BD018AEA91E00E9430
:103C6000F01ADC01CB018E8B9F8BA88FB98F6E89E8
:103C70007F89888D998D0E944622DC01CB010E94AC
:103C8000821A2E893F89488D598D60E070E084EC5E
:103C900092E40E946221DC01CB018F839887A9877F
:103CA000BA8720E030E044EC52E46F817885898562
:103CB0009A850E942723181644F480E090E0A4EC33
:103CC000B2E48F839887A987BA8720E030E040EA82
:103CD00050E46F81788589859A850E94CF21882359
:103CE00044F480E090E0A0EAB0E48F839887A9874D
:103CF000BA876F81788589859A850E944622DC0182
:103D0000CB01898389810E9438198A810E944E19CA
:103D1000A1960FB6F894DEBF0FBECDBFDF91CF9155
:103D20001F910F91FF90EF90DF90CF900895CF9368
:103D3000DF93CDB7DEB70E949E19DC01CB018093E3
:103D4000280490932904A0932A04B0932B040E9482
:103D5000CC19DC01CB0180932C0490932D04A0930B
:103D60002E04B0932F040E94FA19DC01CB0180933A
:103D7000300490933104A0933204B09333040E9432
:103D8000281ADC01CB018093340490933504A0936E
:103D90003604B0933704DF91CF910895CF93DF932A
:103DA000CDB7DEB780912C0490912D04A0912E0404
:103DB000B0912F04BC01CD01DF91CF910895CF9335
:103DC000DF93CDB7DEB78091340490913504A09194
:103DD0003604B0913704BC01CD01DF91CF91089535
:103DE000CF93DF93CDB7DEB72A970FB6F894DEBF37
:103DF0000FBECDBF6B837C838D839E8380E492E472
:103E0000AFE0B0E02B813C814D815E81BC01CD01F2
:103E10000E94A923DA01C90101979A83898385EC5D
:103E200090E029813A81232F3327FC01208384EC01
:103E300090E02981FC01208381EC90E028E9FC01DD
:103E4000208382EC90E026E0FC0120832A960FB6C6
:103E5000F894DEBF0FBECDBFDF91CF910895CF9311
:103E6000DF931F92CDB7DEB780913904882F90E0A1
:103E700083539B4FFC0180818983809139048F5F3C
:103E80008F778093390489810F90DF91CF910895C6
:103E9000CF93DF9300D0CDB7DEB78A8380913A0409
:103EA0008F5F8F778983000080913B0499819817F9
:103EB000D9F380913A04882F90E0835B9B4F2A814D
:103EC000FC012083898180933A0480913C048823FB
:103ED00061F481E080933C0481EC90E021EC30E0DF
:103EE000F90120812062FC0120830F900F90DF9167
:103EF000CF910895CF93DF9300D0CDB7DEB79091E7
:103F0000380480913904981778F080913804282F6C
:103F100030E080913904882F90E0A901481B590BAB
:103F2000CA019A83898310C080913804282F30E019
:103F300080913904882F90E0A901481B590BCA01D0
:103F400080589F4F9A83898389819A810F900F901F
:103F5000DF91CF910895CF93DF931F92CDB7DEB756
:103F6000898380913904282F30E08981882F90E05F
:103F7000820F931F8F770F90DF91CF910895CF938A
:103F8000DF931F92CDB7DEB789838981882F90E0B8
:103F900083539B4FFC0180810F90DF91CF91089557
:103FA000CF93DF9300D0CDB7DEB786EC90E0FC0175
:103FB00080818983809138048F5F8F778A83809195
:103FC00039049A81981761F080913804882F90E025
:103FD00083539B4F2981FC0120838A81809338047D
:103FE0000F900F90DF91CF910895CF93DF93CDB7CE
:103FF000DEB790913A0480913B04981761F481EC0C
:1040000090E021EC30E0F90120812F7DFC0120833C
:1040100010923C0412C086EC90E020913B04222FC9
:1040200030E0235B3B4FF9012081FC01208380912C
:104030003B048F5F8F7780933B04DF91CF9108958E
:104040001F920F9200905F000F9211242F933F93C5
:104050004F935F936F937F938F939F93AF93BF9390
:10406000EF93FF93CF93DF93CDB7DEB70E94D01FBE
:10407000DF91CF91FF91EF91BF91AF919F918F9180
:104080007F916F915F914F913F912F910F9000928F
:104090005F000F901F9018951F920F9200905F0085
:1040A0000F9211242F933F934F935F936F937F93BE
:1040B0008F939F93AF93BF93EF93FF93CF93DF9330
:1040C000CDB7DEB70E94F51FDF91CF91FF91EF9141
:1040D000BF91AF919F918F917F916F915F914F9120
:1040E0003F912F910F9000925F000F901F901895B5
:1040F000CF93DF9300D0CDB7DEB78A838A818983DF
:104100008981882F90E088709927892B11F088E2A7
:1041100001C088E099819770892B982F88E10FB6AC
:10412000F894A895809360000FBE909360000F9064
:104130000F90DF91CF910895CF93DF93CDB7DEB786
:10414000A895DF91CF910895CF93DF93CDB7DEB7D8
:104150000FB6F894A8958091600088618093600004
:10416000109260000FBEDF91CF910895CF93DF933F
:10417000CDB7DEB780E090E088709927892B11F0E9
:1041800088E201C088E090E09770892B982F88E141
:104190000FB6F894A895809360000FBE90936000CE
:1041A000FFCFEFEFF0E083E08083608381E090E079
:1041B000089581E494E00E944E21EDE3F4E013823F
:1041C000128285E992E0918380830895CF92DF92F5
:1041D000EF92FF920F931F93CF93DF936C017A01BD
:1041E0008B01C0E0D0E0CE15DF0589F0D8016D91DC
:1041F0008D01D601ED91FC910190F081E02DC60179
:104200000995892B11F47E0102C02196ECCFC701DC
:10421000DF91CF911F910F91FF90EF90DF90CF90A2
:1042200008956115710579F0FB0101900020E9F70F
:104230003197AF01461B570BDC01ED91FC910280D9
:10424000F381E02D099480E090E00895DC01ED9188
:10425000FC910190F081E02D099469E972E00C94E1
:104260001121FC0153834283648315820895CF9307
:10427000DF93EC018A819B81009769F06F81611166
:104280000E9426218C81882331F08A819B81DF91D5
:10429000CF910C942D21DF91CF910895FC018CEAF0
:1042A00092E0918380831382128214821582168297
:1042B000178282E090E0918780878AE090E0938780
:1042C000828708955058BB27AA270E947A210C9410
:1042D000ED220E94DF2238F00E94E62220F039F41D
:1042E0009F3F19F426F40C94DC220EF4E095E7FBD2
:1042F0000C94D622E92F0E94FE2258F3BA176207C7
:1043000073078407950720F079F4A6F50C94202311
:104310000EF4E0950B2EBA2FA02D0B01B9019001E0
:104320000C01CA01A0011124FF27591B99F0593F24
:1043300050F4503E68F11A16F040A22F232F342F6C
:104340004427585FF3CF469537952795A795F040BA
:104350005395C9F77EF41F16BA0B620B730B840BCF
:10436000BAF09150A1F0FF0FBB1F661F771F881F87
:10437000C2F70EC0BA0F621F731F841F48F48795DF
:1043800077956795B795F7959E3F08F0B0CF9395D1
:10439000880F08F09927EE0F9795879508950E944A
:1043A000B22208F481E008950E94E8210C94ED22E5
:1043B0000E94E62258F00E94DF2240F029F45F3F7D
:1043C00029F00C94D62251110C9421230C94DC2258
:1043D0000E94FE2268F39923B1F3552391F3951BB4
:1043E000550BBB27AA2762177307840738F09F5F16
:1043F0005F4F220F331F441FAA1FA9F335D00E2E83
:104400003AF0E0E832D091505040E695001CCAF7EF
:104410002BD0FE2F29D0660F771F881FBB1F2617B2
:1044200037074807AB07B0E809F0BB0B802DBF0189
:10443000FF2793585F4F3AF09E3F510578F00C9458
:10444000D6220C9421235F3FE4F3983ED4F3869563
:1044500077956795B795F7959F5FC9F7880F911D79
:104460009695879597F90895E1E0660F771F881F65
:10447000BB1F621773078407BA0720F0621B730B18
:10448000840BBA0BEE1F88F7E09508950E9406236F
:1044900088F09F5798F0B92F9927B751B0F0E1F005
:1044A000660F771F881F991F1AF0BA95C9F714C0B5
:1044B000B13091F00E942023B1E008950C942023A4
:1044C000672F782F8827B85F39F0B93FCCF38695EE
:1044D00077956795B395D9F73EF49095809570954B
:1044E00061957F4F8F4F9F4F0895E89409C097FBC8
:1044F0003EF490958095709561957F4F8F4F9F4FBB
:104500009923A9F0F92F96E9BB279395F6958795FE
:1045100077956795B795F111F8CFFAF4BB0F11F4C1
:1045200060FF1BC06F5F7F4F8F4F9F4F16C0882368
:1045300011F096E911C0772321F09EE8872F762F9E
:1045400005C0662371F096E8862F70E060E02AF0DF
:104550009A95660F771F881FDAF7880F96958795CB
:1045600097F90895990F0008550FAA0BE0E8FEEFA0
:1045700016161706E807F907C0F012161306E40727
:10458000F50798F0621B730B840B950B39F40A2620
:1045900061F0232B242B252B21F408950A2609F4FE
:1045A000A140A6958FEF811D811D089597F99F6702
:1045B00080E870E060E008959FEF80EC08950024AB
:1045C0000A941616170618060906089500240A9478
:1045D00012161306140605060895092E0394000CFE
:1045E00011F4882352F0BB0F40F4BF2B11F460FF8D
:1045F00004C06F5F7F4F8F4F9F4F089557FD9058B6
:10460000440F551F59F05F3F71F04795880F97FB96
:10461000991F61F09F3F79F0879508951216130650
:104620001406551FF2CF4695F1DF08C0161617067F
:104630001806991FF1CF86957105610508940895B4
:10464000E894BB2766277727CB0197F908950E9446
:10465000B22208F48FEF08950E943F230C94ED22BC
:104660000E94DF2238F00E94E62220F0952311F00C
:104670000C94D6220C94DC2211240C9421230E9449
:10468000FE2270F3959FC1F3950F50E0551F629F76
:10469000F001729FBB27F00DB11D639FAA27F00D9B
:1046A000B11DAA1F649F6627B00DA11D661F829FC2
:1046B0002227B00DA11D621F739FB00DA11D621FA7
:1046C000839FA00D611D221F749F3327A00D611DC4
:1046D000231F849F600D211D822F762F6A2F1124A6
:1046E0009F5750409AF0F1F088234AF0EE0FFF1FD9
:1046F000BB1F661F771F881F91505040A9F79E3F30
:10470000510580F00C94D6220C9421235F3FE4F3F2
:10471000983ED4F3869577956795B795F795E79585
:104720009F5FC1F7FE2B880F911D9695879597F98E
:104730000895DB018F939F930E94CB23BF91AF918C
:10474000A29F800D911DA39F900DB29F900D1124EB
:104750000895A1E21A2EAA1BBB1BFD010DC0AA1FC2
:10476000BB1FEE1FFF1FA217B307E407F50720F0DA
:10477000A21BB30BE40BF50B661F771F881F991F55
:104780001A9469F760957095809590959B01AC019E
:10479000BD01CF0108950E94DC23A59F900DB49F19
:1047A000900DA49F800D911D11240895EE0FFF1F01
:1047B0000590F491E02D0994A29FB001B39FC00130
:1047C000A39F700D811D1124911DB29F700D811D3D
:1047D0001124911D0895F999FECF92BD81BDF89ADB
:1047E000992780B50895A8E1B0E042E050E00C942C
:1047F0001324262FF999FECF92BD81BDF89A019717
:1048000000B4021639F01FBA20BD0FB6F894FA9A18
:10481000F99A0FBE08950196272F0E94FA230C944F
:10482000F923DC01CB01FC01F999FECF06C0F2BDF2
:10483000E1BDF89A319600B40D9241505040B8F75E
:064840000895F894FFCF7B
:1048460000004D0580000101010101010100000188
:104856001A00000000000000F60D0101011A000018
:104866000000000001F60D0102011A000000000020
:104876000002F60D0103011A00000000000003F615
:104886000D0110011A00000000000000F60D0211D3
:10489600011A00000000000001F60D0212011A00C4
:1048A600000000000002F60D0213011A00000000CD
:1048B600000003F60D0220011A00000000000000AF
:1048C600F60D0421011A00000000000001F60D0398
:1048D60022011A00000000000002F60D0423011A4E
:1048E60000000000000003F60D039A99593F9A99BB
:1048F600193ECDCC4C3D0000000000000000000039
:10490600A0400000C442CDCC4C3E00010203000191
:1049160002020001007007CF070000E8070101024C
:1049260001000100F607170800000000020101005F
:104936000001003D085008000000000301010000CE
:10494600010064087708000000000401010000016E
:10495600008D08A10800000000050101000001000B
:10496600B308C7080000000006010100000100D9D5
:1049760008EC080000000007010100000100FE0825
:10498600110900000000080101000001002309369A
:1049960009000000000901010000010048095B0947
:1049A60000000000100101000001006D09800900EF
:1049B6000000000A0101000002000000B909000021
:1049C6000000270101000001009209A5090000006E
:1049D6000000000000D120E6200D0A006E616E0086
:1049E600696E66006F76660000000000312137218F
:00000001FF
