:100000000C9435000C945D000C945D000C945D0024
:100010000C945D000C94890F0C945D000C945D00B1
:100020000C945D000C945D000C945D000C945D00DC
:100030000C945D000C945D000C945B110C945D00BD
:100040000C945D000C945D000C94BF1D0C94EB1D92
:100050000C945D000C94BB010C945D000C945D004D
:100060000C945D000C945D00661E11241FBECFEF42
:10007000D8E0DEBFCDBF12E0A0E0B1E0E0E6F3E4FF
:1000800002C005900D92A03AB107D9F725E0A0EA89
:10009000B2E001C01D92AC32B207E1F710E0C5E357
:1000A000D0E004C02197FE010E946321C433D10730
:1000B000C9F70E94CD000C94AE210C940000CF93A0
:1000C000DF93CDB7DEB728970FB6F894DEBF0FBE2B
:1000D000CDBF0E948B1021E0019709F020E0222380
:1000E00021F10E94E1120E94020E0E94361C0E9421
:1000F0006D1CDC01CB0189839A83AB83BC830E9496
:100100007E1CDC01CB018D839E83AF83B8872D815C
:100110003E814F81588589819A81AB81BC81BC0128
:10012000CD010E94511A0E9485130E94E00F28966B
:100130000FB6F894DEBF0FBECDBFDF91CF9108950B
:10014000CF93DF93CDB7DEB70E94E9130E9455022B
:100150000E948B1021E0039709F420E0222311F084
:100160000E94C502DF91CF910895CF93DF93CDB761
:10017000DEB70E948B1021E0019709F020E02223D6
:1001800011F00E941901DF91CF910895CF93DF9371
:10019000CDB7DEB7DF91CF910895CF93DF93CDB781
:1001A000DEB70E949B0F78949091C60281E099235C
:1001B00009F480E0882321F01092C6020E945F00BB
:1001C0009091C70281E0992309F480E0882321F00F
:1001D0001092C7020E94A0009091C80281E099236A
:1001E00009F480E0882321F01092C8020E94B50033
:1001F0009091C90281E0992309F480E0882321F0DD
:100200001092C9020E94C600CFCFCF93DF93CDB723
:10021000DEB78CE790E020E4FC0120838AE790E0E1
:100220002FE8FC01208381E080930601DF91CF91CC
:100230000895CF93DF93CDB7DEB79091060181E0AB
:100240008927882309F01AC0109206011092A8028B
:100250008CE790E02CE730E0F9012081322F307FED
:1002600020E02F70232BFC0120838AE790E02AE70F
:1002700030E0F90120812064FC012083DF91CF91DF
:100280000895CF93DF93CDB7DEB780910601DF915C
:10029000CF910895CF93DF9300D01F92CDB7DEB7F3
:1002A0009B838A838A819B81892BF1F0198219C0F3
:1002B0008981882F90E0880F991F2A813B81820FC6
:1002C000931F2981222F30E0220F331F20563D4FEC
:1002D000F90120813181FC013183208389818F5F85
:1002E00089838981843020F30F900F900F90DF91E4
:1002F000CF910895CF93DF93CDB7DEB78091A80259
:10030000882F90E028E730E0F90120813181880FC3
:10031000991F80569D4FFC01318320838091A80254
:100320008F5F8093A8028091A8028430F0F48CE75C
:1003300090E02CE730E0F9012081422F407F2091AE
:10034000A802222F30E027533E4FF90120812F7061
:10035000242BFC0120838AE790E02AE730E0F901B2
:1003600020812064FC01208303C081E0809306018A
:10037000DF91CF9108951F920F9200905F000F922E
:1003800011242F933F934F935F936F937F938F939A
:100390009F93AF93BF93EF93FF93CF93DF93CDB72B
:1003A000DEB70E947A01DF91CF91FF91EF91BF916B
:1003B000AF919F918F917F916F915F914F913F91FD
:1003C0002F910F9000925F000F901F901895CF9380
:1003D000DF931F92CDB7DEB78983898180930701B0
:1003E0000F90DF91CF910895CF93DF93CDB7DEB714
:1003F00080910701DF91CF910895CF93DF931F92F2
:10040000CDB7DEB789838981809308010F90DF9192
:10041000CF910895CF93DF93CDB7DEB780910801D8
:10042000DF91CF910895CF93DF931F92CDB7DEB7C1
:1004300089838981809309010F90DF91CF9108957D
:10044000CF93DF93CDB7DEB780910901DF91CF91D4
:100450000895CF93DF931F92CDB7DEB7898389814B
:1004600080930A010F90DF91CF910895CF93DF938E
:10047000CDB7DEB780910A01DF91CF910895CF9378
:10048000DF931F92CDB7DEB7898389818093AE0257
:100490000F90DF91CF910895CF93DF93CDB7DEB763
:1004A0008091AE02DF91CF9108950F931F93CF9368
:1004B000DF93CDB7DEB763970FB6F894DEBF0FBEFC
:1004C000CDBF0E94191D9E838D838D819E810C97C7
:1004D00008F450C08BE00E944A1D8F838F810E94D8
:1004E0005E1D8D3009F043C0198212C08981082F2A
:1004F00010E089810E944A1D0E945E1D282FCE01B6
:100500000896800F911FFC01208389818F5F89836A
:1005100089818C3058F31C821A8210C08A81882FFE
:1005200090E09E01285F3F4F820F931FFC01808166
:100530009C81890F8C838A818F5F8A838A818A302C
:1005400068F39A898C81981779F41B8205C00E9400
:10055000CE1C8B818F5F8B838B818C30C0F3CE015F
:1005600008960E94571505C00E94CE1C02C00E942A
:10057000CE1CA7CF63960FB6F894DEBF0FBECDBFDB
:10058000DF91CF911F910F910895CF93DF93CDB756
:10059000DEB78091AF029091B0020A969093B002BC
:1005A0008093AF028091B1029091B2020A9690932B
:1005B000B2028093B1028091B3029091B4020A9684
:1005C0009093B4028093B3028091B5029091B602E9
:1005D0000A969093B6028093B5028091B7029091EB
:1005E000B8020A969093B8028093B70280910701EF
:1005F000882361F08091AF029091B002449730F06F
:100600001092B0021092AF020E944B038091080139
:10061000882361F08091B1029091B202889730F006
:100620001092B2021092B1020E94AF0380910901B0
:10063000882361F08091B3029091B402889730F0E2
:100640001092B4021092B3020E94860480910A01B3
:10065000882369F08091B5029091B60280359105AA
:1006600030F01092B6021092B5020E941A058091E5
:10067000AE02882369F08091B7029091B802883C5D
:10068000910530F01092B8021092B7020E947C05DA
:10069000DF91CF910895CF93DF93CDB7DEB72E973B
:1006A0000FB6F894DEBF0FBECDBF1A828AEA0E9451
:1006B000E71C8A8186558A830E944101882321F0A4
:1006C000CE0107960E944A01198228C08981882F8D
:1006D00090E0880F991F9E012F5F3F4F820F931F5D
:1006E0000696FC01808191819C838B838B818D8315
:1006F0008B819C81892F99278E838D810E94E71C95
:100700009A818D81890F8A838E810E94E71C9A814C
:100710008E81890F8A8389818F5F89838981843063
:10072000A8F28091A9020E94E71C8091A9029A81F7
:10073000890F8A838A810E94E71C8DE00E94E71C52
:100740008091A9028F5F8F708093A9022E960FB6B9
:10075000F894DEBF0FBECDBFDF91CF910895CF9348
:10076000DF93CDB7DEB764970FB6F894DEBF0FBE48
:10077000CDBF1A8219820E94F5169C838B830E943A
:1007800001179E838D830E940D1798878F838F8119
:100790009885CC01A0E0B0E00196A11DB11D880FA5
:1007A000991FAA1FBB1F880F991FAA1FBB1F880F65
:1007B000991FAA1FBB1F9C01AD0180E094E2A4EF2A
:1007C000B0E0BC01CD010E943621DA01C9019A874F
:1007D00089878F819885CC01A0E0B0E0BC01CD0174
:1007E0000E940220DC01CB0124EA30E74DE75FE301
:1007F000BC01CD010E94B920DC01CB01BC01CD01BF
:100800000E94D31FDC01CB019C018B819C8182174C
:10081000930718F081E089830CC08B819C810B9732
:1008200020F08D819E810B9718F482E0898301C0AE
:10083000198282EA0E94E71C8A818E558A838B8105
:100840008B878B819C81892F99278C878B850E9430
:10085000E71C9A818B85890F8A838C850E94E71C0F
:100860009A818C85890F8A838D818D878D819E8168
:10087000892F99278E878D850E94E71C9A818D8507
:10088000890F8A838E850E94E71C9A818E85890F45
:100890008A8389810E94E71C9A818981890F8A83D2
:1008A00089858F8789859A85892F9927888B8F8558
:1008B0000E94E71C9A818F85890F8A8388890E940C
:1008C000E71C9A818889890F8A8380E00E94E71C4F
:1008D0008091AA020E94E71C8091AA029A81890F46
:1008E0008A838A810E94E71C8DE00E94E71C809128
:1008F000AA028F5F8F708093AA0264960FB6F89455
:10090000DEBF0FBECDBFDF91CF910895CF93DF93B0
:10091000CDB7DEB72C970FB6F894DEBF0FBECDBFB4
:100920001A8283EA0E94E71C8A818D558A830E947D
:100930002C189C838B830E9470188D830E945A18F8
:100940008E838B819C81892F99278F838B818887C8
:1009500088850E94E71C9A818885890F8A838F8108
:100960000E94E71C9A818F81890F8A838D81882F4D
:1009700090E0092E000CAA0BBB0BBC01CD010E941C
:100980000420DC01CB0120E030E040E251E4BC0176
:10099000CD010E94B920DC01CB01BC01CD010E9438
:1009A000D31FDC01CB019A87898789858B8789854D
:1009B0009A85892F99278C878B850E94E71C9A81BD
:1009C0008B85890F8A838C850E94E71C9A818C8590
:1009D000890F8A838E810E94E71C9A818E81890FFC
:1009E0008A83198206C080E00E94E71C89818F5F9C
:1009F000898389818330B8F38091AB020E94E71C20
:100A00008091AB029A81890F8A838A810E94E71CB8
:100A10008DE00E94E71C8091AB028F5F8F70809306
:100A2000AB022C960FB6F894DEBF0FBECDBFDF91A0
:100A3000CF910895CF93DF9300D000D000D0CDB7F1
:100A4000DEB71A8284EA0E94E71C8A818C558A8369
:100A500084E10E94B70E8B8385E10E94B70E8C83E0
:100A60008B810E94E71C9A818B81890F8A838C81FC
:100A70000E94E71C9A818C81890F8A830E948618C4
:100A80008D838D810E94E71C9A818D81890F8A83D5
:100A900083E10E94B70E8E838E810E94E71C9A81AB
:100AA0008E81890F8A83198206C080E00E94E71C2C
:100AB00089818F5F898389818430B8F38091AC020A
:100AC0000E94E71C8091AC029A81890F8A838A81F7
:100AD0000E94E71C8DE00E94E71C8091AC028F5FB2
:100AE0008F708093AC0226960FB6F894DEBF0FBECF
:100AF000CDBFDF91CF910895CF93DF93CDB7DEB710
:100B00006F970FB6F894DEBF0FBECDBF0E94AF0E39
:100B10008A871F82198220C08981282F30E04DE00A
:100B2000429FC001439F900D11248E5E9E4FFC0199
:100B30008081882371F08F8191E0980F9F83882FA7
:100B400090E09E012C5E3F4F820F931F2981FC0194
:100B5000208389818F5F898399818A859817E0F244
:100B60008F81882341F5188685EA0E94E71C8885D5
:100B70008B5588871B8206C080E00E94E71C8B8112
:100B80008F5F8B838B818830B8F38091AD020E9498
:100B9000E71C8091AD029885890F888788850E941F
:100BA000E71C8DE00E94E71C8091AD028F5F8F7083
:100BB0008093AD02A8C08F81882F90E00196969512
:100BC00087958B871A829AC0198685EA0E94E71C4E
:100BD00089858B5589871C8275C08A81982F990FCA
:100BE0008C81890F8C879C858F81981708F05CC059
:100BF0008C85882F90E09E012C5E3F4F820F931FC3
:100C0000FC0180818D878D85282F30E04DE0429F4B
:100C1000C001439F900D1124835F9E4FFC01808192
:100C20009181A281B3818E879F87A88BB98B8D8597
:100C3000282F30E04DE0429FC001439F900D1124CA
:100C40008E5E9E4FFC0180818A8B82E08D8321C065
:100C50008D81082E000C990B9C01220F331F220F4F
:100C6000331F220F331F8E859F85A889B98904C041
:100C7000B695A795979587952A95D2F78B8B8B89F3
:100C80000E94E71C99858B89890F89878D81815006
:100C90008D838D818823E4F68A890E94E71C9985DB
:100CA0008A89890F89870BC01E8206C080E00E9456
:100CB000E71C8E818F5F8E838E818430B8F38C81A8
:100CC0008F5F8C838C81823008F487CF8091AD0256
:100CD0000E94E71C8091AD029985890F89878985DB
:100CE0000E94E71C8DE00E94E71C8091AD028F5F9F
:100CF0008F708093AD028A818F5F8A839A818B8502
:100D0000981708F461CF6F960FB6F894DEBF0FBE48
:100D1000CDBFDF91CF910895CF92DF92EF92FF92F6
:100D20000F931F93CF93DF93CDB7DEB72C970FB6FA
:100D3000F894DEBF0FBECDBF9C838B830E940D173E
:100D40009A8389830E94F5169C0140E050E084E676
:100D500090E0DC010E9458217B018C0189819A81FD
:100D60009C0140E050E0C801B7010E943621DA0141
:100D7000C901282F8B819C81FC0120838B819C8160
:100D80008C010F5F1F4F0E9401179C0140E050E053
:100D900084E690E0DC010E9458216B017C0189818E
:100DA0009A819C0140E050E0C701B6010E943621C3
:100DB000DA01C901F80180832C960FB6F894DEBFE2
:100DC0000FBECDBFDF91CF911F910F91FF90EF909C
:100DD000DF90CF900895CF93DF9300D0CDB7DEB7EB
:100DE0009A83898389819A81FC0180810E941917E5
:100DF00089819A810196FC0180810E942F170F90B2
:100E00000F90DF91CF910895CF93DF93CDB7DEB7E9
:100E10000E944418882311F080E001C082E2DF9133
:100E2000CF910895CF93DF9300D000D0CDB7DEB738
:100E30009C838B830E940D179A83898329818B81E0
:100E40009C81FC0120838B819C81019629813A81C0
:100E5000232F3327FC0120830F900F900F900F90CA
:100E6000DF91CF910895CF93DF9300D000D0CDB71D
:100E7000DEB79C838B838B819C810196FC018081F2
:100E8000882F90E0382F22278B819C81FC01808164
:100E9000882F90E0822B932B9A83898389819A8172
:100EA0000E94B0160F900F900F900F90DF91CF918E
:100EB0000895CF93DF9300D0CDB7DEB79A838983AF
:100EC0000E942C18282F89819A81FC0120830F9081
:100ED0000F90DF91CF910895CF93DF9300D0CDB7DE
:100EE000DEB79A83898389819A81FC018081882F6A
:100EF00090E00E941A180F900F90DF91CF91089503
:100F0000CF93DF9300D0CDB7DEB79A8389830E9459
:100F10004418282F89819A81FC0120830F900F901B
:100F2000DF91CF910895CF93DF9300D0CDB7DEB797
:100F30009A83898389819A81FC01908181E0992338
:100F400009F480E00E9437180F900F90DF91CF9145
:100F50000895CF93DF9300D0CDB7DEB79A8389830E
:100F600084E10E94B70E282F89819A81FC01208399
:100F70000F900F90DF91CF910895CF93DF9300D022
:100F8000CDB7DEB79A83898389819A81FC018081FC
:100F90000E9499130F900F90DF91CF910895CF93F6
:100FA000DF9300D0CDB7DEB79A83898385E10E94B5
:100FB000B70E282F89819A81FC0120830F900F9012
:100FC000DF91CF910895CF93DF9300D0CDB7DEB7F7
:100FD0009A83898389819A81FC0180810E94AD1363
:100FE0000F900F90DF91CF910895CF93DF9300D0B2
:100FF000CDB7DEB79A8389830E944C02282F89815E
:101000009A81FC0120830F900F90DF91CF9108957A
:10101000CF93DF9300D0CDB7DEB79A8389838981E0
:101020009A81FC0180810E943F020F900F90DF9116
:10103000CF910895CF93DF9300D0CDB7DEB79A83D9
:1010400089830E942002282F89819A81FC012083B4
:101050000F900F90DF91CF910895CF93DF9300D041
:10106000CDB7DEB79A83898389819A81FC0180811B
:101070000E9413020F900F90DF91CF910895CF93AC
:10108000DF9300D0CDB7DEB79A8389830E940A022E
:10109000282F89819A81FC0120830F900F90DF9186
:1010A000CF910895CF93DF9300D0CDB7DEB79A8369
:1010B000898389819A81FC0180810E94FD010F90C2
:1010C0000F90DF91CF910895CF93DF9300D0CDB7EC
:1010D000DEB79A8389830E943602282F89819A81FC
:1010E000FC0120830F900F90DF91CF910895CF9353
:1010F000DF9300D0CDB7DEB79A83898389819A8147
:10110000FC0180810E9429020F900F90DF91CF9106
:101110000895CF93DF9300D0CDB7DEB79A8389834C
:101120000E94F401282F89819A81FC0120830F906D
:101130000F90DF91CF910895CF93DF9300D0CDB77B
:10114000DEB79A83898389819A81FC0180810E941C
:10115000E7010F900F90DF91CF910895CF93DF9328
:1011600000D0CDB7DEB79A83898389819A81FC014B
:10117000908181E0992309F480E00E94C1130F90CF
:101180000F90DF91CF910895CF93DF93CDB7DEB766
:1011900081E090E090930C0180930B01DF91CF915F
:1011A0000895CF93DF9300D01F92CDB7DEB79B8316
:1011B0008A838A819B81892B09F43EC08A819B8125
:1011C000FC01808189838981882F90E08931910594
:1011D000D1F08A31910534F48131910561F0449761
:1011E00079F025C08E329105C1F081339105D1F09F
:1011F000829771F01CC08A819B810E9422091CC0C9
:101200000E94480919C08A819B810E94570914C015
:101210008A819B810E9474090FC08A819B810E94F0
:10122000810A0AC062E181E30E94620C05C061E1AB
:1012300089810E94620C00000F900F900F90DF9147
:10124000CF910895CF93DF9300D01F92CDB7DEB733
:101250009B838A838A819B81FC0181818983898127
:10126000823061F441E0CE010196BC0181E10E942F
:101270000E0C81E090E00E94731004C062E181E1F5
:101280000E94620C0F900F900F90DF91CF91089504
:10129000CF93DF93CDB7DEB70E94600E40E060E0F1
:1012A00070E084E10E940E0CDF91CF910895CF93FE
:1012B000DF9300D01F92CDB7DEB79B838A838A81EC
:1012C0009B81FC01818189838981823019F40E948C
:1012D000A60E04C062E189E10E94620C0F900F909B
:1012E0000F90DF91CF910895CF93DF93CDB7DEB705
:1012F00063970FB6F894DEBF0FBECDBF9B8B8A8B72
:101300001B828A899B890196FC018081882F90E04D
:10131000382F22278A899B890296FC018081882F99
:1013200090E0822B932B9D838C831982D4C089817A
:10133000282F30E04FE0429FC001439F900D1124C1
:1013400083539E4FFC01208131818C819D81281720
:10135000390709F0BDC08A899B89FC0181818A8790
:101360008A899B89FC0182818B878981282F30E0C3
:101370004FE0429FC001439F900D11248C529E4F1D
:10138000FC0180819181892BA1F08981282F30E097
:101390004FE0429FC001439F900D11248C529E4FFD
:1013A000FC0120813181CE010A960296F90109954E
:1013B00075C08981282F30E04FE0429FC001439FD4
:1013C000900D112488529E4FFC0180819181892BC0
:1013D00009F464C08981282F30E04FE0429FC001AA
:1013E000439F900D112480539E4FFC018081918179
:1013F0000197D9F48981282F30E04FE0429FC00146
:10140000439F900D112488529E4FFC018081918151
:10141000FC01808191819F838E838E818C878E8158
:101420009F81892F99278D8739C08981282F30E0A6
:101430004FE0429FC001439F900D112488529E4F60
:10144000FC0180819181998788871A8217C08A81DF
:10145000882F90E002962A81222F30E04885598516
:10146000240F351FF90140819E01265F3F4F820FF7
:10147000931FFC0140838A818F5F8A838981282F93
:1014800030E04FE0429FC001439F900D11248153F3
:101490009E4FFC0190818A818917C8F28981282F8B
:1014A00030E04FE0429FC001439F900D11248153D3
:1014B0009E4FFC01808122E0280FCE010A96422F28
:1014C000BC0182E20E940E0C81E08B83000007C009
:1014D00089818F5F898389818C3008F428CF9B8133
:1014E00081E08927882321F061E382E20E94620C77
:1014F00063960FB6F894DEBF0FBECDBFDF91CF91DC
:101500000895CF93DF93CDB7DEB764970FB6F89405
:10151000DEBF0FBECDBF9C8B8B8B1B828B899C89C2
:101520000196FC018081882F90E0382F22278B893B
:101530009C890296FC018081882F90E0822B932B5E
:101540009D838C83198254C18981282F30E04FE01C
:10155000429FC001439F900D112483539E4FFC0175
:10156000208131818C819D812817390709F03DC187
:101570008981282F30E04FE0429FC001439F900DAA
:1015800011248E529E4FFC01808191810197A9F018
:101590008981282F30E04FE0429FC001439F900D8A
:1015A00011248E529E4FFC0180819181029729F077
:1015B00062E28EE20E94620C28C18981282F30E00D
:1015C0004FE0429FC001439F900D112486529E4FD1
:1015D000FC0180819181892BD1F08981282F30E015
:1015E0004FE0429FC001439F900D112486529E4FB1
:1015F000FC0180819181FC0109958E838E81882375
:1016000031F06E818EE20E94620C0000FEC0898182
:10161000282F30E04FE0429FC001439F900D1124DE
:101620008A529E4FFC0180819181892BA1F0898192
:10163000282F30E04FE0429FC001439F900D1124BE
:101640008A529E4FFC01208131818B899C890396AF
:10165000F901099582C08981282F30E04FE0429F2F
:10166000C001439F900D112488529E4FFC01808140
:101670009181892B09F471C08981282F30E04FE0D6
:10168000429FC001439F900D112480539E4FFC0147
:1016900080819181019741F58B899C890496FC0199
:1016A0008081882F90E0382F22278B899C89039690
:1016B000FC018081882F90E0822B932B98878F8369
:1016C0008981282F30E04FE0429FC001439F900D59
:1016D000112488529E4FFC01808191812F81388591
:1016E000FC013183208339C08981282F30E04FE00D
:1016F000429FC001439F900D112488529E4FFC01D0
:10170000808191819A8789871A8217C08A81882F60
:1017100090E029853A85820F931F2A81222F30E09D
:101720002D5F3F4F4B895C89240F351FF9012081C4
:10173000FC0120838A818F5F8A838981282F30E092
:101740004FE0429FC001439F900D112481539E4F53
:10175000FC0190818A818917C8F28B899C89FC01E0
:1017600081818B878B899C89FC0182818C8789810F
:10177000282F30E04FE0429FC001439F900D11247D
:101780008C529E4FFC0180819181892BA1F089812F
:10179000282F30E04FE0429FC001439F900D11245D
:1017A0008C529E4FFC0120813181CE010B96029616
:1017B000F901099501C01D868981282F30E04FE08D
:1017C000429FC001439F900D112481539E4FFC0105
:1017D000808122E0280FCE010B96422FBC018EE2C1
:1017E0000E940E0C81E08B8307C089818F5F898303
:1017F00089818C3008F4A8CE9B8181E089278823D9
:1018000021F061E38EE20E94620C64960FB6F894B8
:10181000DEBF0FBECDBFDF91CF910895CF93DF9391
:10182000CDB7DEB728970FB6F894DEBF0FBECDBF99
:101830008D837F836E8348871B828D81805C8C8340
:101840008C810E94E71C9B818C81890F8B8319827C
:101850001AC08981882F90E02E813F81820F931FCB
:10186000FC0180810E94E71C8981882F90E02E81F5
:101870003F81820F931FFC0180819B81890F8B83A5
:1018800089818F5F898399818885981710F388856E
:101890008A8306C080E00E94E71C8A818F5F8A836A
:1018A0008A818930B8F38B810E94E71C8DE00E9409
:1018B000E71C28960FB6F894DEBF0FBECDBFDF91B0
:1018C000CF910895CF93DF9300D000D0CDB7DEB78E
:1018D0008B836C831A828FE70E94E71C8A81815870
:1018E0008A838B810E94E71C9A818B81890F8A836E
:1018F0008C810E94E71C9A818C81890F8A831982CE
:1019000006C080E00E94E71C89818F5F89838981FE
:101910008730B8F38A810E94E71C8DE00E94E71CA3
:101920000F900F900F900F90DF91CF910895CF936C
:10193000DF931F92CDB7DEB7198238C08981282F77
:1019400030E04DE0429FC001439F900D11248F5E17
:101950009E4FFC0110828981282F30E04DE0429F8C
:10196000C001439F900D11248E5E9E4FFC0110829A
:101970008981282F30E04DE0429FC001439F900DA8
:1019800011248D5E9E4FFC0110828981282F30E04A
:101990004DE0429FC001439F900D11248C5E9E4FED
:1019A000FC011182108289818F5F898389818C304B
:1019B00028F20F90DF91CF910895CF93DF93CDB7A9
:1019C000DEB72A970FB6F894DEBF0FBECDBF89876A
:1019D0006A87CE0101960E944A018A85823091F47D
:1019E0008985882F90E0880F991F9E012F5F3F4FB8
:1019F000820F931FFC0180819181892B09F061C0C6
:101A000081E060C08A85813099F48985882F90E0D3
:101A1000880F991F9E012F5F3F4F820F931FFC017C
:101A2000808191818F3F934009F04BC081E04AC093
:101A30008A85833011F58985882F90E0880F991F5A
:101A40009E012F5F3F4F820F931FFC018081918188
:101A50008B329340B0F18985882F90E0880F991FD1
:101A60009E012F5F3F4F820F931FFC018081918168
:101A70008F3F934031F181E025C08A85843009F59C
:101A80008985882F90E0880F991F9E012F5F3F4F17
:101A9000820F931FFC01808191818039914088F4ED
:101AA0008985882F90E0880F991F9E012F5F3F4FF7
:101AB000820F931FFC0180819181892B11F081E0BD
:101AC00001C080E02A960FB6F894DEBF0FBECDBFEE
:101AD000DF91CF910895CF93DF93CDB7DEB72B97EA
:101AE0000FB6F894DEBF0FBECDBF9A8789876B878C
:101AF00089859A85892B09F47CC08B85882309F414
:101B00004DC089859A85FC018681843650F489858B
:101B10009A85FC01868121E0280F89859A85FC0140
:101B2000268389859A85FC018481882329F4898507
:101B30009A8521E0FC01248389859A85FC018481B2
:101B4000813009F056C089859A85FC0186818436EA
:101B500008F44FC089859A8522E0FC012483898599
:101B60009A8522E0FC012583CE0101960E944A015C
:101B700089859A85FC018185882F90E0880F991FBF
:101B80009E012F5F3F4F820F931FFC012081318107
:101B900089859A85FC01308727832BC089859A85A2
:101BA000FC018681882359F089859A85FC0186810C
:101BB0002FEF280F89859A85FC0126831AC0898515
:101BC0009A85FC018481823051F489859A85FC01D3
:101BD000148289859A8521E0FC0125830AC08985C4
:101BE0009A85FC018481813021F489859A85FC01E4
:101BF00014822B960FB6F894DEBF0FBECDBFDF91D7
:101C0000CF910895CF93DF9300D0CDB7DEB719827F
:101C10004EC01A828981282F30E04DE0429FC001DA
:101C2000439F900D1124895E9E4FFC01808191811C
:101C3000892B61F18981282F30E04DE0429FC0015E
:101C4000439F900D1124895E9E4FFC0120813181BC
:101C50008981482F50E06DE0649FC001659F900D21
:101C60001124875E9E4FFC0170818981482F50E0CE
:101C70006DE0649FC001659F900D11248A5E9E4FA8
:101C8000FC018081672FF90109958A838981282FBA
:101C900030E04DE0429FC001439F900D1124835FCF
:101CA0009E4F6A810E946B0D89818F5F8983898134
:101CB0008C3008F4AECF0F900F90DF91CF91089544
:101CC000CF93DF931F92CDB7DEB7198238C08981D9
:101CD000282F30E04DE0429FC001439F900D11241A
:101CE0008F5E9E4FFC0110828981282F30E04DE0ED
:101CF000429FC001439F900D11248E5E9E4FFC01B8
:101D000010828981282F30E04DE0429FC001439F1F
:101D1000900D11248D5E9E4FFC0110828981282F29
:101D200030E04DE0429FC001439F900D11248C5E36
:101D30009E4FFC011182108289818F5F8983898186
:101D40008C3028F20F90DF91CF910895CF93DF93DD
:101D5000CDB7DEB70E947C05DF91CF910895CF9378
:101D6000DF93CDB7DEB78CE0DF91CF910895CF93AD
:101D7000DF9300D000D0CDB7DEB78C8319828C8181
:101D800082958F708A838C818F708B838A81882360
:101D9000A9F483E290E0FC018081882F90E02B8100
:101DA000222F30E002C0969587952A95E2F7817040
:101DB0009927892BD1F081E0898317C08A818130EE
:101DC000A1F489E290E0FC018081882F90E02B81D2
:101DD000222F30E002C0969587952A95E2F7817010
:101DE0009927892B11F081E0898389810F900F90C9
:101DF0000F900F90DF91CF910895CF93DF9300D094
:101E000000D0CDB7DEB78B836C838B8182958F70CA
:101E100089838B818F708A838981882361F58C8186
:101E20008130A1F485E290E025E230E0F9016081A3
:101E30002A81422F50E021E030E002C0220F331F00
:101E40004A95E2F7262BFC01208343C085E290E00F
:101E500025E230E0F90160812A81422F50E021E043
:101E600030E002C0220F331F4A95E2F72095262367
:101E7000FC0120832EC08981813059F58C8181300D
:101E8000A1F48BE290E02BE230E0F90160812A813D
:101E9000422F50E021E030E002C0220F331F4A956C
:101EA000E2F7262BFC01208314C08BE290E02BE2AA
:101EB00030E0F90160812A81422F50E021E030E0DA
:101EC00002C0220F331F4A95E2F720952623FC011A
:101ED00020830F900F900F900F90DF91CF91089576
:101EE000CF93DF93CDB7DEB788E690E028E630E009
:101EF000F90120812460FC0120838DE690E02DE62D
:101F000030E0F90120812460FC012083DF91CF9132
:101F100008951F920F9200905F000F921124CF93AB
:101F2000DF93CDB7DEB7DF91CF910F9000925F00C6
:101F30000F901F901895CF93DF931F92CDB7DEB708
:101F40000E948B150E94700F0E94311482E10E9442
:101F5000B70E982F81E0913009F080E089830E94CC
:101F6000970C0E9459140E949A1460E071EE80E070
:101F700090E00E948F1C0E94C4080E9405010E94EC
:101F8000C5100E9457170E94C81587E00E94171EAF
:101F900078948981882339F081E090E09093BA02A7
:101FA0008093B90209C081E08093BD0282E090E095
:101FB0009093BA028093B9020F90DF91CF91089568
:101FC000EF92FF920F931F93CF93DF93CDB7DEB7BE
:101FD0008091B9029091BA028130910559F0813017
:101FE000910508F478C082309105E1F1039709F476
:101FF0005CC069C00E943B1E8091BB029091BC02F4
:10200000892B39F082E090E09093BA028093B90274
:1020100028C08091BD02882321F12091C202309115
:10202000C3024091C4025091C5028091BE029091BA
:10203000BF02A091C002B091C10279018A01E81AE1
:10204000F90A0A0B1B0BD801C70180319742A10581
:10205000B10538F082E090E09093BA028093B90223
:102060003BC03AC060E080E00E94521660E084E12C
:102070000E94FD0E60E085E10E94FD0E0E940D159C
:102080008091BB029091BC02019719F40E94431EFB
:102090000BC08091BD02882339F083E090E09093DB
:1020A000BA028093B90218C017C09091BD0281E0B6
:1020B0008927882339F081E090E09093BA028093D9
:1020C000B9020AC009C081E090E09093BA028093FF
:1020D000B902000001C00000DF91CF911F910F9164
:1020E000FF90EF900895CF93DF9300D0CDB7DEB788
:1020F0009A8389838091B9029091BA02019731F451
:1021000089819A819093BC028093BB020F900F90BB
:10211000DF91CF910895CF93DF93CDB7DEB7809154
:10212000B9029091BA02DF91CF910895CF93DF93D6
:10213000CDB7DEB78091B9029091BA020197C9F488
:102140009091BD0281E08927882399F081E08093F6
:10215000BD028091C2029091C302A091C402B091CD
:10216000C5028093BE029093BF02A093C002B093B9
:10217000C102DF91CF910895CF93DF93CDB7DEB742
:102180001092BD02DF91CF910895CF93DF93CDB729
:10219000DEB784E490E022E0FC01208387E490E055
:1021A00029EFFC01208385E490E023E0FC012083FB
:1021B0008EE690E022E0FC012083DF91CF9108952C
:1021C000CF93DF93CDB7DEB78091C2029091C30267
:1021D000A091C402B091C5020196A11DB11D8093CA
:1021E000C2029093C302A093C402B093C502DF91D0
:1021F000CF910895CF93DF93CDB7DEB78091CA0218
:102200009091CB0201969093CB028093CA02809169
:10221000CC029091CD0201969093CD028093CC0296
:102220008091CE029091CF0201969093CF0280933D
:10223000CE028091D0029091D10201969093D1026A
:102240008093D0028091CA029091CB020A9738F015
:102250001092CB021092CA0281E08093C602809154
:10226000CC029091CD02C29738F01092CD0210921C
:10227000CC0281E08093C7028091CE029091CF0280
:102280008436910538F01092CF021092CE0281E090
:102290008093C8028091D0029091D102843F9140F6
:1022A00038F01092D1021092D00281E08093C902DE
:1022B000DF91CF9108951F920F9200905F000F92CF
:1022C00011242F933F934F935F936F937F938F933B
:1022D0009F93AF93BF93EF93FF93CF93DF93CDB7CC
:1022E000DEB70E94E0100E94FA10DF91CF91FF91BB
:1022F000EF91BF91AF919F918F917F916F915F917E
:102300004F913F912F910F9000925F000F901F907F
:102310001895CF92DF92EF92FF92CF93DF9300D088
:1023200000D000D0CDB7DEB79A8389834B835C831E
:102330006D837E8389819A818E5B9F4FFC018081B2
:102340009181A281B38129813A81205C3F4FF901BB
:102350002081222F30E049815A81220F331F220F22
:10236000331F240F351FF9012081318142815381B0
:10237000BC01CD010E94EF1EDC01CB0129813A8115
:102380002E5B3F4FF90180839183A283B3838981C0
:102390009A81805C9F4FFC018081882F90E0298189
:1023A0003A81880F991F880F991F280F391F8B8139
:1023B0009C81AD81BE81F90180839183A283B38327
:1023C00089819A818E5B9F4FFC0180819181A281DE
:1023D000B3812B813C814D815E81BC01CD010E9486
:1023E000F01EDC01CB0129813A812E5B3F4FF901C0
:1023F00080839183A283B38389819A81805C9F4F7C
:10240000FC0180818F5F282F2F7089819A81805CE9
:102410009F4FFC01208389819A818F5B9F4FFC0134
:102420008081803170F489819A818F5B9F4FFC019C
:10243000808121E0280F89819A818F5B9F4FFC0169
:10244000208389819A818E5B9F4FFC01C080D1805F
:10245000E280F38089819A818F5B9F4FFC018081AC
:10246000882F90E0A0E0B0E0BC01CD010E940220E6
:10247000DC01CB019C01AD01C701B6010E94611FC7
:10248000DC01CB01BC01CD0126960FB6F894DEBF6E
:102490000FBECDBFDF91CF91FF90EF90DF90CF9037
:1024A0000895CF93DF9300D000D000D0CDB7DEB732
:1024B0009E838D838D819E81CC01A0E0B0E0BC0124
:1024C000CD010E940220DC01CB0120E030EC4FE77F
:1024D00054E4BC01CD010E94611FDC01CB0120E06E
:1024E00030E040EA50E4BC01CD010E94B920DC019B
:1024F000CB0189839A83AB83BC8320E030E040E248
:1025000050E469817A818B819C810E94EF1EDC01FD
:10251000CB0122E03BE247E85DE3BC01CD010E9434
:10252000611FDC01CB01BC01CD0126960FB6F894EA
:10253000DEBF0FBECDBFDF91CF910895CF93DF9364
:1025400000D000D000D0CDB7DEB79E838D838D81C3
:102550009E81CC01A0E0B0E0BC01CD010E94022030
:10256000DC01CB0120E030EC4FE754E4BC01CD01AD
:102570000E94611FDC01CB0120E030E040EA50E422
:10258000BC01CD010E94B920DC01CB0189839A8373
:10259000AB83BC8320E030E040E451E469817A8180
:1025A0008B819C810E94B920DC01CB01BC01CD0153
:1025B00026960FB6F894DEBF0FBECDBFDF91CF9148
:1025C0000895CF93DF93CDB7DEB7A8970FB6F894F1
:1025D000DEBF0FBECDBF0E944101882309F48CC02D
:1025E000CE0181960E944A0189A19AA10E945112AE
:1025F000DC01CB0189839A83AB83BC8389819A8177
:10260000AB81BC81AC01BD0182ED92E00E948911D9
:10261000DC01CB018D839E83AF83B8878D819E8142
:10262000AF81B885BC01CD010E9462178BA19CA12E
:102630000E949E12DC01CB0189879A87AB87BC87F9
:1026400089859A85AB85BC85AC01BD0188E193E0A5
:102650000E948911DC01CB018D879E87AF87B88BE3
:102660008D859E85AF85B889BC01CD010E949017EC
:102670008DA19EA10E945112DC01CB01898B9A8B06
:10268000AB8BBC8B89899A89AB89BC89AC01BD01B4
:102690008EE593E00E948911DC01CB018D8B9E8B2E
:1026A000AF8BB88F8D899E89AF89B88DBC01CD0164
:1026B0000E94BE178FA198A50E949E12DC01CB013B
:1026C000898F9A8FAB8FBC8F898D9A8DAB8DBC8D86
:1026D000AC01BD0184EA93E00E948911DC01CB01C9
:1026E0008D8F9E8FAF8FB8A38D8D9E8DAF8DB8A12E
:1026F000BC01CD010E94EC17A8960FB6F894DEBF7E
:102700000FBECDBFDF91CF910895CF93DF9300D05F
:10271000CDB7DEB70E94261789830E943C178A83B3
:102720006A8189810E9452160F900F90DF91CF919C
:102730000895CF93DF931F92CDB7DEB78983898148
:10274000882311F081E001C080E0682F84E10E94BD
:10275000FD0E0F90DF91CF910895CF93DF931F92DD
:10276000CDB7DEB789838981882311F081E001C06C
:1027700080E0682F85E10E94FD0E0F90DF91CF91E0
:102780000895CF93DF931F92CDB7DEB789838981F8
:102790008093EA0389818093EB0383E08093EC03C9
:1027A0008981882311F081E001C080E0682F83E1F6
:1027B0000E94FD0E89810E9479188981882319F071
:1027C0000E94BC1002C00E9496100F90DF91CF9122
:1027D0000895CF93DF931F92CDB7DEB782E10E94B9
:1027E000B70E982F81E0913009F080E089838091C5
:1027F000EB039981981751F48091EC03833060F4D6
:102800008091EC038F5F8093EC0306C089818093F5
:10281000EB0381E08093EC038091EC038330E8F0DC
:102820008091EA0399819817C1F089818093EA0326
:102830008981882311F081E001C080E0682F83E165
:102840000E94FD0E89810E9479188981882319F0E0
:102850000E94BC1002C00E9496100F90DF91CF9191
:102860000895CF93DF931F92CDB7DEB782E10E9428
:10287000B70E982F81E0913009F080E0898389813B
:102880008093EB0389818093EA0383E08093EC03D8
:102890008981882311F081E001C080E0682F83E105
:1028A0000E94FD0E89810E9479180F90DF91CF91CF
:1028B0000895CF93DF9300D000D0CDB7DEB780E08E
:1028C00090E00E9480219B838A838A819B818B3543
:1028D000954A49F16BE575EA80E090E00E94982105
:1028E0006AEF70E082E090E00E9498216CE084E062
:1028F00090E00E94862160E085E090E00E948621C1
:102900000E94AF0E8C8319820AC08981882F90E0C3
:10291000069660E00E94862189818F5F8983998174
:102920008C81981790F30F900F900F900F90DF917C
:10293000CF910895CF93DF93CDB7DEB727970FB62A
:10294000F894DEBF0FBECDBF82E090E00E948021F0
:102950009B838A8384E090E00E9478218C8385E0C9
:1029600090E00E947821982F81E0992309F480E07B
:102970008D838A819B81019621F484E690E09B837C
:102980008A838C818F3F11F48CE08C838A819B81B8
:102990000E9445178C81882F90E00E941A188D8123
:1029A0000E9437180E94AF0E8E83198229C0898138
:1029B000882F90E006960E9478218F838981282FA6
:1029C00030E04DE0429FC001439F900D11248E5E88
:1029D0009E4F2F81FC0120838F81882371F0898194
:1029E000282F30E04DE0429FC001439F900D1124FD
:1029F0008F5E9E4F22E0FC01208389818F5F898357
:102A000099818E81981798F227960FB6F894DEBFB9
:102A10000FBECDBFDF91CF910895CF93DF9300D04C
:102A2000CDB7DEB76BE575EA80E090E00E949821B3
:102A30000E945717BC0182E090E00E9498210E94FA
:102A40002C18682F84E090E00E9486210E94441890
:102A5000882311F081E001C080E0682F85E090E0DC
:102A60000E9486210E94AF0E8A83198217C0898135
:102A7000282F30E04DE0429FC001439F900D11246C
:102A80008E5E9E4FFC0120818981882F90E0069602
:102A9000622F0E94862189818F5F898399818A8133
:102AA000981728F30F900F90DF91CF910895CF934F
:102AB000DF9300D01F92CDB7DEB79B838A838A81D4
:102AC0009B81892B11F18A819B81FC018081898303
:102AD0008981882F90E08931910591F08A319105A3
:102AE00034F48131910561F0449751F00EC08E327B
:102AF000910531F08133910519F0829709F005C0F5
:102B00008A819B810E94D10800000F900F900F9046
:102B1000DF91CF910895CF93DF93CDB7DEB784E2F5
:102B200090E024E230E0F90120812660FC0120835E
:102B30008AE290E02AE230E0F90120812063FC0182
:102B400020838BE290E02BE230E0F90120812F7CA2
:102B5000FC0120838AE290E02AE230E0F901208142
:102B60002B7FFC0120838AE290E02AE230E0F90129
:102B700020812860FC0120838BE290E02BE230E092
:102B8000F9012081277FFC012083DF91CF910895F7
:102B90000F931F93CF93DF93CDB7DEB728970FB670
:102BA000F894DEBF0FBECDBF9C838B838B819C814D
:102BB000CC01A0E0B0E0880F991FAA1FBB1F880FAF
:102BC000991FAA1FBB1F880F991FAA1FBB1F9C011B
:102BD000AD0180E094E2A4EFB0E0BC01CD010E9421
:102BE0003621DA01C90101979A83898386E890E04A
:102BF00029813A81FC013183208380E890E022EA38
:102C0000FC01208381E890E02AE1FC01208308E8B0
:102C100010E089819A81CC01A0E0B0E0BC01CD0137
:102C20000E940220DC01CB0128E431EE4AE75FE399
:102C3000BC01CD010E94B920DC01CB01BC01CD015A
:102C40000E94D31FDC01CB01F801918380830AE845
:102C500010E089819A81CC01A0E0B0E0BC01CD01F7
:102C60000E940220DC01CB0128E431EE4AE75FE359
:102C7000BC01CD010E94B920DC01CB01BC01CD011A
:102C80000E94D31FDC01CB01F80191838083289639
:102C90000FB6F894DEBF0FBECDBFDF91CF911F916D
:102CA0000F9108950F931F93CF93DF93CDB7DEB7A6
:102CB0002C970FB6F894DEBF0FBECDBF8B836C830D
:102CC00086E890E0FC01808191819A83898308E8FD
:102CD00010E089819A819C0140E050E08B81882F2F
:102CE00090E0A0E0B0E0BC01CD010E942621DC0113
:102CF000CB0124E630E040E050E0BC01CD010E9471
:102D00003621DA01C901F801918380830AE810E0D5
:102D100089819A819C0140E050E08C81882F90E06D
:102D2000A0E0B0E0BC01CD010E942621DC01CB0176
:102D300024E630E040E050E0BC01CD010E943621A5
:102D4000DA01C901F801918380832C960FB6F894BB
:102D5000DEBF0FBECDBFDF91CF911F910F910895C0
:102D60000F931F93CF93DF9300D000D000D0CDB747
:102D7000DEB79A83898389819A81892B59F1898168
:102D80009A814F9720F48FE190E09A83898306E837
:102D900010E089819A81CC01A0E0B0E0880F991FF2
:102DA000AA1FBB1F880F991FAA1FBB1F880F991F3F
:102DB000AA1FBB1F9C01AD0180E094E2A4EFB0E02C
:102DC000BC01CD010E943621DA01C9010197F80149
:102DD0009183808326960FB6F894DEBF0FBECDBFD9
:102DE000DF91CF911F910F910895CF93DF93CDB7CE
:102DF000DEB788E890E0FC0180819181DF91CF917E
:102E00000895CF93DF93CDB7DEB78AE890E0FC0159
:102E100080819181DF91CF910895CF93DF93CDB7DA
:102E2000DEB786E890E0FC0180819181DF91CF914F
:102E30000895CF93DF931F92CDB7DEB78983898141
:102E40008093ED030F90DF91CF910895CF93DF939F
:102E5000CDB7DEB78091ED03DF91CF910895CF9389
:102E6000DF931F92CDB7DEB7898389818093EE030C
:102E70000F90DF91CF910895CF93DF93CDB7DEB759
:102E80008091EE03DF91CF910895CF93DF9300D02F
:102E9000CDB7DEB79A83898389819A819093F003B5
:102EA0008093EF030F900F90DF91CF910895CF9310
:102EB000DF93CDB7DEB78091EF039091F003DF9100
:102EC000CF910895CF93DF9300D000D0CDB7DEB778
:102ED00069837A838B839C8389819A81AB81BC814E
:102EE0008093F1039093F203A093F303B093F40360
:102EF0000F900F900F900F90DF91CF910895CF9387
:102F0000DF93CDB7DEB78091F1039091F203A091EA
:102F1000F303B091F403BC01CD01DF91CF9108958B
:102F2000CF93DF9300D000D0CDB7DEB769837A832B
:102F30008B839C8389819A81AB81BC818093F503CB
:102F40009093F603A093F703B093F8030F900F90BC
:102F50000F900F90DF91CF910895CF93DF93CDB76E
:102F6000DEB78091F5039091F603A091F703B0913D
:102F7000F803BC01CD01DF91CF910895CF93DF938A
:102F800000D000D0CDB7DEB769837A838B839C8372
:102F900089819A81AB81BC818093F9039093FA0374
:102FA000A093FB03B093FC030F900F900F900F9032
:102FB000DF91CF910895CF93DF93CDB7DEB78091A6
:102FC000F9039091FA03A091FB03B091FC03BC01BB
:102FD000CD01DF91CF910895CF93DF9300D000D042
:102FE000CDB7DEB769837A838B839C8389819A818D
:102FF000AB81BC818093FD039093FE03A093FF03FC
:10300000B09300040F900F900F900F90DF91CF912D
:103010000895CF93DF93CDB7DEB78091FD039091F4
:10302000FE03A091FF03B0910004BC01CD01DF912C
:10303000CF910895CF93DF9300D0CDB7DEB79A83B9
:10304000898389819A8190930204809301040F906F
:103050000F90DF91CF910895CF93DF93CDB7DEB777
:103060008091010490910204DF91CF910895CF9354
:10307000DF931F92CDB7DEB78983898180930304E4
:103080000F90DF91CF910895CF93DF93CDB7DEB747
:1030900080910304DF91CF910895CF93DF931F9226
:1030A000CDB7DEB789838981809304040F90DF91C7
:1030B000CF910895CF93DF93CDB7DEB7809104040D
:1030C000DF91CF910895CF93DF931F92CDB7DEB7F5
:1030D00089838981809305040F90DF91CF910895B2
:1030E000CF93DF93CDB7DEB780910504DF91CF9109
:1030F0000895CF93DF931F92CDB7DEB7898389817F
:10310000809306040F90DF91CF910895CF93DF93C2
:10311000CDB7DEB780910604DF91CF910895CF92AD
:10312000DF92EF92FF920F931F93CF93DF93CDB770
:10313000DEB7A4970FB6F894DEBF0FBECDBF988F51
:103140008F8B498F5A8F6B8F7C8F0D8F1E8F2F8F98
:1031500038A3C9A2DAA2EBA2FCA22D8D3E8D4F8D21
:1031600058A1698D7A8D8B8D9C8D0E94EF1EDC019C
:10317000CB0189839A83AB83BC838F89988DFC01B3
:10318000848D958DA68DB78DB05829813A814B815C
:103190005C81BC01CD010E945C1F8823ACF48F8947
:1031A000988DFC01848D958DA68DB78D29813A81EE
:1031B0004B815C81BC01CD010E94B420181624F41F
:1031C00019821A821B821C828F89988DFC01808152
:1031D0009181A281B38129813A814B815C81BC01BB
:1031E000CD010E94B920DC01CB018D879E87AF877E
:1031F000B88B1D821E821F82188620E030E0A90154
:1032000069A17AA18BA19CA10E94B420181674F523
:103210008F89988DFC01C084D184E284F3848F89E6
:10322000988DFC0184859585A685B7859C01AD01A7
:1032300069817A818B819C810E94EF1EDC01CB0128
:103240009C01AD01C701B6010E94B920DC01CB0190
:1032500029A13AA14BA15CA1BC01CD010E94611F33
:10326000DC01CB018D839E83AF83B8872F89388D96
:1032700089819A81AB81BC81F90184879587A68772
:10328000B7878F89988DFC0180899189A289B3893C
:103290002D853E854F855889BC01CD010E94F01EC9
:1032A000DC01CB012D813E814F815885BC01CD01D0
:1032B0000E94F01EDC01CB01898B9A8BAB8BBC8BFF
:1032C0008F89988DFC01808D918DA28DB38D298978
:1032D0003A894B895C89BC01CD010E945C1F18169C
:1032E00074F020E030E0A90169817A818B819C81B2
:1032F0000E94B42018161CF481E090E002C080E027
:1033000090E08D8B8D8981708D8B8F89988DFC01DC
:1033100084899589A689B78929893A894B895C89E5
:10332000BC01CD010E94B420882374F020E030E07D
:10333000A90169817A818B819C810E945C1F88230D
:103340001CF481E090E002C080E090E08E8B8E89DA
:1033500081708E8B9D8981E089278823B1F19E89B8
:1033600081E08927882389F18F89988DFC01C088A5
:10337000D188E288F3888F89988DFC0184819581BA
:10338000A681B78129813A814B815C81BC01CD0145
:103390000E94B920DC01CB0129A13AA14BA15CA17B
:1033A000BC01CD010E94B920DC01CB019C01AD0123
:1033B000C701B6010E94F01EDC01CB012F89388DB8
:1033C000F901808B918BA28BB38B8F89988DFC0137
:1033D00080899189A289B3892D853E854F85588939
:1033E000BC01CD010E94F01EDC01CB012D813E818C
:1033F0004F815885BC01CD010E94F01EDC01CB013C
:1034000089879A87AB87BC878F89988DFC01808DCF
:10341000918DA28DB38D29853A854B855C85BC0144
:10342000CD010E945C1F88235CF48F89988DFC017C
:10343000808D918DA28DB38D89879A87AB87BC874C
:103440008F89988DFC0184899589A689B7892985FA
:103450003A854B855C85BC01CD010E94B4201816CD
:103460005CF48F89988DFC0184899589A689B78938
:1034700089879A87AB87BC8789859A85AB85BC8508
:10348000BC01CD01A4960FB6F894DEBF0FBECDBF30
:10349000DF91CF911F910F91FF90EF90DF90CF9030
:1034A0000895CF92DF92EF92FF920F931F93CF93E5
:1034B000DF93CDB7DEB7A1970FB6F894DEBF0FBE8E
:1034C000CDBF6A8F7B8F8C8F9D8F2E8F3F8F48A3B0
:1034D00059A32AE939E949E95EE36A8D7B8D8C8D30
:1034E0009D8D0E94EF1EDC01CB012E8D3F8D48A1EA
:1034F00059A1BC01CD010E945C1F1816D4F02AE925
:1035000039E949E95EE36A8D7B8D8C8D9D8D0E9442
:10351000F01EDC01CB012E8D3F8D48A159A1BC01CD
:10352000CD010E94B420882324F080E00E944D1831
:1035300013C02A8D3B8D4C8D5D8D6E8D7F8D88A146
:1035400099A10E945C1F882324F481E00E944D18F9
:1035500003C082E00E944D180E9444188B870E948D
:103560002C189D878C878C859D85CC01A0E0B0E0D0
:10357000BC01CD010E940220DC01CB018E879F8718
:10358000A88BB98B9B8581E08927882309F45FC1CB
:1035900082E6898382E68A8320E030E040E050E4DE
:1035A0006E8D7F8D88A199A10E945C1F8823ACF449
:1035B00082E6898382E68A831092B9011092BA0169
:1035C0001092BB011092BC011092B5011092B6018D
:1035D0001092B7011092B80134C12AE939E949E9DA
:1035E0005EE36A8D7B8D8C8D9D8D0E94EF1EDC01CC
:1035F000CB012E853F8548895989BC01CD010E94A8
:103600005C1F18165CF12AE939E949E95EE36A8D25
:103610007B8D8C8D9D8D0E94F01EDC01CB012E8553
:103620003F8548895989BC01CD010E94B420882377
:10363000ACF082E6898382E68A831092B901109207
:10364000BA011092BB011092BC011092B501109208
:10365000B6011092B7011092B801F3C02A8D3B8DCC
:103660004C8D5D8D6E857F85888999890E94B420F7
:1036700018160CF06DC082E689832E8D3F8D48A10F
:1036800059A18E859F85A889B9890F2EFDECCF2E73
:10369000FCECDF2EED2CFDE3FF2EF02D89019A01CD
:1036A000AC01BD0189EA91E00E948F18DC01CB01D9
:1036B0008A8B9B8BAC8BBD8B6A897B898C899D891E
:1036C0000E94D31FDC01CB010E9463182A893B8929
:1036D0004C895D8960E070E084EC92E40E94EF1E0A
:1036E000DC01CB018B839C83AD83BE8320E030E083
:1036F00044EC52E46B817C818D819E810E94B420D8
:10370000181644F480E090E0A4ECB2E48B839C8330
:10371000AD83BE8320E030E040EA50E46B817C81E1
:103720008D819E810E945C1F882344F480E090E09C
:10373000A0EAB0E48B839C83AD83BE836B817C81E4
:103740008D819E810E94D31FDC01CB018A8379C0C9
:103750002A8D3B8D4C8D5D8D6E857F8588899989FD
:103760000E945C1F88230CF06CC082E68A832E8541
:103770003F85488959898E8D9F8DA8A1B9A10F2EAB
:10378000FDECCF2EFCECDF2EED2CFDE3FF2EF02D1B
:1037900089019A01AC01BD0189EA91E00E948F186C
:1037A000DC01CB018E8B9F8BA88FB98F6E897F89AF
:1037B000888D998D0E94D31FDC01CB010E94631874
:1037C0002E893F89488D598D60E070E084EC92E449
:1037D0000E94EF1EDC01CB018F839887A987BA87EF
:1037E00020E030E044EC52E46F81788589859A8549
:1037F0000E94B420181644F480E090E0A4ECB2E4F7
:103800008F839887A987BA8720E030E040EA50E4A8
:103810006F81788589859A850E945C1F882344F48E
:1038200080E090E0A0EAB0E48F839887A987BA8708
:103830006F81788589859A850E94D31FDC01CB0131
:10384000898389810E9419178A810E942F17A19666
:103850000FB6F894DEBF0FBECDBFDF91CF911F91A1
:103860000F91FF90EF90DF90CF900895CF93DF936B
:10387000CDB7DEB70E947F17DC01CB018093070430
:1038800090930804A0930904B0930A040E94AD1712
:10389000DC01CB0180930B0490930C04A0930D04E6
:1038A000B0930E040E94DB17DC01CB0180930F0460
:1038B00090931004A0931104B09312040E9409186D
:1038C000DC01CB018093130490931404A09315049E
:1038D000B0931604DF91CF910895CF93DF93CDB7C6
:1038E000DEB780910B0490910C04A0910D04B0916F
:1038F0000E04BC01CD01DF91CF910895CF93DF93EA
:10390000CDB7DEB78091130490911404A0911504F3
:10391000B0911604BC01CD01DF91CF910895CF93F2
:10392000DF93CDB7DEB72A970FB6F894DEBF0FBE90
:10393000CDBF6B837C838D839E8380E492E4AFE074
:10394000B0E02B813C814D815E81BC01CD010E94A4
:103950003621DA01C90101979A83898385EC90E0C9
:1039600029813A81232F3327FC01208384EC90E0C6
:103970002981FC01208381EC90E028E9FC0120836F
:1039800082EC90E026E0FC0120832A960FB6F894A2
:10399000DEBF0FBECDBFDF91CF910895CF93DF93F0
:1039A0001F92CDB7DEB780911804882F90E0845520
:1039B0009B4FFC0180818983809118048F5F8F77F2
:1039C0008093180489810F90DF91CF910895CF9350
:1039D000DF9300D0CDB7DEB78A83809119048F5F63
:1039E0008F778983000080911A0499819817D9F301
:1039F00080911904882F90E0845D9B4F2A81FC01FF
:103A0000208389818093190480911B04882361F4A9
:103A100081E080931B0481EC90E021EC30E0F9011F
:103A200020812062FC0120830F900F90DF91CF91C5
:103A30000895CF93DF9300D0CDB7DEB790911704F0
:103A400080911804981778F080911704282F30E09F
:103A500080911804882F90E0A901481B590BCA01D6
:103A60009A83898310C080911704282F30E08091B9
:103A70001804882F90E0A901481B590BCA018058EF
:103A80009F4F9A83898389819A810F900F90DF914C
:103A9000CF910895CF93DF931F92CDB7DEB789837F
:103AA00080911804282F30E08981882F90E0820FC0
:103AB000931F8F770F90DF91CF910895CF93DF936E
:103AC0001F92CDB7DEB789838981882F90E0845516
:103AD0009B4FFC0180810F90DF91CF910895CF9390
:103AE000DF9300D0CDB7DEB786EC90E0FC0180819B
:103AF0008983809117048F5F8F778A838091180460
:103B00009A81981761F080911704882F90E084556E
:103B10009B4F2981FC0120838A81809317040F9099
:103B20000F90DF91CF910895CF93DF93CDB7DEB79C
:103B30009091190480911A04981761F481EC90E037
:103B400021EC30E0F90120812F7DFC0120831092CF
:103B50001B0412C086EC90E020911A04222F30E062
:103B6000245D3B4FF9012081FC01208380911A04E0
:103B70008F5F8F7780931A04DF91CF9108951F9202
:103B80000F9200905F000F9211242F933F934F9359
:103B90005F936F937F938F939F93AF93BF93EF93B5
:103BA000FF93CF93DF93CDB7DEB70E946F1DDF91F8
:103BB000CF91FF91EF91BF91AF919F918F917F91A5
:103BC0006F915F914F913F912F910F9000925F0005
:103BD0000F901F9018951F920F9200905F000F9208
:103BE00011242F933F934F935F936F937F938F9302
:103BF0009F93AF93BF93EF93FF93CF93DF93CDB793
:103C0000DEB70E94941DDF91CF91FF91EF91BF919C
:103C1000AF919F918F917F916F915F914F913F9164
:103C20002F910F9000925F000F901F901895CF93E7
:103C3000DF9300D0CDB7DEB78A838A8189838981FB
:103C4000882F90E088709927892B11F088E201C0B5
:103C500088E099819770892B982F88E10FB6F894A6
:103C6000A895809360000FBE909360000F900F9016
:103C7000DF91CF910895CF93DF93CDB7DEB7A895AD
:103C8000DF91CF910895CF93DF93CDB7DEB780E07A
:103C900090E088709927892B11F088E201C088E0B4
:103CA00090E09770892B982F88E10FB6F894A8952B
:103CB000809360000FBE90936000FFCFEFEFF0E0C5
:103CC00083E08083608381E090E0089580E294E067
:103CD0000E94DB1EECE1F4E01382128285E892E0A0
:103CE000918380830895CF92DF92EF92FF920F939A
:103CF0001F93CF93DF936C017A018B01C0E0D0E07A
:103D0000CE15DF0589F0D8016D918D01D601ED91B9
:103D1000FC910190F081E02DC6010995892B11F4E9
:103D20007E0102C02196ECCFC701DF91CF911F9198
:103D30000F91FF90EF90DF90CF900895611571057E
:103D400079F0FB0101900020E9F73197AF01461BA4
:103D5000570BDC01ED91FC910280F381E02D099479
:103D600080E090E00895DC01ED91FC910190F081FC
:103D7000E02D099469E872E00C949E1EFC015383C7
:103D80004283648315820895CF93DF93EC018A8187
:103D90009B81009769F06F8161110E94B31E8C8135
:103DA000882331F08A819B81DF91CF910C94BA1ED8
:103DB000DF91CF910895FC018CE992E0918380839B
:103DC00013821282148215821682178282E090E09A
:103DD000918780878AE090E0938782870895505882
:103DE000BB27AA270E94071F0C947A200E946C20F0
:103DF00038F00E94732020F039F49F3F19F426F424
:103E00000C9469200EF4E095E7FB0C946320E92FF5
:103E10000E948B2058F3BA1762077307840795072F
:103E200020F079F4A6F50C94AD200EF4E0950B2E5D
:103E3000BA2FA02D0B01B90190010C01CA01A001FC
:103E40001124FF27591B99F0593F50F4503E68F157
:103E50001A16F040A22F232F342F4427585FF3CF98
:103E6000469537952795A795F0405395C9F77EF469
:103E70001F16BA0B620B730B840BBAF09150A1F0B2
:103E8000FF0FBB1F661F771F881FC2F70EC0BA0F38
:103E9000621F731F841F48F4879577956795B795C0
:103EA000F7959E3F08F0B0CF9395880F08F09927BB
:103EB000EE0F9795879508950E943F2008F481E0C2
:103EC00008950E94751F0C947A200E94732058F068
:103ED0000E946C2040F029F45F3F29F00C9463208D
:103EE00051110C94AE200C9469200E948B2068F331
:103EF0009923B1F3552391F3951B550BBB27AA27A3
:103F000062177307840738F09F5F5F4F220F331FDC
:103F1000441FAA1FA9F335D00E2E3AF0E0E832D0A4
:103F200091505040E695001CCAF72BD0FE2F29D0A7
:103F3000660F771F881FBB1F261737074807AB0779
:103F4000B0E809F0BB0B802DBF01FF2793585F4FEE
:103F50003AF09E3F510578F00C9463200C94AE200B
:103F60005F3FE4F3983ED4F3869577956795B795D0
:103F7000F7959F5FC9F7880F911D9695879597F9DB
:103F80000895E1E0660F771F881FBB1F6217730754
:103F90008407BA0720F0621B730B840BBA0BEE1F69
:103FA00088F7E09508950E94932088F09F5798F035
:103FB000B92F9927B751B0F0E1F0660F771F881F2E
:103FC000991F1AF0BA95C9F714C0B13091F00E9448
:103FD000AD20B1E008950C94AD20672F782F88278D
:103FE000B85F39F0B93FCCF3869577956795B3956F
:103FF000D9F73EF490958095709561957F4F8F4FDE
:104000009F4F0895E89409C097FB3EF490958095E2
:10401000709561957F4F8F4F9F4F9923A9F0F92F8E
:1040200096E9BB279395F695879577956795B7950C
:10403000F111F8CFFAF4BB0F11F460FF1BC06F5FF2
:104040007F4F8F4F9F4F16C0882311F096E911C004
:10405000772321F09EE8872F762F05C0662371F025
:1040600096E8862F70E060E02AF09A95660F771F39
:10407000881FDAF7880F9695879597F90895990F15
:104080000008550FAA0BE0E8FEEF16161706E80722
:10409000F907C0F012161306E407F50798F0621B43
:1040A000730B840B950B39F40A2661F0232B242B18
:1040B000252B21F408950A2609F4A140A6958FEF37
:1040C000811D811D089597F99F6780E870E060E089
:1040D00008959FEF80EC089500240A9416161706A1
:1040E00018060906089500240A94121613061406E9
:1040F00005060895092E0394000C11F4882352F04C
:10410000BB0F40F4BF2B11F460FF04C06F5F7F4F03
:104110008F4F9F4F089557FD9058440F551F59F0EA
:104120005F3F71F04795880F97FB991F61F09F3FA4
:1041300079F087950895121613061406551FF2CFCD
:104140004695F1DF08C0161617061806991FF1CF1D
:1041500086957105610508940895E894BB27662744
:104160007727CB0197F908950E943F2008F48FEF3D
:1041700008950E94CC200C947A200E946C2038F084
:104180000E94732020F0952311F00C9463200C946E
:10419000692011240C94AE200E948B2070F3959F0F
:1041A000C1F3950F50E0551F629FF001729FBB272E
:1041B000F00DB11D639FAA27F00DB11DAA1F649FCA
:1041C0006627B00DA11D661F829F2227B00DA11D7D
:1041D000621F739FB00DA11D621F839FA00D611D03
:1041E000221F749F3327A00D611D231F849F600D24
:1041F000211D822F762F6A2F11249F5750409AF04D
:10420000F1F088234AF0EE0FFF1FBB1F661F771FD8
:10421000881F91505040A9F79E3F510580F00C94A3
:1042200063200C94AE205F3FE4F3983ED4F3869570
:1042300077956795B795F795E7959F5FC1F7FE2B43
:10424000880F911D9695879597F90895DB018F93B7
:104250009F930E945821BF91AF91A29F800D911D05
:10426000A39F900DB29F900D11240895A1E21A2EE4
:10427000AA1BBB1BFD010DC0AA1FBB1FEE1FFF1F0A
:10428000A217B307E407F50720F0A21BB30BE40B5A
:10429000F50B661F771F881F991F1A9469F76095A1
:1042A0007095809590959B01AC01BD01CF0108955B
:1042B0000E946921A59F900DB49F900DA49F800D31
:1042C000911D11240895EE0FFF1F0590F491E02D2C
:1042D0000994A29FB001B39FC001A39F700D811DDF
:1042E0001124911DB29F700D811D1124911D0895FF
:1042F000F999FECF92BD81BDF89A992780B50895AE
:10430000A8E1B0E042E050E00C94A021262FF999FA
:10431000FECF92BD81BDF89A019700B4021639F024
:104320001FBA20BD0FB6F894FA9AF99A0FBE0895F5
:104330000196272F0E9487210C948621DC01CB0156
:10434000FC01F999FECF06C0F2BDE1BDF89A3196A5
:1043500000B40D9241505040B8F70895F894FFCF43
:1043600000002C0580000101010101010000011A7B
:1043700000000000000000DD0C0101011A00000037
:1043800000000001DD0C0102011A00000000000025
:1043900002DD0C0103011A00000000000003DD0C27
:1043A0000110011A00000000000000DD0C021101E4
:1043B0001A00000000000001DD0C0212011A0000CA
:1043C0000000000002DD0C0213011A0000000000D2
:1043D0000003DD0C0220011A00000000000000DDD7
:1043E0000C0421011A00000000000001DD0C032272
:1043F000011A00000000000002DD0C0423011A0075
:10440000000000000003DD0C039A99593F9A9919A6
:104410003ECDCC4C3D00000000000000000000A09C
:10442000400000C442CDCC4C3E000102030001021A
:10443000020001008C06EB060000040701010201E6
:104440000001001207330700000000020101000014
:10445000010059076C070000000003010100000182
:104460000080079307000000000401010000010024
:10447000A907BD070000000005010100000100CFF1
:1044800007E3070000000006010100000100F50736
:10449000080800000000070101000001001A082DB3
:1044A0000800000000080101000001003F08520858
:1044B0000000000009010100000100640877080005
:1044C0000000001001010000010089089C080000A4
:1044D00000000A0101000002000000AE0800000018
:1044E00000000000005E1E731E0D0A006E616E006B
:1044F000696E66006F76660000000000BE1EC41E76
:00000001FF
