:100000000C9435000C945D000C945D000C945D0024
:100010000C945D000C945D000C945D000C945D00EC
:100020000C945D000C945D000C945D000C945D00DC
:100030000C945D000C945D000C9437100C945D00E2
:100040000C945D000C945D000C94D21B0C94FE1B70
:100050000C945D000C94A1010C945D000C945D0067
:100060000C945D000C945D00791C11241FBECFEF31
:10007000D8E0DEBFCDBF12E0A0E0B1E0E6E8FFE3EC
:1000800002C005900D92A239B107D9F725E0A2E987
:10009000B2E001C01D92A531B207E1F710E0C5E35F
:1000A000D0E004C02197FE010E94761FC433D1071F
:1000B000C9F70E94B3000C94C11F0C940000CF93A9
:1000C000DF93CDB7DEB728970FB6F894DEBF0FBE2B
:1000D000CDBF0E94BD110E94A80D0E94491A0E9426
:1000E000801ADC01CB0189839A83AB83BC830E9495
:1000F000911ADC01CB018D839E83AF83B8872D815C
:100100003E814F81588589819A81AB81BC81BC0138
:10011000CD010E9464180E9461120E943F0F289630
:100120000FB6F894DEBF0FBECDBFDF91CF9108951B
:10013000CF93DF93CDB7DEB70E943B020E94AB02A4
:10014000DF91CF910895CF93DF93CDB7DEB70E94B3
:10015000FF00DF91CF910895CF93DF93CDB7DEB746
:10016000DF91CF910895CF93DF93CDB7DEB70E9493
:10017000160F78949091B30281E0992309F480E0FE
:10018000882321F01092B3020E945F009091B40284
:1001900081E0992309F480E0882321F01092B402D1
:1001A0000E9498009091B50281E0992309F480E0C3
:1001B000882321F01092B5020E94A3009091B6020C
:1001C00081E0992309F480E0882321F01092B6029F
:1001D0000E94AC00CFCFCF93DF93CDB7DEB78CE7D3
:1001E00090E020E4FC0120838AE790E02FE8FC0106
:1001F000208381E080930601DF91CF910895CF9312
:10020000DF93CDB7DEB79091060181E0892788237F
:1002100009F01AC01092060110929A028CE790E041
:100220002CE730E0F9012081322F307F20E02F7061
:10023000232BFC0120838AE790E02AE730E0F901D4
:1002400020812064FC012083DF91CF910895CF931A
:10025000DF93CDB7DEB780910601DF91CF9108958E
:10026000CF93DF9300D01F92CDB7DEB79B838A83F5
:100270008A819B81892BF1F0198219C08981882F8D
:1002800090E0880F991F2A813B81820F931F29815B
:10029000222F30E0220F331F2E563D4FF9012081CF
:1002A0003181FC013183208389818F5F898389813A
:1002B000843020F30F900F900F90DF91CF9108952D
:1002C000CF93DF93CDB7DEB780919A02882F90E06D
:1002D00028E730E0F90120813181880F991F8E567F
:1002E0009D4FFC013183208380919A028F5F809320
:1002F0009A0280919A028430F0F48CE790E02CE727
:1003000030E0F9012081422F407F20919A02222F74
:1003100030E027533E4FF90120812F70242BFC0140
:1003200020838AE790E02AE730E0F9012081206409
:10033000FC01208303C081E080930601DF91CF910F
:1003400008951F920F9200905F000F9211242F9337
:100350003F934F935F936F937F938F939F93AF934D
:10036000BF93EF93FF93CF93DF93CDB7DEB70E9498
:100370006001DF91CF91FF91EF91BF91AF919F917C
:100380008F917F916F915F914F913F912F910F903E
:1003900000925F000F901F901895CF93DF931F92EC
:1003A000CDB7DEB789838981809307010F90DF91F4
:1003B000CF910895CF93DF93CDB7DEB7809107013A
:1003C000DF91CF910895CF93DF931F92CDB7DEB722
:1003D00089838981809308010F90DF91CF910895DF
:1003E000CF93DF93CDB7DEB780910801DF91CF9136
:1003F0000895CF93DF931F92CDB7DEB789838981AC
:10040000809309010F90DF91CF910895CF93DF93EF
:10041000CDB7DEB780910901DF91CF910895CF93D9
:10042000DF931F92CDB7DEB78983898180930A015C
:100430000F90DF91CF910895CF93DF93CDB7DEB7C3
:1004400080910A01DF91CF910895CF93DF931F929E
:10045000CDB7DEB7898389818093A0020F90DF91A9
:10046000CF910895CF93DF93CDB7DEB78091A002EF
:10047000DF91CF9108950F931F93CF93DF93CDB763
:10048000DEB763970FB6F894DEBF0FBECDBF0E94F4
:100490002C1B9E838D838D819E810C9708F450C008
:1004A0008BE00E945D1B8F838F810E94711B8D30BA
:1004B00009F043C0198212C08981082F10E0898198
:1004C0000E945D1B0E94711B282FCE010896800F91
:1004D000911FFC01208389818F5F898389818C3002
:1004E00058F31C821A8210C08A81882F90E09E01E6
:1004F000285F3F4F820F931FFC0180819C81890FF1
:100500008C838A818F5F8A838A818A3068F39A8993
:100510008C81981779F41B8205C00E94E11A8B81A7
:100520008F5F8B838B818C30C0F3CE0108960E9445
:100530009B1305C00E94E11A02C00E94E11AA7CFD6
:1005400063960FB6F894DEBF0FBECDBFDF91CF919B
:100550001F910F910895CF93DF93CDB7DEB78091B0
:10056000A1029091A2020A969093A2028093A10206
:100570008091A3029091A4020A969093A402809382
:10058000A3028091A5029091A6020A969093A602DA
:100590008093A5028091A7029091A8020A96909359
:1005A000A8028093A7028091A9029091AA020A96BC
:1005B0009093AA028093A90280910701882361F099
:1005C0008091A1029091A202449730F01092A20271
:1005D0001092A1020E94310380910801882361F0EA
:1005E0008091A3029091A402889730F01092A40207
:1005F0001092A3020E94950380910901882361F063
:100600008091A5029091A602889730F01092A602E0
:100610001092A5020E946C0480910A01882369F05F
:100620008091A7029091A8028035910530F0109238
:10063000A8021092A7020E9400058091A0028823C0
:1006400069F08091A9029091AA02883C910530F04E
:100650001092AA021092A9020E944A05DF91CF913E
:100660000895CF93DF93CDB7DEB72E970FB6F894EA
:10067000DEBF0FBECDBF1A828AEA0E94FA1A8A81B3
:1006800086558A830E942701882321F0CE01079690
:100690000E943001198228C08981882F90E0880F3C
:1006A000991F9E012F5F3F4F820F931F0696FC01FB
:1006B000808191819C838B838B818D838B819C81B5
:1006C000892F99278E838D810E94FA1A9A818D81B4
:1006D000890F8A838E810E94FA1A9A818E81890FEE
:1006E0008A8389818F5F898389818430A8F2809190
:1006F0009B020E94FA1A80919B029A81890F8A8339
:100700008A810E94FA1A8DE00E94FA1A80919B0257
:100710008F5F8F7080939B022E960FB6F894DEBF8A
:100720000FBECDBFDF91CF910895CF93DF93CDB7AB
:10073000DEB764970FB6F894DEBF0FBECDBF1A8246
:1007400019820E941E159C838B830E942A159E830A
:100750008D830E94361598878F838F819885CC0171
:10076000A0E0B0E00196A11DB11D880F991FAA1F3E
:10077000BB1F880F991FAA1FBB1F880F991FAA1F95
:10078000BB1F9C01AD0180E094E2A4EFB0E0BC018E
:10079000CD010E94491FDA01C9019A8789878F819B
:1007A0009885CC01A0E0B0E0BC01CD010E94151EEF
:1007B000DC01CB0124EA30E74DE75FE3BC01CD016A
:1007C0000E94CC1EDC01CB01BC01CD010E94E61DC4
:1007D000DC01CB019C018B819C818217930718F06F
:1007E00081E089830CC08B819C810B9720F08D81E7
:1007F0009E810B9718F482E0898301C0198282EAF6
:100800000E94FA1A8A818E558A838B818B878B810D
:100810009C81892F99278C878B850E94FA1A9A814F
:100820008B85890F8A838C850E94FA1A9A818C8520
:10083000890F8A838D818D878D819E81892F99274C
:100840008E878D850E94FA1A9A818D85890F8A83F9
:100850008E850E94FA1A9A818E85890F8A838981F2
:100860000E94FA1A9A818981890F8A8389858F87E4
:1008700089859A85892F9927888B8F850E94FA1AF6
:100880009A818F85890F8A8388890E94FA1A9A81B2
:100890008889890F8A8380E00E94FA1A80919C02DD
:1008A0000E94FA1A80919C029A81890F8A838A8118
:1008B0000E94FA1A8DE00E94FA1A80919C028F5FC2
:1008C0008F7080939C0264960FB6F894DEBF0FBEC3
:1008D000CDBFDF91CF910895CF93DF93CDB7DEB732
:1008E0002C970FB6F894DEBF0FBECDBF1A8283EAF5
:1008F0000E94FA1A8A818D558A830E9455169C831C
:100900008B830E9499168D830E9483168E838B8120
:100910009C81892F99278F838B81888788850E9466
:10092000FA1A9A818885890F8A838F810E94FA1A20
:100930009A818F81890F8A838D81882F90E0092E7B
:10094000000CAA0BBB0BBC01CD010E94171EDC01E1
:10095000CB0120E030E040E251E4BC01CD010E9437
:10096000CC1EDC01CB01BC01CD010E94E61DDC01E7
:10097000CB019A87898789858B8789859A85892F75
:1009800099278C878B850E94FA1A9A818B85890F0B
:100990008A838C850E94FA1A9A818C85890F8A83B2
:1009A0008E810E94FA1A9A818E81890F8A83198218
:1009B00006C080E00E94FA1A89818F5F898389814D
:1009C0008330B8F380919D020E94FA1A80919D02B3
:1009D0009A81890F8A838A810E94FA1A8DE00E9487
:1009E000FA1A80919D028F5F8F7080939D022C96E2
:1009F0000FB6F894DEBF0FBECDBFDF91CF91089543
:100A0000CF93DF9300D000D0CDB7DEB71A8284EA4F
:100A10000E94FA1A8A818C558A8384E10E945D0EB5
:100A20008B8385E10E945D0E8C838B810E94FA1A74
:100A30009A818B81890F8A838C810E94FA1A9A810C
:100A40008C81890F8A83198206C080E00E94FA1A7D
:100A500089818F5F898389818630B8F380919E0276
:100A60000E94FA1A80919E029A81890F8A838A8154
:100A70000E94FA1A8DE00E94FA1A80919E028F5FFE
:100A80008F7080939E020F900F900F900F90DF91C8
:100A9000CF910895CF93DF93CDB7DEB76F970FB6A1
:100AA000F894DEBF0FBECDBF0E94550E8A871F820D
:100AB000198220C08981282F30E04DE0429FC0017B
:100AC000439F900D11248E5E9E4FFC0180818823F0
:100AD00071F08F8191E0980F9F83882F90E09E01A5
:100AE0002C5E3F4F820F931F2981FC012083898157
:100AF0008F5F898399818A859817E0F28F81882397
:100B000041F5188685EA0E94FA1A88858B558887F0
:100B10001B8206C080E00E94FA1A8B818F5F8B8354
:100B20008B818830B8F380919F020E94FA1A8091DD
:100B30009F029885890F888788850E94FA1A8DE020
:100B40000E94FA1A80919F028F5F8F7080939F029C
:100B5000A8C08F81882F90E00196969587958B8706
:100B60001A829AC0198685EA0E94FA1A89858B55DD
:100B700089871C8275C08A81982F990F8C81890F73
:100B80008C879C858F81981708F05CC08C85882F96
:100B900090E09E012C5E3F4F820F931FFC018081ED
:100BA0008D878D85282F30E04DE0429FC001439F07
:100BB000900D1124835F9E4FFC0180819181A28161
:100BC000B3818E879F87A88BB98B8D85282F30E0C6
:100BD0004DE0429FC001439F900D11248E5E9E4FB9
:100BE000FC0180818A8B82E08D8321C08D81082E5B
:100BF000000C990B9C01220F331F220F331F220F71
:100C0000331F8E859F85A889B98904C0B695A7959D
:100C1000979587952A95D2F78B8B8B890E94FA1A24
:100C200099858B89890F89878D8181508D838D81ED
:100C30008823E4F68A890E94FA1A99858A89890F9D
:100C400089870BC01E8206C080E00E94FA1A8E813E
:100C50008F5F8E838E818430B8F38C818F5F8C831D
:100C60008C81823008F487CF80919F020E94FA1A0B
:100C700080919F029985890F898789850E94FA1A38
:100C80008DE00E94FA1A80919F028F5F8F7080938F
:100C90009F028A818F5F8A839A818B85981708F4D7
:100CA00061CF6F960FB6F894DEBF0FBECDBFDF9158
:100CB000CF910895CF92DF92EF92FF920F931F93FF
:100CC000CF93DF93CDB7DEB72C970FB6F894DEBF86
:100CD0000FBECDBF9C838B830E9436159A83898378
:100CE0000E941E159C0140E050E084E690E0DC018B
:100CF0000E946B1F7B018C0189819A819C0140E0DD
:100D000050E0C801B7010E94491FDA01C901282F2C
:100D10008B819C81FC0120838B819C818C010F5FE6
:100D20001F4F0E942A159C0140E050E084E690E0AD
:100D3000DC010E946B1F6B017C0189819A819C01FF
:100D400040E050E0C701B6010E94491FDA01C90125
:100D5000F80180832C960FB6F894DEBF0FBECDBF8E
:100D6000DF91CF911F910F91FF90EF90DF90CF9087
:100D70000895CF93DF9300D0CDB7DEB79A838983F0
:100D800089819A81FC0180810E94421589819A8122
:100D90000196FC0180810E9458150F900F90DF9101
:100DA000CF910895CF93DF93CDB7DEB70E946D1634
:100DB000882311F080E001C082E2DF91CF91089595
:100DC000CF93DF9300D000D0CDB7DEB79C838B8369
:100DD0000E9436159A83898329818B819C81FC012D
:100DE00020838B819C81019629813A81232F33278F
:100DF000FC0120830F900F900F900F90DF91CF9107
:100E00000895CF93DF9300D000D0CDB7DEB79C8399
:100E10008B838B819C810196FC018081882F90E0DF
:100E2000382F22278B819C81FC018081882F90E0C4
:100E3000822B932B9A83898389819A810E94D9146A
:100E40000F900F900F900F90DF91CF910895CF9357
:100E5000DF9300D0CDB7DEB79A8389830E94551601
:100E6000282F89819A81FC0120830F900F90DF91B8
:100E7000CF910895CF93DF9300D0CDB7DEB79A839B
:100E8000898389819A81FC018081882F90E00E946A
:100E900043160F900F90DF91CF910895CF93DF937A
:100EA00000D0CDB7DEB79A8389830E946D16282FB4
:100EB00089819A81FC0120830F900F90DF91CF915F
:100EC0000895CF93DF9300D0CDB7DEB79A8389839F
:100ED00089819A81FC01908181E0992309F480E065
:100EE0000E9460160F900F90DF91CF910895CF93DD
:100EF000DF9300D0CDB7DEB79A83898384E10E9467
:100F00005D0E282F89819A81FC0120830F900F901C
:100F1000DF91CF910895CF93DF9300D0CDB7DEB7A7
:100F20009A83898389819A81FC0180810E9475124C
:100F30000F900F90DF91CF910895CF93DF9300D062
:100F4000CDB7DEB79A83898385E10E945D0E282F95
:100F500089819A81FC0120830F900F90DF91CF91BE
:100F60000895CF93DF9300D0CDB7DEB79A838983FE
:100F700089819A81FC0180810E9489120F900F90D3
:100F8000DF91CF910895CF93DF9300D0CDB7DEB737
:100F90009A8389830E943202282F89819A81FC01D9
:100FA00020830F900F90DF91CF910895CF93DF931F
:100FB00000D0CDB7DEB79A83898389819A81FC01FD
:100FC00080810E9425020F900F90DF91CF910895AC
:100FD000CF93DF9300D0CDB7DEB79A8389830E9489
:100FE0000602282F89819A81FC0120830F900F909F
:100FF000DF91CF910895CF93DF9300D0CDB7DEB7C7
:101000009A83898389819A81FC0180810E94F901F8
:101010000F900F90DF91CF910895CF93DF9300D081
:10102000CDB7DEB79A8389830E94F001282F89818A
:101030009A81FC0120830F900F90DF91CF9108954A
:10104000CF93DF9300D0CDB7DEB79A8389838981B0
:101050009A81FC0180810E94E3010F900F90DF9143
:10106000CF910895CF93DF9300D0CDB7DEB79A83A9
:1010700089830E941C02282F89819A81FC01208388
:101080000F900F90DF91CF910895CF93DF9300D011
:10109000CDB7DEB79A83898389819A81FC018081EB
:1010A0000E940F020F900F90DF91CF910895CF9380
:1010B000DF9300D0CDB7DEB79A8389830E94DA012F
:1010C000282F89819A81FC0120830F900F90DF9156
:1010D000CF910895CF93DF9300D0CDB7DEB79A8339
:1010E000898389819A81FC0180810E94CD010F90C2
:1010F0000F90DF91CF910895CF93DF93CDB7DEB7F7
:1011000081E090E090930C0180930B01DF91CF91EF
:101110000895CF93DF9300D01F92CDB7DEB79B83A6
:101120008A838A819B81892B09F43EC08A819B81B5
:10113000FC01808189838981882F90E08931910524
:10114000D1F08A31910534F48131910561F04497F1
:1011500079F025C08E329105C1F081339105D1F02F
:10116000829771F01CC08A819B810E94DA081CC0A2
:101170000E94000919C08A819B810E940F0914C036
:101180008A819B810E942C090FC08A819B810E94C9
:10119000390A0AC062E181E30E94080C05C061E1DE
:1011A00089810E94080C00000F900F900F90DF9132
:1011B000CF910895CF93DF9300D01F92CDB7DEB7C4
:1011C0009B838A838A819B81FC01818189838981B8
:1011D000823061F441E0CE010196BC0181E10E94C0
:1011E000B40B81E090E00E94890F04C062E181E1CC
:1011F0000E94080C0F900F900F90DF91CF910895EF
:10120000CF93DF93CDB7DEB70E94060E40E060E0DB
:1012100070E084E10E94B40BDF91CF910895CF93E9
:10122000DF9300D01F92CDB7DEB79B838A838A817C
:101230009B81FC01818189838981823019F40E941C
:101240004C0E04C062E189E10E94080C0F900F90DF
:101250000F90DF91CF910895CF93DF93CDB7DEB795
:1012600063970FB6F894DEBF0FBECDBF9B8B8A8B02
:101270001B828A899B890196FC018081882F90E0DE
:10128000382F22278A899B890296FC018081882F2A
:1012900090E0822B932B9D838C831982D4C089810B
:1012A000282F30E04FE0429FC001439F900D112452
:1012B00083539E4FFC01208131818C819D812817B1
:1012C000390709F0BDC08A899B89FC0181818A8721
:1012D0008A899B89FC0182818B878981282F30E054
:1012E0004FE0429FC001439F900D11248C529E4FAE
:1012F000FC0180819181892BA1F08981282F30E028
:101300004FE0429FC001439F900D11248C529E4F8D
:10131000FC0120813181CE010A960296F9010995DE
:1013200075C08981282F30E04FE0429FC001439F64
:10133000900D112488529E4FFC0180819181892B50
:1013400009F464C08981282F30E04FE0429FC0013A
:10135000439F900D112480539E4FFC018081918109
:101360000197D9F48981282F30E04FE0429FC001D6
:10137000439F900D112488529E4FFC0180819181E2
:10138000FC01808191819F838E838E818C878E81E9
:101390009F81892F99278D8739C08981282F30E037
:1013A0004FE0429FC001439F900D112488529E4FF1
:1013B000FC0180819181998788871A8217C08A8170
:1013C000882F90E002962A81222F30E048855985A7
:1013D000240F351FF90140819E01265F3F4F820F88
:1013E000931FFC0140838A818F5F8A838981282F24
:1013F00030E04FE0429FC001439F900D1124815384
:101400009E4FFC0190818A818917C8F28981282F1B
:1014100030E04FE0429FC001439F900D1124815363
:101420009E4FFC01808122E0280FCE010A96422FB8
:10143000BC0182E20E94B40B81E08B83000007C0F4
:1014400089818F5F898389818B3008F428CF9B81C4
:1014500081E08927882321F061E382E20E94080C61
:1014600063960FB6F894DEBF0FBECDBFDF91CF916C
:101470000895CF93DF93CDB7DEB764970FB6F89496
:10148000DEBF0FBECDBF9C8B8B8B1B828B899C8953
:101490000196FC018081882F90E0382F22278B89CC
:1014A0009C890296FC018081882F90E0822B932BEF
:1014B0009D838C83198242C18981282F30E04FE0BF
:1014C000429FC001439F900D112483539E4FFC0106
:1014D000208131818C819D812817390709F02BC12A
:1014E0008981282F30E04FE0429FC001439F900D3B
:1014F00011248E529E4FFC0180819181019729F029
:1015000062E28EE20E94080C26C18981282F30E019
:101510004FE0429FC001439F900D112486529E4F81
:10152000FC0180819181892BD1F08981282F30E0C5
:101530004FE0429FC001439F900D112486529E4F61
:10154000FC0180819181FC0109958E838E81882325
:1015500031F06E818EE20E94080C0000FCC089818F
:10156000282F30E04FE0429FC001439F900D11248F
:101570008A529E4FFC0180819181892BA1F0898143
:10158000282F30E04FE0429FC001439F900D11246F
:101590008A529E4FFC01208131818B899C89039660
:1015A000F901099582C08981282F30E04FE0429FE0
:1015B000C001439F900D112488529E4FFC018081F1
:1015C0009181892B09F471C08981282F30E04FE087
:1015D000429FC001439F900D112480539E4FFC01F8
:1015E00080819181019741F58B899C890496FC014A
:1015F0008081882F90E0382F22278B899C89039641
:10160000FC018081882F90E0822B932B98878F8319
:101610008981282F30E04FE0429FC001439F900D09
:10162000112488529E4FFC01808191812F81388541
:10163000FC013183208339C08981282F30E04FE0BD
:10164000429FC001439F900D112488529E4FFC0180
:10165000808191819A8789871A8217C08A81882F11
:1016600090E029853A85820F931F2A81222F30E04E
:101670002D5F3F4F4B895C89240F351FF901208175
:10168000FC0120838A818F5F8A838981282F30E043
:101690004FE0429FC001439F900D112481539E4F04
:1016A000FC0190818A818917C8F28B899C89FC0191
:1016B00081818B878B899C89FC0182818C878981C0
:1016C000282F30E04FE0429FC001439F900D11242E
:1016D0008C529E4FFC0180819181892B99F08981E8
:1016E000282F30E04FE0429FC001439F900D11240E
:1016F0008C529E4FFC0120813181CE010B960296C7
:10170000F90109958981282F30E04FE0429FC001FF
:10171000439F900D112481539E4FFC01808122E054
:10172000280FCE010B96422FBC018EE20E94B40B13
:1017300081E08B8307C089818F5F898389818B30AA
:1017400008F4BACE9B8181E08927882321F061E3E8
:101750008EE20E94080C64960FB6F894DEBF0FBEAE
:10176000CDBFDF91CF910895CF93DF93CDB7DEB793
:1017700028970FB6F894DEBF0FBECDBF8D837F8351
:101780006E8348871B828D81805C8C838C810E9454
:10179000FA1A9B818C81890F8B8319821AC08981E7
:1017A000882F90E02E813F81820F931FFC01808162
:1017B0000E94FA1A8981882F90E02E813F81820F42
:1017C000931FFC0180819B81890F8B8389818F5FAF
:1017D000898399818885981710F388858A8306C044
:1017E00080E00E94FA1A8A818F5F8A838A81893019
:1017F000B8F38B810E94FA1A8DE00E94FA1A28969B
:101800000FB6F894DEBF0FBECDBFDF91CF91089524
:10181000CF93DF9300D000D0CDB7DEB78B836C833E
:101820001A828FE70E94FA1A8A8181588A838B81F3
:101830000E94FA1A9A818B81890F8A838C810E9477
:10184000FA1A9A818C81890F8A83198206C080E0F6
:101850000E94FA1A89818F5F898389818730B8F362
:101860008A810E94FA1A8DE00E94FA1A0F900F9056
:101870000F900F90DF91CF910895CF93DF931F9238
:10188000CDB7DEB7198238C08981282F30E04DE00E
:10189000429FC001439F900D11248F5E9E4FFC011B
:1018A00010828981282F30E04DE0429FC001439F84
:1018B000900D11248E5E9E4FFC0110828981282F8D
:1018C00030E04DE0429FC001439F900D11248D5E9A
:1018D0009E4FFC0110828981282F30E04DE0429F0D
:1018E000C001439F900D11248C5E9E4FFC0111821C
:1018F000108289818F5F898389818C3028F20F90D3
:10190000DF91CF910895CF93DF93CDB7DEB72A97BC
:101910000FB6F894DEBF0FBECDBF89876A87CE01B0
:1019200001960E9430018A85823091F48985882F42
:1019300090E0880F991F9E012F5F3F4F820F931FEA
:10194000FC0180819181892B09F061C081E060C038
:101950008A85813099F48985882F90E0880F991FB6
:101960009E012F5F3F4F820F931FFC018081918169
:101970008F3F934009F04BC081E04AC08A85833095
:1019800011F58985882F90E0880F991F9E012F5FA0
:101990003F4F820F931FFC01808191818B329340D6
:1019A000B0F18985882F90E0880F991F9E012F5FE5
:1019B0003F4F820F931FFC01808191818F3F9340A5
:1019C00031F181E025C08A85843009F58985882F29
:1019D00090E0880F991F9E012F5F3F4F820F931F4A
:1019E000FC01808191818039914088F48985882F1C
:1019F00090E0880F991F9E012F5F3F4F820F931F2A
:101A0000FC0180819181892B11F081E001C080E08F
:101A10002A960FB6F894DEBF0FBECDBFDF91CF91EF
:101A20000895CF93DF93CDB7DEB72B970FB6F89419
:101A3000DEBF0FBECDBF9A8789876B8789859A8560
:101A4000892B09F47CC08B85882309F44DC08985D6
:101A50009A85FC018681843650F489859A85FC013B
:101A6000868121E0280F89859A85FC012683898556
:101A70009A85FC018481882329F489859A8521E04F
:101A8000FC01248389859A85FC018481813009F0D9
:101A900056C089859A85FC018681843608F44FC03A
:101AA00089859A8522E0FC01248389859A8522E034
:101AB000FC012583CE0101960E94300189859A851B
:101AC000FC018185882F90E0880F991F9E012F5F70
:101AD0003F4F820F931FFC012081318189859A85B8
:101AE000FC01308727832BC089859A85FC0186817C
:101AF000882359F089859A85FC0186812FEF280F6C
:101B000089859A85FC0126831AC089859A85FC01FE
:101B10008481823051F489859A85FC0114828985FB
:101B20009A8521E0FC0125830AC089859A85FC01FC
:101B30008481813021F489859A85FC0114822B9659
:101B40000FB6F894DEBF0FBECDBFDF91CF910895E1
:101B5000CF93DF9300D0CDB7DEB719824EC01A8283
:101B60008981282F30E04DE0429FC001439F900DB6
:101B70001124895E9E4FFC0180819181892B61F146
:101B80008981282F30E04DE0429FC001439F900D96
:101B90001124895E9E4FFC01208131818981482F6B
:101BA00050E06DE0649FC001659F900D1124875E39
:101BB0009E4FFC0170818981482F50E06DE0649F49
:101BC000C001659F900D11248A5E9E4FFC018081AB
:101BD000672FF90109958A838981282F30E04DE02C
:101BE000429FC001439F900D1124835F9E4F6A81E5
:101BF0000E94110D89818F5F898389818C3008F45F
:101C0000AECF0F900F90DF91CF910895CF93DF93D8
:101C10001F92CDB7DEB7198238C08981282F30E0F6
:101C20004DE0429FC001439F900D11248F5E9E4F57
:101C3000FC0110828981282F30E04DE0429FC001D5
:101C4000439F900D11248E5E9E4FFC01108289816E
:101C5000282F30E04DE0429FC001439F900D11249A
:101C60008D5E9E4FFC0110828981282F30E04DE06F
:101C7000429FC001439F900D11248C5E9E4FFC013A
:101C80001182108289818F5F898389818C3028F24B
:101C90000F90DF91CF910895CF93DF93CDB7DEB74B
:101CA0000E944A05DF91CF910895CF93DF93CDB77E
:101CB000DEB78CE0DF91CF910895CF93DF9300D012
:101CC00000D0CDB7DEB78C8319828C8182958F705E
:101CD0008A838C818F708B838A818823A9F483E225
:101CE00090E0FC018081882F90E02B81222F30E052
:101CF00002C0969587952A95E2F781709927892BDE
:101D0000D1F081E0898317C08A818130A1F489E212
:101D100090E0FC018081882F90E02B81222F30E021
:101D200002C0969587952A95E2F781709927892BAD
:101D300011F081E0898389810F900F900F900F90AF
:101D4000DF91CF910895CF93DF9300D000D0CDB72E
:101D5000DEB78B836C838B8182958F7089838B81B7
:101D60008F708A838981882361F58C818130A1F409
:101D700085E290E025E230E0F90160812A81422F7E
:101D800050E021E030E002C0220F331F4A95E2F715
:101D9000262BFC01208343C085E290E025E230E061
:101DA000F90160812A81422F50E021E030E002C039
:101DB000220F331F4A95E2F720952623FC0120834A
:101DC0002EC08981813059F58C818130A1F48BE25C
:101DD00090E02BE230E0F90160812A81422F50E04F
:101DE00021E030E002C0220F331F4A95E2F7262B94
:101DF000FC01208314C08BE290E02BE230E0F9017B
:101E000060812A81422F50E021E030E002C0220FA1
:101E1000331F4A95E2F720952623FC0120830F907B
:101E20000F900F900F90DF91CF910895CF93DF9394
:101E3000CDB7DEB70E94CF130E943D0C0E949D12C9
:101E40000E94DE1260E071EE80E090E00E94A21A33
:101E50000E947C080E94EB000E94A10F0E94801546
:101E60000E94F11387E00E942A1C789481E090E0A0
:101E70009093AC028093AB02DF91CF910895CF9302
:101E8000DF93CDB7DEB78091AB029091AC02813089
:101E9000910549F081309105B0F18230910599F0BA
:101EA000039799F128C00E944E1C8091AD02909139
:101EB000AE02892B39F082E090E09093AC028093DF
:101EC000AB0224C023C060E080E00E947B1460E08D
:101ED00084E10E94A30E60E085E10E94A30E0E94AF
:101EE00051138091AD029091AE02019719F40E94B6
:101EF000561C0CC00BC081E090E09093AC02809324
:101F0000AB02000003C0000001C00000DF91CF91D0
:101F10000895CF93DF9300D0CDB7DEB79A8389833E
:101F20008091AB029091AC02019731F489819A8142
:101F30009093AE028093AD020F900F90DF91CF91FE
:101F40000895CF93DF93CDB7DEB784E490E022E02D
:101F5000FC01208387E490E029EFFC01208385E4E5
:101F600090E023E0FC0120838EE690E022E0FC017B
:101F70002083DF91CF910895CF93DF93CDB7DEB764
:101F80008091AF029091B002A091B102B091B202E3
:101F90000196A11DB11D8093AF029093B002A09352
:101FA000B102B093B202DF91CF910895CF93DF9346
:101FB000CDB7DEB78091B7029091B80201969093A9
:101FC000B8028093B7028091B9029091BA0201964B
:101FD0009093BA028093B9028091BB029091BC02A7
:101FE00001969093BC028093BB028091BD029091B8
:101FF000BE0201969093BE028093BD028091B7020B
:102000009091B8020A9738F01092B8021092B70275
:1020100081E08093B3028091B9029091BA02C29795
:1020200038F01092BA021092B90281E08093B402A3
:102030008091BB029091BC028436910538F01092D9
:10204000BC021092BB0281E08093B5028091BD0278
:102050009091BE02843F914038F01092BE021092DF
:10206000BD0281E08093B602DF91CF9108951F9267
:102070000F9200905F000F9211242F933F934F9384
:102080005F936F937F938F939F93AF93BF93EF93E0
:10209000FF93CF93DF93CDB7DEB70E94BC0F0E94B2
:1020A000D60FDF91CF91FF91EF91BF91AF919F91AB
:1020B0008F917F916F915F914F913F912F910F90F1
:1020C00000925F000F901F901895CF92DF92EF92D1
:1020D000FF92CF93DF9300D000D000D0CDB7DEB712
:1020E0009A8389834B835C836D837E8389819A8104
:1020F0008E5B9F4FFC0180819181A281B3812981F8
:102100003A81205C3F4FF9012081222F30E0498144
:102110005A81220F331F220F331F240F351FF9015D
:102120002081318142815381BC01CD010E94021D79
:10213000DC01CB0129813A812E5B3F4FF90180837D
:102140009183A283B38389819A81805C9F4FFC0134
:102150008081882F90E029813A81880F991F880F0C
:10216000991F280F391F8B819C81AD81BE81F90198
:1021700080839183A283B38389819A818E5B9F4FF1
:10218000FC0180819181A281B3812B813C814D81B1
:102190005E81BC01CD010E94031DDC01CB012981C0
:1021A0003A812E5B3F4FF90180839183A283B383F1
:1021B00089819A81805C9F4FFC0180818F5F282FED
:1021C0002F7089819A81805C9F4FFC0120838981D7
:1021D0009A818F5B9F4FFC018081803170F48981EF
:1021E0009A818F5B9F4FFC01808121E0280F8981BC
:1021F0009A818F5B9F4FFC01208389819A818E5B3E
:102200009F4FFC01C080D180E280F38089819A8158
:102210008F5B9F4FFC018081882F90E0A0E0B0E0B1
:10222000BC01CD010E94151EDC01CB019C01AD015A
:10223000C701B6010E94741DDC01CB01BC01CD01B8
:1022400026960FB6F894DEBF0FBECDBFDF91CF91BB
:10225000FF90EF90DF90CF900895CF93DF9300D061
:1022600000D000D0CDB7DEB79E838D838D819E8157
:10227000CC01A0E0B0E0BC01CD010E94151EDC0144
:10228000CB0120E030EC4FE754E4BC01CD010E94CB
:10229000741DDC01CB0120E030E040EA50E4BC01D9
:1022A000CD010E94CC1EDC01CB0189839A83AB83D4
:1022B000BC8320E030E040E250E469817A818B8188
:1022C0009C810E94021DDC01CB0122E03BE247E839
:1022D0005DE3BC01CD010E94741DDC01CB01BC019A
:1022E000CD0126960FB6F894DEBF0FBECDBFDF91AD
:1022F000CF910895CF93DF9300D000D000D0CDB719
:10230000DEB79E838D838D819E81CC01A0E0B0E0FD
:10231000BC01CD010E94151EDC01CB0120E030EC98
:102320004FE754E4BC01CD010E94741DDC01CB01D8
:1023300020E030E040EA50E4BC01CD010E94CC1E18
:10234000DC01CB0189839A83AB83BC8320E030E03E
:1023500040E451E469817A818B819C810E94CC1E8A
:10236000DC01CB01BC01CD0126960FB6F894DEBF8F
:102370000FBECDBFDF91CF910895CF93DF93CDB73F
:10238000DEB7A8970FB6F894DEBF0FBECDBF0E9490
:102390002701882309F48CC0CE0181960E94300168
:1023A00089A19AA10E942D11DC01CB0189839A8316
:1023B000AB83BC8389819A81AB81BC81AC01BD01B7
:1023C0008FEB92E00E946510DC01CB018D839E8330
:1023D000AF83B8878D819E81AF81B885BC01CD0167
:1023E0000E948B158BA19CA10E947A11DC01CB016C
:1023F00089879A87AB87BC8789859A85AB85BC8599
:10240000AC01BD0185E093E00E946510DC01CB01C9
:102410008D879E87AF87B88B8D859E85AF85B88960
:10242000BC01CD010E94B9158DA19EA10E942D1164
:10243000DC01CB01898B9A8BAB8BBC8B89899A8908
:10244000AB89BC89AC01BD018BE493E00E946510AF
:10245000DC01CB018D8B9E8BAF8BB88F8D899E89D4
:10246000AF89B88DBC01CD010E94E7158FA198A559
:102470000E947A11DC01CB01898F9A8FAB8FBC8FC0
:10248000898D9A8DAB8DBC8DAC01BD0181E993E046
:102490000E946510DC01CB018D8F9E8FAF8FB8A39A
:1024A0008D8D9E8DAF8DB8A1BC01CD010E941516FA
:1024B000A8960FB6F894DEBF0FBECDBFDF91CF91C7
:1024C0000895CF93DF9300D0CDB7DEB70E944F15AC
:1024D00089830E9465158A836A8189810E947B14A1
:1024E0000F900F90DF91CF910895CF93DF931F92BC
:1024F000CDB7DEB789838981882311F081E001C0DF
:1025000080E0682F84E10E94A30E0F90DF91CF91AD
:102510000895CF93DF931F92CDB7DEB7898389816A
:10252000882311F081E001C080E0682F85E10E94DE
:10253000A30E0F90DF91CF910895CF93DF9300D03A
:1025400000D0CDB7DEB780E090E00E94931F9B8360
:102550008A838A819B818B35954A49F16BE575EABF
:1025600080E090E00E94AB1F6AEF70E082E090E0B4
:102570000E94AB1F6CE084E090E00E94991F60E035
:1025800085E090E00E94991F0E94550E8C8319826D
:102590000AC08981882F90E0069660E00E94991F0A
:1025A00089818F5F898399818C81981790F30F902F
:1025B0000F900F900F90DF91CF910895CF93DF93FD
:1025C000CDB7DEB727970FB6F894DEBF0FBECDBFED
:1025D00082E090E00E94931F9B838A8384E090E0D6
:1025E0000E948B1F8C8385E090E00E948B1F982FA8
:1025F00081E0992309F480E08D838A819B81019693
:1026000021F484E690E09B838A838C818F3F11F4D0
:102610008CE08C838A819B810E946E158C81882F2F
:1026200090E00E9443168D810E9460160E94550E14
:102630008E83198229C08981882F90E006960E9496
:102640008B1F8F838981282F30E04DE0429FC0018E
:10265000439F900D11248E5E9E4F2F81FC0120839D
:102660008F81882371F08981282F30E04DE0429FCF
:10267000C001439F900D11248F5E9E4F22E0FC010C
:10268000208389818F5F898399818E81981798F241
:1026900027960FB6F894DEBF0FBECDBFDF91CF9166
:1026A0000895CF93DF9300D0CDB7DEB76BE575EA21
:1026B00080E090E00E94AB1F0E948015BC0182E088
:1026C00090E00E94AB1F0E945516682F84E090E0B6
:1026D0000E94991F0E946D16882311F081E001C0AD
:1026E00080E0682F85E090E00E94991F0E94550EBF
:1026F0008A83198217C08981282F30E04DE0429FDC
:10270000C001439F900D11248E5E9E4FFC012081DD
:102710008981882F90E00696622F0E94991F8981F7
:102720008F5F898399818A81981728F30F900F9082
:10273000DF91CF910895CF93DF9300D01F92CDB753
:10274000DEB79B838A838A819B81892B11F18A81E1
:102750009B81FC01808189838981882F90E0893168
:10276000910591F08A31910534F48131910561F040
:10277000449751F00EC08E32910531F081339105AE
:1027800019F0829709F005C08A819B810E9489080F
:1027900000000F900F900F90DF91CF910895CF938D
:1027A000DF93CDB7DEB784E290E024E230E0F901B8
:1027B00020812660FC0120838AE290E02AE230E05A
:1027C000F90120812063FC0120838BE290E02BE261
:1027D00030E0F90120812F7CFC012083DF91CF9133
:1027E00008950F931F93CF93DF93CDB7DEB728974C
:1027F0000FB6F894DEBF0FBECDBF9C838B838B8159
:102800009C81CC01A0E0B0E0880F991FAA1FBB1FDC
:10281000880F991FAA1FBB1F880F991FAA1FBB1FD4
:102820009C01AD0180E094E2A4EFB0E0BC01CD01D9
:102830000E94491FDA01C90101979A83898386E8BA
:1028400090E029813A81FC013183208380E890E087
:1028500022EAFC01208381E890E02AE1FC01208348
:1028600008E810E089819A81CC01A0E0B0E0BC01C9
:10287000CD010E94151EDC01CB0128E431EE4AE7B0
:102880005FE3BC01CD010E94CC1EDC01CB01BC0189
:10289000CD010E94E61DDC01CB01F801918380830C
:1028A0000AE810E089819A81CC01A0E0B0E0BC0187
:1028B000CD010E94151EDC01CB0128E431EE4AE770
:1028C0005FE3BC01CD010E94CC1EDC01CB01BC0149
:1028D000CD010E94E61DDC01CB01F80191838083CC
:1028E00028960FB6F894DEBF0FBECDBFDF91CF9113
:1028F0001F910F9108950F931F93CF93DF93CDB73F
:10290000DEB72C970FB6F894DEBF0FBECDBF8B831A
:102910006C8386E890E0FC01808191819A838983B1
:1029200008E810E089819A819C0140E050E08B81A9
:10293000882F90E0A0E0B0E0BC01CD010E94391FDB
:10294000DC01CB0124E630E040E050E0BC01CD01E9
:102950000E94491FDA01C901F801918380830AE8C6
:1029600010E089819A819C0140E050E08C81882FA1
:1029700090E0A0E0B0E0BC01CD010E94391FDC0175
:10298000CB0124E630E040E050E0BC01CD010E94E4
:10299000491FDA01C901F801918380832C960FB693
:1029A000F894DEBF0FBECDBFDF91CF911F910F9185
:1029B00008950F931F93CF93DF9300D000D000D0E2
:1029C000CDB7DEB79A83898389819A81892B59F1A2
:1029D00089819A814F9720F48FE190E09A838983CF
:1029E00006E810E089819A81CC01A0E0B0E0880F70
:1029F000991FAA1FBB1F880F991FAA1FBB1F880FF3
:102A0000991FAA1FBB1F9C01AD0180E094E2A4EFB7
:102A1000B0E0BC01CD010E94491FDA01C901019754
:102A2000F8019183808326960FB6F894DEBF0FBE1F
:102A3000CDBFDF91CF911F910F910895CF93DF9379
:102A4000CDB7DEB788E890E0FC0180819181DF910D
:102A5000CF910895CF93DF93CDB7DEB78AE890E0AA
:102A6000FC0180819181DF91CF910895CF93DF9315
:102A7000CDB7DEB786E890E0FC0180819181DF91DF
:102A8000CF910895CF93DF931F92CDB7DEB789839F
:102A900089818093D7030F90DF91CF910895CF93D1
:102AA000DF93CDB7DEB78091D703DF91CF91089543
:102AB000CF93DF931F92CDB7DEB78983898180934F
:102AC000D8030F90DF91CF910895CF93DF93CDB7C7
:102AD000DEB78091D803DF91CF910895CF93DF9334
:102AE00000D0CDB7DEB79A83898389819A8190938C
:102AF000DA038093D9030F900F90DF91CF9108955F
:102B0000CF93DF93CDB7DEB78091D9039091DA03ED
:102B1000DF91CF910895CF93DF9300D000D0CDB750
:102B2000DEB769837A838B839C8389819A81AB81A9
:102B3000BC818093DB039093DC03A093DD03B0930F
:102B4000DE030F900F900F900F90DF91CF910895BB
:102B5000CF93DF93CDB7DEB78091DB039091DC0399
:102B6000A091DD03B091DE03BC01CD01DF91CF91D7
:102B70000895CF93DF9300D000D0CDB7DEB769833F
:102B80007A838B839C8389819A81AB81BC8180937A
:102B9000DF039093E003A093E103B093E2030F906F
:102BA0000F900F900F90DF91CF910895CF93DF9307
:102BB000CDB7DEB78091DF039091E003A091E103F0
:102BC000B091E203BC01CD01DF91CF910895CF9385
:102BD000DF9300D000D0CDB7DEB769837A838B83D3
:102BE0009C8389819A81AB81BC818093E30390931C
:102BF000E403A093E503B093E6030F900F900F90CA
:102C00000F90DF91CF910895CF93DF93CDB7DEB7CB
:102C10008091E3039091E403A091E503B091E60372
:102C2000BC01CD01DF91CF910895CF93DF9300D008
:102C300000D0CDB7DEB769837A838B839C8389818B
:102C40009A81AB81BC818093E7039093E803A093C2
:102C5000E903B093EA030F900F900F900F90DF916C
:102C6000CF910895CF93DF93CDB7DEB78091E7037F
:102C70009091E803A091E903B091EA03BC01CD0172
:102C8000DF91CF910895CF93DF9300D0CDB7DEB71A
:102C90009A83898389819A819093EC038093EB03D3
:102CA0000F900F90DF91CF910895CF93DF93CDB721
:102CB000DEB78091EB039091EC03DF91CF91089503
:102CC000CF93DF931F92CDB7DEB78983898180933D
:102CD000ED030F90DF91CF910895CF93DF93CDB7A0
:102CE000DEB78091ED03DF91CF910895CF93DF930D
:102CF0001F92CDB7DEB7898389818093EE030F9051
:102D0000DF91CF910895CF93DF93CDB7DEB7809158
:102D1000EE03DF91CF910895CF93DF931F92CDB74C
:102D2000DEB7898389818093EF030F90DF91CF9184
:102D30000895CF93DF93CDB7DEB78091EF03DF9196
:102D4000CF910895CF92DF92EF92FF920F931F934E
:102D5000CF93DF93CDB7DEB7A4970FB6F894DEBF5D
:102D60000FBECDBF988F8F8B498F5A8F6B8F7C8F03
:102D70000D8F1E8F2F8F38A3C9A2DAA2EBA2FCA25F
:102D80002D8D3E8D4F8D58A1698D7A8D8B8D9C8DAB
:102D90000E94021DDC01CB0189839A83AB83BC8333
:102DA0008F89988DFC01848D958DA68DB78DB05837
:102DB00029813A814B815C81BC01CD010E946F1D4C
:102DC0008823ACF48F89988DFC01848D958DA68D18
:102DD000B78D29813A814B815C81BC01CD010E9474
:102DE000C71E181624F419821A821B821C828F892E
:102DF000988DFC0180819181A281B38129813A81E2
:102E00004B815C81BC01CD010E94CC1EDC01CB0159
:102E10008D879E87AF87B88B1D821E821F82188682
:102E200020E030E0A90169A17AA18BA19CA10E94B8
:102E3000C71E181674F58F89988DFC01C084D18443
:102E4000E284F3848F89988DFC0184859585A6851D
:102E5000B7859C01AD0169817A818B819C810E943B
:102E6000021DDC01CB019C01AD01C701B6010E942E
:102E7000CC1EDC01CB0129A13AA14BA15CA1BC0174
:102E8000CD010E94741DDC01CB018D839E83AF8335
:102E9000B8872F89388D89819A81AB81BC81F901EE
:102EA00084879587A687B7878F89988DFC0180894D
:102EB0009189A289B3892D853E854F855889BC01AA
:102EC000CD010E94031DDC01CB012D813E814F818C
:102ED0005885BC01CD010E94031DDC01CB01898B0B
:102EE0009A8BAB8BBC8B8F89988DFC01808D918DDB
:102EF000A28DB38D29893A894B895C89BC01CD01AA
:102F00000E946F1D181674F020E030E0A90169815D
:102F10007A818B819C810E94C71E18161CF481E067
:102F200090E002C080E090E08D8B8D8981708D8B68
:102F30008F89988DFC0184899589A689B78929890B
:102F40003A894B895C89BC01CD010E94C71E882348
:102F500074F020E030E0A90169817A818B819C8145
:102F60000E946F1D88231CF481E090E002C080E085
:102F700090E08E8B8E8981708E8B9D8981E0892770
:102F80008823B1F19E8981E08927882389F18F897F
:102F9000988DFC01C088D188E288F3888F89988D4C
:102FA000FC0184819581A681B78129813A814B8179
:102FB0005C81BC01CD010E94CC1EDC01CB0129A1AA
:102FC0003AA14BA15CA1BC01CD010E94CC1EDC0149
:102FD000CB019C01AD01C701B6010E94031DDC01BC
:102FE000CB012F89388DF901808B918BA28BB38B0C
:102FF0008F89988DFC0180899189A289B3892D855B
:103000003E854F855889BC01CD010E94031DDC011E
:10301000CB012D813E814F815885BC01CD010E949D
:10302000031DDC01CB0189879A87AB87BC878F8919
:10303000988DFC01808D918DA28DB38D29853A8567
:103040004B855C85BC01CD010E946F1D88235CF41B
:103050008F89988DFC01808D918DA28DB38D89878C
:103060009A87AB87BC878F89988DFC018489958965
:10307000A689B78929853A854B855C85BC01CD0138
:103080000E94C71E18165CF48F89988DFC018489F4
:103090009589A689B78989879A87AB87BC878985EF
:1030A0009A85AB85BC85BC01CD01A4960FB6F8947A
:1030B000DEBF0FBECDBFDF91CF911F910F91FF906B
:1030C000EF90DF90CF900895CF92DF92EF92FF9232
:1030D0000F931F93CF93DF93CDB7DEB7A1970FB6B2
:1030E000F894DEBF0FBECDBF6A8F7B8F8C8F9D8F14
:1030F0002E8F3F8F48A359A32AE939E949E95EE3B6
:103100006A8D7B8D8C8D9D8D0E94021DDC01CB0113
:103110002E8D3F8D48A159A1BC01CD010E946F1D8C
:103120001816D4F02AE939E949E95EE36A8D7B8D06
:103130008C8D9D8D0E94031DDC01CB012E8D3F8D5A
:1031400048A159A1BC01CD010E94C71E882324F0CB
:1031500080E00E94761613C02A8D3B8D4C8D5D8DCC
:103160006E8D7F8D88A199A10E946F1D882324F404
:1031700081E00E94761603C082E00E9476160E94CB
:103180006D168B870E9455169D878C878C859D8533
:10319000CC01A0E0B0E0BC01CD010E94151EDC0115
:1031A000CB018E879F87A88BB98B9B8581E0892770
:1031B000882309F45FC182E6898382E68A8320E05E
:1031C00030E040E050E46E8D7F8D88A199A10E948F
:1031D0006F1D8823ACF482E6898382E68A8310928D
:1031E000B9011092BA011092BB011092BC01109269
:1031F000B5011092B6011092B7011092B80134C116
:103200002AE939E949E95EE36A8D7B8D8C8D9D8DD4
:103210000E94021DDC01CB012E853F85488959891A
:10322000BC01CD010E946F1D18165CF12AE939E935
:1032300049E95EE36A8D7B8D8C8D9D8D0E94031D17
:10324000DC01CB012E853F8548895989BC01CD0120
:103250000E94C71E8823ACF082E6898382E68A83B7
:103260001092B9011092BA011092BB011092BC01E8
:103270001092B5011092B6011092B7011092B801E8
:10328000F3C02A8D3B8D4C8D5D8D6E857F85888941
:1032900099890E94C71E18160CF06DC082E68983BA
:1032A0002E8D3F8D48A159A18E859F85A889B9890A
:1032B0000F2EFDECCF2EFCECDF2EED2CFDE3FF2ED0
:1032C000F02D89019A01AC01BD0189EA91E00E94CB
:1032D000A216DC01CB018A8B9B8BAC8BBD8B6A89E0
:1032E0007B898C899D890E94E61DDC01CB010E94AF
:1032F0008C162A893B894C895D8960E070E084ECFA
:1033000092E40E94021DDC01CB018B839C83AD8380
:10331000BE8320E030E044EC52E46B817C818D81FF
:103320009E810E94C71E181644F480E090E0A4EC31
:10333000B2E48B839C83AD83BE8320E030E040EA1F
:1033400050E46B817C818D819E810E946F1D88235A
:1033500044F480E090E0A0EAB0E48B839C83AD83EA
:10336000BE836B817C818D819E810E94E61DDC0184
:10337000CB018A8379C02A8D3B8D4C8D5D8D6E8506
:103380007F85888999890E946F1D88230CF06CC005
:1033900082E68A832E853F85488959898E8D9F8D47
:1033A000A8A1B9A10F2EFDECCF2EFCECDF2EED2C49
:1033B000FDE3FF2EF02D89019A01AC01BD0189EAE0
:1033C00091E00E94A216DC01CB018E8B9F8BA88F0F
:1033D000B98F6E897F89888D998D0E94E61DDC01E9
:1033E000CB010E948C162E893F89488D598D60E053
:1033F00070E084EC92E40E94021DDC01CB018F831B
:103400009887A987BA8720E030E044EC52E46F81C6
:10341000788589859A850E94C71E181644F480E035
:1034200090E0A4ECB2E48F839887A987BA8720E064
:1034300030E040EA50E46F81788589859A850E9462
:103440006F1D882344F480E090E0A0EAB0E48F830D
:103450009887A987BA876F81788589859A850E9420
:10346000E61DDC01CB01898389810E9442158A8196
:103470000E945815A1960FB6F894DEBF0FBECDBFBF
:10348000DF91CF911F910F91FF90EF90DF90CF9040
:103490000895CF93DF93CDB7DEB70E94A815DC0166
:1034A000CB018093F0039093F103A093F203B093C8
:1034B000F3030E94D615DC01CB018093F4039093B3
:1034C000F503A093F603B093F7030E940416DC0102
:1034D000CB018093F8039093F903A093FA03B09380
:1034E000FB030E943216DC01CB018093FC03909316
:1034F000FD03A093FE03B093FF03DF91CF910895E6
:10350000CF93DF93CDB7DEB78091F4039091F503AD
:10351000A091F603B091F703BC01CD01DF91CF91EB
:103520000895CF93DF93CDB7DEB78091FC039091E0
:10353000FD03A091FE03B091FF03BC01CD01DF911B
:10354000CF910895CF93DF93CDB7DEB72A970FB60B
:10355000F894DEBF0FBECDBF6B837C838D839E83CB
:1035600080E492E4AFE0B0E02B813C814D815E814C
:10357000BC01CD010E94491FDA01C90101979A835C
:10358000898385EC90E029813A81232F3327FC0140
:10359000208384EC90E02981FC01208381EC90E081
:1035A00028E9FC01208382EC90E026E0FC012083E6
:1035B0002A960FB6F894DEBF0FBECDBFDF91CF9134
:1035C0000895CF93DF931F92CDB7DEB780910104AA
:1035D000882F90E08B569B4FFC01808189838091DE
:1035E00001048F5F8F778093010489810F90DF91B1
:1035F000CF910895CF93DF9300D0CDB7DEB78A8304
:10360000809102048F5F8F7789830000809103048B
:1036100099819817D9F380910204882F90E08B5EEE
:103620009B4F2A81FC012083898180930204809131
:103630000404882361F481E08093040481EC90E029
:1036400021EC30E0F90120812062FC0120830F9001
:103650000F90DF91CF910895CF93DF9300D0CDB736
:10366000DEB79091000480910104981778F0809162
:103670000004282F30E080910104882F90E0A901F8
:10368000481B590BCA019A83898310C0809100049A
:10369000282F30E080910104882F90E0A901481B79
:1036A000590BCA0180589F4F9A83898389819A81D7
:1036B0000F900F90DF91CF910895CF93DF931F92DA
:1036C000CDB7DEB7898380910104282F30E089814E
:1036D000882F90E0820F931F8F770F90DF91CF910B
:1036E0000895CF93DF931F92CDB7DEB78983898189
:1036F000882F90E08B569B4FFC0180810F90DF91CB
:10370000CF910895CF93DF9300D0CDB7DEB786EC8D
:1037100090E0FC0180818983809100048F5F8F7726
:103720008A83809101049A81981761F08091000446
:10373000882F90E08B569B4F2981FC0120838A8142
:10374000809300040F900F90DF91CF910895CF9355
:10375000DF93CDB7DEB790910204809103049817F0
:1037600061F481EC90E021EC30E0F90120812F7DC3
:10377000FC0120831092040412C086EC90E020919A
:103780000304222F30E02B5E3B4FF9012081FC0126
:103790002083809103048F5F8F7780930304DF91F0
:1037A000CF9108951F920F9200905F000F92112405
:1037B0002F933F934F935F936F937F938F939F9339
:1037C000AF93BF93EF93FF93CF93DF93CDB7DEB764
:1037D0000E94821BDF91CF91FF91EF91BF91AF913A
:1037E0009F918F917F916F915F914F913F912F9119
:1037F0000F9000925F000F901F9018951F920F92EC
:1038000000905F000F9211242F933F934F935F938B
:103810006F937F938F939F93AF93BF93EF93FF9398
:10382000CF93DF93CDB7DEB70E94A71BDF91CF9177
:10383000FF91EF91BF91AF919F918F917F916F9188
:103840005F914F913F912F910F9000925F000F90E9
:103850001F901895CF93DF9300D0CDB7DEB78A8342
:103860008A8189838981882F90E088709927892BA4
:1038700011F088E201C088E099819770892B982F18
:1038800088E10FB6F894A895809360000FBE9093DE
:1038900060000F900F90DF91CF910895CF93DF9349
:1038A000CDB7DEB7A895DF91CF910895CF93DF9381
:1038B000CDB7DEB780E090E088709927892B11F0B2
:1038C00088E201C088E090E09770892B982F88E10A
:1038D0000FB6F894A895809360000FBE9093600097
:1038E000FFCFEFEFF0E083E08083608381E090E042
:1038F000089589E094E00E94EE1CE5E0F4E0138274
:10390000128286E792E0918380830895CF92DF92BE
:10391000EF92FF920F931F93CF93DF936C017A0185
:103920008B01C0E0D0E0CE15DF0589F0D8016D91A4
:103930008D01D601ED91FC910190F081E02DC60141
:103940000995892B11F47E0102C02196ECCFC701A5
:10395000DF91CF911F910F91FF90EF90DF90CF906B
:1039600008956115710579F0FB0101900020E9F7D8
:103970003197AF01461B570BDC01ED91FC910280A2
:10398000F381E02D099480E090E00895DC01ED9151
:10399000FC910190F081E02D09946AE772E00C94AB
:1039A000B11CFC0153834283648315820895CF9335
:1039B000DF93EC018A819B81009769F06F8161112F
:1039C0000E94C61C8C81882331F08A819B81DF9103
:1039D000CF910C94CD1CDF91CF910895FC018DE81F
:1039E00092E0918380831382128214821582168260
:1039F000178282E090E0918780878AE090E0938749
:103A0000828708955058BB27AA270E941A1D0C943C
:103A10008D1E0E947F1E38F00E94861E20F039F411
:103A20009F3F19F426F40C947C1E0EF4E095E7FBFE
:103A30000C94761EE92F0E949E1E58F3BA17620757
:103A400073078407950720F079F4A6F50C94C01E3F
:103A50000EF4E0950B2EBA2FA02D0B01B9019001A9
:103A60000C01CA01A0011124FF27591B99F0593FED
:103A700050F4503E68F11A16F040A22F232F342F35
:103A80004427585FF3CF469537952795A795F04083
:103A90005395C9F77EF41F16BA0B620B730B840B98
:103AA000BAF09150A1F0FF0FBB1F661F771F881F50
:103AB000C2F70EC0BA0F621F731F841F48F48795A8
:103AC00077956795B795F7959E3F08F0B0CF93959A
:103AD000880F08F09927EE0F9795879508950E9413
:103AE000521E08F481E008950E94881D0C948D1EDA
:103AF0000E94861E58F00E947F1E40F029F45F3F0E
:103B000029F00C94761E51110C94C11E0C947C1E4D
:103B10000E949E1E68F39923B1F3552391F3951BE0
:103B2000550BBB27AA2762177307840738F09F5FDE
:103B30005F4F220F331F441FAA1FA9F335D00E2E4B
:103B40003AF0E0E832D091505040E695001CCAF7B8
:103B50002BD0FE2F29D0660F771F881FBB1F26177B
:103B600037074807AB07B0E809F0BB0B802DBF0152
:103B7000FF2793585F4F3AF09E3F510578F00C9421
:103B8000761E0C94C11E5F3FE4F3983ED4F38695F5
:103B900077956795B795F7959F5FC9F7880F911D42
:103BA0009695879597F90895E1E0660F771F881F2E
:103BB000BB1F621773078407BA0720F0621B730BE1
:103BC000840BBA0BEE1F88F7E09508950E94A61E9D
:103BD00088F09F5798F0B92F9927B751B0F0E1F0CE
:103BE000660F771F881F991F1AF0BA95C9F714C07E
:103BF000B13091F00E94C01EB1E008950C94C01E37
:103C0000672F782F8827B85F39F0B93FCCF38695B6
:103C100077956795B395D9F73EF490958095709513
:103C200061957F4F8F4F9F4F0895E89409C097FB90
:103C30003EF490958095709561957F4F8F4F9F4F83
:103C40009923A9F0F92F96E9BB279395F6958795C7
:103C500077956795B795F111F8CFFAF4BB0F11F48A
:103C600060FF1BC06F5F7F4F8F4F9F4F16C0882331
:103C700011F096E911C0772321F09EE8872F762F67
:103C800005C0662371F096E8862F70E060E02AF0A8
:103C90009A95660F771F881FDAF7880F9695879594
:103CA00097F90895990F0008550FAA0BE0E8FEEF69
:103CB00016161706E807F907C0F012161306E407F0
:103CC000F50798F0621B730B840B950B39F40A26E9
:103CD00061F0232B242B252B21F408950A2609F4C7
:103CE000A140A6958FEF811D811D089597F99F67CB
:103CF00080E870E060E008959FEF80EC0895002474
:103D00000A941616170618060906089500240A9440
:103D100012161306140605060895092E0394000CC6
:103D200011F4882352F0BB0F40F4BF2B11F460FF55
:103D300004C06F5F7F4F8F4F9F4F089557FD90587E
:103D4000440F551F59F05F3F71F04795880F97FB5F
:103D5000991F61F09F3F79F0879508951216130619
:103D60001406551FF2CF4695F1DF08C01616170648
:103D70001806991FF1CF869571056105089408957D
:103D8000E894BB2766277727CB0197F908950E940F
:103D9000521E08F48FEF08950E94DF1E0C948D1EB2
:103DA0000E947F1E38F00E94861E20F0952311F09D
:103DB0000C94761E0C947C1E11240C94C11E0E943F
:103DC0009E1E70F3959FC1F3950F50E0551F629FA3
:103DD000F001729FBB27F00DB11D639FAA27F00D64
:103DE000B11DAA1F649F6627B00DA11D661F829F8B
:103DF0002227B00DA11D621F739FB00DA11D621F70
:103E0000839FA00D611D221F749F3327A00D611D8C
:103E1000231F849F600D211D822F762F6A2F11246E
:103E20009F5750409AF0F1F088234AF0EE0FFF1FA1
:103E3000BB1F661F771F881F91505040A9F79E3FF8
:103E4000510580F00C94761E0C94C11E5F3FE4F384
:103E5000983ED4F3869577956795B795F795E7954E
:103E60009F5FC1F7FE2B880F911D9695879597F957
:103E70000895DB018F939F930E946B1FBF91AF91B9
:103E8000A29F800D911DA39F900DB29F900D1124B4
:103E90000895A1E21A2EAA1BBB1BFD010DC0AA1F8B
:103EA000BB1FEE1FFF1FA217B307E407F50720F0A3
:103EB000A21BB30BE40BF50B661F771F881F991F1E
:103EC0001A9469F760957095809590959B01AC0167
:103ED000BD01CF0108950E947C1FA59F900DB49F46
:103EE000900DA49F800D911D11240895EE0FFF1FCA
:103EF0000590F491E02D0994A29FB001B39FC001F9
:103F0000A39F700D811D1124911DB29F700D811D05
:103F10001124911D0895F999FECF92BD81BDF89AA3
:103F2000992780B50895A8E1B0E042E050E00C94F4
:103F3000B31F262FF999FECF92BD81BDF89A019744
:103F400000B4021639F01FBA20BD0FB6F894FA9AE1
:103F5000F99A0FBE08950196272F0E949A1F0C947C
:103F6000991FDC01CB01FC01F999FECF06C0F2BD1F
:103F7000E1BDF89A319600B40D9241505040B8F727
:063F80000895F894FFCF44
:103F86000000150580000101010101010000011A70
:103F960000000000000000830C0101011A0000006F
:103FA60000000001830C0102011A0000000000005D
:103FB60002830C0103011A00000000000003830CB9
:103FC6000110011A00000000000000830C0211011C
:103FD6001A00000000000001830C0212011A000002
:103FE6000000000002830C0213011A00000000000A
:103FF6000003830C0220011A000000000000008369
:104006000C0421011A00000000000001830C0322A9
:10401600011A00000000000002830C0423011A00AC
:10402600000000000003830C039A99593F9A9919DE
:104036003ECDCC4C3D00000000000000000000A07A
:10404600400000C442CDCC4C3E00010203000102F8
:10405600020001005A06B9060000D206010102015B
:10406600000100E006010700000000020101000057
:10407600010027073A0700000000030101000001C4
:10408600004E076107000000000401010000010066
:1040960077078B0700000000050101000001009D65
:1040A60007B1070000000006010100000100C30778
:1040B600D6070000000007010100000100E807FB29
:1040C6000700000000080101000001000D0820089B
:1040D6000000000009010100000100320845080047
:1040E6000000001001010000010057086A080000E6
:1040F600000000000000711C861C0D0A006E616E37
:1041060000696E66006F76660000000000D11CD75D
:024116001C008B
:00000001FF
